:100000000C945C050C9442250C941A250C948405E0
:100010000C9484050C9484050C9484050C9484053C
:100020000C9484050C9484050C9484050C9484052C
:100030000C9484050C9484050C9484050C9484051C
:100040000C94B1230C9484050C947F230C945923B5
:100050000C9484050C9484050C9484050C948405FC
:100060000C94FB230C948405000103070F1F3F7FB2
:100070000080C0E0F0F8FCFE00000000003E5B4F96
:100080005B3E3E6B4F6B3E1C3E7C3E1C183C7E3CF8
:10009000181C577D571C1C5E7F5E1C00183C180006
:1000A000FFE7C3E7FF0018241800FFE7DBE7FF3096
:1000B000483A060E2629792926407F050507407F04
:1000C00005253F5A3CE73C5A7F3E1C1C08081C1C77
:1000D0003E7F14227F22145F5F005F5F06097F016D
:1000E0007F006689956A606060606094A2FFA29458
:1000F00008047E040810207E201008082A1C080826
:100100001C2A08081E101010100C1E0C1E0C303873
:100110003E3830060E3E0E06000000000000005F74
:1001200000000007000700147F147F14242A7F2A90
:100130001223130864623649562050000807030052
:10014000001C2241000041221C002A1C7F1C2A089E
:10015000083E080800807030000808080808000001
:1001600060600020100804023E5149453E00427F75
:10017000400072494949462141494D331814127FC4
:100180001027454545393C4A494931412111090764
:100190003649494936464949291E000014000000E5
:1001A00040340000000814224114141414140041B7
:1001B00022140802015909063E415D594E7C121174
:1001C000127C7F494949363E414141227F414141AC
:1001D0003E7F494949417F090909013E4141517327
:1001E0007F0808087F00417F41002040413F017F98
:1001F000081422417F404040407F021C027F7F0460
:1002000008107F3E4141413E7F090909063E4151A8
:10021000215E7F09192946264949493203017F0198
:10022000033F4040403F1F2040201F3F4038403F99
:10023000631408146303047804036159494D4300AF
:100240007F4141410204081020004141417F0402E6
:10025000010204404040404000030708002054547D
:1002600078407F284444383844444428384444285B
:100270007F385454541800087E090218A4A49C78AE
:100280007F0804047800447D40002040403D007F0A
:100290001028440000417F40007C047804787C08EA
:1002A0000404783844444438FC18242418182424BE
:1002B00018FC7C08040408485454542404043F44A3
:1002C000243C4040207C1C2040201C3C4030403CD2
:1002D00044281028444C9090907C4464544C440032
:1002E0000836410000007700000041360800020196
:1002F0000204023C2623263C1EA1A161123A404082
:10030000207A3854545559215555794122545478FE
:1003100042215554784020545579400C1E52721297
:100320003955555559395454545939555454580020
:1003300000457C410002457D420001457C407D1224
:1003400011127DF0282528F07C5455450020545486
:100350007C547C0A097F4932494949323A44444431
:100360003A324A4848303A4141217A3A424020786C
:10037000009DA0A07D3D4242423D3D4040403D3C6D
:1003800024FF2424487E4943662B2FFC2F2BFF0992
:1003900029F620C0887E0903205454794100004486
:1003A0007D413048484A32384040227A007A0A0A71
:1003B000727D0D19317D2629292F282629292926E4
:1003C00030484D4020380808080808080808382F29
:1003D00010C8ACBA2F102834FA00007B00000814B3
:1003E0002A142222142A14085500550055AA55AA89
:1003F00055AAFF55FF55FF000000FF00101010FF29
:1004000000141414FF001010FF00FF1010F010F083
:10041000141414FC001414F700FF0000FF00FF1474
:1004200014F404FC141417101F10101F101F1414C0
:10043000141F00101010F0000000001F101010100A
:100440001F10101010F010000000FF1010101010FE
:1004500010101010FF10000000FF140000FF00FF3C
:1004600000001F10170000FC04F4141417101714D8
:1004700014F404F40000FF00F714141414141414FA
:10048000F700F7141414171410101F101F1414146D
:10049000F4141010F010F000001F101F0000001FD7
:1004A00014000000FC140000F010F01010FF10FF0A
:1004B000141414FF141010101F00000000F010FF9F
:1004C000FFFFFFFFF0F0F0F0F0FFFFFF0000000083
:1004D00000FFFF0F0F0F0F0F3844443844FC4A4A07
:1004E0004A347E02020606027E027E0263554941BC
:1004F000633844443C04407E201E2006027E0202F3
:1005000099A5E7A5991C2A492A1C4C7201724C3006
:100510004A4D4D303048784830BC625A463D3E49DD
:100520004949007E0101017E2A2A2A2A2A44445F81
:10053000444440514A444040444A51400000FF0175
:1005400003E080FF000008086B6B08361236243683
:10055000060F090F060000181800000010100030E8
:1005600040FF0101001F01011E00191D1712003C70
:100570003C3C3C0000000000005EBCE2613FDD83CB
:10058000C29C7E20A3FD1F41009D23BE46DB65F873
:100590008C11AF32CA57E974000000080002010054
:1005A000000304070000000000000000000000003D
:1005B000240027002A00DB40A4A62EAFDA0281DA4D
:1005C0001281DA02818F2000A1C8D300408DAED500
:1005D00080A800000000250028002B00000060001B
:1005E00000000000000000000000000000E000002B
:1005F000000000000000000000000001E00000001A
:100600000000000000000000000001F000000000F9
:1006100000000000000000000003F00000000000E7
:10062000000000000000000007F0000000000000D3
:100630000000000000000007F800000000000000BB
:100640000000000000000FF800000003C0007E0062
:100650000001E0007F0FF800000003C000FE000072
:1006600001E000FFEFF800000003C000FE00000101
:10067000E000FFFFF800000003C000F00000000FE2
:10068000007FFE7FC0000003C000F00000000F00EC
:100690003FFE7FF83FF1FBCFFCFEF3BC3DEFE01FD8
:1006A000FE7FFF7FFBFFDFFEFEFFBC3DEFE01FC6CE
:1006B000FFFF7FFBFFDFFEFEFFBC3DEFE00FE3C768
:1006C000FE787BC3DE1EF0FFBC3DEF0007FF87FC1A
:1006D000787BC3DE1EF0F83C3DEF0001FFFFF00029
:1006E0007BC3C01EF0F03C3DEF0001F37FE03FFB19
:1006F000C3CFFEF0F03C3DEF0003E33F807FFBC340
:10070000DFFEF0F03C3DEF0007E73C00787BC3DE06
:100710001EF0F03C3DEF0007FFBE00787BC3DE1EFD
:10072000F0F03C3DEF0007FFFE00787BC3DE1EF0DB
:10073000F03C3DEF000FFFFE007FFBFFDFFEF0F01F
:100740003FFDEFE00FFFFF007FFBFFDFFEF0F03F1C
:10075000FDEFE00FF9FF003E79F9CF9EF0F01F3D6D
:10076000E7E01FF1FF0000000000000000000000B3
:10077000001F80FF007FFFFFFFFFFFFFFFFFFFE085
:100780001C007F007FFFFFFFFEB46D888D18E00026
:10079000001F007FFFFFFFFE95AD7DB577E00000F5
:1007A0000F007FFFFFFFFEA5AD9D8D19E000000645
:1007B000007FFFFFFFFEB5ADEDB57EE0000000005D
:1007C0000001800000000000000000000380000025
:1007D0000000000000000007C00000000000000052
:1007E000000007C00000000000000000000FC00073
:1007F00000000000000000001FE0000000000000FA
:100800000000001FE00000000000000000003FE0CA
:100810000000000000000000003FF00000000000A9
:10082000000000007FF0000000000000001FF87FC3
:10083000F0000000000000003FFE7FF0000000001C
:100840000000003FFF7FF0000000000000001FFFDD
:10085000FBE0000000000000000FFFF9FFC00000F7
:10086000000000000FFFF9FFF80000000000000783
:10087000FFF1FFFF00000000000003FC73FFFF809A
:10088000000000000001FE3FFFFF800000000000AC
:1008900000FF1E0FFF000000000000007FFE1FFC95
:1008A000000000000000003FFFFFF8000000000013
:1008B00000000FDFFFE0000000000000001F19FF34
:1008C000C0000000000000003F3CFF0000000000EE
:1008D0000000007E7CF800000000000000007FFEA9
:1008E0007C0000000000000000FFFFFC0000000092
:1008F00000000000FFFFFE0000000000000000FFFD
:10090000FFFE0000000000000001FFEFFE000000FD
:100910000000000001FFCFFE000000000000000307
:10092000FF07FE0000000000000003FC07FE0000BF
:10093000000000000003F003FE00000000000000C3
:10094000018000FE000000000000000000007E00AA
:100950000000000000000000003E00000000000059
:10096000000000000C000000000000078000FC00F8
:100970000003C0000000078001FC000003C000006D
:1009800000078001FC000003C0000000078001E0B8
:100990000000001E000000078001E00000001E00B3
:1009A0007FE3F79FF9FDE7787BDFC0FFF7FFBFFD2F
:1009B000FDFF787BDFC0FFF7FFBFFDFDFF787BDF2A
:1009C000C0F0F787BC3DE1FF787BDE00F0F787BC25
:1009D0003DE1F0787BDE0000F787803DE1E0787B49
:1009E000DE007FF7879FFDE1E0787BDE00FFF78781
:1009F000BFFDE1E0787BDE00F0F787BC3DE1E07809
:100A00007BDE00F0F787BC3DE1E0787BDE00F0F7AD
:100A100087BC3DE1E0787BDE00FFF7FFBFFDE1E052
:100A20007FFBDFC0FFF7FFBFFDE1E07FFBDFC07CA6
:100A3000F3F39F3DE1E03E7BCFC0000000000000EB
:100A40000000000000FFFFFFFFFFFFFFFFFFFFC0F0
:100A5000FFFFFFFFFD68DB111A31C0FFFFFFFFFD45
:100A60002B5AFB6AEFC0FFFFFFFFFD4B5B3B1A33C6
:100A7000C0FFFFFFFFFD6B5BDB6AFDC02200FF21B3
:100A80000001020408102040800102040810200127
:100A900002040810200000000023002600290004A2
:100AA0000404040404040402020202020203030315
:100AB000030303006A256A2F11241FBECFEFD8E07D
:100AC000DEBFCDBF12E0A0E0B1E0E8E2F7E602C091
:100AD00005900D92A036B107D9F724E0A0E6B2E068
:100AE00001C01D92A438B207E1F715E0CBE5D5E0CF
:100AF00004C02197FE010E94A231CA35D107C9F76F
:100B00000E9425270C9487330C94000091E0909369
:100B100047038093460310924503109244030895BF
:100B200090913B039111FCCF91E090933B03909304
:100B30003A032FEF2093390310923803260F2093A6
:100B400037039093360390913603880F892B809357
:100B50003603809135038130F9F41092350380918A
:100B600036038093BB008091BC0083FDF8CF85ECF9
:100B70008093BC0080913B038130E1F38091380386
:100B8000861710F460913803A5E1B3E0E5EFF2E0D9
:100B900080E0861303C0089585EEEACF9D9191937E
:100BA0008F5FF7CF8091F3029091F402891B990B2C
:100BB0000895089508950895AF92BF92CF92DF925D
:100BC000EF92FF920F931F93CF93DF936C017B0102
:100BD0008B01040F151FEB015E01AE18BF08C01793
:100BE000D10759F06991D601ED91FC910190F08106
:100BF000E02DC6010995892B79F7C501DF91CF91C9
:100C00001F910F91FF90EF90DF90CF90BF90AF902A
:100C10000895FC01538D448D252F30E0842F90E002
:100C2000821B930B541710F0CF96089501970895E7
:100C3000FC01918D828D981761F0A28DAE0FBF2FB0
:100C4000B11D5D968C91928D9F5F9F73928F90E006
:100C500008958FEF9FEF0895FC01918D828D981775
:100C600031F0828DE80FF11D858D90E008958FEFB2
:100C70009FEF0895FC01918D228D892F90E0805C7B
:100C80009F4F821B91098F739927089588E493E001
:100C90000E943A0621E0892B09F420E0822F089572
:100CA00080E090E0892B29F00E94460681110C9487
:100CB00000000895FC01A48DA80FB92FB11DA35AFF
:100CC000BF4F2C91848D90E001968F739927848F6C
:100CD000A689B7892C93A089B1898C91837080648F
:100CE0008C93938D848D981306C00288F389E02D30
:100CF00080818F7D80830895EF92FF920F931F93E1
:100D0000CF93DF93EC0181E0888F9B8D8C8D9813BE
:100D10001AC0E889F989808185FF15C09FB7F894CA
:100D2000EE89FF896083E889F98980818370806416
:100D300080839FBF81E090E0DF91CF911F910F9161
:100D4000FF90EF900895F62E0B8D10E00F5F1F4F70
:100D50000F731127E02E8C8D8E110CC00FB607FC7F
:100D6000FACFE889F989808185FFF5CFCE010E940D
:100D70005A06F1CFEB8DEC0FFD2FF11DE35AFF4F1B
:100D8000F0829FB7F8940B8FEA89FB89808180629B
:100D9000CFCFCF93DF93EC01888D8823B9F0AA8958
:100DA000BB89E889F9898C9185FD03C0808186FD26
:100DB0000DC00FB607FCF7CF8C9185FFF2CF808175
:100DC00085FFEDCFCE010E945A06E9CFDF91CF918A
:100DD0000895833081F028F4813099F08230A9F0B1
:100DE00008958730A9F08830C9F08430B1F480913B
:100DF00080008F7D03C0809180008F77809380007A
:100E0000089584B58F7784BD089584B58F7DFBCF19
:100E10008091B0008F778093B00008958091B000EA
:100E20008F7DF9CFCF93DF93282F30E0F901E8567B
:100E3000FA4F8491F901EF57F54FD491F901E1563A
:100E4000F54FC491CC23A1F081110E94E906EC2F4B
:100E5000F0E0EE0FFF1FEB56F54FA591B491EC912A
:100E6000ED2381E090E009F480E0DF91CF910895D7
:100E700080E090E0FACF1F93CF93DF93282F30E0EC
:100E8000F901E856FA4F8491F901EF57F54FD491E3
:100E9000F901E156F54FC491CC23A9F0162F811129
:100EA0000E94E906EC2FF0E0EE0FFF1FEE52FA4F22
:100EB000A591B4918FB7F894EC91111108C0D09519
:100EC000DE23DC938FBFDF91CF911F910895DE2B3E
:100ED000F8CF1092F4021092F30210924503109290
:100EE000440310923B0381E080933A031092350350
:100EF00061E082E10E943B0761E083E10E943B07E1
:100F0000E9EBF0E080818E7F808380818D7F80831C
:100F100088E48093B80085E48093BC0089ED95E077
:100F20009093F2028093F1028AED95E09093F002A3
:100F30008093EF020895CF93DF9390E0FC01EF5789
:100F4000F54F24918156954FFC0184918823C9F077
:100F500090E0880F991FFC01E455FA4FA591B491D8
:100F6000FC01EE52FA4FC591D49161110DC09FB7AB
:100F7000F8948C91209582238C9388812823288350
:100F80009FBFDF91CF910895623051F49FB7F894DD
:100F90003C91822F809583238C93E8812E2BEFCF79
:100FA0008FB7F894EC912E2B2C938FBFEACF209122
:100FB000000190E4299F900111248E50822B809390
:100FC0007C0080917A00806480937A0080917A001E
:100FD00086FDFCCF809178009091790008953FB70D
:100FE000F8948091D4029091D502A091D602B0914C
:100FF000D70226B5A89B05C02F3F19F00196A11D69
:10100000B11D3FBFBA2FA92F982F8827BC01CD0152
:10101000620F711D811D911D42E0660F771F881FB1
:10102000991F4A95D1F708958F929F92AF92BF92E0
:10103000CF92DF92EF92FF926B017C010E94EF074B
:101040004B015C01C114D104E104F104B9F00E9428
:10105000EF07681979098A099B09683E7340810581
:10106000910580F321E0C21AD108E108F10888EE69
:10107000880E83E0981EA11CB11CE4CFFF90EF9076
:10108000DF90CF90BF90AF909F908F9008952FB733
:10109000F8946091D0027091D1028091D202909127
:1010A000D3022FBF0895DC0180E0615090F09D9144
:1010B0009827E92FEF70F0E0E858FA4F2491E92FD4
:1010C000E295EF70F0E0E857FA4FE491822F8E2717
:1010D000ECCF0895DC012C911196ED91FC91F894E0
:1010E0008181822B81839281322F30959323928349
:1010F00087E090E00197F1F781818323818383E288
:1011000090E00197F1F790817894EFECF0E031975F
:10111000F1F7922381E009F480E00895FC019081C9
:101120000180F281E02D292F209560FF14C0F894F2
:101130008281822382838181892B8183A3E2B0E033
:101140001197F1F78281982B9283789487ED90E044
:101150000197F1F70895F894828182238283818137
:10116000892B8183AFEFB0E01197F1F78281982B43
:10117000928378948FE090E0EBCFDF92EF92FF9232
:101180000F931F93CF93DF93EC01D62EE42E08E04C
:1011900010E0FF24F39461E08D2D8F2109F460E0CD
:1011A000CE010E948E08FF0C01501109A1F7E11039
:1011B00010C0F894E981FA81918188818095892312
:1011C0008183E981FA819281888180958923828354
:1011D0007894DF91CF911F910F91FF90EF90DF9066
:1011E0000895EF92FF920F931F93CF93DF938C019B
:1011F0007B0140E065E50E94BD08E70188E0E80E5C
:10120000F11C699140E0C8010E94BD08CE15DF05C0
:10121000C1F7DF91CF911F910F91FF90EF9008954B
:10122000FC0190810180F281E02DF8948181292FC9
:1012300020958223818378943DE743E050E031504C
:1012400029F1DA011197F1F780818923C1F3F8942C
:101250008281822382838181892B81837894ABE789
:10126000B7E01197F1F7F894818182238183A3E19C
:10127000B1E01197F1F78081982381E009F080E0D7
:101280007894E3E6F6E03197F1F7089580E0089569
:10129000AF92BF92CF92DF92EF92FF920F931F9384
:1012A000CF93DF938B01BC018091EF039091F0030A
:1012B0000E94F10840E06EEB8091EF039091F00303
:1012C0000E94BD08E801680189E0C80ED11CA09009
:1012D000EF03B090F00388E0E82EF12C10E001E07D
:1012E000C5010E946A088111102B000F81E0E81AE5
:1012F000F108B1F71993CC16DD0649F78091EF0399
:101300009091F0030E94100991E0813009F090E083
:10131000892FDF91CF911F910F91FF90EF90DF9078
:10132000CF90BF90AF9008950F931F93CF93DF930B
:10133000CDB7DEB729970FB6F894DEBF0FBECDBF8D
:101340008C018091EF039091F0030E9410098111AC
:1013500002C080E01FC0BE016F5F7F4FC8010E94C6
:1013600048098823B1F368E0CE0101960E94530832
:1013700099858913EECF8D818F33B9F020F48F31A9
:1013800041F789E007C08F3521F08F3711F78CE0E6
:1013900001C08BE029960FB6F894DEBF0FBECDBF1B
:1013A000DF91CF911F910F9108958AE0F3CF0895B7
:1013B000FC016370668B8481958126813781613061
:1013C00039F0633029F09187808733872287089529
:1013D000318720879387828708952F923F924F927B
:1013E0005F926F927F928F929F92AF92BF92CF92B5
:1013F000DF92EF92FF920F931F93CF93DF93CDB7BE
:10140000DEB76A970FB6F894DEBF0FBECDBF9A8FD6
:10141000898F7A8369834A01D22E18870F83370117
:10142000BC2CDC0159962D913C915A972115310520
:1014300009F015C118968D919C9119976817790735
:101440000CF0D7C11A968D919C91481759070CF052
:10145000D0C14C2C512CB6E0CB9E600D711D1124D7
:101460007C876B87161617060CF0C3C1EA2DF0E0D7
:10147000FA87E98793E0EE0FFF1F9A95E1F7F88B63
:10148000EF87CF01840F951F181619060CF0B1C114
:10149000A98DBA8D58968C91811104C0BFEABD15F3
:1014A00008F4D394A98DBA8DED91FC911197028423
:1014B000F385E02DCD010995B5E0DB9EC001112437
:1014C000E981FA81FC83EB83312C212C9C01285883
:1014D0003F4F388F2F8B4A2D50E05E8B4D8BEF891D
:1014E000F88DE20DF31D44919E828D82D12CC12C8A
:1014F00069817A81620D731D7A8B698B842F90E0EC
:101500009C8B8B8BE98DFA8DA081B18140FF82C0CD
:10151000F1E0BF126FC0AF126DC01C96ED91FC914F
:101520002F813885A4014C0D5D1D69897A89898DCB
:101530009A8D0995EB89FC89F595E7954E2F5FEF1C
:10154000C51AD50A6D817E818D899E89680F791FA4
:101550007E836D8398E0C916D10481F6AFEF2A1A15
:101560003A0AEB81FC81E40DF51DFC83EB83F5E089
:101570002F16310409F0B3CF2F8138852615370592
:10158000B9F0A98DBA8DED91FC91B1E0BB1257C0B5
:10159000AB1255C069817A816B5F7F4F0088F189FA
:1015A000E02D830128E030E0A401898D9A8D099512
:1015B000A98DBA8DED91FC9111970688F789E02DE0
:1015C000CD016A960FB6F894DEBF0FBECDBFDF9196
:1015D000CF911F910F91FF90EF90DF90CF90BF9030
:1015E000AF909F908F907F906F905F904F903F90C3
:1015F0002F9009941E96ED91FC91EF80F884098557
:101600001A8592014D815E816B817C81898D9A8DD5
:10161000099590CF2F8138852615370509F48ACF93
:1016200031E0B31207C0A31205C01C96ED91FC91E6
:10163000930178CF1E96ED91FC917301E0CF6B85FD
:101640007C85641975090684F785E02D73010F8583
:1016500018899201A401898D9A8D0995A9CFF90164
:1016600034969491329745915491D91AB7E0DB9E04
:10167000400D511D1124F901259134913C8B2B8B88
:10168000FA0125903490FA01329674903196349193
:10169000398B329664903196449041E04C1518F0A5
:1016A0004A1508F07FC0662D062C000C770B7C8352
:1016B0006B83842D042C000C990B9E838D83A98D44
:1016C000BA8DED91FC9111970284F385E02DCD0147
:1016D0000995512CD12CC12CEA2DF0E0FA87E9872D
:1016E0002B2D30E03C872B87A401440D511D47FC76
:1016F0005A95588F4F8B69817A81660D711D67FCF1
:101700007A957E876D877989C71608F051CF2C2D81
:1017100030E04D815E81420F531FA985BA854A9FF3
:10172000C0014B9F900D5A9F900D1124FC01E80DB4
:10173000F91DF88BEF87852D612C4F89588D420F4D
:10174000531F5E8B4D8B671408F050C044244394A4
:10175000480E877041F4C1010196EB89FC89E20DC6
:10176000F31DD4901C01D7FE19C0A98DBA8DED913F
:10177000FC91662D70E0B1E0BB1219C0AB1217C02E
:101780002D853E85620F731F0484F585E02D2F8122
:1017900038854D895E89898D9A8D0995DD0C639414
:1017A000842DD1CF1E821D821C821B8288CF4B814B
:1017B0005C81640F751FAB85BC856A9FC0016B9F00
:1017C000900D7A9F900D112469817A81680F791F9D
:1017D0000684F785E02DEF80F88409851A859D0140
:1017E0004F855889898D9A8D0995D8CF570CC39408
:1017F0008ACF6A960FB6F894DEBF0FBECDBFDF91D9
:10180000CF911F910F91FF90EF90DF90CF90BF90FD
:10181000AF909F908F907F906F905F904F903F9090
:101820002F9008958F929F92AF92CF92EF92FF9256
:101830000F931F93CF93DF93EC01262F898D9A8D01
:10184000009709F051C06A30D1F41D861C868D893D
:1018500048E0849F900111248E859F85820F931FFD
:101860009F878E8781E090E0DF91CF911F910F914C
:10187000FF90EF90CF90AF909F908F9008956D3034
:1018800089F3CC88AD888F898823C1F08C859D85AC
:1018900036E0C39E800D911D112448855985481757
:1018A000590764F44E855F851D861C8638E0A39E2B
:1018B000C0011124840F951F9F878E87EA88FB88BB
:1018C000088919894E855F856C857D85CE010E94CA
:1018D000ED092C898C859D8546E0249F800D911D06
:1018E00011249D878C87BECF6A3069F41D861C86C3
:1018F000FC013696E4912D898E859F85E29F800DAF
:10190000911D1124ADCF6D3009F4ACCFFC0134969C
:101910003491631708F4A6CF3196E491E61708F4E2
:10192000A1CFFC01329685909490462F431B342F13
:1019300047E0349F800C911C1124F40132963491BD
:101940003196E4913323A9F1EE2399F1CC88F40187
:101950003596E491AD884F89442301F10E2E000C99
:10196000FF0BE30FF11DCE9EA001CF9E500D112461
:101970006C857D85460F571F6885798564177507C7
:101980006CF44E855F851D861C86FC013696E491BD
:10199000AE9E400D511D11245F874E87EA88FB885B
:1019A000088919894E855F856C857D85CE010E94E9
:1019B000ED09F4013496E4912C898C859D85E29F94
:1019C000800D911D11248DCF682F87E194E00C9438
:1019D000120C6F927F928F929F92AF92BF92CF9292
:1019E000DF92EF92FF920F931F93CF93DF93EC015F
:1019F0006B015A0139014801E881F9810284F385BC
:101A0000E02D0995E881F9810288F389E02D8701AD
:101A10009301A501B601CE010995A501480D591DF7
:101A200041505109E881F9810288F389E02D930141
:101A3000B601CE010995E881F9810088F189E02D90
:101A40009401A501B601CE010995C60CD71CB601BB
:101A500061507109E881F9810088F189E02D9401D4
:101A6000A501CE010995E881F9810688F789E02D65
:101A7000CE01DF91CF911F910F91FF90EF90DF90FA
:101A8000CF90BF90AF909F908F907F906F90099470
:101A90006F927F928F929F92AF92BF92CF92DF927E
:101AA000EF92FF920F931F93CF93DF935C01EB01B3
:101AB0006A01490138018701DC01ED91FC9162174F
:101AC000730719F5641675062CF0962D872D3A01CB
:101AD000C92ED82E9601261937092F5F3F4F048C47
:101AE000F58DE02DA301BE01C5010995DF91CF91D0
:101AF0001F910F91FF90EF90DF90CF90BF90AF902C
:101B00009F908F907F906F9008954615570591F4A0
:101B10002617370724F0892D4B01C22FD82F9E019D
:101B2000281939092F5F3F4F068CF78DE02DA6014C
:101B3000B401DACF0284F385E02D0995D501ED914A
:101B4000FC910488F589E02D83019401A601BE0172
:101B5000C5010995D501ED91FC910688F789E02D25
:101B6000C501DF91CF911F910F91FF90EF90DF9012
:101B7000CF90BF90AF909F908F907F906F9009947F
:101B8000EF92FF920F931F93DC011A960D911C9117
:101B90001B9718962D913C911997ED91FC9100A0FF
:101BA000F1A1E02D7B0150E040E070E060E009959C
:101BB0001F910F91FF90EF9008954F925F926F9257
:101BC0007F928F929F92AF92BF92CF92DF92EF92CD
:101BD000FF920F931F93CF93DF936C012B015A0158
:101BE00039014801DC01ED91FC910284F385E02D7F
:101BF0000995E201640C751CD601ED91FC91C615A6
:101C0000D7055CF40088F189E02D87019401A501D6
:101C1000BE01C60109952196EFCF0688F789E02D10
:101C2000C601DF91CF911F910F91FF90EF90DF9050
:101C3000CF90BF90AF909F908F907F906F905F906C
:101C40004F9009948F929F92AF92BF92CF92DF9262
:101C5000EF92FF920F931F93CF93DF93EC015B0101
:101C60004A016901E881F9810284F385E02D099533
:101C700095012C0D3D1D21503109E881F981048821
:101C8000F589E02D78018401A401B501CE01099503
:101C9000E881F9810688F789E02DCE01DF91CF91A7
:101CA0001F910F91FF90EF90DF90CF90BF90AF907A
:101CB0009F908F9009948F929F92AF92BF92CF92F4
:101CC000DF92EF92FF920F931F93CF93DF93EC017C
:101CD0005B014A0169017801E881F9810284F38599
:101CE000E02D0995C80CD91C860101501109E88125
:101CF000F9810488F589E02D9501A401B501CE0193
:101D00000995E881F9810688F789E02DCE01DF91F8
:101D1000CF911F910F91FF90EF90DF90CF90BF90E8
:101D2000AF909F908F900994EF92FF920F931F9323
:101D3000DC01ED91FC9100A0F1A1E02D09951F912E
:101D40000F91FF90EF9008950F931F93DC01ED9199
:101D5000FC91068CF78DE02D09951F910F91089548
:101D60000F931F93DC01ED91FC91048CF58DE02D18
:101D700009951F910F910895DC01ED91FC9100846C
:101D8000F185E02D09943F924F925F926F927F927E
:101D90008F929F92AF92BF92CF92DF92EF92FF927B
:101DA0000F931F93CF93DF935C017B014A0169017D
:101DB000390187E0680E711C93E0759467949A95D9
:101DC000E1F72B01400E511E10E000E0312CD0E075
:101DD000C0E0CE0187709927330C892B59F4FE019E
:101DE00083E0F595E7958A95E1F7E00FF11FE80D9F
:101DF000F91D349037FE0AC021E030E0A701B5019B
:101E00006C0F7D1F87E194E00E94BC0E2196CC16DA
:101E1000DD06F9F68FEFE81AF80A060D171DE4142F
:101E2000F504A9F6DF91CF911F910F91FF90EF90EC
:101E3000DF90CF90BF90AF909F908F907F906F90EA
:101E40005F904F903F9008952F923F924F925F92F4
:101E50006F927F928F929F92AF92BF92CF92DF92BA
:101E6000EF92FF920F931F93CF93DF9300D000D098
:101E700000D0CDB7DEB73C016A013E832D83FC82E2
:101E8000EB825801A41AB50AB7FE03C0B194A1941D
:101E9000B1088D809E80861A970A97FE03C09194A0
:101EA000819491088A149B045CF0902F812F0D81FE
:101EB0001E819D838E839C2D8D2D6B01692F782F24
:101EC0000C151D055CF09D818E817E836D83692FCD
:101ED000782F902F812F8601C92ED82E1601201A17
:101EE000310A2B012D813E81421A530A57FE03C04D
:101EF000519441945108710137FE03C03FEFE31A3A
:101F0000F30AF594E7948D819E81861797075CF517
:101F1000A1E0B0E0BA83A983C016D1064CF1D30189
:101F2000ED91FC910484F585E02D2B813C81A80185
:101F30006D817E818A149B041CF04D815E81B80105
:101F4000C3010995E418F508F7FE0AC02D813E810A
:101F500089819A81280F391F3E832D83E20CF31C5F
:101F60000F5F1F4FD9CF2FEF3FEF3A832983D4CF95
:101F700026960FB6F894DEBF0FBECDBFDF91CF918E
:101F80001F910F91FF90EF90DF90CF90BF90AF9097
:101F90009F908F907F906F905F904F903F902F9089
:101FA000089585ED8093BC008091BC0084FDFCCF3A
:101FB00010923B0308952091AC02260F3327331F64
:101FC00021323105ECF420913B03FC0190E080E0EC
:101FD000243069F082E00895A091AC022191AC0117
:101FE00044575D4FA40FB52FB11D2C930196861752
:101FF00098F38091AC02680F6093AC0280E0089582
:1020000081E00895E091F4028091F302E81730F442
:10201000F0E0EB50FD4F808190E008958FEF9FEF4F
:1020200008959091F4028091F3022FEF3FEF9817FB
:1020300048F4E92FF0E0EB50FD4F208130E09F5F46
:102040009093F402C9010895CF92DF92EF92FF922C
:102050000F931F93CF93DF937C01CB018A012091D3
:102060004703222389F0EB016B01C40ED51ECC156A
:10207000DD0569F06991D701ED91FC910190F08146
:10208000E02DC7010995F3CF642F0E94DB0FC80133
:10209000DF91CF911F910F91FF90EF90DF90CF9044
:1020A0000895CF93DF931F92CDB7DEB76983209158
:1020B00047032223F9F020914403203258F021E015
:1020C00030E0FC013383228390E080E00F90DF91C9
:1020D000CF91089580914503E82FF0E0E459FD4F3A
:1020E000998190838F5F809345038093440381E0BF
:1020F00090E0ECCF61E0CE0101960E94DB0FF7CFBC
:10210000682F8BE094E00C9451102091440381E0FF
:10211000213208F044C080913B038111FCCF8091B3
:10212000460392E090933B0391E090933A039FEF34
:10213000909339031092380320933703ACE6B2E052
:10214000E5E1F3E090E0291331C01092360390915D
:102150003603880F892B80933603809135038130B5
:1021600049F510923503809136038093BB0080912E
:10217000BC0083FDF8CF85EC8093BC0080913B03CD
:102180008230E1F3809139038F3FB1F080913903C0
:102190008032A1F080913903803391F084E0109275
:1021A0004503109244031092470308953D913193E3
:1021B0009F5FC9CF85EEE0CF80E0F1CF82E0EFCF27
:1021C00083E0EDCFCF9388E60E94860560E08BE048
:1021D00094E00E94511060E88BE094E00E9451105E
:1021E00080913D03CAE06C2F0E9482318295807FEE
:1021F000682F690F8BE094E00E94511080913E039C
:102200006C2F0E9482318295807F682F690F8BE04E
:1022100094E00E94511080913F036C2F0E94823104
:102220008295807F682F690F8BE094E00E945110A7
:10223000809140036C2F0E9482318295807F682FAD
:10224000690F8BE094E00E945110809141036C2F44
:102250000E9482318295807F682F690F8BE094E025
:102260000E945110809142038E516C2F0E94823146
:102270008295807F682F690F8BE094E00E94511057
:102280008BE094E00E948510882329F0109243038C
:1022900080E0CF91089581E08093430388E60E9417
:1022A000860560E08BE094E00E94511080913C0331
:1022B0006C2F0E9482318295807F682F690F8BE09E
:1022C00094E00E9451108BE094E00E9485108111EF
:1022D000DDCF81E0DECFAF92BF92DF92EF92FF922F
:1022E0000F931F93CF93DF938B01040F151FEB0107
:1022F0005C01A61AB70A7501EC0EFD1ED9908091FB
:102300007F040E9486058F2D90E00E948010C701F7
:1023100099270E9480106D2D8BE094E00E9451104F
:102320008BE094E00E9485106AE070E080E090E02D
:102330000E941408C017D107F1F6DF91CF911F91C9
:102340000F91FF90EF90DF90BF90AF900895EF92C4
:10235000FF920F931F93CF93DF93EC01EC80FD80EE
:102360006E157F050CF070C057FF04C0240F351F99
:1023700050E040E08E819F81FA01E20FF31F8E173B
:102380009F071CF49C01241B350B121613060CF03E
:102390005BC0922F842F8695869586958E9DD00161
:1023A0008F9DB00D11246A0F7B1FAF8DB8A1A60FB2
:1023B000B71F477049F188E0841B482F682F70E0F1
:1023C000FB01E059FF4FE491281708F063C0621B3E
:1023D00071092FEF30E002C0359527956A95E2F735
:1023E000E2230130110539F0B0F10230110561F539
:1023F0008C91E82702C08C91E82BEC93941720F184
:102400002C813D81A20FB31FE92FE41BE83078F047
:102410000230110521F58E2F9C9190959C932C8173
:102420003D81A20FB31F88508830B0F7E770EE23CC
:1024300059F0F0E0E859FF4FE49101301105F9F04F
:1024400010F10230110519F1DF91CF911F910F9119
:10245000FF90EF900895E0958C91E823CECF81E036
:102460000115110509F480E081959E2F8C932C8134
:102470003D81A20FB31F98509830C0F7D7CF8C91F1
:10248000E82BEC93E1CFE0958C91E823FACF8C9187
:10249000E827F7CF0130110509F4ADCFE0F20230A3
:1024A000110509F4A5CFAE0DBF1DAECF0F931F933D
:1024B000CF93DF9377FF04C0260F371F70E060E0F3
:1024C000DC011496CD91DC91FB01E20FF31FCE17D6
:1024D000DF071CF49E01261B370B121613064CF562
:1024E000FA0157FD3796A3E0F595E795AA95E1F730
:1024F000EC9FD001ED9FB00DFC9FB00D11246A0F31
:102500007B1FDC015F96ED91FC91E60FF71F477092
:10251000552781E090E001C0880F4A95EAF7482FDF
:102520000130110559F0A8F02E0F3F1F02301105A0
:10253000E1F0DF91CF911F910F9108952E0F3F1F72
:10254000E217F307B1F38191DF011197842B8C938C
:10255000F7CF80952E0F3F1FE217F30751F39191AC
:10256000DF01119798239C93F7CFE217F30709F344
:102570008191DF01119784278C93F7CF0F931F93DD
:10258000FA01DC0156964C9156974230E9F04330FF
:10259000A1F1413061F514964D915C91DA01AE1BC9
:1025A000BF0BFD01E21BF30B77FD0BC0DC011696A0
:1025B0004D915C916417750724F4AB01BF010E9433
:1025C00056121F910F91089514964D915C91DA0166
:1025D000A61BB70BBD0161507109DC0116964D9128
:1025E0005C91DA01AE1BBF0BFD01E21BF30B77FD23
:1025F000E8CFAF010E94A711E4CF16964D915C91F0
:10260000DA01A61BB70BBD0161507109CDCF0F9345
:102610001F93FA01DC0156964C9156974230A9F06F
:10262000433091F1413019F514964D915C91DA01E6
:10263000AE1BBF0BFD013197F7FD04C0AB01BF011D
:102640000E94A7111F910F91089514964D915C91CE
:10265000DA01A61BB70BBD01DC0116964D915C910A
:10266000DA01AE1BBF0BFD013197621B730BF7FD47
:10267000E9CFDC0116964D915C91E417F50714F74C
:10268000AF010E945612DECF16964D915C91DA0191
:10269000A61BB70BBD01621B730BCECFFC0177FDF0
:1026A00064C080859185681779070CF05EC057FD7E
:1026B0005CC082859385481759070CF056C08689FF
:1026C0008230B1F0833029F1813041F484819581E9
:1026D000841B950BAB01BC016150710921303105A0
:1026E00009F108F443C02230310509F463C00895AC
:1026F00084819581DC01A61BB70BBD016150710976
:1027000086819781DC01A41BB50BAD0141505109B5
:10271000E5CF86819781861B970BBA01AC014150AA
:102720005109DCCFCA0157FD0796A3E0959587951F
:10273000AA95E1F7A481B5818A9F90018B9F300D06
:102740009A9F300D1124620F731F078CF0A1E02DAA
:10275000E60FF71F4770552721E030E001C0220F38
:102760004A95EAF78081822B80830895CA0157FD3C
:10277000079633E0959587953A95E1F7A481B58161
:102780008A9F90018B9F300D9A9F300D1124620F0C
:10279000731F078CF0A1E02DE60FF71F4770552738
:1027A00081E090E001C0880F4A95EAF7809590811A
:1027B0008923DACFCA0157FD079623E095958795BF
:1027C0002A95E1F7A481B5818A9F90018B9F300DF6
:1027D0009A9F300D1124620F731F078CF0A1E02D1A
:1027E000E60FF71F4770552721E030E001C0220FA8
:1027F0004A95EAF780818227B7CF08958EBD000001
:102800000DB407FEFDCF8EB50895FF920F931F9371
:10281000CF93DF93F82ED92FC62F80913404909157
:102820003504892B09F447C0809138040E9486053D
:102830008091340490913504DC01ED91FC9101907C
:10284000F081E02D60E009950F2D1D2FD1E0C150E2
:102850008091340490913504CF3F31F1D03298F01B
:102860000E948510809138040E948605809134046E
:1028700090913504DC01ED91FC910190F081E02D07
:1028800060E00995D1E08091340490913504F8011D
:102890006491DC01ED91FC910190F081E02D0995AE
:1028A000DF5F0F5F1F4FD3CFDF91CF911F910F914C
:1028B000FF900C948510E0914404F09145049081C0
:1028C00080914A048095892380830F2D1D2FC1504C
:1028D00008F438C0F8018491209132043091330417
:1028E000232B29F00E94FE130F5F1F4FF0CF28E02B
:1028F00030E040E8E0914004F091410490914804B8
:10290000582F5423D9F05081952B9083E0914204A5
:10291000F0914304908150914904952B9083E0916C
:102920004204F0914304508190914904909595237D
:102930009083469521503109E9F6D6CF5081909584
:102940009523E3CFDF91CF911F910F91FF900895D1
:102950001F93CF93DF93EC018D8D9E8D892BF9F022
:10296000162F89A10E9486058D8D9E8DDC01ED912B
:10297000FC910190F081E02D60E009958D8D9E8D98
:10298000DC01ED91FC910190F081E02D612F099522
:102990008D8D9E8DDF91CF911F910C948510ADA5EB
:1029A000BEA59C918BA9809589238C938B8D9C8D42
:1029B000892B31F0862FDF91CF911F910C94FE135C
:1029C00028E030E080E8A9A5BAA599A9462F4823B8
:1029D000C1F04C91942B9C93ABA5BCA59C914AA9AA
:1029E000942B9C93ABA5BCA54C919AA9909594234C
:1029F0009C9386952150310931F7DF91CF911F913A
:102A000008954C9190959423E6CF8CBD9DBD08957B
:102A1000FF920F931F93CF93DF9380913404909193
:102A20003504892B09F472C08CE08093B80065E00E
:102A30008CE79AE00E94051460911B04615087E1C5
:102A400094E00E94A81420911D0430911E04C90135
:102A5000079697FD079623E0959587952A95E1F7C8
:102A600020911B0430911C04829F8001839F100DD4
:102A7000929F100D1124C0913604D091370480919B
:102A80003404909135040C0F1D1F892B09F47CC070
:102A9000809138040E948605809134049091350419
:102AA000DC01ED91FC910190F081E02D60E409954D
:102AB000FF24F39480913404909135040C171D0782
:102AC000E1F1BFE1BF15A0F40E94851080913804A8
:102AD0000E9486058091340490913504DC01ED91CB
:102AE000FC910190F081E02D60E40995FF24F394BE
:102AF00080913404909135046991DC01ED91FC9151
:102B00000190F081E02D0995F394D4CF80913204A7
:102B100090913304892B31F080914C0490914D04B5
:102B20000E940515E0914604F09147049081809140
:102B30004B048095892380837ACF0E9485108091F1
:102B4000340490913504892B09F45FC020914E0420
:102B500030914F04409150045091510460E074E270
:102B600084EF90E00E94A32F2051310941095109BF
:102B700056954795379527952093B800DF91CF91CB
:102B80001F910F91FF900895E0914404F091450446
:102B9000808190914A04892B80830C171D0779F25C
:102BA00089912091320430913304232B19F00E9433
:102BB000FE13F3CF28E030E040E8E0914004F091CC
:102BC000410490914804582F5423D9F05081952BFB
:102BD0009083E0914204F091430490815091490424
:102BE000952B9083E0914204F091430450819091A1
:102BF0004904909595239083469521503109E9F633
:102C0000CCCF508190959523E3CFE0914604F0918D
:102C10004704808190914B04892B8083AFCF1F9311
:102C2000CF93DF93EC01162F8D8D9E8D892B29F18B
:102C30008CE08093B80066EA111167EACE010E9429
:102C4000A8148D8D9E8D892B41F12FA938AD49ADEA
:102C50005AAD60E074E284EF90E00E94A32F20510F
:102C60003109410951095695479537952795209384
:102C7000B800DF91CF911F9108958B8D9C8D892B8A
:102C800021F08DA99EA90E940515EFA5F8A99081B4
:102C90008CA9809589238083CECFEFA5F8A9808168
:102CA0009CA9892B8083E5CF089590E080E008956A
:102CB0008093BB0084E88093BC008091BC0087FFB8
:102CC000FCCF9091B900987F81E0983231F0983133
:102CD00029F0903419F080E008950895089584EA69
:102CE0008093BC008091BC0087FFFCCF8091B9002D
:102CF000887F19F080EC0C94581680E008955F925C
:102D00006F927F928F929F92AF92BF92CF92DF92FB
:102D1000EF92FF920F931F93CF93DF93CDB7DEB760
:102D2000582E742E652EB62E922E0E946F16852D6B
:102D30000E9458168D2D0E9458168C2D0E945816F0
:102D40008B2D8370A82A80E081108CE08A290E9454
:102D50005816862D0E945816872D0E9458168CE012
:102D6000F694E794D794C7948A95D1F78C2D807FF9
:102D7000C82E892D8F708C290E945816812F0E9491
:102D80005816802F0E94581684E98093BC008091C9
:102D9000BC0084FDFCCFDF91CF911F910F91FF907C
:102DA000EF90DF90CF90BF90AF909F908F907F90EB
:102DB0006F905F9008954F925F926F927F928F9283
:102DC0009F92AF92BF92CF92DF92EF92FF920F93BA
:102DD0001F93CF93C82FC0907604D0907704E090D3
:102DE0007804F0907904CB01BA01A70196010E9402
:102DF000A32F49015A0125E0F694E794D794C7948C
:102E00002A95D1F735E096958795779567953A9508
:102E1000D1F747E0660F771F881F991F4A95D1F7B2
:102E2000A70196010E94A32F29013A018B019C0161
:102E3000B501A401552766277727E7E0440F551F02
:102E4000661F771FEA95D1F7525061097109440D49
:102E5000551D661D771D812CA12C8C2F0E947F167D
:102E6000CF911F910F91FF90EF90DF90CF90BF9087
:102E7000AF909F908F907F906F905F904F9008954C
:102E80008F92AF92CF92DF92EF92FF920F931F93A8
:102E900088248394443051056105710509F0812C23
:102EA0004450510961097E4F97E0440F551F661F3A
:102EB000771F9A95D1F7A22EC12CD12C7601C394FD
:102EC00000E010E098010E947F161F910F91FF9083
:102ED000EF90DF90CF90AF908F900895CF93DF93D6
:102EE000D82FC62F0E946F168D2F0E9458168C2F38
:102EF0000E94581684E98093BC008091BC0084FD38
:102F0000FCCFDF91CF910895CF93C82F60E880E187
:102F10008C0F0E946E17EC2FF0E0EE0FFF1FE25AAD
:102F2000FB4F11821082CF9108952F923F924F92C2
:102F30005F926F927F928F929F92AF92BF92CF9249
:102F4000DF92EF92FF920F931F93CF93DF9300D006
:102F500000D01F92CDB7DEB7898380916E04909127
:102F60006F04A0917004B0917104892B8A2B8B2B74
:102F700019F481E00E948417809172049091730487
:102F8000A0917404B0917504892B8A2B8B2B19F4B2
:102F900082E00E94841740906E0450906F0460900D
:102FA000700470907104411451046104710409F4B7
:102FB0007FC12981222309F4A5C0C0906004D0906C
:102FC0006104F12CE12C409165044983A301920135
:102FD000C701B6010E9472319B01AC018981E82FC3
:102FE000F0E0E15CFE4FA081B0E00E94982F4B0121
:102FF0005C01DC01CB0180589545A84CB042813082
:10300000924CAB4EBB4008F446C0609120017091D9
:1030100021018091220190912301A30192010E943C
:10302000A32F69017A0181E044E0C416D104E104D0
:10303000F10408F489C086E0C816D104E104F10463
:1030400008F49BC019829DE2C91691E0D906E104FB
:10305000F10440F029812F5F2983F694E794D794F7
:10306000C794F1CF4981411103C0E894C0F8198297
:10307000A3019201C701B6010E9472319B01AC010C
:103080008981E82FF0E0E15CFE4FA081B0E00E9472
:10309000982F4B015C01B501A40182E20E94DB166E
:1030A0008091600490916104B0E0A0E08C159D05D2
:1030B000AE05BF0529F48091650499818917D1F087
:1030C00029812295207FB701A60182E30E94401743
:1030D000609168046C6681E10E946E17D092610471
:1030E000C092600429812093650480917E048068E9
:1030F00080937E0480927A0490927B04A0927C0458
:10310000B0927D04C0907204D0907304E090740477
:10311000F0907504C114D104E104F10409F4B0C0C5
:1031200080907A0490907B04A0907C04B0907D0401
:10313000C501B401A70196010E94A32F28303105D3
:103140004105510500F582E00F900F900F900F9010
:103150000F90DF91CF911F910F91FF90EF90DF9033
:10316000CF90BF90AF909F908F907F906F905F9027
:103170004F903F902F900C94841704E0C02ED12CD8
:10318000E12CF12C72CF1D8221343105410551050E
:1031900060F08D818F5F8D83CC0CDD1CEE1CFF1CDD
:1031A0005695479537952795EFCFC501B401A701EF
:1031B00096010E94A32F29833A834B835C832FEFD0
:1031C0003FEF4FE050E00E94AF3156016701E12C24
:1031D000F12C00E010E00E94DC3129013A019D81D0
:1031E0009295907F9D83C12CD12C7601C39441147C
:1031F00051046104710431F0CC24CA94DC2CFFE04A
:10320000EF2EF12CC301B20127E0660F771F881F54
:10321000991F2A95D1F7A70196010E94A32F490172
:103220005A018B019C0149815A816B817C81552710
:1032300066277727E7E0440F551F661F771FEA953B
:10324000D1F7525061097109480D591D6A1D7B1D46
:10325000812CAD808AE30E947F168CE445284628A5
:10326000472809F08CE0609169046062682B82E174
:103270000E946E1781E090E0909363048093620453
:103280000F900F900F900F900F90DF91CF911F91A3
:103290000F91FF90EF90DF90CF90BF90AF909F90F5
:1032A0008F907F906F905F904F903F902F900895F8
:1032B0008090720490907304A0907404B090750490
:1032C00081149104A104B104D9F2C0906204D09099
:1032D0006304F12CE12C209166042983A50194015B
:1032E000C701B6010E9472319B01AC018981E82FB0
:1032F000F0E0E15CFE4FA081B0E00E94982F8B01CE
:103300009C0100581545284C30420130124C2B4E80
:103310003B4008F443C060912001709121018091ED
:10332000220190912301A50194010E94A32F69011C
:103330007A0184E0C816D104E104F10408F403CF53
:1033400096E0C916D104E104F10408F458C01982CA
:103350002DE2C21621E0D206E104F10440F04981D9
:103360004F5F4983F694E794D794C794F1CF89814E
:10337000811103C0E894C0F81982A5019401C70126
:10338000B6010E9472319B01AC019981E92FF0E0F6
:10339000E15CFE4FA081B0E00E94982FAB01BC0120
:1033A00082E20E94DB168091620490916304B0E097
:1033B000A0E08C159D05AE05BF0531F48091660433
:1033C0002981821709F45CCF29812295207FB701DA
:1033D000A6018AE30E944017609169046C6682E14D
:1033E0000E946E17D0926304C09262044981409398
:1033F000660480917E04806880937E0441CF84E0DF
:10340000C82ED12CE12CF12CB5CF4F925F926F9248
:103410007F92AF92BF92CF92DF92EF92FF920F9383
:103420001F93CF93DF93D82F082F10E0F801EE0FF2
:10343000FF1FEE0FFF1FE659FB4F40805180628057
:103440007380411451046104710489F48D2FDF915C
:10345000CF911F910F91FF90EF90DF90CF90BF9091
:10346000AF907F906F905F904F900C9484175801AD
:10347000AA0CBB1CF501E25AFB4FC080D180F12C95
:10348000E12C025A1B4FF801C681A3019201C7012A
:10349000B6010E9472319B01AC01EC2FF0E0E15CBF
:1034A000FE4FA081B0E00E94982F9B01AC012058F4
:1034B0003545484C50422130324C4B4E5B4008F46D
:1034C0003FC0609120017091210180912201909173
:1034D0002301A30192010E94A32F69017A0184E0D4
:1034E000C816D104E104F10408F4B0CFE6E0CE162A
:1034F000D104E104F10408F470C0C0E0FDE2CF168D
:10350000F1E0DF06E104F10430F0CF5FF694E794D8
:10351000D794C794F3CFC11103C0E894C0F8C0E0BA
:10352000A3019201C701B6010E9472319B01AC0157
:10353000EC2FF0E0E15CFE4FA081B0E00E94982FFC
:103540002AE1D11122E2AB01BC01822F0E94DB16DD
:10355000F501E25AFB4F80819181B0E0A0E08C152B
:103560009D05AE05BF0521F4F80186818C1731F168
:103570002C2F2295207FB701A6018D2F880F880F51
:10358000880F865D0E944017F801618580E0D111A7
:1035900080E26C64682B80E18D0F0E946E17F5014C
:1035A000E25AFB4FD182C082F801C68380917E042B
:1035B00090E2D11190E8892B80937E04DF91CF9126
:1035C0001F910F91FF90EF90DF90CF90BF90AF9041
:1035D0007F906F905F904F90089584E0C82ED12C1B
:1035E000E12CF12C9ACFFF920F931F93CF93DF938F
:1035F00000D0CDB7DEB7EAE0F1E010E000E0819165
:10360000080F111D81E0E731F807C9F74DE050E0E0
:103610006AE071E082E090E00E946B110F5F1F4F43
:103620001A83098342E050E0BE016F5F7F4F90E054
:1036300080E00E946B11E7E1F1E08EE191E010E0A3
:1036400000E02191020F111D8E179F07D1F7809185
:103650000B0199E0F92E8F9DC001112447E050E045
:1036600067E171E041960E946B110F5F1F4F1A8353
:10367000098380910B018F9DC001112442E050E02D
:10368000BE016F5F7F4F0F960E946B110F900F90DE
:10369000DF91CF911F910F91FF90089580911101BB
:1036A00090911201092E000CAA0BBB0B8054934081
:1036B000A446BE4F8093760490937704A093780439
:1036C000B093790480E00E94051A82E00C94051AF8
:1036D0008F929F92AF92BF92CF92DF92EF92FF9222
:1036E000CF938091170190911801A0911901B09189
:1036F0001A01C0900D01D0900E01E0900F01F090E2
:10370000100180906E0490906F04A0907004B090AF
:103710007104C1E081149104A104B10409F4C0E072
:1037200040916A0450916B0460916C0470916D0437
:10373000813826E9920728E9A207B10508F44AC0B2
:103740008C199D09AE09BF0910927E048417950754
:10375000A607B70759F080936A0490936B04A0936F
:103760006C04B0936D0480E00E94051A89288A28B1
:103770008B2869F48091720490917304A091740471
:10378000B09175048C159D05AE05BF0599F010929A
:103790006E0410926F041092700410927104C09223
:1037A0007204D0927304E0927404F09275048C2F2A
:1037B0000E94951760917E04662389F081EBCF917A
:1037C000FF90EF90DF90CF90BF90AF909F908F9041
:1037D0000C946E178C0D9D1DAE1DBF1DB5CFCF91E6
:1037E000FF90EF90DF90CF90BF90AF909F908F9021
:1037F00008958EE00E94D7072091130130E0DC018C
:103800000E94A8312FEF33E040E050E00E94792F72
:1038100020936B02089580E10E94D70724E630E0F0
:10382000DC010E94A8312FEF33E040E050E00E941D
:10383000792F20936A020895DC01ED91FD9180813A
:10384000ED91FD919081ED91FD916C9163708E23CE
:1038500009F064609F2309F06860E9E3FCE1E60F8A
:10386000F11D659565956D936D917D918D919D91FE
:10387000099423C01AC012C016C010C01EC009C0CF
:1038800014C013C006C019C009C00DC007C00DC0C8
:1038900014C062507040804090400BC06150704036
:1038A0008040904006C06E5F01C06F5F7F4F8F4FBA
:1038B0009F4F9E938E937E936E930895BF92CF9267
:1038C000DF92EF92FF920F931F93CF93DF93EC0160
:1038D000B62EC72E8D85811105C0CE010E9410091C
:1038E00081110EC01B861D861C8680E0DF91CF9162
:1038F0001F910F91FF90EF90DF90CF90BF900895B0
:1039000040E060EFCE010E94BD0801E0E12CD12C27
:1039100011E0CE010E946A08F82ECE010E946A08CA
:1039200091E0F91218C0813099F51134D8F2DB8694
:10393000D11002C081E08D878B81882399F2239674
:10394000EB2DFC2DCF01089629912193E817F9075B
:10395000D9F781E0CBCFEE2DF0E0F8120FC08B85C8
:103960001817A0F4DE01AE0FBF1F13968C918023B1
:1039700079F4F12C193008F41C87D12EEC0FFD1FBF
:103980008381902F9095892383830AC08113F1CF7F
:10399000FE01EE0DF11D8381802B8383FF24F394C0
:1039A0006F2DCE010E948E081F5F000F11F4E3946B
:1039B00001E087E08E1508F0ACCFB7CF4F925F9251
:1039C0006F927F928F929F92AF92BF92CF92DF922F
:1039D000EF92FF920F931F93CF93DF93CDB7DEB794
:1039E00061970FB6F894DEBF0FBECDBF0E944708A7
:1039F000C0906502D0906602E0906702F090680285
:103A00006C197D098E099F096938734181059105FB
:103A100008F458C080916402811154C01092EB03E5
:103A20008091EF039091F0030E94100940E06CEC4C
:103A30008091EF039091F0030E94BD084091E9034B
:103A400064E48091EF039091F0030E94BD0880919F
:103A5000EB03882391F1E091EA03E9500EEE12E0C6
:103A6000E33038F4F0E0EE0FFF1FE35DFE4F00811E
:103A700011818091EC03882309F481C08091E903CE
:103A800081117DC00E9447084B015C012801110F84
:103A9000660877088091EF039091F0030E946A080E
:103AA000813059F00E944708641975098609970901
:103AB000681579058A059B0568F381E08093EB031F
:103AC000809364020E9447086C197D098E099F0942
:103AD00061347F4181059105D8F18091640288238A
:103AE000B9F110911501E091EF03F091F003138605
:103AF0001586148612861186108617821682158204
:103B000014821382BE01665F7F4F8091EF03909114
:103B1000F0030E945E1C811139C060E070E08EEFFE
:103B200092EC20E030E040E05FE30E94D52F0E945D
:103B30004130160F109369020E9447086093650296
:103B400070936602809367029093680210926402F9
:103B500061960FB6F894DEBF0FBECDBFDF91CF9157
:103B60001F910F91FF90EF90DF90CF90BF90AF909B
:103B70009F908F907F906F905F904F900895B801C5
:103B8000110F880B990B0E94140897CF67E0CE01A4
:103B90000A960E94530899898913BFCF8091EF0339
:103BA0009091F0030E941009882309F4B6CFBE015A
:103BB0006F5F7F4FCE010A960E944809882309F45F
:103BC000ACCF68E0CE0101960E9453089985891315
:103BD000A4CF6A8170E0762F6627770F770F770F73
:103BE000298158E0259F90011124262B372B8A85A7
:103BF0008031D1F4688570E08F81AB01481B510999
:103C0000CA019695982F8827979587950E948E319F
:103C1000CB014097B90153E0660F771F5A95E1F742
:103C200060789C01260F371F213854EE35070CF4BD
:103C300074CFB901330F880B990B0E94793020E0C3
:103C400030E040E05CE30E9405316BCF0F931F939F
:103C5000CF93DF938091DD02882359F010923C03CB
:103C60000E94E2101092DD02DF91CF911F910F911F
:103C700008950E944708009160021091610220910E
:103C8000620230916302601B710B820B930B693EE1
:103C900073408105910520F4012B022B032B21F7A2
:103CA0000E944708609360027093610280936202F1
:103CB0009093630288E60E94860560E08BE094E0C2
:103CC0000E9451108BE094E00E948510882391F0AF
:103CD0001092430380914303882331F210923E03F4
:103CE00010923D0310923C03DF91CF911F910F91F1
:103CF0000C94E21081E08093430367E088E60E9421
:103D000090051092F4028093F302873018F38BE051
:103D100094E00E941110D82F982F92959770CAE0C6
:103D20008D2F8F709C9F800D112480933C038BE01E
:103D300094E00E941110982F92959F708F709C9F15
:103D4000800D112480933D038BE094E00E941110BC
:103D5000982F929593708F709C9F800D1124809363
:103D60003E038BE094E00E941110982F92959F7073
:103D70008F709C9F800D112480933F038BE094E013
:103D80000E941110982F92959F708F709C9F800DAC
:103D90001124809340038BE094E00E941110982F2F
:103DA00092959F708F709C9F800D1124809341038A
:103DB0008BE094E00E941110982F9F70925E829584
:103DC0008F708C9F900D112490934203D7FF4CCF9E
:103DD00081CFCF93DF93EC0180917F040E94860511
:103DE0008D2F90E00E948010CE0199270E948010B4
:103DF0008BE094E00E94851061E080917F040E9436
:103E000090051092F4028093F302882339F08BE03E
:103E100094E00E941110DF91CF91089580E0FBCFD4
:103E2000EF92FF920F931F93CF93DF938B01040FB9
:103E3000151FEB017C01E61AF70AC7018C0F9D1FC5
:103E40000E94E91E8993C017D107B9F7DF91CF917E
:103E50001F910F91FF90EF900895DF92EF92FF92E4
:103E60000F931F93CF93DF9300D0CDB7DEB71A82A5
:103E7000198280910B0129E0829FC001112442E048
:103E800050E0BE016F5F7F4F0F960E94101FF12C14
:103E9000E12C10E000E089E0D82E80910B01970121
:103EA0008D9D200D311D1124C90141960E94E91EEE
:103EB000080F111D3FEFE31AF30A87E0E816F1043B
:103EC00061F70F5F1F4F89819A8108171907B1F4B5
:103ED00080910B018D9DC001112447E050E067E106
:103EE00071E041960E94101F0F900F90DF91CF91CB
:103EF0001F910F91FF90EF90DF9008950E94F31AA9
:103F0000F3CFFC0101900020E9F73197AF01481B86
:103F1000590BBC0187E194E00C94DC058F929F92D1
:103F2000AF92BF920F931F93CF93DF93CDB7DEB7BE
:103F3000A1970FB6F894DEBF0FBECDBF19A24230D5
:103F400008F44AE08E010F5D1F4F842E912CB12C96
:103F5000A12CA50194010E94A32FE62FB901CA014B
:103F6000EA30F4F4E05DD801EE938D01232B242B8D
:103F7000252B79F790E080E0109719F0CD010E9491
:103F8000811FA1960FB6F894DEBF0FBECDBFDF91A3
:103F9000CF911F910F91BF90AF909F908F900895F8
:103FA000E95CE1CF682F70E090E080E04AE00C949B
:103FB0008E1FCF92DF92EF92FF92CF93DF936C012F
:103FC000990FEE08FF08F7FE17C08DE20E94E40C7F
:103FD000EC0166277727CB016C197D098E099F09B3
:103FE0004AE00E948E1F8C0F9D1FDF91CF91FF90A2
:103FF000EF90DF90CF9008954AE0C701B601DF91BE
:10400000CF91FF90EF90DF90CF900C948E1FCF93C5
:10401000DF934AE00E948E1FEC0187E991E00E9445
:10402000811F8C0F9D1FDF91CF910895CF93DF9358
:104030000E94811FEC0187E991E00E94811F8C0F93
:104040009D1FDF91CF9108950C94811FCF92DF9235
:10405000EF92FF92CF93DF936C01990FEE08FF0868
:10406000F7FE1DC08DE20E94E40CEC016627772765
:10407000CB016C197D098E099F094AE00E948E1FB1
:10408000C80FD91F87E991E00E94811F8C0F9D1FE7
:10409000DF91CF91FF90EF90DF90CF9008954AE0AD
:1040A000C701B6010E948E1FEC01ECCFCF93DF93C6
:1040B0000E94D21FEC0187E991E00E94811F8C0FC2
:1040C0009D1FDF91CF91089520911D0430911E0412
:1040D000C901079697FD079623E0959587952A9540
:1040E000E1F720911B0430911C04829FA001839F63
:1040F000500D929F500D112470E060E080913604C5
:10410000909137040C948033CF92DF92EF92FF921C
:104110000F931F93CF930E94642010922404109257
:104120002304109226041092250481E090E09093DD
:104130002A0480932904909328048093270483E021
:1041400080932B0480932C04E091EE02EE3008F073
:104150000EC1F0E0E255FF4D0C94A231BC202E229E
:1041600042225F227A228E229E22C022D222E22284
:10417000F2220A2322233B238091170190911801F8
:10418000A0911901B0911A0180389649A849B1054A
:1041900020F48DE592E00E94242060911701709137
:1041A00018018091190190911A0130E4C32E32E474
:1041B000D32E3FE0E32EF12CA70196010E94A32FFE
:1041C000CA01B9014AE00E948E1F80912304909198
:1041D000240405969093240480932304609117018E
:1041E000709118018091190190911A01A70196010F
:1041F0000E94A32F603A76488140910520F48AE915
:1042000091E00E9424206091170170911801809123
:10421000190190911A0120E432E44FE050E00E942D
:10422000A32F603177428105910520F48AE991E05E
:104230000E9424206091170170911801809119014A
:1042400090911A0120E432E44FE050E00E94A32F45
:1042500028EEC22E23E0D22EE12CF12CA7019601EC
:104260000E94A32FCA01B9014AE00E948E1F82E07A
:1042700080932B0480932C04809123049091240438
:104280000596909324048093230487E090E0909314
:104290002604809325046091170170911801809184
:1042A000190190911A01A70196010E94A32F64366B
:1042B00071058105910520F48AE991E00E9424208E
:1042C00060911701709118018091190190911A0164
:1042D00028EE33E040E050E00E94A32F2AE030E0D7
:1042E00040E050E00E94A32FCA01B9010E940720BC
:1042F00081E080932B0480932C0480916B028436A0
:1043000020F48AE991E00E94242080916B02CAE0A7
:104310006C2F0E94823190E00E94D91F8CE991E0BD
:104320000E94242080916B026C2F0E948231892F81
:1043300090E00E94D91F8EE991E00E942420809194
:10434000ED028823E9F080EA91E00E942420209188
:104350006A0230E0EE24E394F12C09E010E047E13A
:1043600050E060E470E087E194E00E94DD0DCF91C1
:104370001F910F91FF90EF90DF90CF900C94081554
:104380008091690292E3980F953608F05BC087FD33
:1043900004C08DE592E00E94242080916902082EDD
:1043A000000C990B0E94D91F87EF0E94E40C85EA4C
:1043B00091E00E9424208091E402882309F445C002
:1043C0008DE592E00E94242080913E038A3020F403
:1043D0008DE592E00E94242080913E030E94D21F2E
:1043E00080913C0380FF34C08DEA91E00E9424203C
:1043F00080913D038A3020F48AE991E00E942420D4
:1044000080913D030E94D21F809117019091180165
:10441000A0911901B0911A0181389649A849B105B6
:10442000D0F08FEA91E00E94242080910B018A3025
:1044300020F48DE592E00E94242080910B010E94DF
:10444000D21F95CF87EA91E0B4CF8CE991E0BACF43
:104450008DE592E0CBCF82EB91E0E5CF80910B012F
:104460000E94562081E080932B0480932C0480913D
:10447000EE020E94D21F85EB91E00E9424208091E1
:104480000C01DDCFE0910A01F0E0EE0FFF1FED5CC3
:10449000FE4F20813181AAE0B0E00E94C52F0E942A
:1044A000072081E080932B0480932C048091EE02FE
:1044B0000E94D21F87EC91E00E94242058CF809167
:1044C0001B0124E6829FC00111240E94262081E066
:1044D00080932B0480932C048091EE020E94D21FC3
:1044E00081ED91E00E94242080EF0E94E40C8DED8C
:1044F00091E0E2CF80911C0124E6829FC00111244B
:104500000E94262081E080932B0480932C048091CC
:10451000EE020E94D21F81EE91E0E4CF80911D0156
:104520000E94562081E080932B0480932C0480917C
:10453000EE020E94D21F8DEE91E0BECF82E080930A
:104540002B0480932C0460910D0170910E018091D9
:104550000F01909110010E94072081E080932B04AD
:1045600080932C048091EE020E94D21F8EEF91E086
:104570000E94242080EF0E94E40C8EEC91E09CCFFE
:1045800080911101909112010E94262081E0809378
:104590002B0480932C048091EE020E94D21F84E0B1
:1045A00092E0E6CF809113010E94562081E0809333
:1045B0002B0480932C048091EE020E94D21F80E194
:1045C00092E07ACF80910C010E94562081E0809386
:1045D0002B0480932C048091EE020E94D21F8BE169
:1045E00092E06ACF80913E038A3020F48AE991E01C
:1045F0000E94242080913E030E94562081E08093F7
:104600002B0480932C048091EE020E94D21F8BE237
:1046100092E052CF80913D038A3020F48AE991E004
:104620000E94242080913D030E94562081E08093C7
:104630002B0480932C048091EE020E94D21F82E30F
:1046400092E03ACF80911401882391F08BE392E0BD
:104650000E94162081E080932B0480932C0480918B
:10466000EE020E94D21F82E492E00E9416207FCECA
:104670008FE392E0EDCF80911501909116010E9499
:10468000262081E080932B0480932C048091EE02FD
:104690000E94D21F84E592E00E94242080EF0E94B5
:1046A000E40C87EF0E94E40C85EA91E005CF0E94BC
:1046B0007B331F920F920FB60F9211242F933F93CB
:1046C0004F935F936F937F938F939F93AF93BF931A
:1046D000EF93FF9388E493E00E945A06FF91EF91D5
:1046E000BF91AF919F918F917F916F915F914F910A
:1046F0003F912F910F900FBE0F901F9018951F9212
:104700000F920FB60F9211242F938F939F93EF93D5
:10471000FF93E0915803F09159038081E0915E038B
:10472000F0915F0382FD1BC09081809161038F5FD8
:104730008F7320916203821741F0E0916103F0E0F2
:10474000E85BFC4F958F80936103FF91EF919F9100
:104750008F912F910F900FBE0F901F901895808111
:10476000F4CF1F920F920FB60F9211242F933F9305
:104770008F939F93AF93BF938091D0029091D1027A
:10478000A091D202B091D3023091CF0223E0230F47
:104790002D3758F50196A11DB11D2093CF028093AE
:1047A000D0029093D102A093D202B093D302809111
:1047B000D4029091D502A091D602B091D702019671
:1047C000A11DB11D8093D4029093D502A093D6026F
:1047D000B093D702BF91AF919F918F913F912F914D
:1047E0000F900FBE0F901F90189526E8230F02968A
:1047F000A11DB11DD2CF1F920F920FB60F9211249F
:104800002F933F934F935F936F937F938F939F93D8
:10481000AF93BF93EF93FF938091B900887F803669
:1048200009F44AC0F0F5883209F4A7C018F58031C0
:1048300009F49BC0B8F4882309F4F9C0883009F45E
:1048400094C0FF91EF91BF91AF919F918F917F9114
:104850006F915F914F913F912F910F900FBE0F90ED
:104860001F901895883109F488C0803251F78093E1
:10487000390314C0803409F49DC040F48033B9F387
:104880008833F9F68093390385ECB0C0803509F49C
:1048900085C0883509F496C0883499F60E94D10FF6
:1048A000D0CF883909F48CC038F5883729F050F416
:1048B000883611F0803729F683E080933B0310920D
:1048C000CE0257C0883809F47BC0803919F080388F
:1048D00009F0B7CF8091CE02803208F071C0E0912C
:1048E000CE0281E08E0F8093CE028091BB00F0E07B
:1048F000E255FD4F80833DC0803B39F0E0F4803AC3
:1049000009F479C0883A09F09CCF84E080933B0396
:104910001092AD021092AC02E091F102F091F2021D
:1049200009958091AC0281110FC081E08093AC02A7
:1049300010928C0209C0803C09F4A6CF883C09F48F
:10494000A3CF883B09F07DCFE091AD0281E08E0FCF
:104950008093AD02F0E0E457FD4F80818093BB006F
:104960009091AD028091AC0229C080913603809372
:10497000BB0085EC8093BC0064CF9091380380919C
:104980003703981758F5E091380381E08E0F809334
:104990003803F0E0EB5EFC4F8081E9CFE091380313
:1049A00081E08E0F809338038091BB00F0E0EB5ED6
:1049B000FC4F808390913803809137039817C8F299
:1049C00085E8D8CFE091380381E08E0F80933803DB
:1049D0008091BB00F0E0EB5EFC4F808380913A0356
:1049E00081115CCF81E08093350384EA8093BC0021
:1049F00010923B0326CF85EC8093BC0010923B03C2
:104A00008091CE02803230F4E091CE02F0E0E255A7
:104A1000FD4F10826091CE0270E0E091EF02F091C4
:104A2000F0028EEA92E009951092CE020ACF10921F
:104A3000390334CF1F920F920FB60F9211242F9388
:104A40003F934F935F936F937F938F939F93AF9316
:104A5000BF93EF93FF938091E7039091E8030E9447
:104A60001C1CFF91EF91BF91AF919F918F917F910E
:104A70006F915F914F913F912F910F900FBE0F90CB
:104A80001F9018951F920F920FB60F9211242F931B
:104A90003F934F935F936F937F938F939F93AF93C6
:104AA000BF93EF93FF938091E5039091E6030E94FB
:104AB0001C1CFF91EF91BF91AF919F918F917F91BE
:104AC0006F915F914F913F912F910F900FBE0F907B
:104AD0001F901895CF92DF92EF92FF92CF93DF93C2
:104AE00010924B0310924A0398EEC92E93E0D92EF0
:104AF000E12CF12CC0924C03D0924D03E0924E0376
:104B0000F0924F038BE491E0909349038093480324
:104B100085EC90E0909355038093540384EC90E0EF
:104B2000909357038093560380EC90E09093590341
:104B30008093580381EC90E090935B0380935A0339
:104B400082EC90E090935D0380935C0386EC90E0B0
:104B500090935F0380935E0310926103109262034F
:104B600010926303109264030E94690710920E046E
:104B700010920D04C0920F04D0921004E092110420
:104B8000F09212048DE591E090930C0480930B0455
:104B900080E580937F0410925F0410925E0410926F
:104BA00061041092600410926304109262041092E7
:104BB0006404109265041092660480912A01909119
:104BC0002B01A0912C018093670490936804A0931B
:104BD000690410926A0410926B0410926C04109293
:104BE0006D0410926E0410926F0410927004109273
:104BF0007104109272041092730410927404109253
:104C0000750480E892EBA6EEBEE080937604909364
:104C10007704A0937804B093790462E082E00E9464
:104C20009B0762E083E00E949B07E1EAFAE0E491DF
:104C3000F0E0EE0FFF1FEB56F54FA591B491B09346
:104C40005304A0935204E3E8FAE0449140935604DD
:104C5000E2EAFAE0E491F0E0EE0FFF1FEB56F54FC9
:104C6000C591D491D0935504C0935404E4E8FAE07C
:104C7000E491E09357041092590410925A04109250
:104C80005B0410925C042BE33FE1C9010197F1F74B
:104C90009C91842F892391E009F490E08881E82396
:104CA00009F0926022E534E0909358043093E603D3
:104CB0002093E503809169008C7F81608093690077
:104CC000E89AC1E0C0935D043093E8032093E703C2
:104CD00080916900837F846080936900E99A82E013
:104CE00080935D0410921A041092190420E830E0B9
:104CF00030931C0420931B0480E290E090931E04E8
:104D000080931D043093200420931F049093220469
:104D10008093210410922D041092240410922304F5
:104D20001092260410922504C0932C04C0932B04E7
:104D30008FEF9FEF90932A04809329049093280487
:104D400080932704C0932E0410922F0410923104F4
:104D5000109230048FE691E090931804809317042A
:104D60008BE094E0909335048093340410923704E0
:104D7000109236048FEF80933B0480933C04809321
:104D80003D0480933E0480933F0480E580934C046F
:104D900010924D0480EA96E8A1E0B0E080934E04C2
:104DA00090934F04A0935004B09351041092330495
:104DB0001092320460E08FE00E949B07E0E9FAE085
:104DC000E491E093FD03EEEAFAE0E491F0E0EE0F07
:104DD000FF1FEB56F54F859194919093FF038093BD
:104DE000FE031092080410920A0410920904109213
:104DF0000704109206041092050410920404109205
:104E000003041092020410920104109200048DEF2A
:104E100093E09093F0038093EF031092ED031092D0
:104E2000EE031092E90389E08093EA03C093EB0359
:104E3000C093EC031092FC031092FB03DF91CF911F
:104E4000FF90EF90DF90CF900895CF93DF93CDB791
:104E5000DEB760970FB6F894DEBF0FBECDBF789473
:104E600084B5826084BD84B5816084BD85B582606F
:104E700085BD85B5816085BD80916E008160809320
:104E80006E00109281008091810082608093810089
:104E90008091810081608093810080918000816099
:104EA000809380008091B10084608093B1008091F4
:104EB000B00081608093B00080917A00846080931C
:104EC0007A0080917A00826080937A0080917A00E3
:104ED000816080937A0080917A00806880937A0064
:104EE0001092C100E0915803F091590382E0808351
:104EF000E0915803F09159031082E0915403F0912E
:104F000055031082E0915603F091570380E18083AE
:104F100010926003E0915C03F0915D0386E0808372
:104F2000E0915A03F0915B03808180618083E0917E
:104F30005A03F0915B03808188608083E0915A037B
:104F4000F0915B03808180688083E0915A03F09147
:104F50005B0380818F7D808360E084E00E949B07FB
:104F600060E080E10E949B0761E084E00E943B07D3
:104F700061E08CE00E949B0761E08DE00E949B074E
:104F800061E08BE00E949B0760E08CE00E943B07A1
:104F900060E08DE00E943B0760E08BE00E943B07F1
:104FA00083E0809300018091360490913704892B2F
:104FB00011F10E94642020911D0430911E04809103
:104FC0001B0490911C04213231050CF0B4C0B901CE
:104FD0006052710977FF02C06F5F7F4F75956795CB
:104FE0008357910997FD019600E210E023E730E036
:104FF0004CED55E0B3C020911D0430911E04C90151
:10500000079697FD0796B3E095958795BA95E1F7D2
:1050100020911B0430911C04AC01429FC001439FAE
:10502000900D529F900D11240E9456329093370498
:1050300080933604892B09F0BCCF0E9464200E9423
:105040000815E091EF03F091F0031386158614869E
:105050001286118610861782168215821482138298
:105060001092ED031092EE0301E0BE016F5F7F4FDF
:105070008091EF039091F0030E945E1C882309F455
:1050800031C267E0CE0101960E94530898858913CA
:10509000ECCF8091E903811128C08091EF039091BA
:1050A000F0030E941009BE016F5F7F4F8091EF03F4
:1050B0009091F0030E94F10840E064EB8091EF03CF
:1050C0009091F0030E94BD088091EF039091F0034E
:1050D0000E946A08182F8091EF039091F0030E94BC
:1050E0001009111102C00093E9031091EA038981AC
:1050F000803109F4EBC6CE0101960E949409811714
:1051000008F0DFC18091EA038093EA038091ED0308
:105110008F5F8093ED038981883239F008F0DBC11D
:10512000803119F0823209F0A0CF8091EE038F5FB9
:105130008093EE039ACFB9016054710977FF02C0E2
:105140006F5F7F4F759567958255910997FD019621
:1051500000E410E022E530E04CEB57E095958795B0
:105160000E94C30E82E080933904809134049091B0
:105170003504892B09F49AC08CE3809338040E948B
:10518000690780913F0487FD1EC061E00E949B0774
:1051900061E080913F040E943B0761E070E080E0A5
:1051A00090E00E94140860E080913F040E943B0759
:1051B0006AE070E080E090E00E94140861E0809175
:1051C0003F040E943B078091340490913504892B61
:1051D00009F42BC18CE08093B80064E08EEC95E07C
:1051E0000E94051460911D04615087E194E00E94C3
:1051F000A81464E08AEC95E00E94051480913904BB
:1052000060E1813009F064E187E194E00E94A81434
:1052100064E086EC95E00E94051480911B04909157
:105220001C048038910509F02BC180911D049091D8
:105230001E048032910509F00FC164E082EC95E014
:105240000E94051469ED87E194E00E94A814809102
:10525000390462E2813009F061EF87E194E00E9455
:10526000A81466E086EB95E00E9405148091340452
:1052700090913504892B09F41AC120914E04309184
:105280004F04409150045091510460E074E284EF67
:1052900090E00E94A32F20513109410951095695F0
:1052A0004795379527952093B800C7CE61E0809148
:1052B0003D040E949B0761E080913E040E949B0791
:1052C00080913D04082E000C990BFC01E156F54F2E
:1052D000E491F0E0EE0FFF1FEE52FA4F259134916A
:1052E0003093450420934404FC01EF57F54FE491BB
:1052F000E0934A0480913E04082E000C990BFC01B7
:10530000E156F54FE491F0E0EE0FFF1FEE52FA4F39
:10531000A591B491B0934704A0934604FC01EF57C4
:10532000F54FE491E0934B048C91E82BEC93809142
:10533000320490913304892B09F434C01FB7F894D8
:105340008091D802811127C0E9EAFAE08491EBE864
:10535000FAE09491E82FF0E0EE0FFF1FE455FA4FCA
:10536000A591B491EC91E92321F461E08AE00E94D7
:105370003B0761E08AE00E949B078CB580618CBD91
:105380008CB580648CBD61E08DE00E949B0761E07C
:105390008BE00E949B078091D8028F5F8093D80298
:1053A0001FBFEFCE61E080913B040E949B0761E04C
:1053B00080913C040E949B0780913B04082E000CC6
:1053C000990BFC01E156F54FE491F0E0EE0FFF1F61
:1053D000EE52FA4F259134913093410420934004CA
:1053E000FC01EF57F54FE491E093480480913C04B1
:1053F000082E000C990BFC01E156F54FE491F0E00A
:10540000EE0FFF1FEE52FA4FA591B491B0934304F3
:10541000A0934204FC01EF57F54FE491E093490457
:105420008C91E095E823EC93ACCE8091320490917E
:105430003304892B31F080914C0490914D040E94EB
:105440000515E0914604F0914704908180914B044A
:10545000809589238083C1CE8034910509F0F2CEF6
:1054600063E08FEB95E00E940514809139046FE9A9
:10547000813009F06FEC87E194E00E94A814E2CE3D
:105480008036910509F0DECE80911D0490911E04B6
:10549000409709F0D7CE63E08CEB95E00E940514AD
:1054A0008091390460E1813031F36FEAE4CFE0911B
:1054B0004604F0914704808190914B04892B8083AE
:1054C000BCCD8981803111F48CE01ECECE010196D5
:1054D0000E94940919CE8B3309F427CE823409F047
:1054E000C4CD23CE1A82198242E050E0BE016F5F24
:1054F0007F4F90E080E00E94101FF2E0EF2EF12C31
:1055000010E000E0C7010E94E91E080F111D5FEFC7
:10551000E51AF50A8FE0E816F104A1F70F5F1F4FB7
:1055200089819A810817190709F0CDC04DE050E034
:105530006AE071E082E090E00E94101F0E942D1F3F
:1055400010926704109268041092690460E880E188
:105550000E946E1760E881E10E946E1760E882E1A8
:105560000E946E1780E896E3AEEBB6E280932001CE
:1055700090932101A0932201B093230162E987EB6C
:105580000E946E170E944E1B0E94681B0E94F91B0E
:105590000E940B1C0E94DE1C0E94261E0E9464209A
:1055A00010922404109223041092260410922504D1
:1055B00081E090E090932A0480932904909328043A
:1055C0008093270483E080932B0480932C0481E054
:1055D00091E00E9416200E94081568EE73E080E0BA
:1055E00090E00E9414080E948420E4E62E2E312CC4
:1055F00011E002E084E00E94120720910901892B4A
:1056000009F015C4222361F0109209010E94470895
:105610006093D9027093DA028093DB029093DC02EC
:1056200080915D04823008F065C0F89482E594E0D2
:105630000E941C1C6091590470915A0480915B0473
:1056400090915C04789424E030E040E050E00E94C7
:10565000792F69017A0180911401882341F0F09437
:10566000E094D094C094C11CD11CE11CF11C80902A
:10567000DF029090E002A090E102B090E2028C1470
:105680009D04AE04BF0409F4D8C0E091EE029FEF80
:105690009E0F923010F41093DE02EE3008F0B7C087
:1056A000F0E0EB5AF44D0C94A2317C2BFC2C1E2D17
:1056B0003C2D602D842DA32D0E2E562E7B2E992E43
:1056C000B82ED42EE02E0E94F31A38CF1092EE029C
:1056D000CDC38F5F833059F08093EE028091EE024C
:1056E0008E3008F4DCC383E08093EE02D8C31092BE
:1056F000EE02F4CFF8949ECF40901701509018011D
:105700006090190170901A01A0911C01B0E020EA8C
:1057100036E841E050E00E94982F6D877E878F87A2
:10572000988BA0911B01B0E00E94982F69877A871F
:105730008B879C878C149D04AE04BF040CF02CC195
:105740002D853E854F855889241535054605570515
:1057500050F1E0910A01F0E0EE0FFF1FED5CFE4F0B
:1057600020813181AAE0B0E00E94C52F4B015C018D
:10577000C301B201A50194010E94A32F480C591C3A
:105780006A1C7B1C611571058105910521F0461A83
:10579000570A680A790A40921701509218016092DC
:1057A000190170921A018091170190911801A0912E
:1057B0001901B0911A0129853A854B855C858217BC
:1057C0009307A407B50740F42093170130931801FD
:1057D0004093190150931A0180911701909118017B
:1057E000A0911901B0911A012D853E854F855889E8
:1057F000281739074A075B0740F4209317013093B5
:1058000018014093190150931A010E94681B0E94CD
:1058100047086093E5027093E6028093E702909355
:10582000E8021093E4020E948420C092DF02D0922A
:10583000E002E092E102F092E20281E10E941207AE
:105840002091ED02892B09F437C3211104C0109374
:10585000ED020E94681B8091E30281112DC08091AE
:105860001D0121E030E040E050E004C0220F331F72
:10587000441F551F8A95D2F7F22E60E08CE00E94FB
:105880003B0788E0E82E6F2D661F6627661F8BE0BA
:105890000E943B07FF0C61E08DE00E943B0760E047
:1058A0008DE00E943B07EA94E110EDCF61E08CE0CF
:1058B0000E943B071093E3028091EE0281115FC0CA
:1058C0008091ED02882309F4ABC230921F0120922F
:1058D0001E010E944708C090E902D090EA02E090C1
:1058E000EB02F090EC02AB01BC014C195D096E09B2
:1058F0007F0980911E0190911F01092E000CAA0BB7
:10590000BB0B84179507A607B707C8F50E94470881
:10591000C090E502D090E602E090E702F090E80245
:105920006C197D098E099F096131774281059105C6
:1059300090F08091E402882371F00E944708609300
:10594000E5027093E6028093E7029093E8021092DA
:10595000E4020E94F31A0E94F91B0E940B1C0E9491
:10596000DE1C0E94261E0E9484200E94470860932D
:10597000E9027093EA028093EB029093EC0280E0DC
:1059800090E0892B09F436CE0E944606882309F45C
:105990002FCE0E9400002CCEC814D904EA04FB04C8
:1059A0000CF001CF89859A85AB85BC8548165906D0
:1059B0006A067B0608F4F7CEE0910A01F0E0EE0FEC
:1059C000FF1FED5CFE4F20813181AAE0B0E00E9414
:1059D000C52F4B015C01C301B201A50194010E94D6
:1059E000A32F611571058105910509F0D0CE4818E6
:1059F00059086A087B08CFCE80910B0190910C0169
:105A00008C149D04AE04BF0484F4891718F48F5FCE
:105A100080930B0180910B01981710F490930B0168
:105A20000E942D1F1092E302F0CEC814D904EA049C
:105A3000FB0484F7882371F38150EACF80910A0137
:105A40008C149D04AE04BF0474F4853018F48F5F89
:105A500080930A0180910A01863008F4D8CE85E04F
:105A600080930A01D4CEC814D904EA04FB0494F745
:105A7000882381F38150ECCF80911B018C149D040D
:105A8000AE04BF0494F48B3F18F48F5F80931B0126
:105A900080911B018A3090F090911C01891710F0C1
:105AA0008FEF890F80931B01B2CEC814D904EA048A
:105AB000FB0474F78A3060F38150E8CF8AE0F2CFBC
:105AC00080911C018C149D04AE04BF0484F48B3FB0
:105AD00018F48F5F80931C0190911B0180911C0131
