:100000000C945C050C9458250C9430250C948405B4
:100010000C9484050C9484050C9484050C9484053C
:100020000C9484050C9484050C9484050C9484052C
:100030000C9484050C9484050C9484050C9484051C
:100040000C94C7230C9484050C9495230C946F2373
:100050000C9484050C9484050C9484050C948405FC
:100060000C9411240C948405000103070F1F3F7F9B
:100070000080C0E0F0F8FCFE00000000003E5B4F96
:100080005B3E3E6B4F6B3E1C3E7C3E1C183C7E3CF8
:10009000181C577D571C1C5E7F5E1C00183C180006
:1000A000FFE7C3E7FF0018241800FFE7DBE7FF3096
:1000B000483A060E2629792926407F050507407F04
:1000C00005253F5A3CE73C5A7F3E1C1C08081C1C77
:1000D0003E7F14227F22145F5F005F5F06097F016D
:1000E0007F006689956A606060606094A2FFA29458
:1000F00008047E040810207E201008082A1C080826
:100100001C2A08081E101010100C1E0C1E0C303873
:100110003E3830060E3E0E06000000000000005F74
:1001200000000007000700147F147F14242A7F2A90
:100130001223130864623649562050000807030052
:10014000001C2241000041221C002A1C7F1C2A089E
:10015000083E080800807030000808080808000001
:1001600060600020100804023E5149453E00427F75
:10017000400072494949462141494D331814127FC4
:100180001027454545393C4A494931412111090764
:100190003649494936464949291E000014000000E5
:1001A00040340000000814224114141414140041B7
:1001B00022140802015909063E415D594E7C121174
:1001C000127C7F494949363E414141227F414141AC
:1001D0003E7F494949417F090909013E4141517327
:1001E0007F0808087F00417F41002040413F017F98
:1001F000081422417F404040407F021C027F7F0460
:1002000008107F3E4141413E7F090909063E4151A8
:10021000215E7F09192946264949493203017F0198
:10022000033F4040403F1F2040201F3F4038403F99
:10023000631408146303047804036159494D4300AF
:100240007F4141410204081020004141417F0402E6
:10025000010204404040404000030708002054547D
:1002600078407F284444383844444428384444285B
:100270007F385454541800087E090218A4A49C78AE
:100280007F0804047800447D40002040403D007F0A
:100290001028440000417F40007C047804787C08EA
:1002A0000404783844444438FC18242418182424BE
:1002B00018FC7C08040408485454542404043F44A3
:1002C000243C4040207C1C2040201C3C4030403CD2
:1002D00044281028444C9090907C4464544C440032
:1002E0000836410000007700000041360800020196
:1002F0000204023C2623263C1EA1A161123A404082
:10030000207A3854545559215555794122545478FE
:1003100042215554784020545579400C1E52721297
:100320003955555559395454545939555454580020
:1003300000457C410002457D420001457C407D1224
:1003400011127DF0282528F07C5455450020545486
:100350007C547C0A097F4932494949323A44444431
:100360003A324A4848303A4141217A3A424020786C
:10037000009DA0A07D3D4242423D3D4040403D3C6D
:1003800024FF2424487E4943662B2FFC2F2BFF0992
:1003900029F620C0887E0903205454794100004486
:1003A0007D413048484A32384040227A007A0A0A71
:1003B000727D0D19317D2629292F282629292926E4
:1003C00030484D4020380808080808080808382F29
:1003D00010C8ACBA2F102834FA00007B00000814B3
:1003E0002A142222142A14085500550055AA55AA89
:1003F00055AAFF55FF55FF000000FF00101010FF29
:1004000000141414FF001010FF00FF1010F010F083
:10041000141414FC001414F700FF0000FF00FF1474
:1004200014F404FC141417101F10101F101F1414C0
:10043000141F00101010F0000000001F101010100A
:100440001F10101010F010000000FF1010101010FE
:1004500010101010FF10000000FF140000FF00FF3C
:1004600000001F10170000FC04F4141417101714D8
:1004700014F404F40000FF00F714141414141414FA
:10048000F700F7141414171410101F101F1414146D
:10049000F4141010F010F000001F101F0000001FD7
:1004A00014000000FC140000F010F01010FF10FF0A
:1004B000141414FF141010101F00000000F010FF9F
:1004C000FFFFFFFFF0F0F0F0F0FFFFFF0000000083
:1004D00000FFFF0F0F0F0F0F3844443844FC4A4A07
:1004E0004A347E02020606027E027E0263554941BC
:1004F000633844443C04407E201E2006027E0202F3
:1005000099A5E7A5991C2A492A1C4C7201724C3006
:100510004A4D4D303048784830BC625A463D3E49DD
:100520004949007E0101017E2A2A2A2A2A44445F81
:10053000444440514A444040444A51400000FF0175
:1005400003E080FF000008086B6B08361236243683
:10055000060F090F060000181800000010100030E8
:1005600040FF0101001F01011E00191D1712003C70
:100570003C3C3C0000000000005EBCE2613FDD83CB
:10058000C29C7E20A3FD1F41009D23BE46DB65F873
:100590008C11AF32CA57E974000000080002010054
:1005A000000304070000000000000000000000003D
:1005B000240027002A00DB40A4A62EAFDA0281DA4D
:1005C0001281DA02818F2000A1C8D300408DAED500
:1005D00080A800000000250028002B00000060001B
:1005E00000000000000000000000000000E000002B
:1005F000000000000000000000000001E00000001A
:100600000000000000000000000001F000000000F9
:1006100000000000000000000003F00000000000E7
:10062000000000000000000007F0000000000000D3
:100630000000000000000007F800000000000000BB
:100640000000000000000FF800000003C0007E0062
:100650000001E0007F0FF800000003C000FE000072
:1006600001E000FFEFF800000003C000FE00000101
:10067000E000FFFFF800000003C000F00000000FE2
:10068000007FFE7FC0000003C000F00000000F00EC
:100690003FFE7FF83FF1FBCFFCFEF3BC3DEFE01FD8
:1006A000FE7FFF7FFBFFDFFEFEFFBC3DEFE01FC6CE
:1006B000FFFF7FFBFFDFFEFEFFBC3DEFE00FE3C768
:1006C000FE787BC3DE1EF0FFBC3DEF0007FF87FC1A
:1006D000787BC3DE1EF0F83C3DEF0001FFFFF00029
:1006E0007BC3C01EF0F03C3DEF0001F37FE03FFB19
:1006F000C3CFFEF0F03C3DEF0003E33F807FFBC340
:10070000DFFEF0F03C3DEF0007E73C00787BC3DE06
:100710001EF0F03C3DEF0007FFBE00787BC3DE1EFD
:10072000F0F03C3DEF0007FFFE00787BC3DE1EF0DB
:10073000F03C3DEF000FFFFE007FFBFFDFFEF0F01F
:100740003FFDEFE00FFFFF007FFBFFDFFEF0F03F1C
:10075000FDEFE00FF9FF003E79F9CF9EF0F01F3D6D
:10076000E7E01FF1FF0000000000000000000000B3
:10077000001F80FF007FFFFFFFFFFFFFFFFFFFE085
:100780001C007F007FFFFFFFFEB46D888D18E00026
:10079000001F007FFFFFFFFE95AD7DB577E00000F5
:1007A0000F007FFFFFFFFEA5AD9D8D19E000000645
:1007B000007FFFFFFFFEB5ADEDB57EE0000000005D
:1007C0000001800000000000000000000380000025
:1007D0000000000000000007C00000000000000052
:1007E000000007C00000000000000000000FC00073
:1007F00000000000000000001FE0000000000000FA
:100800000000001FE00000000000000000003FE0CA
:100810000000000000000000003FF00000000000A9
:10082000000000007FF0000000000000001FF87FC3
:10083000F0000000000000003FFE7FF0000000001C
:100840000000003FFF7FF0000000000000001FFFDD
:10085000FBE0000000000000000FFFF9FFC00000F7
:10086000000000000FFFF9FFF80000000000000783
:10087000FFF1FFFF00000000000003FC73FFFF809A
:10088000000000000001FE3FFFFF800000000000AC
:1008900000FF1E0FFF000000000000007FFE1FFC95
:1008A000000000000000003FFFFFF8000000000013
:1008B00000000FDFFFE0000000000000001F19FF34
:1008C000C0000000000000003F3CFF0000000000EE
:1008D0000000007E7CF800000000000000007FFEA9
:1008E0007C0000000000000000FFFFFC0000000092
:1008F00000000000FFFFFE0000000000000000FFFD
:10090000FFFE0000000000000001FFEFFE000000FD
:100910000000000001FFCFFE000000000000000307
:10092000FF07FE0000000000000003FC07FE0000BF
:10093000000000000003F003FE00000000000000C3
:10094000018000FE000000000000000000007E00AA
:100950000000000000000000003E00000000000059
:10096000000000000C000000000000078000FC00F8
:100970000003C0000000078001FC000003C000006D
:1009800000078001FC000003C0000000078001E0B8
:100990000000001E000000078001E00000001E00B3
:1009A0007FE3F79FF9FDE7787BDFC0FFF7FFBFFD2F
:1009B000FDFF787BDFC0FFF7FFBFFDFDFF787BDF2A
:1009C000C0F0F787BC3DE1FF787BDE00F0F787BC25
:1009D0003DE1F0787BDE0000F787803DE1E0787B49
:1009E000DE007FF7879FFDE1E0787BDE00FFF78781
:1009F000BFFDE1E0787BDE00F0F787BC3DE1E07809
:100A00007BDE00F0F787BC3DE1E0787BDE00F0F7AD
:100A100087BC3DE1E0787BDE00FFF7FFBFFDE1E052
:100A20007FFBDFC0FFF7FFBFFDE1E07FFBDFC07CA6
:100A3000F3F39F3DE1E03E7BCFC0000000000000EB
:100A40000000000000FFFFFFFFFFFFFFFFFFFFC0F0
:100A5000FFFFFFFFFD68DB111A31C0FFFFFFFFFD45
:100A60002B5AFB6AEFC0FFFFFFFFFD4B5B3B1A33C6
:100A7000C0FFFFFFFFFD6B5BDB6AFDC02200FF21B3
:100A80000001020408102040800102040810200127
:100A900002040810200000000023002600290004A2
:100AA0000404040404040402020202020203030315
:100AB000030303008025A62F11241FBECFEFD8E02B
:100AC000DEBFCDBF12E0A0E0B1E0E0EAF7E602C091
:100AD00005900D92A236B107D9F724E0A2E6B2E064
:100AE00001C01D92A638B207E1F715E0CBE5D5E0CD
:100AF00004C02197FE010E94DE31CA35D107C9F733
:100B00000E943B270C94C3330C94000091E0909317
:100B100049038093480310924703109246030895B7
:100B200090913D039111FCCF91E090933D03909300
:100B30003C032FEF20933B0310923A03260F2093A0
:100B400039039093380390913803880F892B809351
:100B50003803809137038130F9F410923703809184
:100B600038038093BB008091BC0083FDF8CF85ECF7
:100B70008093BC0080913D038130E1F380913A0382
:100B8000861710F460913A03A7E1B3E0E7EFF2E0D3
:100B900080E0861303C0089585EEEACF9D9191937E
:100BA0008F5FF7CF8091F5029091F602891B990B28
:100BB0000895089508950895AF92BF92CF92DF925D
:100BC000EF92FF920F931F93CF93DF936C017B0102
:100BD0008B01040F151FEB015E01AE18BF08C01793
:100BE000D10759F06991D601ED91FC910190F08106
:100BF000E02DC6010995892B79F7C501DF91CF91C9
:100C00001F910F91FF90EF90DF90CF90BF90AF902A
:100C10000895FC01538D448D252F30E0842F90E002
:100C2000821B930B541710F0CF96089501970895E7
:100C3000FC01918D828D981761F0A28DAE0FBF2FB0
:100C4000B11D5D968C91928D9F5F9F73928F90E006
:100C500008958FEF9FEF0895FC01918D828D981775
:100C600031F0828DE80FF11D858D90E008958FEFB2
:100C70009FEF0895FC01918D228D892F90E0805C7B
:100C80009F4F821B91098F73992708958AE493E0FF
:100C90000E943A0621E0892B09F420E0822F089572
:100CA00080E090E0892B29F00E94460681110C9487
:100CB00000000895FC01A48DA80FB92FB11DA35AFF
:100CC000BF4F2C91848D90E001968F739927848F6C
:100CD000A689B7892C93A089B1898C91837080648F
:100CE0008C93938D848D981306C00288F389E02D30
:100CF00080818F7D80830895EF92FF920F931F93E1
:100D0000CF93DF93EC0181E0888F9B8D8C8D9813BE
:100D10001AC0E889F989808185FF15C09FB7F894CA
:100D2000EE89FF896083E889F98980818370806416
:100D300080839FBF81E090E0DF91CF911F910F9161
:100D4000FF90EF900895F62E0B8D10E00F5F1F4F70
:100D50000F731127E02E8C8D8E110CC00FB607FC7F
:100D6000FACFE889F989808185FFF5CFCE010E940D
:100D70005A06F1CFEB8DEC0FFD2FF11DE35AFF4F1B
:100D8000F0829FB7F8940B8FEA89FB89808180629B
:100D9000CFCFCF93DF93EC01888D8823B9F0AA8958
:100DA000BB89E889F9898C9185FD03C0808186FD26
:100DB0000DC00FB607FCF7CF8C9185FFF2CF808175
:100DC00085FFEDCFCE010E945A06E9CFDF91CF918A
:100DD0000895833081F028F4813099F08230A9F0B1
:100DE00008958730A9F08830C9F08430B1F480913B
:100DF00080008F7D03C0809180008F77809380007A
:100E0000089584B58F7784BD089584B58F7DFBCF19
:100E10008091B0008F778093B00008958091B000EA
:100E20008F7DF9CFCF93DF93282F30E0F901E8567B
:100E3000FA4F8491F901EF57F54FD491F901E1563A
:100E4000F54FC491CC23A1F081110E94E906EC2F4B
:100E5000F0E0EE0FFF1FEB56F54FA591B491EC912A
:100E6000ED2381E090E009F480E0DF91CF910895D7
:100E700080E090E0FACF1F93CF93DF93282F30E0EC
:100E8000F901E856FA4F8491F901EF57F54FD491E3
:100E9000F901E156F54FC491CC23A9F0162F811129
:100EA0000E94E906EC2FF0E0EE0FFF1FEE52FA4F22
:100EB000A591B4918FB7F894EC91111108C0D09519
:100EC000DE23DC938FBFDF91CF911F910895DE2B3E
:100ED000F8CF1092F6021092F5021092470310928A
:100EE000460310923D0381E080933C031092370348
:100EF00061E082E10E943B0761E083E10E943B07E1
:100F0000E9EBF0E080818E7F808380818D7F80831C
:100F100088E48093B80085E48093BC0089ED95E077
:100F20009093F4028093F3028AED95E09093F2029D
:100F30008093F1020895CF93DF9390E0FC01EF5787
:100F4000F54F24918156954FFC0184918823C9F077
:100F500090E0880F991FFC01E455FA4FA591B491D8
:100F6000FC01EE52FA4FC591D49161110DC09FB7AB
:100F7000F8948C91209582238C9388812823288350
:100F80009FBFDF91CF910895623051F49FB7F894DD
:100F90003C91822F809583238C93E8812E2BEFCF79
:100FA0008FB7F894EC912E2B2C938FBFEACF209122
:100FB000000190E4299F900111248E50822B809390
:100FC0007C0080917A00806480937A0080917A001E
:100FD00086FDFCCF809178009091790008953FB70D
:100FE000F8948091D6029091D702A091D802B09146
:100FF000D90226B5A89B05C02F3F19F00196A11D67
:10100000B11D3FBFBA2FA92F982F8827BC01CD0152
:10101000620F711D811D911D42E0660F771F881FB1
:10102000991F4A95D1F708958F929F92AF92BF92E0
:10103000CF92DF92EF92FF926B017C010E94EF074B
:101040004B015C01C114D104E104F104B9F00E9428
:10105000EF07681979098A099B09683E7340810581
:10106000910580F321E0C21AD108E108F10888EE69
:10107000880E83E0981EA11CB11CE4CFFF90EF9076
:10108000DF90CF90BF90AF909F908F9008952FB733
:10109000F8946091D2027091D3028091D402909121
:1010A000D5022FBF0895DC0180E0615090F09D9142
:1010B0009827E92FEF70F0E0E858FA4F2491E92FD4
:1010C000E295EF70F0E0E857FA4FE491822F8E2717
:1010D000ECCF0895DC012C911196ED91FC91F894E0
:1010E0008181822B81839281322F30959323928349
:1010F00087E090E00197F1F781818323818383E288
:1011000090E00197F1F790817894EFECF0E031975F
:10111000F1F7922381E009F480E00895FC019081C9
:101120000180F281E02D292F209560FF14C0F894F2
:101130008281822382838181892B8183A3E2B0E033
:101140001197F1F78281982B9283789487ED90E044
:101150000197F1F70895F894828182238283818137
:10116000892B8183AFEFB0E01197F1F78281982B43
:10117000928378948FE090E0EBCFDF92EF92FF9232
:101180000F931F93CF93DF93EC01D62EE42E08E04C
:1011900010E0FF24F39461E08D2D8F2109F460E0CD
:1011A000CE010E948E08FF0C01501109A1F7E11039
:1011B00010C0F894E981FA81918188818095892312
:1011C0008183E981FA819281888180958923828354
:1011D0007894DF91CF911F910F91FF90EF90DF9066
:1011E0000895EF92FF920F931F93CF93DF938C019B
:1011F0007B0140E065E50E94BD08E70188E0E80E5C
:10120000F11C699140E0C8010E94BD08CE15DF05C0
:10121000C1F7DF91CF911F910F91FF90EF9008954B
:10122000FC0190810180F281E02DF8948181292FC9
:1012300020958223818378943DE743E050E031504C
:1012400029F1DA011197F1F780818923C1F3F8942C
:101250008281822382838181892B81837894ABE789
:10126000B7E01197F1F7F894818182238183A3E19C
:10127000B1E01197F1F78081982381E009F080E0D7
:101280007894E3E6F6E03197F1F7089580E0089569
:10129000AF92BF92CF92DF92EF92FF920F931F9384
:1012A000CF93DF938B01BC018091F1039091F20306
:1012B0000E94F10840E06EEB8091F1039091F203FF
:1012C0000E94BD08E801680189E0C80ED11CA09009
:1012D000F103B090F20388E0E82EF12C10E001E079
:1012E000C5010E946A088111102B000F81E0E81AE5
:1012F000F108B1F71993CC16DD0649F78091F10397
:101300009091F2030E94100991E0813009F090E081
:10131000892FDF91CF911F910F91FF90EF90DF9078
:10132000CF90BF90AF9008950F931F93CF93DF930B
:10133000CDB7DEB729970FB6F894DEBF0FBECDBF8D
:101340008C018091F1039091F2030E9410098111A8
:1013500002C080E01FC0BE016F5F7F4FC8010E94C6
:1013600048098823B1F368E0CE0101960E94530832
:1013700099858913EECF8D818F33B9F020F48F31A9
:1013800041F789E007C08F3521F08F3711F78CE0E6
:1013900001C08BE029960FB6F894DEBF0FBECDBF1B
:1013A000DF91CF911F910F9108958AE0F3CF0895B7
:1013B000FC016370668B8481958126813781613061
:1013C00039F0633029F09187808733872287089529
:1013D000318720879387828708952F923F924F927B
:1013E0005F926F927F928F929F92AF92BF92CF92B5
:1013F000DF92EF92FF920F931F93CF93DF93CDB7BE
:10140000DEB76A970FB6F894DEBF0FBECDBF9A8FD6
:10141000898F7A8369834A01D22E18870F83370117
:10142000BC2CDC0159962D913C915A972115310520
:1014300009F015C118968D919C9119976817790735
:101440000CF0D7C11A968D919C91481759070CF052
:10145000D0C14C2C512CB6E0CB9E600D711D1124D7
:101460007C876B87161617060CF0C3C1EA2DF0E0D7
:10147000FA87E98793E0EE0FFF1F9A95E1F7F88B63
:10148000EF87CF01840F951F181619060CF0B1C114
:10149000A98DBA8D58968C91811104C0BFEABD15F3
:1014A00008F4D394A98DBA8DED91FC911197028423
:1014B000F385E02DCD010995B5E0DB9EC001112437
:1014C000E981FA81FC83EB83312C212C9C01285883
:1014D0003F4F388F2F8B4A2D50E05E8B4D8BEF891D
:1014E000F88DE20DF31D44919E828D82D12CC12C8A
:1014F00069817A81620D731D7A8B698B842F90E0EC
:101500009C8B8B8BE98DFA8DA081B18140FF82C0CD
:10151000F1E0BF126FC0AF126DC01C96ED91FC914F
:101520002F813885A4014C0D5D1D69897A89898DCB
:101530009A8D0995EB89FC89F595E7954E2F5FEF1C
:10154000C51AD50A6D817E818D899E89680F791FA4
:101550007E836D8398E0C916D10481F6AFEF2A1A15
:101560003A0AEB81FC81E40DF51DFC83EB83F5E089
:101570002F16310409F0B3CF2F8138852615370592
:10158000B9F0A98DBA8DED91FC91B1E0BB1257C0B5
:10159000AB1255C069817A816B5F7F4F0088F189FA
:1015A000E02D830128E030E0A401898D9A8D099512
:1015B000A98DBA8DED91FC9111970688F789E02DE0
:1015C000CD016A960FB6F894DEBF0FBECDBFDF9196
:1015D000CF911F910F91FF90EF90DF90CF90BF9030
:1015E000AF909F908F907F906F905F904F903F90C3
:1015F0002F9009941E96ED91FC91EF80F884098557
:101600001A8592014D815E816B817C81898D9A8DD5
:10161000099590CF2F8138852615370509F48ACF93
:1016200031E0B31207C0A31205C01C96ED91FC91E6
:10163000930178CF1E96ED91FC917301E0CF6B85FD
:101640007C85641975090684F785E02D73010F8583
:1016500018899201A401898D9A8D0995A9CFF90164
:1016600034969491329745915491D91AB7E0DB9E04
:10167000400D511D1124F901259134913C8B2B8B88
:10168000FA0125903490FA01329674903196349193
:10169000398B329664903196449041E04C1518F0A5
:1016A0004A1508F07FC0662D062C000C770B7C8352
:1016B0006B83842D042C000C990B9E838D83A98D44
:1016C000BA8DED91FC9111970284F385E02DCD0147
:1016D0000995512CD12CC12CEA2DF0E0FA87E9872D
:1016E0002B2D30E03C872B87A401440D511D47FC76
:1016F0005A95588F4F8B69817A81660D711D67FCF1
:101700007A957E876D877989C71608F051CF2C2D81
:1017100030E04D815E81420F531FA985BA854A9FF3
:10172000C0014B9F900D5A9F900D1124FC01E80DB4
:10173000F91DF88BEF87852D612C4F89588D420F4D
:10174000531F5E8B4D8B671408F050C044244394A4
:10175000480E877041F4C1010196EB89FC89E20DC6
:10176000F31DD4901C01D7FE19C0A98DBA8DED913F
:10177000FC91662D70E0B1E0BB1219C0AB1217C02E
:101780002D853E85620F731F0484F585E02D2F8122
:1017900038854D895E89898D9A8D0995DD0C639414
:1017A000842DD1CF1E821D821C821B8288CF4B814B
:1017B0005C81640F751FAB85BC856A9FC0016B9F00
:1017C000900D7A9F900D112469817A81680F791F9D
:1017D0000684F785E02DEF80F88409851A859D0140
:1017E0004F855889898D9A8D0995D8CF570CC39408
:1017F0008ACF6A960FB6F894DEBF0FBECDBFDF91D9
:10180000CF911F910F91FF90EF90DF90CF90BF90FD
:10181000AF909F908F907F906F905F904F903F9090
:101820002F9008958F929F92AF92CF92EF92FF9256
:101830000F931F93CF93DF93EC01262F898D9A8D01
:10184000009709F051C06A30D1F41D861C868D893D
:1018500048E0849F900111248E859F85820F931FFD
:101860009F878E8781E090E0DF91CF911F910F914C
:10187000FF90EF90CF90AF909F908F9008956D3034
:1018800089F3CC88AD888F898823C1F08C859D85AC
:1018900036E0C39E800D911D112448855985481757
:1018A000590764F44E855F851D861C8638E0A39E2B
:1018B000C0011124840F951F9F878E87EA88FB88BB
:1018C000088919894E855F856C857D85CE010E94CA
:1018D000ED092C898C859D8546E0249F800D911D06
:1018E00011249D878C87BECF6A3069F41D861C86C3
:1018F000FC013696E4912D898E859F85E29F800DAF
:10190000911D1124ADCF6D3009F4ACCFFC0134969C
:101910003491631708F4A6CF3196E491E61708F4E2
:10192000A1CFFC01329685909490462F431B342F13
:1019300047E0349F800C911C1124F40132963491BD
:101940003196E4913323A9F1EE2399F1CC88F40187
:101950003596E491AD884F89442301F10E2E000C99
:10196000FF0BE30FF11DCE9EA001CF9E500D112461
:101970006C857D85460F571F6885798564177507C7
:101980006CF44E855F851D861C86FC013696E491BD
:10199000AE9E400D511D11245F874E87EA88FB885B
:1019A000088919894E855F856C857D85CE010E94E9
:1019B000ED09F4013496E4912C898C859D85E29F94
:1019C000800D911D11248DCF682F89E194E00C9436
:1019D000120C6F927F928F929F92AF92BF92CF9292
:1019E000DF92EF92FF920F931F93CF93DF93EC015F
:1019F0006B015A0139014801E881F9810284F385BC
:101A0000E02D0995E881F9810288F389E02D8701AD
:101A10009301A501B601CE010995A501480D591DF7
:101A200041505109E881F9810288F389E02D930141
:101A3000B601CE010995E881F9810088F189E02D90
:101A40009401A501B601CE010995C60CD71CB601BB
:101A500061507109E881F9810088F189E02D9401D4
:101A6000A501CE010995E881F9810688F789E02D65
:101A7000CE01DF91CF911F910F91FF90EF90DF90FA
:101A8000CF90BF90AF909F908F907F906F90099470
:101A90006F927F928F929F92AF92BF92CF92DF927E
:101AA000EF92FF920F931F93CF93DF935C01EB01B3
:101AB0006A01490138018701DC01ED91FC9162174F
:101AC000730719F5641675062CF0962D872D3A01CB
:101AD000C92ED82E9601261937092F5F3F4F048C47
:101AE000F58DE02DA301BE01C5010995DF91CF91D0
:101AF0001F910F91FF90EF90DF90CF90BF90AF902C
:101B00009F908F907F906F9008954615570591F4A0
:101B10002617370724F0892D4B01C22FD82F9E019D
:101B2000281939092F5F3F4F068CF78DE02DA6014C
:101B3000B401DACF0284F385E02D0995D501ED914A
:101B4000FC910488F589E02D83019401A601BE0172
:101B5000C5010995D501ED91FC910688F789E02D25
:101B6000C501DF91CF911F910F91FF90EF90DF9012
:101B7000CF90BF90AF909F908F907F906F9009947F
:101B8000EF92FF920F931F93DC011A960D911C9117
:101B90001B9718962D913C911997ED91FC9100A0FF
:101BA000F1A1E02D7B0150E040E070E060E009959C
:101BB0001F910F91FF90EF9008954F925F926F9257
:101BC0007F928F929F92AF92BF92CF92DF92EF92CD
:101BD000FF920F931F93CF93DF936C012B015A0158
:101BE00039014801DC01ED91FC910284F385E02D7F
:101BF0000995E201640C751CD601ED91FC91C615A6
:101C0000D7055CF40088F189E02D87019401A501D6
:101C1000BE01C60109952196EFCF0688F789E02D10
:101C2000C601DF91CF911F910F91FF90EF90DF9050
:101C3000CF90BF90AF909F908F907F906F905F906C
:101C40004F9009948F929F92AF92BF92CF92DF9262
:101C5000EF92FF920F931F93CF93DF93EC015B0101
:101C60004A016901E881F9810284F385E02D099533
:101C700095012C0D3D1D21503109E881F981048821
:101C8000F589E02D78018401A401B501CE01099503
:101C9000E881F9810688F789E02DCE01DF91CF91A7
:101CA0001F910F91FF90EF90DF90CF90BF90AF907A
:101CB0009F908F9009948F929F92AF92BF92CF92F4
:101CC000DF92EF92FF920F931F93CF93DF93EC017C
:101CD0005B014A0169017801E881F9810284F38599
:101CE000E02D0995C80CD91C860101501109E88125
:101CF000F9810488F589E02D9501A401B501CE0193
:101D00000995E881F9810688F789E02DCE01DF91F8
:101D1000CF911F910F91FF90EF90DF90CF90BF90E8
:101D2000AF909F908F900994EF92FF920F931F9323
:101D3000DC01ED91FC9100A0F1A1E02D09951F912E
:101D40000F91FF90EF9008950F931F93DC01ED9199
:101D5000FC91068CF78DE02D09951F910F91089548
:101D60000F931F93DC01ED91FC91048CF58DE02D18
:101D700009951F910F910895DC01ED91FC9100846C
:101D8000F185E02D09943F924F925F926F927F927E
:101D90008F929F92AF92BF92CF92DF92EF92FF927B
:101DA0000F931F93CF93DF935C017B014A0169017D
:101DB000390187E0680E711C93E0759467949A95D9
:101DC000E1F72B01400E511E10E000E0312CD0E075
:101DD000C0E0CE0187709927330C892B59F4FE019E
:101DE00083E0F595E7958A95E1F7E00FF11FE80D9F
:101DF000F91D349037FE0AC021E030E0A701B5019B
:101E00006C0F7D1F89E194E00E94BC0E2196CC16D8
:101E1000DD06F9F68FEFE81AF80A060D171DE4142F
:101E2000F504A9F6DF91CF911F910F91FF90EF90EC
:101E3000DF90CF90BF90AF909F908F907F906F90EA
:101E40005F904F903F9008952F923F924F925F92F4
:101E50006F927F928F929F92AF92BF92CF92DF92BA
:101E6000EF92FF920F931F93CF93DF9300D000D098
:101E700000D0CDB7DEB73C016A013E832D83FC82E2
:101E8000EB825801A41AB50AB7FE03C0B194A1941D
:101E9000B1088D809E80861A970A97FE03C09194A0
:101EA000819491088A149B045CF0902F812F0D81FE
:101EB0001E819D838E839C2D8D2D6B01692F782F24
:101EC0000C151D055CF09D818E817E836D83692FCD
:101ED000782F902F812F8601C92ED82E1601201A17
:101EE000310A2B012D813E81421A530A57FE03C04D
:101EF000519441945108710137FE03C03FEFE31A3A
:101F0000F30AF594E7948D819E81861797075CF517
:101F1000A1E0B0E0BA83A983C016D1064CF1D30189
:101F2000ED91FC910484F585E02D2B813C81A80185
:101F30006D817E818A149B041CF04D815E81B80105
:101F4000C3010995E418F508F7FE0AC02D813E810A
:101F500089819A81280F391F3E832D83E20CF31C5F
:101F60000F5F1F4FD9CF2FEF3FEF3A832983D4CF95
:101F700026960FB6F894DEBF0FBECDBFDF91CF918E
:101F80001F910F91FF90EF90DF90CF90BF90AF9097
:101F90009F908F907F906F905F904F903F902F9089
:101FA000089585ED8093BC008091BC0084FDFCCF3A
:101FB00010923D0308952091AE02260F3327331F60
:101FC00021323105ECF420913D03FC0190E080E0EA
:101FD000243069F082E00895A091AE022191AC0115
:101FE00042575D4FA40FB52FB11D2C930196861754
:101FF00098F38091AE02680F6093AE0280E008957E
:1020000081E00895E091F6028091F502E81730F43E
:10201000F0E0E950FD4F808190E008958FEF9FEF51
:1020200008959091F6028091F5022FEF3FEF9817F7
:1020300048F4E92FF0E0E950FD4F208130E09F5F48
:102040009093F602C9010895CF92DF92EF92FF922A
:102050000F931F93CF93DF937C01CB018A012091D3
:102060004903222389F0EB016B01C40ED51ECC1568
:10207000DD0569F06991D701ED91FC910190F08146
:10208000E02DC7010995F3CF642F0E94DB0FC80133
:10209000DF91CF911F910F91FF90EF90DF90CF9044
:1020A0000895CF93DF931F92CDB7DEB76983209158
:1020B00049032223F9F020914603203258F021E011
:1020C00030E0FC013383228390E080E00F90DF91C9
:1020D000CF91089580914703E82FF0E0E259FD4F3A
:1020E000998190838F5F809347038093460381E0BB
:1020F00090E0ECCF61E0CE0101960E94DB0FF7CFBC
:10210000682F8DE094E00C9451102091460381E0FB
:10211000213208F044C080913D038111FCCF8091B1
:10212000480392E090933D0391E090933C039FEF2E
:1021300090933B0310923A0320933903AEE6B2E04A
:10214000E7E1F3E090E0291331C010923803909159
:102150003803880F892B80933803809137038130AF
:1021600049F510923703809138038093BB0080912A
:10217000BC0083FDF8CF85EC8093BC0080913D03CB
:102180008230E1F380913B038F3FB1F080913B03BC
:102190008032A1F080913B03803391F084E0109273
:1021A0004703109246031092490308953D913193DD
:1021B0009F5FC9CF85EEE0CF80E0F1CF82E0EFCF27
:1021C00083E0EDCFCF9388E60E94860560E08DE046
:1021D00094E00E94511060E88DE094E00E9451105C
:1021E00080913F03CAE06C2F0E94BE318295807FB0
:1021F000682F690F8DE094E00E9451108091400398
:102200006C2F0E94BE318295807F682F690F8DE010
:1022100094E00E945110809141036C2F0E94BE31C6
:102220008295807F682F690F8DE094E00E945110A5
:10223000809142036C2F0E94BE318295807F682F6F
:10224000690F8DE094E00E945110809143036C2F40
:102250000E94BE318295807F682F690F8DE094E0E7
:102260000E945110809144038E516C2F0E94BE3108
:102270008295807F682F690F8DE094E00E94511055
:102280008DE094E00E948510882329F01092450388
:1022900080E0CF91089581E08093450388E60E9415
:1022A000860560E08DE094E00E94511080913E032D
:1022B0006C2F0E94BE318295807F682F690F8DE060
:1022C00094E00E9451108DE094E00E9485108111ED
:1022D000DDCF81E0DECFAF92BF92DF92EF92FF922F
:1022E0000F931F93CF93DF938B01040F151FEB0107
:1022F0005C01A61AB70A7501EC0EFD1ED9908091FB
:1023000081040E9486058F2D90E00E948010C701F5
:1023100099270E9480106D2D8DE094E00E9451104D
:102320008DE094E00E9485106AE070E080E090E02B
:102330000E941408C017D107F1F6DF91CF911F91C9
:102340000F91FF90EF90DF90BF90AF900895EF92C4
:10235000FF920F931F93CF93DF93EC01EC80FD80EE
:102360006E157F050CF070C057FF04C0240F351F99
:1023700050E040E08E819F81FA01E20FF31F8E173B
:102380009F071CF49C01241B350B121613060CF03E
:102390005BC0922F842F8695869586958E9DD00161
:1023A0008F9DB00D11246A0F7B1FAF8DB8A1A60FB2
:1023B000B71F477049F188E0841B482F682F70E0F1
:1023C000FB01E059FF4FE491281708F063C0621B3E
:1023D00071092FEF30E002C0359527956A95E2F735
:1023E000E2230130110539F0B0F10230110561F539
:1023F0008C91E82702C08C91E82BEC93941720F184
:102400002C813D81A20FB31FE92FE41BE83078F047
:102410000230110521F58E2F9C9190959C932C8173
:102420003D81A20FB31F88508830B0F7E770EE23CC
:1024300059F0F0E0E859FF4FE49101301105F9F04F
:1024400010F10230110519F1DF91CF911F910F9119
:10245000FF90EF900895E0958C91E823CECF81E036
:102460000115110509F480E081959E2F8C932C8134
:102470003D81A20FB31F98509830C0F7D7CF8C91F1
:10248000E82BEC93E1CFE0958C91E823FACF8C9187
:10249000E827F7CF0130110509F4ADCFE0F20230A3
:1024A000110509F4A5CFAE0DBF1DAECF0F931F933D
:1024B000CF93DF9377FF04C0260F371F70E060E0F3
:1024C000DC011496CD91DC91FB01E20FF31FCE17D6
:1024D000DF071CF49E01261B370B121613064CF562
:1024E000FA0157FD3796A3E0F595E795AA95E1F730
:1024F000EC9FD001ED9FB00DFC9FB00D11246A0F31
:102500007B1FDC015F96ED91FC91E60FF71F477092
:10251000552781E090E001C0880F4A95EAF7482FDF
:102520000130110559F0A8F02E0F3F1F02301105A0
:10253000E1F0DF91CF911F910F9108952E0F3F1F72
:10254000E217F307B1F38191DF011197842B8C938C
:10255000F7CF80952E0F3F1FE217F30751F39191AC
:10256000DF01119798239C93F7CFE217F30709F344
:102570008191DF01119784278C93F7CF0F931F93DD
:10258000FA01DC0156964C9156974230E9F04330FF
:10259000A1F1413061F514964D915C91DA01AE1BC9
:1025A000BF0BFD01E21BF30B77FD0BC0DC011696A0
:1025B0004D915C916417750724F4AB01BF010E9433
:1025C00056121F910F91089514964D915C91DA0166
:1025D000A61BB70BBD0161507109DC0116964D9128
:1025E0005C91DA01AE1BBF0BFD01E21BF30B77FD23
:1025F000E8CFAF010E94A711E4CF16964D915C91F0
:10260000DA01A61BB70BBD0161507109CDCF0F9345
:102610001F93FA01DC0156964C9156974230A9F06F
:10262000433091F1413019F514964D915C91DA01E6
:10263000AE1BBF0BFD013197F7FD04C0AB01BF011D
:102640000E94A7111F910F91089514964D915C91CE
:10265000DA01A61BB70BBD01DC0116964D915C910A
:10266000DA01AE1BBF0BFD013197621B730BF7FD47
:10267000E9CFDC0116964D915C91E417F50714F74C
:10268000AF010E945612DECF16964D915C91DA0191
:10269000A61BB70BBD01621B730BCECFFC0177FDF0
:1026A00064C080859185681779070CF05EC057FD7E
:1026B0005CC082859385481759070CF056C08689FF
:1026C0008230B1F0833029F1813041F484819581E9
:1026D000841B950BAB01BC016150710921303105A0
:1026E00009F108F443C02230310509F463C00895AC
:1026F00084819581DC01A61BB70BBD016150710976
:1027000086819781DC01A41BB50BAD0141505109B5
:10271000E5CF86819781861B970BBA01AC014150AA
:102720005109DCCFCA0157FD0796A3E0959587951F
:10273000AA95E1F7A481B5818A9F90018B9F300D06
:102740009A9F300D1124620F731F078CF0A1E02DAA
:10275000E60FF71F4770552721E030E001C0220F38
:102760004A95EAF78081822B80830895CA0157FD3C
:10277000079633E0959587953A95E1F7A481B58161
:102780008A9F90018B9F300D9A9F300D1124620F0C
:10279000731F078CF0A1E02DE60FF71F4770552738
:1027A00081E090E001C0880F4A95EAF7809590811A
:1027B0008923DACFCA0157FD079623E095958795BF
:1027C0002A95E1F7A481B5818A9F90018B9F300DF6
:1027D0009A9F300D1124620F731F078CF0A1E02D1A
:1027E000E60FF71F4770552721E030E001C0220FA8
:1027F0004A95EAF780818227B7CF08958EBD000001
:102800000DB407FEFDCF8EB50895FF920F931F9371
:10281000CF93DF93F82ED92FC62F80913604909155
:102820003704892B09F447C080913A040E94860539
:102830008091360490913704DC01ED91FC91019078
:10284000F081E02D60E009950F2D1D2FD1E0C150E2
:102850008091360490913704CF3F31F1D03298F017
:102860000E94851080913A040E948605809136046A
:1028700090913704DC01ED91FC910190F081E02D05
:1028800060E00995D1E08091360490913704F80119
:102890006491DC01ED91FC910190F081E02D0995AE
:1028A000DF5F0F5F1F4FD3CFDF91CF911F910F914C
:1028B000FF900C948510E0914604F09147049081BC
:1028C00080914C048095892380830F2D1D2FC1504A
:1028D00008F438C0F8018491209134043091350413
:1028E000232B29F00E94FE130F5F1F4FF0CF28E02B
:1028F00030E040E8E0914204F091430490914A04B2
:10290000582F5423D9F05081952B9083E0914404A3
:10291000F0914504908150914B04952B9083E09168
:102920004404F0914504508190914B049095952377
:102930009083469521503109E9F6D6CF5081909584
:102940009523E3CFDF91CF911F910F91FF900895D1
:102950001F93CF93DF93EC018D8D9E8D892BF9F022
:10296000162F89A10E9486058D8D9E8DDC01ED912B
:10297000FC910190F081E02D60E009958D8D9E8D98
:10298000DC01ED91FC910190F081E02D612F099522
:102990008D8D9E8DDF91CF911F910C948510ADA5EB
:1029A000BEA59C918BA9809589238C938B8D9C8D42
:1029B000892B31F0862FDF91CF911F910C94FE135C
:1029C00028E030E080E8A9A5BAA599A9462F4823B8
:1029D000C1F04C91942B9C93ABA5BCA59C914AA9AA
:1029E000942B9C93ABA5BCA54C919AA9909594234C
:1029F0009C9386952150310931F7DF91CF911F913A
:102A000008954C9190959423E6CF8CBD9DBD08957B
:102A1000FF920F931F93CF93DF9380913604909191
:102A20003704892B09F472C08CE08093B80065E00C
:102A30008CE79AE00E94051460911D04615089E1C1
:102A400094E00E94A81420911F0430912004C90131
:102A5000079697FD079623E0959587952A95E1F7C8
:102A600020911D0430911E04829F8001839F100DD0
:102A7000929F100D1124C0913804D0913904809197
:102A80003604909137040C0F1D1F892B09F47CC06C
:102A900080913A040E948605809136049091370413
:102AA000DC01ED91FC910190F081E02D60E409954D
:102AB000FF24F39480913604909137040C171D077E
:102AC000E1F1BFE1BF15A0F40E94851080913A04A6
:102AD0000E9486058091360490913704DC01ED91C7
:102AE000FC910190F081E02D60E40995FF24F394BE
:102AF00080913604909137046991DC01ED91FC914D
:102B00000190F081E02D0995F394D4CF80913404A5
:102B100090913504892B31F080914E0490914F04AF
:102B20000E940515E0914804F0914904908180913C
:102B30004D048095892380837ACF0E9485108091EF
:102B4000360490913704892B09F45FC0209150041A
:102B500030915104409152045091530460E074E26A
:102B600084EF90E00E94DF2F205131094109510983
:102B700056954795379527952093B800DF91CF91CB
:102B80001F910F91FF900895E0914604F091470442
:102B9000808190914C04892B80830C171D0779F25A
:102BA00089912091340430913504232B19F00E942F
:102BB000FE13F3CF28E030E040E8E0914204F091CA
:102BC000430490914A04582F5423D9F05081952BF7
:102BD0009083E0914404F0914504908150914B041E
:102BE000952B9083E0914404F0914504508190919D
:102BF0004B04909595239083469521503109E9F631
:102C0000CCCF508190959523E3CFE0914804F0918B
:102C10004904808190914D04892B8083AFCF1F930D
:102C2000CF93DF93EC01162F8D8D9E8D892B29F18B
:102C30008CE08093B80066EA111167EACE010E9429
:102C4000A8148D8D9E8D892B41F12FA938AD49ADEA
:102C50005AAD60E074E284EF90E00E94DF2F2051D3
:102C60003109410951095695479537952795209384
:102C7000B800DF91CF911F9108958B8D9C8D892B8A
:102C800021F08DA99EA90E940515EFA5F8A99081B4
:102C90008CA9809589238083CECFEFA5F8A9808168
:102CA0009CA9892B8083E5CF089590E080E008956A
:102CB0008093BB0084E88093BC008091BC0087FFB8
:102CC000FCCF9091B900987F81E0983231F0983133
:102CD00029F0903419F080E008950895089584EA69
:102CE0008093BC008091BC0087FFFCCF8091B9002D
:102CF000887F19F080EC0C94581680E008955F925C
:102D00006F927F928F929F92AF92BF92CF92DF92FB
:102D1000EF92FF920F931F93CF93DF93CDB7DEB760
:102D2000582E742E652EB62E922E0E946F16852D6B
:102D30000E9458168D2D0E9458168C2D0E945816F0
:102D40008B2D8370A82A80E081108CE08A290E9454
:102D50005816862D0E945816872D0E9458168CE012
:102D6000F694E794D794C7948A95D1F78C2D807FF9
:102D7000C82E892D8F708C290E945816812F0E9491
:102D80005816802F0E94581684E98093BC008091C9
:102D9000BC0084FDFCCFDF91CF911F910F91FF907C
:102DA000EF90DF90CF90BF90AF909F908F907F90EB
:102DB0006F905F9008954F925F926F927F928F9283
:102DC0009F92AF92BF92CF92DF92EF92FF920F93BA
:102DD0001F93CF93C82FC0907804D0907904E090CF
:102DE0007A04F0907B04CB01BA01A70196010E94FE
:102DF000DF2F49015A0125E0F694E794D794C79450
:102E00002A95D1F735E096958795779567953A9508
:102E1000D1F747E0660F771F881F991F4A95D1F7B2
:102E2000A70196010E94DF2F29013A018B019C0125
:102E3000B501A401552766277727E7E0440F551F02
:102E4000661F771FEA95D1F7525061097109440D49
:102E5000551D661D771D812CA12C8C2F0E947F167D
:102E6000CF911F910F91FF90EF90DF90CF90BF9087
:102E7000AF909F908F907F906F905F904F9008954C
:102E80008F92AF92CF92DF92EF92FF920F931F93A8
:102E900088248394443051056105710509F0812C23
:102EA0004450510961097E4F97E0440F551F661F3A
:102EB000771F9A95D1F7A22EC12CD12C7601C394FD
:102EC00000E010E098010E947F161F910F91FF9083
:102ED000EF90DF90CF90AF908F900895CF93DF93D6
:102EE000D82FC62F0E946F168D2F0E9458168C2F38
:102EF0000E94581684E98093BC008091BC0084FD38
:102F0000FCCFDF91CF910895CF93C82F60E880E187
:102F10008C0F0E946E17EC2FF0E0EE0FFF1FE05AAF
:102F2000FB4F11821082CF9108952F923F924F92C2
:102F30005F926F927F928F929F92AF92BF92CF9249
:102F4000DF92EF92FF920F931F93CF93DF9300D006
:102F500000D01F92CDB7DEB7898380917004909125
:102F60007104A0917204B0917304892B8A2B8B2B6E
:102F700019F481E00E948417809174049091750483
:102F8000A0917604B0917704892B8A2B8B2B19F4AE
:102F900082E00E9484174090700450907104609009
:102FA000720470907304411451046104710409F4B3
:102FB0007FC12981222309F4A5C0C0906204D0906A
:102FC0006304F12CE12C409167044983A301920131
:102FD000C701B6010E94AE319B01AC018981E82F87
:102FE000F0E0EF5BFE4FA081B0E00E94D42F4B01D8
:102FF0005C01DC01CB0180589545A84CB042813082
:10300000924CAB4EBB4008F446C0609122017091D7
:1030100023018091240190912501A30192010E9436
:10302000DF2F69017A0181E044E0C416D104E10494
:10303000F10408F489C086E0C816D104E104F10463
:1030400008F49BC019829DE2C91691E0D906E104FB
:10305000F10440F029812F5F2983F694E794D794F7
:10306000C794F1CF4981411103C0E894C0F8198297
:10307000A3019201C701B6010E94AE319B01AC01D0
:103080008981E82FF0E0EF5BFE4FA081B0E00E9465
:10309000D42F4B015C01B501A40182E20E94DB1632
:1030A0008091620490916304B0E0A0E08C159D05CE
:1030B000AE05BF0529F48091670499818917D1F085
:1030C00029812295207FB701A60182E30E94401743
:1030D00060916A046C6681E10E946E17D09263046D
:1030E000C0926204298120936704809180048068E3
:1030F0008093800480927C0490927D04A0927E0450
:10310000B0927F04C0907404D0907504E09076046F
:10311000F0907704C114D104E104F10409F4B0C0C3
:1031200080907C0490907D04A0907E04B0907F04F9
:10313000C501B401A70196010E94DF2F2830310597
:103140004105510500F582E00F900F900F900F9010
:103150000F90DF91CF911F910F91FF90EF90DF9033
:10316000CF90BF90AF909F908F907F906F905F9027
:103170004F903F902F900C94841704E0C02ED12CD8
:10318000E12CF12C72CF1D8221343105410551050E
:1031900060F08D818F5F8D83CC0CDD1CEE1CFF1CDD
:1031A0005695479537952795EFCFC501B401A701EF
:1031B00096010E94DF2F29833A834B835C832FEF94
:1031C0003FEF4FE050E00E94EB3156016701E12CE8
:1031D000F12C00E010E00E94183229013A019D8193
:1031E0009295907F9D83C12CD12C7601C39441147C
:1031F00051046104710431F0CC24CA94DC2CFFE04A
:10320000EF2EF12CC301B20127E0660F771F881F54
:10321000991F2A95D1F7A70196010E94DF2F490136
:103220005A018B019C0149815A816B817C81552710
:1032300066277727E7E0440F551F661F771FEA953B
:10324000D1F7525061097109480D591D6A1D7B1D46
:10325000812CAD808AE30E947F168CE445284628A5
:10326000472809F08CE060916B046062682B82E172
:103270000E946E1781E090E090936504809364044F
:103280000F900F900F900F900F90DF91CF911F91A3
:103290000F91FF90EF90DF90CF90BF90AF909F90F5
:1032A0008F907F906F905F904F903F902F900895F8
:1032B0008090740490907504A0907604B090770488
:1032C00081149104A104B104D9F2C0906404D09097
:1032D0006504F12CE12C209168042983A501940157
:1032E000C701B6010E94AE319B01AC018981E82F74
:1032F000F0E0EF5BFE4FA081B0E00E94D42F8B0185
:103300009C0100581545284C30420130124C2B4E80
:103310003B4008F443C060912201709123018091E9
:10332000240190912501A50194010E94DF2F6901DC
:103330007A0184E0C816D104E104F10408F403CF53
:1033400096E0C916D104E104F10408F458C01982CA
:103350002DE2C21621E0D206E104F10440F04981D9
:103360004F5F4983F694E794D794C794F1CF89814E
:10337000811103C0E894C0F81982A5019401C70126
:10338000B6010E94AE319B01AC019981E92FF0E0BA
:10339000EF5BFE4FA081B0E00E94D42FAB01BC01D7
:1033A00082E20E94DB168091640490916504B0E093
:1033B000A0E08C159D05AE05BF0531F48091680431
:1033C0002981821709F45CCF29812295207FB701DA
:1033D000A6018AE30E94401760916B046C6682E14B
:1033E0000E946E17D0926504C09264044981409394
:1033F00068048091800480688093800441CF84E0D9
:10340000C82ED12CE12CF12CB5CF4F925F926F9248
:103410007F92AF92BF92CF92DF92EF92FF920F9383
:103420001F93CF93DF93D82F082F10E0F801EE0FF2
:10343000FF1FEE0FFF1FE459FB4F40805180628059
:103440007380411451046104710489F48D2FDF915C
:10345000CF911F910F91FF90EF90DF90CF90BF9091
:10346000AF907F906F905F904F900C9484175801AD
:10347000AA0CBB1CF501E05AFB4FC080D180F12C97
:10348000E12C005A1B4FF801C681A3019201C7012C
:10349000B6010E94AE319B01AC01EC2FF0E0EF5B76
:1034A000FE4FA081B0E00E94D42F9B01AC012058B8
:1034B0003545484C50422130324C4B4E5B4008F46D
:1034C0003FC060912201709123018091240190916D
:1034D0002501A30192010E94DF2F69017A0184E096
:1034E000C816D104E104F10408F4B0CFE6E0CE162A
:1034F000D104E104F10408F470C0C0E0FDE2CF168D
:10350000F1E0DF06E104F10430F0CF5FF694E794D8
:10351000D794C794F3CFC11103C0E894C0F8C0E0BA
:10352000A3019201C701B6010E94AE319B01AC011B
:10353000EC2FF0E0EF5BFE4FA081B0E00E94D42FB3
:103540002AE1D11122E2AB01BC01822F0E94DB16DD
:10355000F501E05AFB4F80819181B0E0A0E08C152D
:103560009D05AE05BF0521F4F80186818C1731F168
:103570002C2F2295207FB701A6018D2F880F880F51
:10358000880F865D0E944017F801618580E0D111A7
:1035900080E26C64682B80E18D0F0E946E17F5014C
:1035A000E05AFB4FD182C082F801C683809180042B
:1035B00090E2D11190E8892B80938004DF91CF9124
:1035C0001F910F91FF90EF90DF90CF90BF90AF9041
:1035D0007F906F905F904F90089584E0C82ED12C1B
:1035E000E12CF12C9ACFFF920F931F93CF93DF938F
:1035F00000D0CDB7DEB7EAE0F1E010E000E0819165
:10360000080F111D81E0E731F807C9F74DE050E0E0
:103610006AE071E082E090E00E946B110F5F1F4F43
:103620001A83098342E050E0BE016F5F7F4F90E054
:1036300080E00E946B11E7E1F1E080E291E010E0B0
:1036400000E02191020F111D8E179F07D1F7809185
:103650000B019BE0F92E8F9DC001112449E050E041
:1036600067E171E041960E946B110F5F1F4F1A8353
:10367000098380910B018F9DC001112442E050E02D
:10368000BE016F5F7F4F0F960E946B110F900F90DE
:10369000DF91CF911F910F91FF90089580911101BB
:1036A00090911201092E000CAA0BBB0B8054934081
:1036B000A446BE4F8093780490937904A0937A0433
:1036C000B0937B0480E00E94051A82E00C94051AF6
:1036D0008F929F92AF92BF92CF92DF92EF92FF9222
:1036E000CF938091170190911801A0911901B09189
:1036F0001A01C0900D01D0900E01E0900F01F090E2
:1037000010018090700490907104A0907204B090A9
:103710007304C1E081149104A104B10409F4C0E070
:1037200040916C0450916D0460916E0470916F042F
:10373000813826E9920728E9A207B10508F44AC0B2
:103740008C199D09AE09BF09109280048417950752
:10375000A607B70759F080936C0490936D04A0936B
:103760006E04B0936F0480E00E94051A89288A28AD
:103770008B2869F48091740490917504A09176046B
:10378000B09177048C159D05AE05BF0599F0109298
:103790007004109271041092720410927304C0921B
:1037A0007404D0927504E0927604F09277048C2F22
:1037B0000E94951760918004662389F081EBCF9178
:1037C000FF90EF90DF90CF90BF90AF909F908F9041
:1037D0000C946E178C0D9D1DAE1DBF1DB5CFCF91E6
:1037E000FF90EF90DF90CF90BF90AF909F908F9021
:1037F00008958EE00E94D7072091130130E0DC018C
:103800000E94E4312FEF33E040E050E00E94B52FFA
:1038100020936D02089580E10E94D70724E630E0EE
:10382000DC010E94E4312FEF33E040E050E00E94E1
:10383000B52F20936C020895DC01ED91FD918081FC
:10384000ED91FD919081ED91FD916C9163708E23CE
:1038500009F064609F2309F06860E9E3FCE1E60F8A
:10386000F11D659565956D936D917D918D919D91FE
:10387000099423C01AC012C016C010C01EC009C0CF
:1038800014C013C006C019C009C00DC007C00DC0C8
:1038900014C062507040804090400BC06150704036
:1038A0008040904006C06E5F01C06F5F7F4F8F4FBA
:1038B0009F4F9E938E937E936E930895BF92CF9267
:1038C000DF92EF92FF920F931F93CF93DF93EC0160
:1038D000B62EC72E8D85811105C0CE010E9410091C
:1038E00081110EC01B861D861C8680E0DF91CF9162
:1038F0001F910F91FF90EF90DF90CF90BF900895B0
:1039000040E060EFCE010E94BD0801E0E12CD12C27
:1039100011E0CE010E946A08F82ECE010E946A08CA
:1039200091E0F91218C0813099F51134D8F2DB8694
:10393000D11002C081E08D878B81882399F2239674
:10394000EB2DFC2DCF01089629912193E817F9075B
:10395000D9F781E0CBCFEE2DF0E0F8120FC08B85C8
:103960001817A0F4DE01AE0FBF1F13968C918023B1
:1039700079F4F12C193008F41C87D12EEC0FFD1FBF
:103980008381902F9095892383830AC08113F1CF7F
:10399000FE01EE0DF11D8381802B8383FF24F394C0
:1039A0006F2DCE010E948E081F5F000F11F4E3946B
:1039B00001E087E08E1508F0ACCFB7CF4F925F9251
:1039C0006F927F928F929F92AF92BF92CF92DF922F
:1039D000EF92FF920F931F93CF93DF93CDB7DEB794
:1039E00061970FB6F894DEBF0FBECDBF0E944708A7
:1039F000C0906702D0906802E0906902F0906A027D
:103A00006C197D098E099F096938734181059105FB
:103A100008F458C080916602811154C01092ED03E1
:103A20008091F1039091F2030E94100940E06CEC48
:103A30008091F1039091F2030E94BD084091EB0345
:103A400064E48091F1039091F2030E94BD0880919B
:103A5000ED03882391F1E091EC03E9500EEE12E0C2
:103A6000E33038F4F0E0EE0FFF1FE15DFE4F008120
:103A700011818091EE03882309F481C08091EB03CA
:103A800081117DC00E9447084B015C012801110F84
:103A9000660877088091F1039091F2030E946A080A
:103AA000813059F00E944708641975098609970901
:103AB000681579058A059B0568F381E08093ED031D
:103AC000809366020E9447086C197D098E099F0940
:103AD00061347F4181059105D8F180916602882388
:103AE000B9F110911501E091F103F091F203138601
:103AF0001586148612861186108617821682158204
:103B000014821382BE01665F7F4F8091F103909112
:103B1000F2030E945E1C811139C060E070E08EEFFC
:103B200092EC20E030E040E05FE30E9411300E9420
:103B30007D30160F10936B020E9447086093670256
:103B4000709368028093690290936A0210926602F1
:103B500061960FB6F894DEBF0FBECDBFDF91CF9157
:103B60001F910F91FF90EF90DF90CF90BF90AF909B
:103B70009F908F907F906F905F904F900895B801C5
:103B8000110F880B990B0E94140897CF67E0CE01A4
:103B90000A960E94530899898913BFCF8091F10337
:103BA0009091F2030E941009882309F4B6CFBE0158
:103BB0006F5F7F4FCE010A960E944809882309F45F
:103BC000ACCF68E0CE0101960E9453089985891315
:103BD000A4CF6A8170E0762F6627770F770F770F73
:103BE000298158E0259F90011124262B372B8A85A7
:103BF0008031D1F4688570E08F81AB01481B510999
:103C0000CA019695982F8827979587950E94CA3163
:103C1000CB014097B90153E0660F771F5A95E1F742
:103C200060789C01260F371F213854EE35070CF4BD
:103C300074CFB901330F880B990B0E94B53020E087
:103C400030E040E05CE30E9441316BCF0F931F9363
:103C5000CF93DF938091DF02882359F010923E03C7
:103C60000E94E2101092DF02DF91CF911F910F911D
:103C700008950E944708009162021091630220910A
:103C8000640230916502601B710B820B930B693EDD
:103C900073408105910520F4012B022B032B21F7A2
:103CA0000E944708609362027093630280936402EB
:103CB0009093650288E60E94860560E08DE094E0BE
:103CC0000E9451108DE094E00E948510882391F0AD
:103CD0001092450380914503882331F210924003EE
:103CE00010923F0310923E03DF91CF911F910F91ED
:103CF0000C94E21081E08093450367E088E60E941F
:103D000090051092F6028093F502873018F38DE04B
:103D100094E00E941110D82F982F92959770CAE0C6
:103D20008D2F8F709C9F800D112480933E038DE01A
:103D300094E00E941110982F92959F708F709C9F15
:103D4000800D112480933F038DE094E00E941110B8
:103D5000982F929593708F709C9F800D1124809363
:103D600040038DE094E00E941110982F92959F706F
:103D70008F709C9F800D1124809341038DE094E00F
:103D80000E941110982F92959F708F709C9F800DAC
:103D90001124809342038DE094E00E941110982F2B
:103DA00092959F708F709C9F800D11248093430388
:103DB0008DE094E00E941110982F9F70925E829582
:103DC0008F708C9F900D112490934403D7FF4CCF9C
:103DD00081CFCF93DF93EC01809181040E9486050F
:103DE0008D2F90E00E948010CE0199270E948010B4
:103DF0008DE094E00E94851061E0809181040E9432
:103E000090051092F6028093F502882339F08DE038
:103E100094E00E941110DF91CF91089580E0FBCFD4
:103E2000EF92FF920F931F93CF93DF938B01040FB9
:103E3000151FEB017C01E61AF70AC7018C0F9D1FC5
:103E40000E94E91E8993C017D107B9F7DF91CF917E
:103E50001F910F91FF90EF900895DF92EF92FF92E4
:103E60000F931F93CF93DF9300D0CDB7DEB71A82A5
:103E7000198280910B012BE0829FC001112442E046
:103E800050E0BE016F5F7F4F0F960E94101FF12C14
:103E9000E12C10E000E08BE0D82E80910B0197011F
:103EA0008D9D200D311D1124C90141960E94E91EEE
:103EB000080F111D3FEFE31AF30A89E0E816F10439
:103EC00061F70F5F1F4F89819A8108171907B1F4B5
:103ED00080910B018D9DC001112449E050E067E104
:103EE00071E041960E94101F0F900F90DF91CF91CB
:103EF0001F910F91FF90EF90DF9008950E94F31AA9
:103F0000F3CFFC0101900020E9F73197AF01481B86
:103F1000590BBC0189E194E00C94DC058F929F92CF
:103F2000AF92BF920F931F93CF93DF93CDB7DEB7BE
:103F3000A1970FB6F894DEBF0FBECDBF19A24230D5
:103F400008F44AE08E010F5D1F4F842E912CB12C96
:103F5000A12CA50194010E94DF2FE62FB901CA010F
:103F6000EA30F4F4E05DD801EE938D01232B242B8D
:103F7000252B79F790E080E0109719F0CD010E9491
:103F8000811FA1960FB6F894DEBF0FBECDBFDF91A3
:103F9000CF911F910F91BF90AF909F908F900895F8
:103FA000E95CE1CF682F70E090E080E04AE00C949B
:103FB0008E1FCF92DF92EF92FF92CF93DF936C012F
:103FC000990FEE08FF08F7FE17C08DE20E94E40C7F
:103FD000EC0166277727CB016C197D098E099F09B3
:103FE0004AE00E948E1F8C0F9D1FDF91CF91FF90A2
:103FF000EF90DF90CF9008954AE0C701B601DF91BE
:10400000CF91FF90EF90DF90CF900C948E1FCF93C5
:10401000DF934AE00E948E1FEC0189E991E00E9443
:10402000811F8C0F9D1FDF91CF910895CF93DF9358
:104030000E94811FEC0189E991E00E94811F8C0F91
:104040009D1FDF91CF9108950C94811FCF92DF9235
:10405000EF92FF92CF93DF936C01990FEE08FF0868
:10406000F7FE1DC08DE20E94E40CEC016627772765
:10407000CB016C197D098E099F094AE00E948E1FB1
:10408000C80FD91F89E991E00E94811F8C0F9D1FE5
:10409000DF91CF91FF90EF90DF90CF9008954AE0AD
:1040A000C701B6010E948E1FEC01ECCFCF93DF93C6
:1040B0000E94D21FEC0189E991E00E94811F8C0FC0
:1040C0009D1FDF91CF91089520911F04309120040E
:1040D000C901079697FD079623E0959587952A9540
:1040E000E1F720911D0430911E04829FA001839F5F
:1040F000500D929F500D112470E060E080913804C3
:10410000909139040C94BC33CF92DF92EF92FF92DE
:104110000F931F93CF930E94642010922604109255
:104120002504109228041092270481E090E09093D7
:104130002C0480932B0490932A048093290483E019
:1041400080932D0480932E04E091F002EE3008F06D
:104150000EC1F0E0E255FF4D0C94DE31BC202E2262
:1041600042225F228522A422B422D622E822F8220B
:10417000082320233823512380911701909118019F
:10418000A0911901B0911A0180389649A849B1054A
:1041900020F48FE592E00E94242060911701709135
:1041A00018018091190190911A0130E4C32E32E474
:1041B000D32E3FE0E32EF12CA70196010E94DF2FC2
:1041C000CA01B9014AE00E948E1F80912504909196
:1041D0002604059690932604809325046091170188
:1041E000709118018091190190911A01A70196010F
:1041F0000E94DF2F603A76488140910520F48CE9D7
:1042000091E00E9424206091170170911801809123
:10421000190190911A0120E432E44FE050E00E942D
:10422000DF2F603177428105910520F48CE991E020
:104230000E9424206091170170911801809119014A
:1042400090911A0120E432E44FE050E00E94DF2F09
:1042500028EEC22E23E0D22EE12CF12CA7019601EC
:104260000E94DF2FCA01B9014AE00E948E1F82E03E
:1042700080932D0480932E04809125049091260430
:104280000596909326048093250487E090E0909310
:104290002804809327046091170170911801809180
:1042A000190190911A01A70196010E94DF2F64362F
:1042B00071058105910520F48CE991E00E9424208C
:1042C00060911701709118018091190190911A0164
:1042D00028EE33E040E050E00E94DF2F2AE030E09B
:1042E00040E050E00E94DF2FCA01B9010E94072080
:1042F00081E080932D0480932E0480916D0284369A
:1043000020F48CE991E00E94242080916D02CAE0A3
:104310006C2F0E94BE3190E00E94D91F8EE991E07F
:104320000E94242080916D026C2F0E94BE31892F43
:1043300090E00E94D91F80EA91E00E9424208091A1
:10434000EF028823E9F082EA91E00E942420209184
:104350006C0230E0EE24E394F12C09E010E047E138
:1043600050E060E470E089E194E00E94DD0DCF91BF
:104370001F910F91FF90EF90DF90CF900C94081554
:1043800080916B0292E3980F953608F05BC087FD31
:1043900004C08FE592E00E94242080916B02082ED9
:1043A000000C990B0E94D91F87EF0E94E40C87EA4A
:1043B00091E00E9424208091E602882309F445C000
:1043C0008FE592E00E942420809140038A3020F4FF
:1043D0008FE592E00E942420809140030E94D21F2A
:1043E00080913E0380FF34C08FEA91E00E94242038
:1043F00080913F038A3020F48CE991E00E942420D0
:1044000080913F030E94D21F809117019091180163
:10441000A0911901B0911A0181389649A849B105B6
:10442000D0F081EB91E00E94242080910B018A3032
:1044300020F48FE592E00E94242080910B010E94DD
:10444000D21F95CF89EA91E0B4CF8EE991E0BACF3F
:104450008FE592E0CBCF84EB91E0E5CF80910B012B
:104460000E94562081E080932D0480932E04809139
:10447000F0020E94D21F87EB91E00E9424208091DD
:104480000C01DDCFE0910A01F0E0EE0FFF1FEB5CC5
:10449000FE4F20813181AAE0B0E00E9401300E94ED
:1044A000072081E080932D0480932E048091F002F8
:1044B0000E94D21F89EC91E00E94242058CF809165
:1044C0001B0190911C0124E6289FB001299F700DCB
:1044D000112490E080E04AE00E948E1F89E991E07B
:1044E0000E94811F81E080932D0480932E0480918F
:1044F000F0020E94D21F83ED91E00E94242080EF01
:104500000E94E40C8FED91E0D7CF80911D01909136
:104510001E0124E6289FB001299F700D112490E010
:1045200080E04AE00E948E1F89E991E00E94811F8D
:1045300081E080932D0480932E048091F0020E94EC
:10454000D21F83EE91E0D9CF80911F010E945620A7
:1045500081E080932D0480932E048091F0020E94CC
:10456000D21F8FEE91E0A8CF82E080932D0480933C
:104570002E0460910D0170910E0180910F019091B8
:1045800010010E94072081E080932D0480932E0467
:104590008091F0020E94D21F80E092E00E942420CD
:1045A00080EF0E94E40C80ED91E086CF80911101B4
:1045B000909112010E94262081E080932D04809327
:1045C0002E048091F0020E94D21F86E092E0E6CF96
:1045D000809113010E94562081E080932D048093E6
:1045E0002E048091F0020E94D21F82E192E064CFFB
:1045F00080910C010E94562081E080932D048093CD
:104600002E048091F0020E94D21F8DE192E054CFDF
:10461000809140038A3020F48CE991E00E942420AC
:10462000809140030E94562081E080932D04809366
:104630002E048091F0020E94D21F8DE292E03CCFC6
:1046400080913F038A3020F48CE991E00E9424207D
:1046500080913F030E94562081E080932D04809337
:104660002E048091F0020E94D21F84E392E024CFB6
:1046700080911401882391F08DE392E00E9416202E
:1046800081E080932D0480932E048091F0020E949B
:10469000D21F84E492E00E94162069CE81E492E069
:1046A000EDCF80911501909116010E94262081E0A6
:1046B00080932D0480932E048091F0020E94D21FDB
:1046C00086E592E00E94242080EF0E94E40C87EFB0
:1046D0000E94E40C87EA91E0EFCE0E94B7331F926C
:1046E0000F920FB60F9211242F933F934F935F9326
:1046F0006F937F938F939F93AF93BF93EF93FF93AA
:104700008AE493E00E945A06FF91EF91BF91AF9126
:104710009F918F917F916F915F914F913F912F91D9
:104720000F900FBE0F901F9018951F920F920FB60B
:104730000F9211242F938F939F93EF93FF93E09108
:104740005A03F0915B038081E0916003F091610373
:1047500082FD1BC09081809163038F5F8F732091D6
:104760006403821741F0E0916303F0E0E65BFC4FE5
:10477000958F80936303FF91EF919F918F912F917C
:104780000F900FBE0F901F9018958081F4CF1F924D
:104790000F920FB60F9211242F933F938F939F93F5
:1047A000AF93BF938091D2029091D302A091D40293
:1047B000B091D5023091D10223E0230F2D3758F567
:1047C0000196A11DB11D2093D1028093D202909336
:1047D000D302A093D402B093D5028091D6029091D7
:1047E000D702A091D802B091D9020196A11DB11DA6
:1047F0008093D6029093D702A093D802B093D902A7
:10480000BF91AF919F918F913F912F910F900FBECC
:104810000F901F90189526E8230F0296A11DB11D39
:10482000D2CF1F920F920FB60F9211242F933F9366
:104830004F935F936F937F938F939F93AF93BF93A8
:10484000EF93FF938091B900887F803609F44AC0C6
:10485000F0F5883209F4A7C018F5803109F49BC03F
:10486000B8F4882309F4F9C0883009F494C0FF91A2
:10487000EF91BF91AF919F918F917F916F915F91D8
:104880004F913F912F910F900FBE0F901F90189551
:10489000883109F488C0803251F780933B0314C0FB
:1048A000803409F49DC040F48033B9F38833F9F6BD
:1048B00080933B0385ECB0C0803509F485C0883512
:1048C00009F496C0883499F60E94D10FD0CF883968
:1048D00009F48CC038F5883729F050F4883611F087
:1048E000803729F683E080933D031092D00257C0B1
:1048F000883809F47BC0803919F0803809F0B7CFC7
:104900008091D002803208F071C0E091D00281E045
:104910008E0F8093D0028091BB00F0E0E055FD4FF8
:1049200080833DC0803B39F0E0F4803A09F479C0DF
:10493000883A09F09CCF84E080933D031092AF0247
:104940001092AE02E091F302F091F4020995809189
:10495000AE0281110FC081E08093AE0210928E02F0
:1049600009C0803C09F4A6CF883C09F4A3CF883B5A
:1049700009F07DCFE091AF0281E08E0F8093AF020E
:10498000F0E0E257FD4F80818093BB009091AF0231
:104990008091AE0229C0809138038093BB0085ECE2
:1049A0008093BC0064CF90913A03809139039817AB
:1049B00058F5E0913A0381E08E0F80933A03F0E0DE
:1049C000E95EFC4F8081E9CFE0913A0381E08E0FF0
:1049D00080933A038091BB00F0E0E95EFC4F808356
:1049E00090913A03809139039817C8F285E8D8CF9F
:1049F000E0913A0381E08E0F80933A038091BB00EF
:104A0000F0E0E95EFC4F808380913C0381115CCF34
:104A100081E08093370384EA8093BC0010923D03C9
:104A200026CF85EC8093BC0010923D038091D0028C
:104A3000803230F4E091D002F0E0E055FD4F10827A
:104A40006091D00270E0E091F102F091F20280EB0F
:104A500092E009951092D0020ACF10923B0334CF16
:104A60001F920F920FB60F9211242F933F934F93E3
:104A70005F936F937F938F939F93AF93BF93EF93C6
:104A8000FF938091E9039091EA030E941C1CFF911F
:104A9000EF91BF91AF919F918F917F916F915F91B6
:104AA0004F913F912F910F900FBE0F901F9018952F
:104AB0001F920F920FB60F9211242F933F934F9393
:104AC0005F936F937F938F939F93AF93BF93EF9376
:104AD000FF938091E7039091E8030E941C1CFF91D3
:104AE000EF91BF91AF919F918F917F916F915F9166
:104AF0004F913F912F910F900FBE0F901F901895DF
:104B0000CF92DF92EF92FF92CF93DF9310924D03FB
:104B100010924C0398EEC92E93E0D92EE12CF12C83
:104B2000C0924E03D0924F03E0925003F092510393
:104B30008DE491E090934B0380934A0385EC90E0E1
:104B4000909357038093560384EC90E0909359031D
:104B50008093580380EC90E090935B0380935A031A
:104B600081EC90E090935D0380935C0382EC90E095
:104B700090935F0380935E0386EC90E090936103D3
:104B80008093600310926303109264031092650394
:104B9000109266030E9469071092100410920F048D
:104BA000C0921104D0921204E0921304F092140403
:104BB0008FE591E090930E0480930D0480E580933F
:104BC00081041092610410926004109263041092A8
:104BD00062041092650410926404109266041092AC
:104BE00067041092680480912C0190912D01A0918E
:104BF0002E018093690490936A04A0936B04109231
:104C00006C0410926D0410926E0410926F04109256
:104C10007004109271041092720410927304109236
:104C2000740410927504109276041092770480E850
:104C300092EBA6EEBEE08093780490937904A09363
:104C40007A04B0937B0462E082E00E949B0762E0FA
:104C500083E00E949B07E1EAFAE0E491F0E0EE0FC6
:104C6000FF1FEB56F54FA591B491B0935504A09357
:104C70005404E3E8FAE0449140935804E2EAFAE08D
:104C8000E491F0E0EE0FFF1FEB56F54FC591D49184
:104C9000D0935704C0935604E4E8FAE0E491E0931B
:104CA000590410925B0410925C0410925D041092FF
:104CB0005E042BE33FE1C9010197F1F79C91842F3A
:104CC000892391E009F490E08881E82309F092605B
:104CD00024E534E090935A043093E8032093E703EB
:104CE000809169008C7F816080936900E89AC1E0BF
:104CF000C0935F043093EA032093E9038091690035
:104D0000837F846080936900E99A82E080935F04E6
:104D100010921C0410921B0420E830E030931E0413
:104D200020931D0480E290E09093200480931F0460
:104D3000309322042093210490932404809323042D
:104D400010922F0410922604109225041092280429
:104D500010922704C0932E04C0932D048FEF9FEF71
:104D600090932C0480932B0490932A04809329041D
:104D7000C093300410923104109233041092320424
:104D800081E791E090931A04809319048DE094E0F8
:104D900090933704809336041092390410923804AB
:104DA0008FEF80933D0480933E0480933F04809373
:104DB00040048093410480E580934E0410924F0498
:104DC00080EA96E8A1E0B0E080935004909351040B
:104DD000A0935204B09353041092350410923404FB
:104DE00060E08FE00E949B07E0E9FAE0E491E09345
:104DF000FF03EEEAFAE0E491F0E0EE0FFF1FEB565E
:104E0000F54F859194919093010480930004109242
:104E10000A0410920C0410920B04109209041092D0
:104E200008041092070410920604109205041092D0
:104E3000040410920304109202048FEF93E0909305
:104E4000F2038093F1031092EF031092F00310929B
:104E5000EB0389E08093EC03C093ED03C093EE0372
:104E60001092FE031092FD03DF91CF91FF90EF901F
:104E7000DF90CF900895CF93DF93CDB7DEB76097E3
:104E80000FB6F894DEBF0FBECDBF789484B58260B4
:104E900084BD84B5816084BD85B5826085BD85B5DE
:104EA000816085BD80916E00816080936E0010925C
:104EB00081008091810082608093810080918100D7
:104EC0008160809381008091800081608093800068
:104ED0008091B10084608093B1008091B0008160C6
:104EE0008093B00080917A00846080937A008091F2
:104EF0007A00826080937A0080917A00816080934A
:104F00007A0080917A00806880937A001092C100C4
:104F1000E0915A03F0915B0382E08083E0915A03B1
:104F2000F0915B031082E0915603F09157031082D9
:104F3000E0915803F091590380E18083109262035D
:104F4000E0915E03F0915F0386E08083E0915C0373
:104F5000F0915D03808180618083E0915C03F0913A
:104F60005D03808188608083E0915C03F0915D0344
:104F7000808180688083E0915C03F0915D03808193
:104F80008F7D808360E084E00E949B0760E080E189
:104F90000E949B0761E084E00E943B0761E08CE097
:104FA0000E949B0761E08DE00E949B0761E08BE01F
:104FB0000E949B0760E08CE00E943B0760E08DE070
:104FC0000E943B0760E08BE00E943B0783E08093F8
:104FD00000018091380490913904892B11F10E94CD
:104FE000642020911F043091200480911D04909131
:104FF0001E04213231050CF0B4C0B90160527109B0
:1050000077FF02C06F5F7F4F759567958357910952
:1050100097FD019600E210E023E730E04CED55E00B
:10502000B3C020911F0430912004C901079697FD59
:105030000796B3E095958795BA95E1F720911D0401
:1050400030911E04AC01429FC001439F900D529FBE
:10505000900D11240E949232909339048093380469
:10506000892B09F0BCCF0E9464200E940815E091B2
:10507000F103F091F20313861586148612861186C9
:105080001086178216821582148213821092EF0303
:105090001092F00301E0BE016F5F7F4F8091F1033A
:1050A0009091F2030E945E1C882309F431C267E0EC
:1050B000CE0101960E94530898858913ECCF809108
:1050C000EB03811128C08091F1039091F2030E94BB
:1050D0001009BE016F5F7F4F8091F1039091F20341
:1050E0000E94F10840E064EB8091F1039091F2039B
:1050F0000E94BD088091F1039091F2030E946A081A
:10510000182F8091F1039091F2030E941009111160
:1051100002C00093EB031091EC038981803109F404
:1051200011C7CE0101960E949409811708F0DFC1D2
:105130008091EC038093EC038091EF038F5F809369
:10514000EF038981883239F008F0DBC1803119F032
:10515000823209F0A0CF8091F0038F5F8093F0033B
:105160009ACFB9016054710977FF02C06F5F7F4F1A
:10517000759567958255910997FD019600E410E0B9
:1051800022E530E04CEB57E0959587950E94C30EE1
:1051900082E080933B048091360490913704892B00
:1051A00009F49AC08CE380933A040E9469078091C5
:1051B000410487FD1EC061E00E949B0761E0809171
:1051C00041040E943B0761E070E080E090E00E94B3
:1051D000140860E0809141040E943B076AE070E09F
:1051E00080E090E00E94140861E0809141040E94F8
:1051F0003B078091360490913704892B09F42BC129
:105200008CE08093B80064E08EEC95E00E94051479
:1052100060911F04615089E194E00E94A81464E049
:105220008AEC95E00E94051480913B0460E1813096
:1052300009F064E189E194E00E94A81464E086EC3E
:1052400095E00E94051480911D0490911E04803801
:10525000910509F02BC180911F04909120048032A8
:10526000910509F00FC164E082EC95E00E940514FD
:1052700069ED89E194E00E94A81480913B0462E208
:10528000813009F061EF89E194E00E94A81466E0A2
:1052900086EB95E00E9405148091360490913704C6
:1052A000892B09F41AC12091500430915104409186
:1052B00052045091530460E074E284EF90E00E9445
:1052C000DF2F2051310941095109569547953795EE
:1052D00027952093B800C7CE61E080913F040E94DB
:1052E0009B0761E0809140040E949B0780913F04EE
:1052F000082E000C990BFC01E156F54FE491F0E00B
:10530000EE0FFF1FEE52FA4F259134913093470470
:1053100020934604FC01EF57F54FE491E0934C04D1
:1053200080914004082E000C990BFC01E156F54FCA
:10533000E491F0E0EE0FFF1FEE52FA4FA591B49109
:10534000B0934904A0934804FC01EF57F54FE49152
:10535000E0934D048C91E82BEC9380913404909170
:105360003504892B09F434C01FB7F8948091DA0210
:10537000811127C0E9EAFAE08491EBE8FAE0949120
:10538000E82FF0E0EE0FFF1FE455FA4FA591B4911E
:10539000EC91E92321F461E08AE00E943B0761E09F
:1053A0008AE00E949B078CB580618CBD8CB58064BF
:1053B0008CBD61E08DE00E949B0761E08BE00E9464
:1053C0009B078091DA028F5F8093DA021FBFEFCED6
:1053D00061E080913D040E949B0761E080913E0462
:1053E0000E949B0780913D04082E000C990BFC0144
:1053F000E156F54FE491F0E0EE0FFF1FEE52FA4F49
:10540000259134913093430420934204FC01EF57DB
:10541000F54FE491E0934A0480913E04082E000C7D
:10542000990BFC01E156F54FE491F0E0EE0FFF1F00
:10543000EE52FA4FA591B491B0934504A093440461
:10544000FC01EF57F54FE491E0934B048C91E0950C
:10545000E823EC93ACCE8091340490913504892BF1
:1054600031F080914E0490914F040E940515E09117
:105470004804F0914904908180914D0480958923DE
:105480008083C1CE8034910509F0F2CE63E08FEBCA
:1054900095E00E94051480913B046FE9813009F08A
:1054A0006FEC89E194E00E94A814E2CE8036910569
:1054B00009F0DECE80911F0490912004409709F0FE
:1054C000D7CE63E08CEB95E00E94051480913B04FD
:1054D00060E1813031F36FEAE4CFE0914804F0916C
:1054E0004904808190914D04892B8083BCCD8981B2
:1054F000803111F48CE01ECECE0101960E949409F9
:1055000019CE8B3309F427CE823409F0C4CD23CED3
:105510001A82198242E050E0BE016F5F7F4F90E037
:1055200080E00E94101FF2E0EF2EF12C10E000E06E
:10553000C7010E94E91E080F111D5FEFE51AF50A69
:105540008FE0E816F104A1F70F5F1F4F89819A8160
:105550000817190709F0CEC04DE050E06AE071E08D
:1055600082E090E00E94101F0E942D1F109269049B
:1055700010926A0410926B0460E880E10E946E173A
:1055800060E881E10E946E1760E882E10E946E1778
:1055900080E896E3AEEBB6E280932201909323017C
:1055A000A0932401B093250162E987EB0E946E1756
:1055B0000E944E1B0E94681B0E94F91B0E940B1C3C
:1055C0000E94DE1C0E94261E0E9464201092260467
:1055D00010922504109228041092270481E090E094
:1055E00090932C0480932B0490932A048093290495
:1055F00083E080932D0480932E0481E091E00E944B
:1056000016200E94081568EE73E080E090E00E948A
:1056100014080E94842008EE13E0E4E62E2E312CBC
:1056200084E00E94120720910901892B09F039C4F6
:10563000222361F0109209010E9447086093DB0267
:105640007093DC028093DD029093DE0280915F0410
:10565000823008F066C0F89484E594E00E941C1C37
:1056600060915B0470915C0480915D0490915E0494
:10567000789424E030E040E050E00E94B52F6901CA
:105680007A0180911401882341F0F094E094D09441
:10569000C094C11CD11CE11CF11C8090E1029090CF
:1056A000E202A090E302B090E4028C149D04AE04E8
:1056B000BF0409F4DCC0E091F0029FEF9E0F92302E
:1056C00018F491E09093E002EE3008F0B9C0F0E0F9
:1056D000E459F44D0C94DE31932B182D3A2D582DAE
:1056E0008B2DBE2DDD2D482E902EB52ED32EF32ED4
:1056F0000F2F1C2F0E94F31A37CF1092F002F1C324
:105700008F5F833059F08093F0028091F0028E30E9
:1057100008F400C483E08093F002FCC31092F0020E
:10572000F4CFF8949DCF40901701509018016090ED
:10573000190170901A01A0911D01B0911E0120EA7B
:1057400036E841E050E00E94D42F6D877E878F8736
:10575000988BA0911B01B0911C010E94D42F6987E6
:105760007A878B879C878C149D04AE04BF040CF051
:105770002FC12D853E854F85588924153505460551
:10578000570550F1E0910A01F0E0EE0FFF1FEB5CCE
:10579000FE4F20813181AAE0B0E00E9401304B0130
:1057A0005C01C301B201A50194010E94DF2F480CE6
:1057B000591C6A1C7B1C611571058105910521F03E
:1057C000461A570A680A790A40921701509218013E
:1057D0006092190170921A0180911701909118013D
:1057E000A0911901B0911A0129853A854B855C85F4
:1057F00082179307A407B50740F42093170130934D
:1058000018014093190150931A018091170190914A
:105810001801A0911901B0911A012D853E854F857F
:105820005889281739074A075B0740F42093170166
:10583000309318014093190150931A010E94681B7C
:105840000E9447086093E7027093E8028093E902A0
:105850009093EA0281E08093E6020E948420C09245
:10586000E102D092E202E092E302F092E40281E1EE
:105870000E9412072091EF02892B09F459C32111CC
:1058800005C081E08093EF020E94681B8091E502D1
:1058900081112EC080911F0121E030E040E050E0F6
:1058A00004C0220F331F441F551F8A95D2F7F22ED2
:1058B00060E08CE00E943B0788E0E82E6F2D661FB9
:1058C0006627661F8BE00E943B07FF0C61E08DE0BE
:1058D0000E943B0760E08DE00E943B07EA94E110E4
:1058E000EDCF61E08CE00E943B0781E08093E50210
:1058F0008091F00281115FC08091EF02882309F44A
:10590000CBC230922101209220010E944708C09012
:10591000EB02D090EC02E090ED02F090EE02AB01D1
:10592000BC014C195D096E097F098091200190919D
:105930002101092E000CAA0BBB0B84179507A607A3
:10594000B707C8F50E944708C090E702D090E80268
:10595000E090E902F090EA026C197D098E099F0936
:10596000613177428105910590F08091E6028823AC
:1059700071F00E9447086093E7027093E8028093F9
:10598000E9029093EA021092E6020E94F31A0E9442
:10599000F91B0E940B1C0E94DE1C0E94261E0E9406
:1059A00084200E9447086093EB027093EC0280937E
:1059B000ED029093EE0240E050E0452B09F430CE2A
:1059C0000E944606882309F428CE0E94000025CEB6
:1059D000C814D904EA04FB040CF0FECE89859A852C
:1059E000AB85BC85481659066A067B0608F4F4CEDA
:1059F000E0910A01F0E0EE0FFF1FEB5CFE4F20810B
:105A00003181AAE0B0E00E9401304B015C01C3018A
:105A1000B201A50194010E94DF2F61157105810576
:105A2000910509F0CDCE481859086A087B08CCCEFC
:105A300080910B0190910C018C149D04AE04BF0465
:105A400084F4891718F48F5F80930B0180910B0108
:105A5000981710F490930B010E942D1F1092E502ED
:105A6000EDCEC814D904EA04FB0484F7882371F34B
:105A70008150EACF80910A018C149D04AE04BF04CA
:105A800074F4853018F48F5F80930A0180910A01C5
:105A9000863008F4D5CE85E080930A01D1CEC814B3
:105AA000D904EA04FB0494F7882381F38150ECCFF6
:105AB00080911B0190911C018C149D04AE04BF04C5
:105AC00004F58D3231E0930728F4019690931C0180
:105AD00080931B0120911B0130911C018AE090E012
