:100000000C945C050C94B0270C9488270C94840500
:100010000C9484050C9484050C9484050C9484053C
:100020000C9484050C9484050C9484050C9484052C
:100030000C9484050C9484050C9484050C9484051C
:100040000C941F260C9484050C94ED250C94C72564
:100050000C9484050C9484050C9484050C948405FC
:100060000C9469260C948405000103070F1F3F7F41
:100070000080C0E0F0F8FCFE00000000003E5B4F96
:100080005B3E3E6B4F6B3E1C3E7C3E1C183C7E3CF8
:10009000181C577D571C1C5E7F5E1C00183C180006
:1000A000FFE7C3E7FF0018241800FFE7DBE7FF3096
:1000B000483A060E2629792926407F050507407F04
:1000C00005253F5A3CE73C5A7F3E1C1C08081C1C77
:1000D0003E7F14227F22145F5F005F5F06097F016D
:1000E0007F006689956A606060606094A2FFA29458
:1000F00008047E040810207E201008082A1C080826
:100100001C2A08081E101010100C1E0C1E0C303873
:100110003E3830060E3E0E06000000000000005F74
:1001200000000007000700147F147F14242A7F2A90
:100130001223130864623649562050000807030052
:10014000001C2241000041221C002A1C7F1C2A089E
:10015000083E080800807030000808080808000001
:1001600060600020100804023E5149453E00427F75
:10017000400072494949462141494D331814127FC4
:100180001027454545393C4A494931412111090764
:100190003649494936464949291E000014000000E5
:1001A00040340000000814224114141414140041B7
:1001B00022140802015909063E415D594E7C121174
:1001C000127C7F494949363E414141227F414141AC
:1001D0003E7F494949417F090909013E4141517327
:1001E0007F0808087F00417F41002040413F017F98
:1001F000081422417F404040407F021C027F7F0460
:1002000008107F3E4141413E7F090909063E4151A8
:10021000215E7F09192946264949493203017F0198
:10022000033F4040403F1F2040201F3F4038403F99
:10023000631408146303047804036159494D4300AF
:100240007F4141410204081020004141417F0402E6
:10025000010204404040404000030708002054547D
:1002600078407F284444383844444428384444285B
:100270007F385454541800087E090218A4A49C78AE
:100280007F0804047800447D40002040403D007F0A
:100290001028440000417F40007C047804787C08EA
:1002A0000404783844444438FC18242418182424BE
:1002B00018FC7C08040408485454542404043F44A3
:1002C000243C4040207C1C2040201C3C4030403CD2
:1002D00044281028444C9090907C4464544C440032
:1002E0000836410000007700000041360800020196
:1002F0000204023C2623263C1EA1A161123A404082
:10030000207A3854545559215555794122545478FE
:1003100042215554784020545579400C1E52721297
:100320003955555559395454545939555454580020
:1003300000457C410002457D420001457C407D1224
:1003400011127DF0282528F07C5455450020545486
:100350007C547C0A097F4932494949323A44444431
:100360003A324A4848303A4141217A3A424020786C
:10037000009DA0A07D3D4242423D3D4040403D3C6D
:1003800024FF2424487E4943662B2FFC2F2BFF0992
:1003900029F620C0887E0903205454794100004486
:1003A0007D413048484A32384040227A007A0A0A71
:1003B000727D0D19317D2629292F282629292926E4
:1003C00030484D4020380808080808080808382F29
:1003D00010C8ACBA2F102834FA00007B00000814B3
:1003E0002A142222142A14085500550055AA55AA89
:1003F00055AAFF55FF55FF000000FF00101010FF29
:1004000000141414FF001010FF00FF1010F010F083
:10041000141414FC001414F700FF0000FF00FF1474
:1004200014F404FC141417101F10101F101F1414C0
:10043000141F00101010F0000000001F101010100A
:100440001F10101010F010000000FF1010101010FE
:1004500010101010FF10000000FF140000FF00FF3C
:1004600000001F10170000FC04F4141417101714D8
:1004700014F404F40000FF00F714141414141414FA
:10048000F700F7141414171410101F101F1414146D
:10049000F4141010F010F000001F101F0000001FD7
:1004A00014000000FC140000F010F01010FF10FF0A
:1004B000141414FF141010101F00000000F010FF9F
:1004C000FFFFFFFFF0F0F0F0F0FFFFFF0000000083
:1004D00000FFFF0F0F0F0F0F3844443844FC4A4A07
:1004E0004A347E02020606027E027E0263554941BC
:1004F000633844443C04407E201E2006027E0202F3
:1005000099A5E7A5991C2A492A1C4C7201724C3006
:100510004A4D4D303048784830BC625A463D3E49DD
:100520004949007E0101017E2A2A2A2A2A44445F81
:10053000444440514A444040444A51400000FF0175
:1005400003E080FF000008086B6B08361236243683
:10055000060F090F060000181800000010100030E8
:1005600040FF0101001F01011E00191D1712003C70
:100570003C3C3C0000000000005EBCE2613FDD83CB
:10058000C29C7E20A3FD1F41009D23BE46DB65F873
:100590008C11AF32CA57E974000000080002010054
:1005A000000304070000000000000000000000003D
:1005B000240027002A00DB40A4A62EAFDA0281DA4D
:1005C0001281DA02818F2000A1C8D300408DAED500
:1005D00080A800000000250028002B00000060001B
:1005E00000000000000000000000000000E000002B
:1005F000000000000000000000000001E00000001A
:100600000000000000000000000001F000000000F9
:1006100000000000000000000003F00000000000E7
:10062000000000000000000007F0000000000000D3
:100630000000000000000007F800000000000000BB
:100640000000000000000FF800000003C0007E0062
:100650000001E0007F0FF800000003C000FE000072
:1006600001E000FFEFF800000003C000FE00000101
:10067000E000FFFFF800000003C000F00000000FE2
:10068000007FFE7FC0000003C000F00000000F00EC
:100690003FFE7FF83FF1FBCFFCFEF3BC3DEFE01FD8
:1006A000FE7FFF7FFBFFDFFEFEFFBC3DEFE01FC6CE
:1006B000FFFF7FFBFFDFFEFEFFBC3DEFE00FE3C768
:1006C000FE787BC3DE1EF0FFBC3DEF0007FF87FC1A
:1006D000787BC3DE1EF0F83C3DEF0001FFFFF00029
:1006E0007BC3C01EF0F03C3DEF0001F37FE03FFB19
:1006F000C3CFFEF0F03C3DEF0003E33F807FFBC340
:10070000DFFEF0F03C3DEF0007E73C00787BC3DE06
:100710001EF0F03C3DEF0007FFBE00787BC3DE1EFD
:10072000F0F03C3DEF0007FFFE00787BC3DE1EF0DB
:10073000F03C3DEF000FFFFE007FFBFFDFFEF0F01F
:100740003FFDEFE00FFFFF007FFBFFDFFEF0F03F1C
:10075000FDEFE00FF9FF003E79F9CF9EF0F01F3D6D
:10076000E7E01FF1FF0000000000000000000000B3
:10077000001F80FF007FFFFFFFFFFFFFFFFFFFE085
:100780001C007F007FFFFFFFFEB46D888D18E00026
:10079000001F007FFFFFFFFE95AD7DB577E00000F5
:1007A0000F007FFFFFFFFEA5AD9D8D19E000000645
:1007B000007FFFFFFFFEB5ADEDB57EE0000000005D
:1007C0000001800000000000000000000380000025
:1007D0000000000000000007C00000000000000052
:1007E000000007C00000000000000000000FC00073
:1007F00000000000000000001FE0000000000000FA
:100800000000001FE00000000000000000003FE0CA
:100810000000000000000000003FF00000000000A9
:10082000000000007FF0000000000000001FF87FC3
:10083000F0000000000000003FFE7FF0000000001C
:100840000000003FFF7FF0000000000000001FFFDD
:10085000FBE0000000000000000FFFF9FFC00000F7
:10086000000000000FFFF9FFF80000000000000783
:10087000FFF1FFFF00000000000003FC73FFFF809A
:10088000000000000001FE3FFFFF800000000000AC
:1008900000FF1E0FFF000000000000007FFE1FFC95
:1008A000000000000000003FFFFFF8000000000013
:1008B00000000FDFFFE0000000000000001F19FF34
:1008C000C0000000000000003F3CFF0000000000EE
:1008D0000000007E7CF800000000000000007FFEA9
:1008E0007C0000000000000000FFFFFC0000000092
:1008F00000000000FFFFFE0000000000000000FFFD
:10090000FFFE0000000000000001FFEFFE000000FD
:100910000000000001FFCFFE000000000000000307
:10092000FF07FE0000000000000003FC07FE0000BF
:10093000000000000003F003FE00000000000000C3
:10094000018000FE000000000000000000007E00AA
:100950000000000000000000003E00000000000059
:10096000000000000C000000000000078000FC00F8
:100970000003C0000000078001FC000003C000006D
:1009800000078001FC000003C0000000078001E0B8
:100990000000001E000000078001E00000001E00B3
:1009A0007FE3F79FF9FDE7787BDFC0FFF7FFBFFD2F
:1009B000FDFF787BDFC0FFF7FFBFFDFDFF787BDF2A
:1009C000C0F0F787BC3DE1FF787BDE00F0F787BC25
:1009D0003DE1F0787BDE0000F787803DE1E0787B49
:1009E000DE007FF7879FFDE1E0787BDE00FFF78781
:1009F000BFFDE1E0787BDE00F0F787BC3DE1E07809
:100A00007BDE00F0F787BC3DE1E0787BDE00F0F7AD
:100A100087BC3DE1E0787BDE00FFF7FFBFFDE1E052
:100A20007FFBDFC0FFF7FFBFFDE1E07FFBDFC07CA6
:100A3000F3F39F3DE1E03E7BCFC0000000000000EB
:100A40000000000000FFFFFFFFFFFFFFFFFFFFC0F0
:100A5000FFFFFFFFFD68DB111A31C0FFFFFFFFFD45
:100A60002B5AFB6AEFC0FFFFFFFFFD4B5B3B1A33C6
:100A7000C0FFFFFFFFFD6B5BDB6AFDC02200FF21B3
:100A80000001020408102040800102040810200127
:100A900002040810200000000023002600290004A2
:100AA0000404040404040402020202020203030315
:100AB00003030300D827F43211241FBECFEFD8E080
:100AC000DEBFCDBF12E0A0E0B1E0ECE3FEE602C085
:100AD00005900D92A63BB107D9F724E0A6EBB2E052
:100AE00001C01D92A43EB207E1F715E0CBE5D5E0C9
:100AF00004C02197FE010E944035CA35D107C9F7CD
:100B00000E94A7290C9411370C94000008950895B1
:100B100091E090939F0380939E0310924204109261
:100B2000410408958091430490914404891B990BDA
:100B300008950895AF92BF92CF92DF92EF92FF9205
:100B40000F931F93CF93DF936C017B018B01040FF5
:100B5000151FEB015E01AE18BF08C017D10759F091
:100B60006991D601ED91FC910190F081E02DC601D3
:100B70000995892B79F7C501DF91CF911F910F91CD
:100B8000FF90EF90DF90CF90BF90AF900895FC0161
:100B9000538D448D252F30E0842F90E0821B930BE2
:100BA000541710F0CF96089501970895FC01918D88
:100BB000828D981761F0A28DAE0FBF2FB11D5D968B
:100BC0008C91928D9F5F9F73928F90E008958FEF2D
:100BD0009FEF0895FC01918D828D981731F0828DE1
:100BE000E80FF11D858D90E008958FEF9FEF089538
:100BF000FC01918D228D892F90E0805C9F4F821B9C
:100C000091098F739927089580EA93E00E94F8056F
:100C100021E0892B09F420E0822F089580E090E004
:100C2000892B29F00E94040681110C94000008957C
:100C3000FC01A48DA80FB92FB11DA35ABF4F2C9151
:100C4000848D90E001968F739927848FA689B78948
:100C50002C93A089B1898C91837080648C93938D3F
:100C6000848D981306C00288F389E02D80818F7DE2
:100C700080830895EF92FF920F931F93CF93DF939A
:100C8000EC0181E0888F9B8D8C8D98131AC0E889C8
:100C9000F989808185FF15C09FB7F894EE89FF8997
:100CA0006083E889F98980818370806480839FBF35
:100CB00081E090E0DF91CF911F910F91FF90EF9035
:100CC0000895F62E0B8D10E00F5F1F4F0F73112745
:100CD000E02E8C8D8E110CC00FB607FCFACFE88980
:100CE000F989808185FFF5CFCE010E941806F1CFEA
:100CF000EB8DEC0FFD2FF11DE35AFF4FF0829FB7F4
:100D0000F8940B8FEA89FB8980818062CFCFCF93E3
:100D1000DF93EC01888D8823B9F0AA89BB89E88923
:100D2000F9898C9185FD03C0808186FD0DC00FB6C9
:100D300007FCF7CF8C9185FFF2CF808185FFEDCF47
:100D4000CE010E941806E9CFDF91CF91089583303C
:100D500081F028F4813099F08230A9F0089587302D
:100D6000A9F08830C9F08430B1F4809180008F7D83
:100D700003C0809180008F7780938000089584B5B0
:100D80008F7784BD089584B58F7DFBCF8091B000AF
:100D90008F778093B00008958091B0008F7DF9CF58
:100DA000CF93DF93282F30E0F901E856FA4F849172
:100DB000F901EF57F54FD491F901E156F54FC49180
:100DC000CC23A1F081110E94A706EC2FF0E0EE0FDA
:100DD000FF1FEB56F54FA591B491EC91ED2381E007
:100DE00090E009F480E0DF91CF91089580E090E0F9
:100DF000FACF1F93CF93DF93282F30E0F901E85605
:100E0000FA4F8491F901EF57F54FD491F901E1566A
:100E1000F54FC491CC23A9F0162F81110E94A7068B
:100E2000EC2FF0E0EE0FFF1FEE52FA4FA591B491B8
:100E30008FB7F894EC91111108C0D095DE23DC93A4
:100E40008FBFDF91CF911F910895DE2BF8CFCF9305
:100E5000DF9390E0FC01EF57F54F24918156954FB9
:100E6000FC0184918823C9F090E0880F991FFC0150
:100E7000E455FA4FA591B491FC01EE52FA4FC59199
:100E8000D49161110DC09FB7F8948C912095822365
:100E90008C938881282328839FBFDF91CF91089569
:100EA000623051F49FB7F8943C91822F8095832350
:100EB0008C93E8812E2BEFCF8FB7F894EC912E2BEB
:100EC0002C938FBFEACF2091000190E4299F9001DD
:100ED00011248E50822B80937C0080917A00806454
:100EE00080937A0080917A0086FDFCCF8091780013
:100EF0009091790008953FB7F89480912E039091D6
:100F00002F03A0913003B091310326B5A89B05C0F3
:100F10002F3F19F00196A11DB11D3FBFBA2FA92F78
:100F2000982F8827BC01CD01620F711D811D911D75
:100F300042E0660F771F881F991F4A95D1F70895E1
:100F40008F929F92AF92BF92CF92DF92EF92FF92D9
:100F50006B017C010E947B074B015C01C114D10431
:100F6000E104F104B9F00E947B07681979098A0944
:100F70009B09683E73408105910580F321E0C21A08
:100F8000D108E108F10888EE880E83E0981EA11CC4
:100F9000B11CE4CFFF90EF90DF90CF90BF90AF9067
:100FA0009F908F9008952FB7F89460912A037091C5
:100FB0002B0380912C0390912D032FBF0895DC010A
:100FC00080E0615090F09D919827E92FEF70F0E05C
:100FD000E858FA4F2491E92FE295EF70F0E0E857D6
:100FE000FA4FE491822F8E27ECCF0895DC012C91EB
:100FF0001196ED91FC91F8948181822B81839281ED
:10100000322F30959323928387E090E00197F1F798
:1010100081818323818383E290E00197F1F79081BE
:101020007894EFECF0E03197F1F7922381E009F446
:1010300080E00895FC0190810180F281E02D292F4C
:10104000209560FF14C0F89482818223828381817D
:10105000892B8183A3E2B0E01197F1F78281982B6D
:101060009283789487ED90E00197F1F70895F894D2
:101070008281822382838181892B8183AFEFB0E0DB
:101080001197F1F78281982B928378948FE090E00A
:10109000EBCFDF92EF92FF920F931F93CF93DF93EB
:1010A000EC01D62EE42E08E010E0FF24F39461E07A
:1010B0008D2D8F2109F460E0CE010E941A08FF0CEB
:1010C00001501109A1F7E11010C0F894E981FA81EB
:1010D00091818881809589238183E981FA81928138
:1010E00088818095892382837894DF91CF911F91A5
:1010F0000F91FF90EF90DF900895EF92FF920F9382
:101100001F93CF93DF938C017B0140E065E50E9444
:101110004908E70188E0E80EF11C699140E0C80148
:101120000E944908CE15DF05C1F7DF91CF911F91CD
:101130000F91FF90EF900895FC0190810180F28162
:10114000E02DF8948181292F209582238183789442
:101150003DE743E050E0315029F1DA011197F1F712
:1011600080818923C1F3F8948281822382838181E3
:10117000892B81837894ABE7B7E01197F1F7F89466
:10118000818182238183A3E1B1E01197F1F780810E
:10119000982381E009F080E07894E3E6F6E0319767
:1011A000F1F7089580E00895AF92BF92CF92DF9259
:1011B000EF92FF920F931F93CF93DF938B01BC01AC
:1011C00080914F04909150040E947D0840E06EEBA6
:1011D00080914F04909150040E944908E8016801F1
:1011E00089E0C80ED11CA0904F04B090500488E054
:1011F000E82EF12C10E001E0C5010E94F6078111F4
:10120000102B000F81E0E81AF108B1F71993CC1602
:10121000DD0649F780914F04909150040E949C088C
:1012200091E0813009F090E0892FDF91CF911F91FB
:101230000F91FF90EF90DF90CF90BF90AF90089507
:101240000F931F93CF93DF93CDB7DEB729970FB6D8
:10125000F894DEBF0FBECDBF8C0180914F049091FA
:1012600050040E949C08811102C080E01FC0BE0192
:101270006F5F7F4FC8010E94D4088823B1F368E0F4
:10128000CE0101960E94DF0799858913EECF8D81EB
:101290008F33B9F020F48F3141F789E007C08F35E3
:1012A00021F08F3711F78CE001C08BE029960FB643
:1012B000F894DEBF0FBECDBFDF91CF911F910F918C
:1012C00008958AE0F3CF0895FC016370668B8481F2
:1012D000958126813781613039F0633029F091871B
:1012E0008087338722870895318720879387828775
:1012F00008952F923F924F925F926F927F928F92BA
:101300009F92AF92BF92CF92DF92EF92FF920F9394
:101310001F93CF93DF93CDB7DEB76A970FB6F894DC
:10132000DEBF0FBECDBF9A8F898F7A8369834A0152
:10133000D22E18870F833701BC2CDC0159962D91D2
:101340003C915A972115310509F015C118968D91D8
:101350009C911997681779070CF0D7C11A968D914F
:101360009C91481759070CF0D0C14C2C512CB6E079
:10137000CB9E600D711D11247C876B871616170696
:101380000CF0C3C1EA2DF0E0FA87E98793E0EE0F95
:10139000FF1F9A95E1F7F88BEF87CF01840F951F18
:1013A000181619060CF0B1C1A98DBA8D58968C91FA
:1013B000811104C0BFEABD1508F4D394A98DBA8D7C
:1013C000ED91FC9111970284F385E02DCD010995F3
:1013D000B5E0DB9EC0011124E981FA81FC83EB8337
:1013E000312C212C9C0128583F4F388F2F8B4A2DB0
:1013F00050E05E8B4D8BEF89F88DE20DF31D44912B
:101400009E828D82D12CC12C69817A81620D731DDF
:101410007A8B698B842F90E09C8B8B8BE98DFA8D76
:10142000A081B18140FF82C0F1E0BF126FC0AF1256
:101430006DC01C96ED91FC912F813885A4014C0D57
:101440005D1D69897A89898D9A8D0995EB89FC8959
:10145000F595E7954E2F5FEFC51AD50A6D817E8110
:101460008D899E89680F791F7E836D8398E0C916E8
:10147000D10481F6AFEF2A1A3A0AEB81FC81E40D20
:10148000F51DFC83EB83F5E02F16310409F0B3CF93
:101490002F81388526153705B9F0A98DBA8DED91C4
:1014A000FC91B1E0BB1257C0AB1255C069817A8183
:1014B0006B5F7F4F0088F189E02D830128E030E0E9
:1014C000A401898D9A8D0995A98DBA8DED91FC9114
:1014D00011970688F789E02DCD016A960FB6F8942A
:1014E000DEBF0FBECDBFDF91CF911F910F91FF9057
:1014F000EF90DF90CF90BF90AF909F908F907F90B4
:101500006F905F904F903F902F9009941E96ED91B1
:10151000FC91EF80F88409851A8592014D815E81E6
:101520006B817C81898D9A8D099590CF2F8138852B
:101530002615370509F48ACF31E0B31207C0A3128C
:1015400005C01C96ED91FC91930178CF1E96ED910C
:10155000FC917301E0CF6B857C8564197509068465
:10156000F785E02D73010F8518899201A401898DFB
:101570009A8D0995A9CFF9013496949132974591A6
:101580005491D91AB7E0DB9E400D511D1124F90189
:10159000259134913C8B2B8BFA0125903490FA01E4
:1015A0003296749031963491398B3296649031969C
:1015B000449041E04C1518F04A1508F07FC0662DA4
:1015C000062C000C770B7C836B83842D042C000C81
:1015D000990B9E838D83A98DBA8DED91FC91119706
:1015E0000284F385E02DCD010995512CD12CC12C1D
:1015F000EA2DF0E0FA87E9872B2D30E03C872B8736
:10160000A401440D511D47FC5A95588F4F8B698199
:101610007A81660D711D67FC7A957E876D87798961
:10162000C71608F051CF2C2D30E04D815E81420F5E
:10163000531FA985BA854A9FC0014B9F900D5A9FA1
:10164000900D1124FC01E80DF91DF88BEF87852D15
:10165000612C4F89588D420F531F5E8B4D8B671441
:1016600008F050C044244394480E877041F4C101EF
:101670000196EB89FC89E20DF31DD4901C01D7FE85
:1016800019C0A98DBA8DED91FC91662D70E0B1E085
:10169000BB1219C0AB1217C02D853E85620F731F98
:1016A0000484F585E02D2F8138854D895E89898DEB
:1016B0009A8D0995DD0C6394842DD1CF1E821D82F5
:1016C0001C821B8288CF4B815C81640F751FAB85A8
:1016D000BC856A9FC0016B9F900D7A9F900D11246D
:1016E00069817A81680F791F0684F785E02DEF8084
:1016F000F88409851A859D014F855889898D9A8DB1
:101700000995D8CF570CC3948ACF6A960FB6F89430
:10171000DEBF0FBECDBFDF91CF911F910F91FF9024
:10172000EF90DF90CF90BF90AF909F908F907F9081
:101730006F905F904F903F902F9008958F929F925F
:10174000AF92CF92EF92FF920F931F93CF93DF93BD
:10175000EC01262F898D9A8D009709F051C06A30CF
:10176000D1F41D861C868D8948E0849F9001112448
:101770008E859F85820F931F9F878E8781E090E0E3
:10178000DF91CF911F910F91FF90EF90CF90AF908D
:101790009F908F9008956D3089F3CC88AD888F89A4
:1017A0008823C1F08C859D8536E0C39E800D911DF8
:1017B0001124488559854817590764F44E855F857B
:1017C0001D861C8638E0A39EC0011124840F951F3E
:1017D0009F878E87EA88FB88088919894E855F85EF
:1017E0006C857D85CE010E9479092C898C859D852B
:1017F00046E0249F800D911D11249D878C87BECFCC
:101800006A3069F41D861C86FC013896E4912D89A6
:101810008E859F85E29F800D911D1124ADCF6D3087
:1018200009F4ACCFFC0134963491631708F4A6CFC9
:101830003296E491E61708F4A1CFFC013296859028
:101840009490462F431B342F47E0349F800C911C0B
:101850001124F401329634913196E4913323A9F1A5
:10186000EE2399F1CC88F4013596E491AD884F8947
:10187000442301F10E2E000CFF0BE30FF11DCE9E51
:10188000A001CF9E500D11246C857D85460F571FFA
:1018900068857985641775076CF44E855F851D86AC
:1018A0001C86FC013896E491AE9E400D511D11241A
:1018B0005F874E87EA88FB88088919894E855F858E
:1018C0006C857D85CE010E947909F4013496E491FE
:1018D0002C898C859D85E29F800D911D11248DCFD3
:1018E000682F87E794E00C949E0B6F927F928F9203
:1018F0009F92AF92BF92CF92DF92EF92FF920F939F
:101900001F93CF93DF93EC016B015A01390148011A
:10191000E881F9810284F385E02D0995E881F98158
:101920000288F389E02D87019301A501B601CE015C
:101930000995A501480D591D41505109E881F981CA
:101940000288F389E02D9301B601CE010995E88163
:10195000F9810088F189E02D9401A501B601CE013D
:101960000995C60CD71CB60161507109E881F9814F
:101970000088F189E02D9401A501CE010995E88147
:10198000F9810688F789E02DCE01DF91CF911F9173
:101990000F91FF90EF90DF90CF90BF90AF909F900E
:1019A0008F907F906F9009946F927F928F929F9209
:1019B000AF92BF92CF92DF92EF92FF920F931F935D
:1019C000CF93DF935C01EB016A0149013801870184
:1019D000DC01ED91FC916217730719F56416750629
:1019E0002CF0962D872D3A01C92ED82E9601261956
:1019F00037092F5F3F4F048CF58DE02DA301BE0109
:101A0000C5010995DF91CF911F910F91FF90EF9044
:101A1000DF90CF90BF90AF909F908F907F906F900E
:101A200008954615570591F42617370724F0892D98
:101A30004B01C22FD82F9E01281939092F5F3F4F24
:101A4000068CF78DE02DA601B401DACF0284F38570
:101A5000E02D0995D501ED91FC910488F589E02DE3
:101A600083019401A601BE01C5010995D501ED913F
:101A7000FC910688F789E02DC501DF91CF911F9178
:101A80000F91FF90EF90DF90CF90BF90AF909F901D
:101A90008F907F906F900994EF92FF920F931F9316
:101AA000DC011A960D911C911B9718962D913C9173
:101AB0001997ED91FC9100A0F1A1E02D7B0150E080
:101AC00040E070E060E009951F910F91FF90EF906A
:101AD00008954F925F926F927F928F929F92AF92F2
:101AE000BF92CF92DF92EF92FF920F931F93CF930B
:101AF000DF936C012B015A0139014801DC01ED91A2
:101B0000FC910284F385E02D0995E201640C751CBB
:101B1000D601ED91FC91C615D7055CF40088F189DA
:101B2000E02D87019401A501BE01C601099521960A
:101B3000EFCF0688F789E02DC601DF91CF911F9185
:101B40000F91FF90EF90DF90CF90BF90AF909F905C
:101B50008F907F906F905F904F9009948F929F929B
:101B6000AF92BF92CF92DF92EF92FF920F931F93AB
:101B7000CF93DF93EC015B014A016901E881F981B0
:101B80000284F385E02D099595012C0D3D1D215012
:101B90003109E881F9810488F589E02D7801840113
:101BA000A401B501CE010995E881F9810688F7897C
:101BB000E02DCE01DF91CF911F910F91FF90EF901B
:101BC000DF90CF90BF90AF909F908F9009948F92AD
:101BD0009F92AF92BF92CF92DF92EF92FF920F93BC
:101BE0001F93CF93DF93EC015B014A0169017801F8
:101BF000E881F9810284F385E02D0995C80CD91C90
:101C0000860101501109E881F9810488F589E02DE8
:101C10009501A401B501CE010995E881F9810688F5
:101C2000F789E02DCE01DF91CF911F910F91FF90A9
:101C3000EF90DF90CF90BF90AF909F908F900994DE
:101C4000EF92FF920F931F93DC01ED91FC9100A0A6
:101C5000F1A1E02D09951F910F91FF90EF9008954C
:101C60000F931F93DC01ED91FC91068CF78DE02D15
:101C700009951F910F9108950F931F93DC01ED912A
:101C8000FC91048CF58DE02D09951F910F9108951D
:101C9000DC01ED91FC910084F185E02D09943F92E7
:101CA0004F925F926F927F928F929F92AF92BF926C
:101CB000CF92DF92EF92FF920F931F93CF93DF9318
:101CC0005C017B014A016901390187E0680E711CE2
:101CD00093E0759467949A95E1F72B01400E511E9D
:101CE00010E000E0312CD0E0C0E0CE0187709927F1
:101CF000330C892B59F4FE0183E0F595E7958A951D
:101D0000E1F7E00FF11FE80DF91D349037FE0AC02E
:101D100021E030E0A701B5016C0F7D1F87E794E05B
:101D20000E94480E2196CC16DD06F9F68FEFE81AD0
:101D3000F80A060D171DE414F504A9F6DF91CF91FA
:101D40001F910F91FF90EF90DF90CF90BF90AF90D9
:101D50009F908F907F906F905F904F903F900895ED
:101D60002F923F924F925F926F927F928F929F92AB
:101D7000AF92BF92CF92DF92EF92FF920F931F9399
:101D8000CF93DF9300D000D000D0CDB7DEB73C01B9
:101D90006A013E832D83FC82EB825801A41AB50AA6
:101DA000B7FE03C0B194A194B1088D809E80861ABD
:101DB000970A97FE03C09194819491088A149B041A
:101DC0005CF0902F812F0D811E819D838E839C2D31
:101DD0008D2D6B01692F782F0C151D055CF09D81F1
:101DE0008E817E836D83692F782F902F812F8601BE
:101DF000C92ED82E1601201A310A2B012D813E81C1
:101E0000421A530A57FE03C051944194510871017C
:101E100037FE03C03FEFE31AF30AF594E7948D8190
:101E20009E81861797075CF5A1E0B0E0BA83A9838D
:101E3000C016D1064CF1D301ED91FC910484F585D7
:101E4000E02D2B813C81A8016D817E818A149B0449
:101E50001CF04D815E81B801C3010995E418F508B5
:101E6000F7FE0AC02D813E8189819A81280F391F92
:101E70003E832D83E20CF31C0F5F1F4FD9CF2FEF52
:101E80003FEF3A832983D4CF26960FB6F894DEBF6E
:101E90000FBECDBFDF91CF911F910F91FF90EF90BB
:101EA000DF90CF90BF90AF909F908F907F906F907A
:101EB0005F904F903F902F90089520910603260F3A
:101EC0003327331F21323105ECF420919003FC01BC
:101ED00090E080E0243069F082E00895A09106034C
:101EE0002191AC014A515D4FA40FB52FB11D2C9328
:101EF0000196861798F380910603680F6093060396
:101F000080E0089581E008951092900381E080932D
:101F10006F0310926A0361E082E10E94F90661E0BA
:101F200083E10E94F906E9EBF0E080818E7F8083F7
:101F300080818D7F808388E48093B80085E48093DE
:101F4000BC000895CF93DF9391E09093E50288233E
:101F5000B9F0C091B800D091BA008091BC008A7BE2
:101F60008093BC0060E082E10E94F90660E083E1BA
:101F70000E94F9060E94840FD093BA00C093B80063
:101F8000DF91CF910895CF92DF92EF92FF920F935E
:101F90001F93CF93DF93D82FC62F613208F098C0DC
:101FA0000E947B076B017C018091900381116BC0C3
:101FB00081E08093900380936F039FEF90936E0373
:101FC00010926D039C0F90936C0380936B03809130
:101FD0006B03DD0FD82BD0936B0380916A038130A4
:101FE00009F078C010926A030E947B076B017C01A4
:101FF00080916B038093BB00809192039091930337
:10200000A0919403B0919503892B8A2B8B2BA1F07F
:102010000E947B07009192031091930320919403F7
:10202000309195036C197D098E099F0906171707D2
:102030002807390708F448C08091BC0083FDD8CF39
:1020400085EC8093BC000E947B076B017C01809132
:102050009003813009F440C080916D038C1710F417
:10206000C0916D03EAE4F3E0A0E7B3E080E08C13F5
:1020700055C08C2FDF91CF911F910F91FF90EF9062
:10208000DF90CF9008958091920390919303A09157
:102090009403B0919503892B8A2B8B2B09F484CF61
:1020A0000E947B0700919203109193032091940367
:1020B000309195036C197D098E099F090617170742
:1020C0002807390708F070CF809191030E94A20F72
:1020D000C0E0CFCF85EEB5CF80919203909193036E
:1020E000A0919403B0919503892B8A2B8B2B09F433
:1020F000AECF0E947B070091920310919303209131
:102100009403309195036C197D098E099F09061778
:1021100017072807390708F09ACFD6CF91919D93DA
:102120008F5FA5CFE091440480914304E81730F419
:10213000F0E0E059FC4F808190E008958FEF9FEF31
:10214000089590914404809143042FEF3FEF981736
:1021500048F4E92FF0E0E059FC4F208130E09F5F28
:1021600090934404C9010895CF92DF92EF92FF92B9
:102170000F931F93CF93DF937C01CB018A012091B2
:102180009F03222389F0EB016B01C40ED51ECC15F1
:10219000DD0569F06991D701ED91FC910190F08125
:1021A000E02DC7010995F3CF642F0E945D0FC80190
:1021B000DF91CF911F910F91FF90EF90DF90CF9023
:1021C0000895CF93DF931F92CDB7DEB76983209137
:1021D0009F032223F9F020914104203258F021E09E
:1021E00030E0FC013383228390E080E00F90DF91A8
:1021F000CF91089580914204E82FF0E0EB53FD4F1A
:10220000998190838F5F809342048093410481E0A1
:1022100090E0ECCF61E0CE0101960E945D0FF7CF18
:10222000682F8BE694E00C94E110CF92DF92EF924E
:10223000FF920F931F93CF93DF93D091410481E0DE
:10224000D13208F09CC0C0919E030E947B076B01B5
:102250007C018091900381116CC082E08093900397
:1022600081E080936F038FEF80936E0310926D0374
:10227000D0936C03A5ECB2E0EAE4F3E080E0D8137D
:102280008DC010926B0380916B03CC0FC82BC09351
:102290006B0380916A03813009F084C010926A0355
:1022A0000E947B076B017C0180916B038093BB00D4
:1022B0008091920390919303A0919403B091950320
:1022C000892B8A2B8B2BA1F00E947B070091920314
:1022D0001091930320919403309195036C197D091B
:1022E0008E099F09061717072807390708F442C007
:1022F0008091BC0083FDD8CF85EC8093BC000E9408
:102300007B076B017C0180919003823009F44CC003
:1023100080916E038F3F09F469C080916E03803213
:1023200009F466C080916E03803309F463C084E0D1
:1023300026C08091920390919303A0919403B09151
:102340009503892B8A2B8B2B09F483CF0E947B0763
:10235000009192031091930320919403309195037F
:102360006C197D098E099F09061717072807390779
:1023700008F06FCF809191030E94A20F85E0109228
:1023800042041092410410929F03DF91CF911F915C
:102390000F91FF90EF90DF90CF9008959D919193D2
:1023A0008F5F6DCF85EEA9CF8091920390919303BB
:1023B000A0919403B0919503892B8A2B8B2B09F460
:1023C000A2CF0E947B07009192031091930320916A
:1023D0009403309195036C197D098E099F090617A6
:1023E00017072807390708F08ECFC4CF80E0C7CF82
:1023F00082E0C5CF83E0C3CFCF9388E60E948805F3
:1024000060E08BE694E00E94E11060E88BE694E0E7
:102410000E94E11080919703CAE06C2F0E940C3556
:102420008295807F682F690F8BE694E00E94E1100F
:10243000809198036C2F0E940C358295807F682FC5
:10244000690F8BE694E00E94E110809199036C2F54
:102450000E940C358295807F682F690F8BE694E08F
:102460000E94E11080919A036C2F0E940C35829596
:10247000807F682F690F8BE694E00E94E1108091C5
:102480009B036C2F0E940C358295807F682F690F0B
:102490008BE694E00E94E11080919C038E516C2F9A
:1024A0000E940C358295807F682F690F8BE694E03F
:1024B0000E94E1108BE694E00E941511882329F018
:1024C00010929D0380E0CF91089581E080939D0359
:1024D00088E60E94880560E08BE694E00E94E110A7
:1024E000809196036C2F0E940C358295807F682F17
:1024F000690F8BE694E00E94E1108BE694E00E9465
:1025000015118111DDCF81E0DECFAF92BF92DF9256
:10251000EF92FF920F931F93CF93DF938B01040FE2
:10252000151FEB015C01A61AB70A7501EC0EFD1E22
:10253000D9908091DF040E9488058F2D90E00E9441
:102540001011C70199270E9410116D2D8BE694E0A0
:102550000E94E1108BE694E00E9415116AE070E0A1
:1025600080E090E00E94A007C017D107F1F6DF914C
:10257000CF911F910F91FF90EF90DF90BF90AF90A0
:102580000895EF92FF920F931F93CF93DF93EC0187
:10259000EC80FD806E157F050CF070C057FF04C005
:1025A000240F351F50E040E08E819F81FA01E20F39
:1025B000F31F8E179F071CF49C01241B350B12166A
:1025C00013060CF05BC0922F842F86958695869516
:1025D0008E9DD0018F9DB00D11246A0F7B1FAF8D92
:1025E000B8A1A60FB71F477049F188E0841B482F98
:1025F000682F70E0FB01E059FF4FE491281708F0C5
:1026000063C0621B71092FEF30E002C0359527953A
:102610006A95E2F7E2230130110539F0B0F102309A
:10262000110561F58C91E82702C08C91E82BEC93A1
:10263000941720F12C813D81A20FB31FE92FE41BD9
:10264000E83078F00230110521F58E2F9C9190959D
:102650009C932C813D81A20FB31F88508830B0F726
:10266000E770EE2359F0F0E0E859FF4FE4910130B4
:102670001105F9F010F10230110519F1DF91CF9138
:102680001F910F91FF90EF900895E0958C91E823B2
:10269000CECF81E00115110509F480E081959E2FD0
:1026A0008C932C813D81A20FB31F98509830C0F7B6
:1026B000D7CF8C91E82BEC93E1CFE0958C91E82378
:1026C000FACF8C91E827F7CF0130110509F4ADCF8F
:1026D000E0F20230110509F4A5CFAE0DBF1DAECF5B
:1026E0000F931F93CF93DF9377FF04C0260F371FFD
:1026F00070E060E0DC011496CD91DC91FB01E20F0B
:10270000F31FCE17DF071CF49E01261B370B121692
:1027100013064CF5FA0157FD3796A3E0F595E795BA
:10272000AA95E1F7EC9FD001ED9FB00DFC9FB00D95
:1027300011246A0F7B1FDC015F96ED91FC91E60F7F
:10274000F71F4770552781E090E001C0880F4A9538
:10275000EAF7482F0130110559F0A8F02E0F3F1F5E
:1027600002301105E1F0DF91CF911F910F91089593
:102770002E0F3F1FE217F307B1F38191DF0111978D
:10278000842B8C93F7CF80952E0F3F1FE217F30712
:1027900051F39191DF01119798239C93F7CFE217A2
:1027A000F30709F38191DF01119784278C93F7CF09
:1027B0000F931F93FA01DC0156964C9156974230C5
:1027C000E9F04330A1F1413061F514964D915C91EF
:1027D000DA01AE1BBF0BFD01E21BF30B77FD0BC053
:1027E000DC0116964D915C916417750724F4AB01DA
:1027F000BF010E9470131F910F91089514964D917F
:102800005C91DA01A61BB70BBD0161507109DC01B7
:1028100016964D915C91DA01AE1BBF0BFD01E21BD8
:10282000F30B77FDE8CFAF010E94C112E4CF1696FB
:102830004D915C91DA01A61BB70BBD016150710986
:10284000CDCF0F931F93FA01DC0156964C9156970A
:102850004230A9F0433091F1413019F514964D9171
:102860005C91DA01AE1BBF0BFD013197F7FD04C08F
:10287000AB01BF010E94C1121F910F9108951496E0
:102880004D915C91DA01A61BB70BBD01DC011696D8
:102890004D915C91DA01AE1BBF0BFD013197621BBC
:1028A000730BF7FDE9CFDC0116964D915C91E417AF
:1028B000F50714F7AF010E947013DECF16964D9105
:1028C0005C91DA01A61BB70BBD01621B730BCECF67
:1028D000FC0177FD64C080859185681779070CF04D
:1028E0005EC057FD5CC082859385481759070CF080
:1028F00056C086898230B1F0833029F1813041F4AD
:1029000084819581841B950BAB01BC0161507109D9
:102910002130310509F108F443C02230310509F4B2
:1029200063C0089584819581DC01A61BB70BBD01AE
:102930006150710986819781DC01A41BB50BAD0143
:1029400041505109E5CF86819781861B970BBA01CB
:10295000AC0141505109DCCFCA0157FD0796A3E0F5
:1029600095958795AA95E1F7A481B5818A9F9001F5
:102970008B9F300D9A9F300D1124620F731F078CAF
:10298000F0A1E02DE60FF71F4770552721E030E05A
:1029900001C0220F4A95EAF78081822B8083089537
:1029A000CA0157FD079633E0959587953A95E1F76B
:1029B000A481B5818A9F90018B9F300D9A9F300D25
:1029C0001124620F731F078CF0A1E02DE60FF71F93
:1029D0004770552781E090E001C0880F4A95EAF7DB
:1029E000809590818923DACFCA0157FD079623E0AD
:1029F000959587952A95E1F7A481B5818A9F9001E5
:102A00008B9F300D9A9F300D1124620F731F078C1E
:102A1000F0A1E02DE60FF71F4770552721E030E0C9
:102A200001C0220F4A95EAF780818227B7CF089527
:102A30008EBD00000DB407FEFDCF8EB50895FF9248
:102A40000F931F93CF93DF93F82ED92FC62F80912A
:102A5000940490919504892B09F447C080919804BF
:102A60000E9488058091940490919504DC01ED9179
:102A7000FC910190F081E02D60E009950F2D1D2F54
:102A8000D1E0C1508091940490919504CF3F31F1F1
:102A9000D03298F00E941511809198040E94880508
:102AA0008091940490919504DC01ED91FC9101904A
:102AB000F081E02D60E00995D1E08091940490913F
:102AC0009504F8016491DC01ED91FC910190F08195
:102AD000E02D0995DF5F0F5F1F4FD3CFDF91CF91BF
:102AE0001F910F91FF900C941511E091A404F091A7
:102AF000A50490818091AA048095892380830F2D5D
:102B00001D2FC15008F438C0F8018491209192041F
:102B100030919304232B29F00E9418150F5F1F4F4B
:102B2000F0CF28E030E040E8E091A004F091A1046B
:102B30009091A804582F5423D9F05081952B90835D
:102B4000E091A204F091A30490815091A904952BE7
:102B50009083E091A204F091A30450819091A90484
:102B6000909595239083469521503109E9F6D6CF6B
:102B7000508190959523E3CFDF91CF911F910F91D5
:102B8000FF9008951F93CF93DF93EC018D8D9E8D61
:102B9000892BF9F0162F89A10E9488058D8D9E8DB5
:102BA000DC01ED91FC910190F081E02D60E0099550
:102BB0008D8D9E8DDC01ED91FC910190F081E02DD9
:102BC000612F09958D8D9E8DDF91CF911F910C9472
:102BD0001511ADA5BEA59C918BA9809589238C93D9
:102BE0008B8D9C8D892B31F0862FDF91CF911F919A
:102BF0000C94181528E030E080E8A9A5BAA599A999
:102C0000462F4823C1F04C91942B9C93ABA5BCA5B7
:102C10009C914AA9942B9C93ABA5BCA54C919AA9D5
:102C2000909594239C9386952150310931F7DF913B
:102C3000CF911F9108954C9190959423E6CF8CBD30
:102C40009DBD0895FF920F931F93CF93DF938091C3
:102C5000940490919504892B09F472C08CE08093C0
:102C6000B80065E08CE79AE00E941F1560917B0434
:102C7000615087E794E00E94C21520917D04309155
:102C80007E04C901079697FD079623E095958795E1
:102C90002A95E1F720917B0430917C04829F80018A
:102CA000839F100D929F100D1124C0919604D09116
:102CB000970480919404909195040C0F1D1F892B0B
:102CC00009F47CC0809198040E9488058091940446
:102CD00090919504DC01ED91FC910190F081E02D43
:102CE00060E40995FF24F3948091940490919504F5
:102CF0000C171D07E1F1BFE1BF15A0F40E941511EB
:102D0000809198040E948805809194049091950484
:102D1000DC01ED91FC910190F081E02D60E40995DA
:102D2000FF24F39480919404909195046991DC01BF
:102D3000ED91FC910190F081E02D0995F394D4CFB1
:102D40008091920490919304892B31F08091AC048E
:102D50009091AD040E941F16E091A604F091A70483
:102D600090818091AB048095892380837ACF0E94E3
:102D700015118091940490919504892B09F45FC0FA
:102D80002091AE043091AF044091B0045091B10451
:102D900060E074E284EF90E00E942D33205131090D
:102DA0004109510956954795379527952093B800C5
:102DB000DF91CF911F910F91FF900895E091A404AE
:102DC000F091A50480819091AA04892B80830C172F
:102DD0001D0779F289912091920430919304232B5D
:102DE00019F00E941815F3CF28E030E040E8E09198
:102DF000A004F091A1049091A804582F5423D9F075
:102E00005081952B9083E091A204F091A3049081CE
:102E10005091A904952B9083E091A204F091A30412
:102E200050819091A90490959523908346952150C7
:102E30003109E9F6CCCF508190959523E3CFE0910D
:102E4000A604F091A70480819091AB04892B808324
:102E5000AFCF1F93CF93DF93EC01162F8D8D9E8DF7
:102E6000892B29F18CE08093B80066EA111167EA9A
:102E7000CE010E94C2158D8D9E8D892B41F12FA907
:102E800038AD49AD5AAD60E074E284EF90E00E9445
:102E90002D332051310941095109569547953795F0
:102EA00027952093B800DF91CF911F9108958B8DC6
:102EB0009C8D892B21F08DA99EA90E941F16EFA53C
:102EC000F8A990818CA9809589238083CECFEFA526
:102ED000F8A980819CA9892B8083E5CF089590E093
:102EE00080E008958093BB0084E88093BC008091CB
:102EF000BC0087FFFCCF9091B900987F81E09832A9
:102F000031F0983129F0903419F080E00895089557
:102F1000089584EA8093BC008091BC0087FFFCCFB9
:102F20008091B900887F19F080EC0C94721780E0D2
:102F300008955F926F927F928F929F92AF92BF920D
:102F4000CF92DF92EF92FF920F931F93CF93DF9375
:102F5000CDB7DEB7582E742E652EB62E922E0E9457
:102F60008917852D0E9472178D2D0E9472178C2D46
:102F70000E9472178B2D8370A82A80E081108CE04C
:102F80008A290E947217862D0E947217872D0E942F
:102F900072178CE0F694E794D794C7948A95D1F78A
:102FA0008C2D807FC82E892D8F708C290E947217DE
:102FB000812F0E947217802F0E94721784E98093DC
:102FC000BC008091BC0084FDFCCFDF91CF911F91AC
:102FD0000F91FF90EF90DF90CF90BF90AF909F90B8
:102FE0008F907F906F905F9008954F925F926F9255
:102FF0007F928F929F92AF92BF92CF92DF92EF9289
:10300000FF920F931F93CF93C82FC090D604D090F8
:10301000D704E090D804F090D904CB01BA01A701FD
:1030200096010E942D3349015A0125E0F694E79458
:10303000D794C7942A95D1F735E0969587957795DB
:1030400067953A95D1F747E0660F771F881F991F5C
:103050004A95D1F7A70196010E942D3329013A0123
:103060008B019C01B501A401552766277727E7E06E
:10307000440F551F661F771FEA95D1F7525061091B
:103080007109440D551D661D771D812CA12C8C2FB7
:103090000E949917CF911F910F91FF90EF90DF90B1
:1030A000CF90BF90AF909F908F907F906F905F90E8
:1030B0004F9008958F92AF92CF92DF92EF92FF924E
:1030C0000F931F9388248394443051056105710543
:1030D00009F0812C4450510961097E4F97E0440F5B
:1030E000551F661F771F9A95D1F7A22EC12CD12CA0
:1030F0007601C39400E010E098010E9499171F9197
:103100000F91FF90EF90DF90CF90AF908F90089548
:10311000CF93DF93D82FC62F0E9489178D2F0E943F
:1031200072178C2F0E94721784E98093BC008091E3
:10313000BC0084FDFCCFDF91CF910895CF93C82FC1
:1031400060E880E18C0F0E948818EC2FF0E0EE0F11
:10315000FF1FE254FB4F11821082CF9108952F92EE
:103160003F924F925F926F927F928F929F92AF9217
:10317000BF92CF92DF92EF92FF920F931F93CF9364
:10318000DF9300D000D01F92CDB7DEB78983809146
:10319000CE049091CF04A091D004B091D104892B9A
:1031A0008A2B8B2B19F481E00E949E188091D20407
:1031B0009091D304A091D404B091D504892B8A2B8B
:1031C0008B2B19F482E00E949E184090CE04509000
:1031D000CF046090D0047090D10441145104610474
:1031E000710409F47FC12981222309F4A5C0C0908C
:1031F000C004D090C104F12CE12C4091C504498356
:10320000A3019201C701B6010E94FC349B01AC01ED
:103210008981E82FF0E0E75BFE4FA081B0E00E94DB
:1032200022334B015C01DC01CB0180589545A84C51
:10323000B0428130924CAB4EBB4008F446C0609126
:103240002A0170912B0180912C0190912D01A301F5
:1032500092010E942D3369017A0181E044E0C41695
:10326000D104E104F10408F489C086E0C816D10451
:10327000E104F10408F49BC019829DE2C91691E0B3
:10328000D906E104F10440F029812F5F2983F694E7
:10329000E794D794C794F1CF4981411103C0E894D2
:1032A000C0F81982A3019201C701B6010E94FC3443
:1032B0009B01AC018981E82FF0E0E75BFE4FA08124
:1032C000B0E00E9422334B015C01B501A40182E20F
:1032D0000E94F5178091C0049091C104B0E0A0E075
:1032E0008C159D05AE05BF0529F48091C504998113
:1032F0008917D1F029812295207FB701A60182E3A9
:103300000E945A186091C8046C6681E10E94881876
:10331000D092C104C092C00429812093C504809139
:10332000DE0480688093DE048092DA049092DB04ED
:10333000A092DC04B092DD04C090D204D090D304FB
:10334000E090D404F090D504C114D104E104F10458
:1033500009F4B0C08090DA049090DB04A090DC0403
:10336000B090DD04C501B401A70196010E942D3380
:10337000283031054105510500F582E00F900F908E
:103380000F900F900F90DF91CF911F910F91FF90B1
:10339000EF90DF90CF90BF90AF909F908F907F90F5
:1033A0006F905F904F903F902F900C949E1804E088
:1033B000C02ED12CE12CF12C72CF1D82213431058D
:1033C0004105510560F08D818F5F8D83CC0CDD1C34
:1033D000EE1CFF1C5695479537952795EFCFC501F5
:1033E000B401A70196010E942D3329833A834B83B0
:1033F0005C832FEF3FEF4FE050E00E944D355601C8
:103400006701E12CF12C00E010E00E947A352901DF
:103410003A019D819295907F9D83C12CD12C76019C
:10342000C394411451046104710431F0CC24CA9452
:10343000DC2CFFE0EF2EF12CC301B20127E0660F78
:10344000771F881F991F2A95D1F7A70196010E941F
:103450002D3349015A018B019C0149815A816B81AD
:103460007C81552766277727E7E0440F551F661FA5
:10347000771FEA95D1F7525061097109480D591D1E
:103480006A1D7B1D812CAD808AE30E9499178CE414
:1034900045284628472809F08CE06091C9046062FD
:1034A000682B82E10E94881881E090E09093C30429
:1034B0008093C2040F900F900F900F900F90DF91A8
:1034C000CF911F910F91FF90EF90DF90CF90BF9021
:1034D000AF909F908F907F906F905F904F903F90B4
:1034E0002F9008958090D2049090D304A090D4049B
:1034F000B090D50481149104A104B104D9F2C09014
:10350000C204D090C304F12CE12C2091C60429837D
:10351000A5019401C701B6010E94FC349B01AC01D6
:103520008981E82FF0E0E75BFE4FA081B0E00E94C8
:1035300022338B019C0100581545284C3042013044
:10354000124C2B4E3B4008F443C060912A0170910D
:103550002B0180912C0190912D01A50194010E94D5
:103560002D3369017A0184E0C816D104E104F10425
:1035700008F403CF96E0C916D104E104F10408F47D
:1035800058C019822DE2C21621E0D206E104F104EE
:1035900040F049814F5F4983F694E794D794C794EC
:1035A000F1CF8981811103C0E894C0F81982A50187
:1035B0009401C701B6010E94FC349B01AC019981C2
:1035C000E92FF0E0E75BFE4FA081B0E00E942233DC
:1035D000AB01BC0182E20E94F5178091C204909178
:1035E000C304B0E0A0E08C159D05AE05BF0531F425
:1035F0008091C6042981821709F45CCF2981229524
:10360000207FB701A6018AE30E945A186091C9047D
:103610006C6682E10E948818D092C304C092C204F2
:1036200049814093C6048091DE0480688093DE0463
:1036300041CF84E0C82ED12CE12CF12CB5CF4F9294
:103640005F926F927F92AF92BF92CF92DF92EF9292
:10365000FF920F931F93CF93DF93D82F082F10E083
:10366000F801EE0FFF1FEE0FFF1FE653FB4F4080E8
:10367000518062807380411451046104710489F4A3
:103680008D2FDF91CF911F910F91FF90EF90DF90E1
:10369000CF90BF90AF907F906F905F904F900C94C1
:1036A0009E185801AA0CBB1CF501E254FB4FC080C8
:1036B000D180F12CE12C02541B4FF801C681A301EB
:1036C0009201C701B6010E94FC349B01AC01EC2FB2
:1036D000F0E0E75BFE4FA081B0E00E9422339B0147
:1036E000AC0120583545484C50422130324C4B4EAD
:1036F0005B4008F43FC060912A0170912B018091DA
:103700002C0190912D01A30192010E942D3369019A
:103710007A0184E0C816D104E104F10408F4B0CFC2
:10372000E6E0CE16D104E104F10408F470C0C0E074
:10373000FDE2CF16F1E0DF06E104F10430F0CF5FE7
:10374000F694E794D794C794F3CFC11103C0E894DB
:10375000C0F8C0E0A3019201C701B6010E94FC3489
:103760009B01AC01EC2FF0E0E75BFE4FA081B0E0E5
:103770000E9422332AE1D11122E2AB01BC01822F47
:103780000E94F517F501E254FB4F80819181B0E072
:10379000A0E08C159D05AE05BF0521F4F8018681DA
:1037A0008C1731F12C2F2295207FB701A6018D2F88
:1037B000880F880F880F865D0E945A18F80161856E
:1037C00080E0D11180E26C64682B80E18D0F0E9453
:1037D0008818F501E254FB4FD182C082F801C683FC
:1037E0008091DE0490E2D11190E8892B8093DE0471
:1037F000DF91CF911F910F91FF90EF90DF90CF90CD
:10380000BF90AF907F906F905F904F90089584E04D
:10381000C82ED12CE12CF12C9ACFFF920F931F933D
:10382000CF93DF9300D0CDB7DEB7EAE0F1E010E050
:1038300000E08191080F111D81E0EE31F807C9F712
:1038400044E150E06AE071E082E090E00E9485127D
:103850000D5F1F4F1A83098342E050E0BE016F5F86
:103860007F4F90E080E00E948512EEE1F1E088E277
:1038700091E010E000E02191020F111D8E179F07CB
:10388000D1F780910B019CE0F92E8F9DC00111248E
:103890004AE050E06EE171E048960E9485120D5FAB
:1038A0001F4F1A83098380910B018F9DC001112442
:1038B00042E050E0BE016F5F7F4F46960E94851246
:1038C0000F900F90DF91CF911F910F91FF9008956E
:1038D0008091170190911801092E000CAA0BBB0BC7
:1038E00080549340A446BE4F8093D6049093D7044F
:1038F000A093D804B093D90480E00E941F1B82E0FB
:103900000C941F1B4F925F926F927F928F929F92A7
:10391000AF92BF92CF92DF92EF92FF920F931F93DD
:10392000CF934091150150911601052E000C660BA6
:10393000770B6A017B0180E2C80E81EAD81E87E01E
:10394000E81EF11C80911F0190912001A09121019E
:10395000B09122014090CE045090CF046090D004EA
:103960007090D104C1E0C414D504E604F70409F44E
:10397000C0E00091CA041091CB042091CC04309196
:10398000CD04E0911E01EE2339F180900D0190905D
:103990000E01A0900F01B0901001880D991DAA1D75
:1039A000BB1D805E9E45A84FBF4F840F951FA61F6D
:1039B000B71F1092DE04081719072A073B0739F1D1
:1039C0008093CA049093CB04A093CC04B093CD040D
:1039D00080E00E941F1B1BC080901101909012017B
:1039E000A0901301B0901401880D991DAA1DBB1D54
:1039F0008052914AA740B109841B950BA60BB70BC7
:103A00001092DE0480179107A207B307C9F6C41409
:103A1000D504E604F70469F48091D2049091D304AC
:103A2000A091D404B091D50488169906AA06BB06C5
:103A300099F0C092CE04D092CF04E092D004F092DC
:103A4000D1048092D2049092D304A092D404B09274
:103A5000D5048C2F0E94AF186091DE04662391F08C
:103A600081EBCF911F910F91FF90EF90DF90CF905E
:103A7000BF90AF909F908F907F906F905F904F908E
:103A80000C948818CF911F910F91FF90EF90DF90C9
:103A9000CF90BF90AF909F908F907F906F905F90EE
:103AA0004F90089585E10E9463072091190130E04D
:103AB000DC010E9446352FEF33E040E050E00E94E9
:103AC00003332093C4020895CF92DF92EF92FF92C6
:103AD0008FE00E94630727E332E0DC010E94463555
:103AE000CC24CA9423E0D22EE12CF12CA70196011C
:103AF0000E9403333093C3022093C20280E10E94EC
:103B0000630727E830E0DC010E944635A7019601F3
:103B10000E9403333093C0022093BF02FF90EF90C6
:103B2000DF90CF900895DC01ED91FD918081ED91C2
:103B3000FD919081ED91FD916C9163708E2309F060
:103B400064609F2309F06860E0EBFDE1E60FF11D82
:103B5000659565956D936D917D918D919D9109947C
:103B600023C01AC012C016C010C01EC009C014C0A5
:103B700013C006C019C009C00DC007C00DC014C0D5
:103B800062507040804090400BC061507040804057
:103B9000904006C06E5F01C06F5F7F4F8F4F9F4F99
:103BA0009E938E937E936E930895BF92CF92DF92F1
:103BB000EF92FF920F931F93CF93DF93EC01B62EFA
:103BC000C72E8D85811105C0CE010E949C088111F0
:103BD0000EC01B861D861C8680E0DF91CF911F9151
:103BE0000F91FF90EF90DF90CF90BF90089540E04D
:103BF00060EFCE010E94490801E0E12CD12C11E0D8
:103C0000CE010E94F607F82ECE010E94F60791E041
:103C1000F91218C0813099F51134D8F2DB86D11031
:103C200002C081E08D878B81882399F22396EB2D4A
:103C3000FC2DCF01089629912193E817F907D9F7B0
:103C400081E0CBCFEE2DF0E0F8120FC08B85181776
:103C5000A0F4DE01AE0FBF1F13968C91802379F480
:103C6000F12C193008F41C87D12EEC0FFD1F838135
:103C7000902F9095892383830AC08113F1CFFE0191
:103C8000EE0DF11D8381802B8383FF24F3946F2D30
:103C9000CE010E941A081F5F000F11F4E39401E0A7
:103CA00087E08E1508F0ACCFB7CF4F925F926F923E
:103CB0007F928F929F92AF92BF92CF92DF92EF92BC
:103CC000FF920F931F93CF93DF93CDB7DEB761972A
:103CD0000FB6F894DEBF0FBECDBF0E94D307C090D1
:103CE000BB02D090BC02E090BD02F090BE026C1905
:103CF0007D098E099F09693873418105910508F492
:103D000058C08091BA02811154C010924B04809126
:103D10004F04909150040E949C0840E06CEC80910C
:103D20004F04909150040E9449084091490464E472
:103D300080914F04909150040E94490880914B0457
:103D4000882391F1E0914A04E9500EEE12E0E3304D
:103D500038F4F0E0EE0FFF1FE95CFE4F00811181A7
:103D600080914C04882309F481C080914904811119
:103D70007DC00E94D3074B015C012801110F66082A
:103D8000770880914F04909150040E94F60781308B
:103D900059F00E94D30764197509860997096815B7
:103DA00079058A059B0568F381E080934B04809335
:103DB000BA020E94D3076C197D098E099F096134EC
:103DC0007F4181059105D8F18091BA028823B9F12C
:103DD00010911C01E0914F04F09150041386158658
:103DE0001486128611861086178216821582148216
:103DF0001382BE01665F7F4F80914F049091500403
:103E00000E94D51D811139C060E070E08EEF92EC08
:103E100020E030E040E05FE30E945F330E94CB335C
:103E2000160F1093C1020E94D3076093BB027093D8
:103E3000BC028093BD029093BE021092BA026196BA
:103E40000FB6F894DEBF0FBECDBFDF91CF911F91AB
:103E50000F91FF90EF90DF90CF90BF90AF909F9029
:103E60008F907F906F905F904F900895B801110FE1
:103E7000880B990B0E94A00797CF67E0CE010A96A6
:103E80000E94DF0799898913BFCF80914F049091D9
:103E900050040E949C08882309F4B6CFBE016F5FCE
:103EA0007F4FCE010A960E94D408882309F4ACCF34
:103EB00068E0CE0101960E94DF0799858913A4CF9F
:103EC0006A8170E0762F6627770F770F770F298149
:103ED00058E0259F90011124262B372B8A858031AD
:103EE000D1F4688570E08F81AB01481B5109CA018C
:103EF0009695982F8827979587950E942C35CB010A
:103F00004097B90153E0660F771F5A95E1F7607843
:103F10009C01260F371F213854EE35070CF474CF5F
:103F2000B901330F880B990B0E94033420E030E075
:103F300040E05CE30E948F346BCF0F931F93CF93CD
:103F4000DF9380913703882359F0109296030E94E3
:103F5000FC1110923703DF91CF911F910F910895BB
:103F60000E94D3070091B6021091B7022091B802C7
:103F70003091B902601B710B820B930B693E734049
:103F80008105910520F4012B022B032B21F70E94C0
:103F9000D3076093B6027093B7028093B8029093F0
:103FA000B90288E60E94880560E08BE694E00E94F2
:103FB000E1108BE694E00E941511882391F0109295
:103FC0009D0380919D03882331F2109298031092F3
:103FD000970310929603DF91CF911F910F910C944C
:103FE000FC1181E080939D0367E088E60E94C30F87
:103FF0001092440480934304873018F38BE694E0D6
:104000000E94A110D82F982F92959770CAE08D2FFB
:104010008F709C9F800D1124809396038BE694E013
:104020000E94A110982F92959F708F709C9F800D79
:104030001124809397038BE694E00E94A110982F9F
:10404000929593708F709C9F800D1124809398039C
:104050008BE694E00E94A110982F92959F708F702C
:104060009C9F800D1124809399038BE694E00E941D
:10407000A110982F92959F708F709C9F800D112496
:1040800080939A038BE694E00E94A110982F92955A
:104090009F708F709C9F800D112480939B038BE6F3
:1040A00094E00E94A110982F9F70925E82958F706D
:1040B0008C9F900D112490939C03D7FF4CCF81CF00
:1040C000CF93DF93EC018091DF040E9488058D2F50
:1040D00090E00E941011CE0199270E9410118BE6EA
:1040E00094E00E94151161E08091DF040E94C30FEB
:1040F0001092440480934304882339F08BE694E0C3
:104100000E94A110DF91CF91089580E0FBCFEF9244
:10411000FF920F931F93CF93DF938B01040F151F13
:10412000EB017C01E61AF70AC7018C0F9D1F0E9464
:1041300060208993C017D107B9F7DF91CF911F9104
:104140000F91FF90EF900895DF92EF92FF920F93FF
:104150001F93CF93DF9300D0CDB7DEB71A821982B9
:1041600080910B012CE0829FC001112442E050E0BD
:10417000BE016F5F7F4F46960E948720F12CE12C95
:1041800010E000E08CE0D82E80910B0197018D9D0E
:10419000200D311D1124C90148960E946020080F8E
:1041A000111D3FEFE31AF30A8AE0E816F10461F704
:1041B0000D5F1F4F89819A8108171907B1F480910B
:1041C0000B018D9DC00111244AE050E06EE171E0C9
:1041D00048960E9487200F900F90DF91CF911F91FA
:1041E0000F91FF90EF90DF9008950E940D1CF3CF88
:1041F000FC0101900020E9F73197AF01481B590BF2
:10420000BC0187E794E00C949A058F929F92AF923D
:10421000BF920F931F93CF93DF93CDB7DEB7A197D4
:104220000FB6F894DEBF0FBECDBF19A2423008F41E
:104230004AE08E010F5D1F4F842E912CB12CA12CD2
:10424000A50194010E942D33E62FB901CA01EA307D
:10425000F4F4E05DD801EE938D01232B242B252B64
:1042600079F790E080E0109719F0CD010E94F820D6
:10427000A1960FB6F894DEBF0FBECDBFDF91CF91F0
:104280001F910F91BF90AF909F908F900895E95C20
:10429000E1CF682F70E090E080E04AE00C940521C7
:1042A000CF92DF92EF92FF92CF93DF936C01990F41
:1042B000EE08FF08F7FE17C08DE20E94700CEC01BB
:1042C00066277727CB016C197D098E099F094AE083
:1042D0000E9405218C0F9D1FDF91CF91FF90EF90E1
:1042E000DF90CF9008954AE0C701B601DF91CF91EA
:1042F000FF90EF90DF90CF900C940521CF93DF9348
:104300004AE00E940521EC0181EA91E00E94F82038
:104310008C0F9D1FDF91CF910895CF93DF930E9463
:10432000F820EC0181EA91E00E94F8208C0F9D1F9B
:10433000DF91CF9108950C94F820CF92DF92EF9205
:10434000FF92CF93DF936C01990FEE08FF08F7FE01
:104350001DC08DE20E94700CEC0166277727CB010F
:104360006C197D098E099F094AE00E940521C80F3A
:10437000D91F81EA91E00E94F8208C0F9D1FDF91E8
:10438000CF91FF90EF90DF90CF9008954AE0C70162
:10439000B6010E940521EC01ECCFCF93DF930E9480
:1043A0004921EC0181EA91E00E94F8208C0F9D1FC9
:1043B000DF91CF91089520917D0430917E04C90151
:1043C000079697FD079623E0959587952A95E1F73F
:1043D00020917B0430917C04829FA001839F500D2B
:1043E000929F500D112470E060E0809196049091AE
:1043F00097040C940A37CF92DF92EF92FF920F93BB
:104400001F93CF930E94DB211092840410928304A7
:10441000109286041092850481E090E090938A04C3
:1044200080938904909388048093870483E0809329
:104430008B0480938C04E0914903E23108F061C160
:10444000F0E0EB5DFD4D0C9440353722F8230E244F
:104450002B2444246A2489249924BB24D624E824C8
:10446000FA240A251A2532254A25612571258091CD
:104470001F0190912001A0912101B091220180386B
:104480009649A849B10520F48AE292E00E949B2156
:1044900060911F0170912001809121019091220172
:1044A000F0E4CF2EF2E4DF2EFFE0EF2EF12CA70197
:1044B00096010E942D33CA01B9014AE00E940521EC
:1044C0008091830490918404059690938404809352
:1044D000830460911F0170912001809121019091CE
:1044E0002201A70196010E942D33603A764881404F
:1044F000910520F484EA91E00E949B2160911F01C4
:1045000070912001809121019091220120E432E4F8
:104510004FE050E00E942D336031774281059105D4
:1045200020F484EA91E00E949B2160911F01709128
:104530002001809121019091220120E432E44FE09A
:1045400050E00E942D33E8EECE2EE3E0DE2EE12C8B
:10455000F12CA70196010E942D33CA01B9014AE04E
:104560000E94052182E080938B0480938C048091CB
:10457000830490918404059690938404809383042B
:1045800087E090E0909386048093850460911F01FA
:10459000709120018091210190912201A701960143
:1045A0000E942D33643671058105910520F484EA5B
:1045B00091E00E949B2160911F01709120018091E8
:1045C00021019091220128EE33E040E050E00E946A
:1045D0002D332AE030E040E050E00E942D33CA0144
:1045E000B9010E947E2181E080938B0480938C042A
:1045F0008091C402843620F484EA91E00E949B21D9
:104600008091C402CAE06C2F0E940C3590E00E9499
:10461000502186EA91E00E949B218091C4026C2F78
:104620000E940C35892F90E00E94502188EA91E089
:104630000E949B2180914803882309F46BC08AEA79
:1046400091E00E949B218091C2029091C3028A3026
:10465000910590F069E070E00E9418359B01EE240E
:10466000E394F12C09E010E047E150E060E470E0F1
:1046700087E794E00E94690D8091C2029091C30285
:1046800069E070E00E941835605C7F4FEE24E3948F
:10469000F12C8C0121E030E047E150E087E794E025
:1046A0000E94690D8091BF029091C00286309105F1
:1046B00090F065E070E00E9418359B01EE24E394D1
:1046C000F12C05E010E050E040E064E670E087E7A0
:1046D00094E00E94690D8091BF029091C00265E054
:1046E00070E00E9418356C597F4FEE24E394F12C52
:1046F0008C0121E030E050E040E087E794E00E9448
:10470000690DCF911F910F91FF90EF90DF90CF90A7
:104710000C9422168091C10292E3980F953608F00E
:104720005BC087FD04C08AE292E00E949B218091D9
:10473000C102082E000C990B0E94502187EF0E94A5
:10474000700C8FEA91E00E949B2180913F038823A7
:1047500009F445C08AE292E00E949B21809198036F
:104760008A3020F48AE292E00E949B218091980393
:104770000E9449218091960380FF34C087EB91E02D
:104780000E949B21809197038A3020F484EA91E073
:104790000E949B21809197030E94492180911F01D3
:1047A00090912001A0912101B09122018138964978
:1047B000A849B105D0F089EB91E00E949B2180913E
:1047C0000B018A3020F48AE292E00E949B218091C2
:1047D0000B010E94492166CF81EB91E0B4CF86EABC
:1047E00091E0BACF8AE292E0CBCF8CEB91E0E5CFBB
:1047F00080910B010E94CD2181E080938B048093F6
:104800008C04809149030E9449218FEB91E00E9422
:104810009B2180910C010E94492173CFE0910A01F4
:10482000F0E0EE0FFF1FE35CFE4F20813181AAE034
:10483000B0E00E944F330E947E2181E080938B0480
:1048400080938C04809149030E94492181ED91E07D
:104850000E949B2156CF80911E01882391F08BED01
:1048600091E00E948D2181E080938B0480938C04E1
:10487000809149030E94492183EE91E00E948D219D
:1048800040CF8FED91E0EDCF8091230190912401F5
:1048900024E6289FB001299F700D112490E080E04C
:1048A0004AE00E94052181EA91E00E94F82081E01F
:1048B00080938B0480938C04809149030E9449214A
:1048C00084EF91E00E949B2180EF0E94700C80E0B9
:1048D00092E0BECF809125019091260124E6289F89
:1048E000B001299F700D112490E080E04AE00E9401
:1048F000052181EA91E00E94F82081E080938B04F9
:1049000080938C04809149030E94492184E092E0C5
:10491000D9CF809127010E94CD2181E080938B0423
:1049200080938C04809149030E94492180E192E0A8
:104930008FCF82E080938B0480938C04609111016F
:104940007091120180911301909114010E947E21B7
:1049500081E080938B0480938C04809149030E94B2
:10496000492181E292E00E949B2180EF0E94700C1D
:1049700088ED91E06DCF82E080938B0480938C046E
:1049800060910D0170910E0180910F0190911001C5
:104990000E947E2181E080938B0480938C0480911F
:1049A00049030E9449218CE292E0DDCF80911501FC
:1049B000909116010E949D2181E080938B04809349
:1049C0008C04809149030E94492187E392E0CBCF78
:1049D00080911701909118010E949D2181E08093A0
:1049E0008B0480938C04809149030E94492188E4C0
:1049F00092E0B9CF809119010E94CD2181E080938E
:104A00008B0480938C04809149030E94492184E5A2
:104A100092E01ECF80910C010E94CD2181E0809315
:104A20008B0480938C04809149030E9449218FE577
:104A300092E00ECF809198038A3020F484EA91E0CE
:104A40000E949B21809198030E94CD2181E0809358
:104A50008B0480938C04809149030E9449218FE646
:104A600092E0F6CE809197038A3020F484EA91E0B8
:104A70000E949B21809197030E94CD2181E0809329
:104A80008B0480938C04809149030E94492186E71E
:104A900092E0DECE80911A01882381F08FE792E0C8
:104AA0000E948D2181E080938B0480938C048091FF
:104AB00049030E94492186E892E0E0CE83E892E033
:104AC000EFCF80911B010E94CD2181E080938B0468
:104AD00080938C04809149030E94492188E992E0E7
:104AE000B7CE80911C0190911D010E949D2181E013
:104AF00080938B0480938C04809149030E94492108
:104B00008AEA92E00E949B2180EF0E94700C87EF5E
:104B10000E94700C8FEA91E09BCE0E94053785EDD4
:104B20008093BC008091920390919303A091940391
:104B3000B09195030796A11DB11D23E0B695A795E9
:104B4000979587952A95D1F72091BC0024FD03C045
:104B500010929003089540919203509193036091B5
:104B6000940370919503452B462B472B69F30097CF
:104B7000A105B10541F025E32A95F1F70000019761
:104B8000A109B109E1CF809191030C94A20F1F926A
:104B90000F920FB60F9211242F933F934F935F9371
:104BA0006F937F938F939F93AF93BF93EF93FF93F5
:104BB00080EA93E00E941806FF91EF91BF91AF91B8
:104BC0009F918F917F916F915F914F913F912F9125
:104BD0000F900FBE0F901F9018951F920F920FB657
:104BE0000F9211242F938F939F93EF93FF93E09154
:104BF000B003F091B1038081E091B603F091B70367
:104C000082FD1BC090818091B9038F5F8F732091CB
:104C1000BA03821741F0E091B903F0E0E056FC4F8F
:104C2000958F8093B903FF91EF919F918F912F9171
:104C30000F900FBE0F901F9018958081F4CF1F9298
:104C40000F920FB60F9211242F933F938F939F9340
:104C5000AF93BF9380912A0390912B03A0912C03D3
:104C6000B0912D033091290323E0230F2D3758F500
:104C70000196A11DB11D2093290380932A039093CF
:104C80002B03A0932C03B0932D0380912E039091BE
:104C90002F03A0913003B09131030196A11DB11DE6
:104CA00080932E0390932F03A0933003B09331038E
:104CB000BF91AF919F918F913F912F910F900FBE18
:104CC0000F901F90189526E8230F0296A11DB11D85
:104CD000D2CF1F920F920FB60F9211242F933F93B2
:104CE0004F935F936F937F938F939F93AF93BF93F4
:104CF000EF93FF938091B900887F803609F44AC012
:104D0000F0F5883209F4A7C018F5803109F49BC08A
:104D1000B8F4882309F4F9C0883009F494C0FF91ED
:104D2000EF91BF91AF919F918F917F916F915F9123
:104D30004F913F912F910F900FBE0F901F9018959C
:104D4000883109F488C0803251F780936E0314C013
:104D5000803409F49DC040F48033B9F38833F9F608
:104D600080936E0385ECB0C0803509F485C088352A
:104D700009F496C0883499F60E948F25D0CF8839DF
:104D800009F48CC038F5883729F050F4883611F0D2
:104D9000803729F683E0809390031092280357C050
:104DA000883809F47BC0803919F0803809F0B7CF12
:104DB00080912803803208F071C0E091280381E0DF
:104DC0008E0F809328038091BB00F0E0E85FFC4FDA
:104DD00080833DC0803B39F0E0F4803A09F479C02B
:104DE000883A09F09CCF84E08093900310920703E7
:104DF00010920603E0913D04F0913E0409958091E4
:104E0000060381110FC081E0809306031092E60231
:104E100009C0803C09F4A6CF883C09F4A3CF883BA5
:104E200009F07DCFE091070381E08E0F80930703A7
:104E3000F0E0EA51FD4F80818093BB009091070321
:104E40008091060329C080916B038093BB0085ECA1
:104E50008093BC0064CF90916D0380916C03981790
:104E600058F5E0916D0381E08E0F80936D03F0E0C3
:104E7000E65BFC4F8081E9CFE0916D0381E08E0F0E
:104E800080936D038091BB00F0E0E65BFC4F808374
:104E900090916D0380916C039817C8F285E8D8CF84
:104EA000E0916D0381E08E0F80936D038091BB00D4
:104EB000F0E0E65BFC4F808380916F0381115CCF53
:104EC00081E080936A0384EA8093BC00109290038F
:104ED00026CF85EC8093BC0010929003809128032C
:104EE000803230F4E0912803F0E0E85FFC4F10825C
:104EF0006091280370E0E0913F04F091400488E065
:104F000093E00995109228030ACF10926E0334CFD4
:104F10001F920F920FB60F9211242F933F934F932E
:104F20005F936F937F938F939F93AF93BF93EF9311
:104F3000FF9380914704909148040E94931DFF9134
:104F4000EF91BF91AF919F918F917F916F915F9101
:104F50004F913F912F910F900FBE0F901F9018957A
:104F60001F920F920FB60F9211242F933F934F93DE
:104F70005F936F937F938F939F93AF93BF93EF93C1
:104F8000FF9380914504909146040E94931DFF91E8
:104F9000EF91BF91AF919F918F917F916F915F91B1
:104FA0004F913F912F910F900FBE0F901F9018952A
:104FB000CF92DF92EF92FF92CF93DF931092A303F1
:104FC0001092A20398EEC92E93E0D92EE12CF12C79
:104FD000C092A403D092A503E092A603F092A70387
:104FE00085E591E09093A1038093A00385EC90E088
:104FF0009093AD038093AC0384EC90E09093AF0367
:105000008093AE0380EC90E09093B1038093B00363
:1050100081EC90E09093B3038093B20382EC90E034
:105020009093B5038093B40386EC90E09093B7031C
:105030008093B6031092B9031092BA031092BB0387
:105040001092BC0310924404109243041092420444
:10505000109241040E94840F86E895E090933E04EC
:1050600080933D0487E895E09093400480933F044B
:1050700010926E0410926D04C0926F04D09270046E
:10508000E0927104F092720487E691E090936C04D0
:1050900080936B0480E58093DF041092BF0410922C
:1050A000BE041092C1041092C0041092C304109266
:1050B000C2041092C4041092C5041092C6048091D8
:1050C000340190913501A09136018093C7049093EB
:1050D000C804A093C9041092CA041092CB04109281
:1050E000CC041092CD041092CE041092CF041092F2
:1050F000D0041092D1041092D2041092D3041092D2
:10510000D4041092D50480E892EBA6EEBEE0809322
:10511000D6049093D704A093D804B093D90462E046
:1051200082E00E94270762E083E00E942707E1EA0D
:10513000FAE0E491F0E0EE0FFF1FEB56F54FA5917A
:10514000B491B093B304A093B204E3E8FAE04491BD
:105150004093B604E2EAFAE0E491F0E0EE0FFF1FBC
:10516000EB56F54FC591D491D093B504C093B404D8
:10517000E4E8FAE0E491E093B7041092B9041092E5
:10518000BA041092BB041092BC042BE33FE1C901A6
:105190000197F1F79C91842F892391E009F490E025
:1051A0008881E82309F0926022EB34E09093B80400
:1051B0003093460420934504809169008C7F816080
:1051C00080936900E89AC1E0C093BD04309348041D
:1051D0002093470480916900837F846080936900F5
:1051E000E99A82E08093BD0410927A0410927904C7
:1051F00020E830E030937C0420937B0480E290E050
:1052000090937E0480937D043093800420937F04E8
:10521000909382048093810410928D0410928404F0
:10522000109283041092860410928504C0938C041B
:10523000C0938B048FEF9FEF90938A04809389042F
:105240009093880480938704C0938E0410928F04F7
:10525000109291041092900489E791E09093780461
:10526000809377048BE694E0909395048093940464
:1052700010929704109296048FEF80939B04809372
:105280009C0480939D0480939E0480939F0480E5FA
:105290008093AC041092AD0480EA96E8A1E0B0E0FF
:1052A0008093AE049093AF04A093B004B093B10484
:1052B000109293041092920460E08EE00E942707FF
:1052C000EFE8FAE0E491E0935D04EDEAFAE0E491BE
:1052D000F0E0EE0FFF1FEB56F54F85919491909300
:1052E0005F0480935E041092680410926A04109226
:1052F000690410926704109266041092650410927B
:10530000640410926304109262041092610410927B
:1053100060048DE594E09093500480934F041092C4
:105320004D0410924E041092490489E080934A047F
:10533000C0934B04C0934C0410925C0410925B0425
:10534000DF91CF91FF90EF90DF90CF900895CF93B2
:10535000DF93CDB7DEB760970FB6F894DEBF0FBE10
:10536000CDBF789484B5826084BD84B5816084BDEE
:1053700085B5826085BD85B5816085BD80916E00F3
:10538000816080936E001092810080918100826024
:105390008093810080918100816080938100809161
:1053A00080008160809380008091B1008460809350
:1053B000B1008091B00081608093B00080917A004C
:1053C000846080937A0080917A00826080937A0072
:1053D00080917A00816080937A0080917A00806861
:1053E00080937A001092C100E091B003F091B10374
:1053F00082E08083E091B003F091B1031082E091EC
:10540000AC03F091AD031082E091AE03F091AF03D5
:1054100080E180831092B803E091B403F091B5036A
:1054200086E08083E091B203F091B30380818061D4
:105430008083E091B203F091B30380818860808320
:10544000E091B203F091B303808180688083E091A2
:10545000B203F091B30380818F7D808360E084E0AC
:105460000E94270760E08FE00E94270760E080E14C
:105470000E94270761E084E00E94F90661E08CE069
:105480000E94270761E08DE00E94270761E08BE022
:105490000E94270760E08CE00E94F90660E08DE042
:1054A0000E94F90660E08BE00E94F90683E0809399
:1054B00000018091960490919704892B11F10E942C
:1054C000DB2120917D0430917E0480917B049091BA
:1054D0007C04213231050CF0B5C0B901605271096C
:1054E00077FF02C06F5F7F4F75956795835791096E
:1054F00097FD019600E210E023E730E04CED55E027
:10550000B4C020917D0430917E04C901079697FDB7
:105510000796B3E095958795BA95E1F720917B04BE
:1055200030917C04AC01429FC001439F900D529F7B
:10553000900D11240E94E035909397048093960477
:10554000892B09F0BCCF0E94DB210E942216E0913A
:105550004F04F09150041386158614861286118626
:1055600010861782168215821482138210924D04BF
:1055700010924E0401E0BE016F5F7F4F80914F0497
:10558000909150040E94D51D882309F446C267E01B
:10559000CE0101960E94DF0798858913ECCF809198
:1055A0004904811128C080914F04909150040E94B9
:1055B0009C08BE016F5F7F4F80914F049091500413
:1055C0000E947D0840E064EB80914F04909150046C
:1055D0000E94490880914F04909150040E94F60760
:1055E000182F80914F04909150040E949C08111133
:1055F00002C00093490410914A048981803111F45A
:105600000C94EF32CE0101960E942009811708F018
:10561000F3C180914A0480934A0480914D048F5FC6
:1056200080934D048981883239F008F0EFC18031D0
:1056300019F0823209F09FCF80914E048F5F8093E2
:105640004E0499CFB9016054710977FF02C06F5FB2
:105650007F4F759567958255910997FD019600E4F6
:1056600010E022E530E04CEB57E0959587950E94DD
:105670004F0E82E080939904809194049091950458
:10568000892B09F4AEC08CE38093980410924404F3
:105690001092430410924204109241040E94840F1D
:1056A00086E895E090933E0480933D0487E895E07A
:1056B0009093400480933F0480919F0487FD1EC017
:1056C00061E00E94270761E080919F040E94F90633
:1056D00061E070E080E090E00E94A00760E08091CF
:1056E0009F040E94F9066AE070E080E090E00E946A
:1056F000A00761E080919F040E94F90680919404C4
:1057000090919504892B09F42BC18CE08093B8000B
:1057100064E08EEC95E00E941F1560917D0461505D
:1057200087E794E00E94C21564E08AEC95E00E944D
:105730001F158091990460E1813009F064E187E7E9
:1057400094E00E94C21564E086EC95E00E941F156B
:1057500080917B0490917C048038910509F02BC1E5
:1057600080917D0490917E048032910509F00FC1F3
:1057700064E082EC95E00E941F1569ED87E794E0F4
:105780000E94C2158091990462E2813009F061EFB4
:1057900087E794E00E94C21566E086EB95E00E94E0
:1057A0001F158091940490919504892B09F41AC1D6
:1057B0002091AE043091AF044091B0045091B104F7
:1057C00060E074E284EF90E00E942D3320513109B3
:1057D0004109510956954795379527952093B8006B
:1057E000B2CE61E080919D040E94270761E0809124
:1057F0009E040E94270780919D04082E000C990B9F
:10580000FC01E156F54FE491F0E0EE0FFF1FEE5280
:10581000FA4F259134913093A5042093A404FC0100
:10582000EF57F54FE491E093AA0480919E04082E6F
:10583000000C990BFC01E156F54FE491F0E0EE0FFE
:10584000FF1FEE52FA4FA591B491B093A704A09315
:10585000A604FC01EF57F54FE491E093AB048C9163
:10586000E82BEC938091920490919304892B09F496
:1058700034C01FB7F89480913203811127C0E9EA40
:10588000FAE08491EBE8FAE09491E82FF0E0EE0F73
:10589000FF1FE455FA4FA591B491EC91E92321F44F
:1058A00061E08AE00E94F90661E08AE00E94270731
:1058B0008CB580618CBD8CB580648CBD61E08DE061
:1058C0000E94270761E08BE00E9427078091320346
:1058D0008F5F809332031FBFEFCE61E080919B0406
:1058E0000E94270761E080919C040E942707809115
:1058F0009B04082E000C990BFC01E156F54FE49136
:10590000F0E0EE0FFF1FEE52FA4F259134913093E5
:10591000A1042093A004FC01EF57F54FE491E0931C
:10592000A80480919C04082E000C990BFC01E15600
:10593000F54FE491F0E0EE0FFF1FEE52FA4FA59104
:10594000B491B093A304A093A204FC01EF57F54FC8
:10595000E491E093A9048C91E095E823EC93ACCE1C
:105960008091920490919304892B31F08091AC0442
:105970009091AD040E941F16E091A604F091A70437
:1059800090818091AB04809589238083C1CE80343F
:10599000910509F0F2CE63E08FEB95E00E941F15B0
:1059A000809199046FE9813009F06FEC87E794E00A
:1059B0000E94C215E2CE8036910509F0DECE8091BC
:1059C0007D0490917E04409709F0D7CE63E08CEB84
:1059D00095E00E941F158091990460E1813031F3B8
:1059E0006FEAE4CFE091A604F091A7048081909142
:1059F000AB04892B8083A7CD8981803111F48CE0A1
:105A00000ACECE0101960E94200905CE8B3309F4FF
:105A100013CE823409F0AFCD0FCE1A82198242E044
:105A200050E0BE016F5F7F4F90E080E00E948720D2
:105A300002E010E0F12CE12CC8010E946020E80E89
:105A4000F11C0F5F1F4F06311105B1F753E0E50E52
:105A5000F11C89819A81E816F90609F0DBC044E15E
:105A600050E06AE071E082E090E00E9487200E94AE
:105A7000A42080911B0180933D031092C7041092D3
:105A8000C8041092C90460E880E10E94881860E8A8
:105A900081E10E94881860E882E10E94881880E80D
:105AA00096E3AEEBB6E280932A0190932B01A0938C
:105AB0002C01B0932D0162E987EB0E9488180E94A7
:105AC000681C0E94821C0E94521D0E94641D0E943C
:105AD000551E0E949D1F0E94DB211092840410928B
