:100000000C9452050C9420260C94F8250C947A0537
:100010000C947A050C947A050C947A050C947A0564
:100020000C947A050C947A050C947A050C947A0554
:100030000C947A050C947A050C947A050C947A0544
:100040000C9484240C947A050C9457240C94312439
:100050000C947A050C947A050C947A050C947A0524
:100060000C94D9240C947A05000103070F1F3F7FDD
:100070000080C0E0F0F8FCFE00000000003E5B4F96
:100080005B3E3E6B4F6B3E1C3E7C3E1C183C7E3CF8
:10009000181C577D571C1C5E7F5E1C00183C180006
:1000A000FFE7C3E7FF0018241800FFE7DBE7FF3096
:1000B000483A060E2629792926407F050507407F04
:1000C00005253F5A3CE73C5A7F3E1C1C08081C1C77
:1000D0003E7F14227F22145F5F005F5F06097F016D
:1000E0007F006689956A606060606094A2FFA29458
:1000F00008047E040810207E201008082A1C080826
:100100001C2A08081E101010100C1E0C1E0C303873
:100110003E3830060E3E0E06000000000000005F74
:1001200000000007000700147F147F14242A7F2A90
:100130001223130864623649562050000807030052
:10014000001C2241000041221C002A1C7F1C2A089E
:10015000083E080800807030000808080808000001
:1001600060600020100804023E5149453E00427F75
:10017000400072494949462141494D331814127FC4
:100180001027454545393C4A494931412111090764
:100190003649494936464949291E000014000000E5
:1001A00040340000000814224114141414140041B7
:1001B00022140802015909063E415D594E7C121174
:1001C000127C7F494949363E414141227F414141AC
:1001D0003E7F494949417F090909013E4141517327
:1001E0007F0808087F00417F41002040413F017F98
:1001F000081422417F404040407F021C027F7F0460
:1002000008107F3E4141413E7F090909063E4151A8
:10021000215E7F09192946264949493203017F0198
:10022000033F4040403F1F2040201F3F4038403F99
:10023000631408146303047804036159494D4300AF
:100240007F4141410204081020004141417F0402E6
:10025000010204404040404000030708002054547D
:1002600078407F284444383844444428384444285B
:100270007F385454541800087E090218A4A49C78AE
:100280007F0804047800447D40002040403D007F0A
:100290001028440000417F40007C047804787C08EA
:1002A0000404783844444438FC18242418182424BE
:1002B00018FC7C08040408485454542404043F44A3
:1002C000243C4040207C1C2040201C3C4030403CD2
:1002D00044281028444C9090907C4464544C440032
:1002E0000836410000007700000041360800020196
:1002F0000204023C2623263C1EA1A161123A404082
:10030000207A3854545559215555794122545478FE
:1003100042215554784020545579400C1E52721297
:100320003955555559395454545939555454580020
:1003300000457C410002457D420001457C407D1224
:1003400011127DF0282528F07C5455450020545486
:100350007C547C0A097F4932494949323A44444431
:100360003A324A4848303A4141217A3A424020786C
:10037000009DA0A07D3D4242423D3D4040403D3C6D
:1003800024FF2424487E4943662B2FFC2F2BFF0992
:1003900029F620C0887E0903205454794100004486
:1003A0007D413048484A32384040227A007A0A0A71
:1003B000727D0D19317D2629292F282629292926E4
:1003C00030484D4020380808080808080808382F29
:1003D00010C8ACBA2F102834FA00007B00000814B3
:1003E0002A142222142A14085500550055AA55AA89
:1003F00055AAFF55FF55FF000000FF00101010FF29
:1004000000141414FF001010FF00FF1010F010F083
:10041000141414FC001414F700FF0000FF00FF1474
:1004200014F404FC141417101F10101F101F1414C0
:10043000141F00101010F0000000001F101010100A
:100440001F10101010F010000000FF1010101010FE
:1004500010101010FF10000000FF140000FF00FF3C
:1004600000001F10170000FC04F4141417101714D8
:1004700014F404F40000FF00F714141414141414FA
:10048000F700F7141414171410101F101F1414146D
:10049000F4141010F010F000001F101F0000001FD7
:1004A00014000000FC140000F010F01010FF10FF0A
:1004B000141414FF141010101F00000000F010FF9F
:1004C000FFFFFFFFF0F0F0F0F0FFFFFF0000000083
:1004D00000FFFF0F0F0F0F0F3844443844FC4A4A07
:1004E0004A347E02020606027E027E0263554941BC
:1004F000633844443C04407E201E2006027E0202F3
:1005000099A5E7A5991C2A492A1C4C7201724C3006
:100510004A4D4D303048784830BC625A463D3E49DD
:100520004949007E0101017E2A2A2A2A2A44445F81
:10053000444440514A444040444A51400000FF0175
:1005400003E080FF000008086B6B08361236243683
:10055000060F090F060000181800000010100030E8
:1005600040FF0101001F01011E00191D1712003C70
:100570003C3C3C0000000000005EBCE2613FDD83CB
:10058000C29C7E20A3FD1F41009D23BE46DB65F873
:100590008C11AF32CA57E974000000002400270014
:1005A0002A00DB40A4A62EAFDA0281DA1281DA0239
:1005B000818F2000A1C8D300408DAED580A8000057
:1005C0000000250028002B00000060000000000053
:1005D000000000000000000000E00000000000003B
:1005E0000000000000000001E0000000000000002A
:1005F00000000000000001F000000000000000000A
:10060000000000000003F0000000000000000000F7
:100610000000000007F000000000000000000000E3
:1006200000000007F80000000000000000000000CB
:1006300000000FF800000003C0007E000001E00091
:100640007F0FF800000003C000FE000001E000FF83
:10065000EFF800000003C000FE000001E000FFFF13
:10066000F800000003C000F00000000F007FFE7FD4
:10067000C0000003C000F00000000F003FFE7FF844
:100680003FF1FBCFFCFEF3BC3DEFE01FFE7FFF7FA1
:10069000FBFFDFFEFEFFBC3DEFE01FC6FFFF7FFB61
:1006A000FFDFFEFEFFBC3DEFE00FE3C7FE787BC33C
:1006B000DE1EF0FFBC3DEF0007FF87FC787BC3DE4A
:1006C0001EF0F83C3DEF0001FFFFF0007BC3C01EB1
:1006D000F0F03C3DEF0001F37FE03FFBC3CFFEF0C5
:1006E000F03C3DEF0003E33F807FFBC3DFFEF0F013
:1006F0003C3DEF0007E73C00787BC3DE1EF0F03C9A
:100700003DEF0007FFBE00787BC3DE1EF0F03C3DEE
:10071000EF0007FFFE00787BC3DE1EF0F03C3DEFEC
:10072000000FFFFE007FFBFFDFFEF0F03FFDEFE07C
:100730000FFFFF007FFBFFDFFEF0F03FFDEFE00F5C
:10074000F9FF003E79F9CF9EF0F01F3DE7E01FF181
:10075000FF0000000000000000000000001F80FFFC
:10076000007FFFFFFFFFFFFFFFFFFFE01C007F0098
:100770007FFFFFFFFEB46D888D18E000001F007F33
:10078000FFFFFFFE95AD7DB577E000000F007FFF16
:10079000FFFFFEA5AD9D8D19E0000006007FFFFF65
:1007A000FFFEB5ADEDB57EE0000000000001800069
:1007B00000000000000000000380000000000000B6
:1007C00000000007C000000000000000000007C09B
:1007D0000000000000000000000FC000000000004A
:1007E000000000001FE00000000000000000001FEB
:1007F000E00000000000000000003FE000000000FA
:1008000000000000003FF0000000000000000000B9
:100810007FF0000000000000001FF87FF0000000E3
:10082000000000003FFE7FF0000000000000003FDD
:10083000FF7FF0000000000000001FFFFBE0000051
:1008400000000000000FFFF9FFC0000000000000E2
:100850000FFFF9FFF800000000000007FFF1FFFFA5
:1008600000000000000003FC73FFFF800000000098
:100870000001FE3FFFFF80000000000000FF1E0F90
:10088000FF000000000000007FFE1FFC00000000D1
:100890000000003FFFFFF8000000000000000FDF35
:1008A000FFE0000000000000001F19FFC000000072
:1008B000000000003F3CFF00000000000000007E40
:1008C0007CF800000000000000007FFE7C000000BB
:1008D0000000000000FFFFFC00000000000000001E
:1008E000FFFFFE0000000000000000FFFFFE000010
:1008F000000000000001FFEFFE000000000000000B
:1009000001FFCFFE0000000000000003FF07FE0013
:1009100000000000000003FC07FE000000000000D3
:100920000003F003FE00000000000000018000FE54
:10093000000000000000000000007E000000000039
:1009400000000000003E0000000000000000000069
:100950000C000000000000078000FC000003C00045
:100960000000078001FC000003C0000000078001B8
:10097000FC000003C0000000078001E00000001E32
:10098000000000078001E00000001E007FE3F79FE9
:10099000F9FDE7787BDFC0FFF7FFBFFDFDFF787B48
:1009A000DFC0FFF7FFBFFDFDFF787BDFC0F0F787FB
:1009B000BC3DE1FF787BDE00F0F787BC3DE1F078DD
:1009C0007BDE0000F787803DE1E0787BDE007FF78B
:1009D000879FFDE1E0787BDE00FFF787BFFDE1E068
:1009E000787BDE00F0F787BC3DE1E0787BDE00F04D
:1009F000F787BC3DE1E0787BDE00F0F787BC3DE1A6
:100A0000E0787BDE00FFF7FFBFFDE1E07FFBDFC0AA
:100A1000FFF7FFBFFDE1E07FFBDFC07CF3F39F3D0D
:100A2000E1E03E7BCFC000000000000000000000BD
:100A300000FFFFFFFFFFFFFFFFFFFFC0FFFFFFFF04
:100A4000FD68DB111A31C0FFFFFFFFFD2B5AFB6A67
:100A5000EFC0FFFFFFFFFD4B5B3B1A33C0FFFFFF03
:100A6000FFFD6B5BDB6AFDC02200FF210001020479
:100A70000810204080010204081020010204081020
:100A800020000000002300260029000404040404C0
:100A9000040404020202020202030303030303002C
:100AA0004826203011241FBECFEFD8E0DEBFCDBFD7
:100AB00024E0A4E7B2E001C01D92A939B207E1F732
:100AC00012E0A0E0B1E0E2EDF8E602C005900D9280
:100AD000A437B107D9F715E0C1E5D5E004C02197E7
:100AE000FE010E945F30C035D107C9F70E940B2874
:100AF0000C943E340C94000091E090935C0380933E
:100B00005B0310925A031092590308959091500379
:100B10009111FCCF91E09093500390934F032FEFEE
:100B200020934E0310924D03260F20934C03909375
:100B30004B0390914B03880F892B80934B0380913B
:100B40004A03813011F510924A0380914B03809340
:100B5000BB008091BC0083FDF8CF85EC8093BC0086
:100B6000809150038130E1F380914D03861710F49A
:100B700060914D032AE233E0AAE0B3E0F9018E2F41
:100B8000821B861720F0862F089585EEE7CF81918E
:100B90008D93F5CF8091080390910903891B990BE0
:100BA000089508950895482FE62F282F30E08630C5
:100BB00009F459C000F58330E1F1853009F44FC0E4
:100BC0004830E0F14E3010F1443108F063C02E504F
:100BD000310981E090E0A0E0B0E004C0880F991FE7
:100BE000AA1FBB1F2A95D2F728B1EE2309F44FC0E4
:100BF000822B88B908958A30C9F18B30D9F18930B8
:100C0000F9F6809180008F77809380002850310919
:100C100081E090E0A0E0B0E004C0880F991FAA1F17
:100C2000BB1F2A95D2F7E1112EC025B180958223F2
:100C30002CC09091B0009F7D9093B00081E090E037
:100C4000A0E0B0E004C0880F991FAA1FBB1F4A95FF
:100C5000D2F72BB1EE23A1F0822B8BB9089594B576
:100C60009F7D94BDEBCF94B59F77FBCF80918000A3
:100C70008F7DCACF8091B0008F778093B000C6CFB0
:100C800080958223EACF25B1822B85B9089580957E
:100C90008223AFCF08951092090310920803109297
:100CA0005A03109259031092500381E080934F032E
:100CB00010924A03449A459AE9EBF0E080818E7FD6
:100CC000808380818D7F808388E48093B80085E471
:100CD0008093BC0081ED95E0909307038093060319
:100CE00082ED95E0909305038093040308950895A1
:100CF000CF92DF92EF92FF920F931F93613009F42E
:100D00005BC0623009F490C08830C8F49AB141E009
:100D100050E060E070E004C0440F551F661F771F6D
:100D20008A95D2F7409594239AB98BB148234BB951
:100D30001F910F91FF90EF90DF90CF9008958E302C
:100D4000B0F424B1082F0850110B81E090E0A0E02E
:100D5000B0E004C0880F991FAA1FBB1F0A95D2F7E5
:100D60008095282324B995B1892385B9E1CF8431B1
:100D7000F8F6E7B190E09C012E50310941E050E0D7
:100D800060E070E06A017B0104C0CC0CDD1CEE1C4D
:100D9000FF1C2A95D2F7860100950E2307B928B1CA
:100DA000089704C0440F551F661F771F8A95D2F716
:100DB0004095422348B9BCCF883078F49AB141E0DD
:100DC00050E060E070E004C0440F551F661F771FBD
:100DD0008A95D2F7942B9AB9ABCF8E3088F424B190
:100DE0008850990B41E050E060E070E004C0440F8F
:100DF000551F661F771F8A95D2F7242B24B998CFE9
:100E0000843108F095CF27B18E50990B41E050E026
:100E100060E070E004C0440F551F661F771F8A957D
:100E2000D2F7242B27B984CF8830B8F43AB141E007
:100E300050E060E070E07A018B0104C0EE0CFF1C12
:100E4000001F111F8A95D2F7C7012E2D209523234D
:100E50002AB92BB1822B8BB96BCF8E30B0F434B161
:100E6000082F0850110B81E090E0A0E0B0E004C032
:100E7000880F991FAA1FBB1F0A95D2F7282F20950C
:100E8000232324B925B1822B70CF843108F050CFB1
:100E900037B1682F6E50770B81E090E0A0E0B0E0B2
:100EA00004C0880F991FAA1FBB1F6A95D2F7282F6D
:100EB0002095232327B928B1822B88B939CFCF9227
:100EC000DF92EF92FF920F931F93CF93DF937C01FA
:100ED0006A0110E000E00C151D0581F0EB01D7015F
:100EE000ED91FC910190F081E02D6991C701099588
:100EF000892B21F00F5F1F4FBE01EDCFC801DF919D
:100F0000CF911F910F91FF90EF90DF90CF900895B8
:100F1000FC01538D448D252F30E0842F90E0821BFF
:100F2000930B541710F0CF96089501970895FC0184
:100F3000918D828D981761F0A28DAE0FBF2FB11DDC
:100F40005D968C91928D9F5F9F73928F90E0089534
:100F50008FEF9FEF0895FC01918D828D981731F0EE
:100F6000828DE80FF11D858D90E008958FEF9FEF42
:100F70000895FC01918D228D892F90E0805C9F4F18
:100F8000821B91098F73992708958DE593E00E9444
:100F9000B90721E0892B09F420E0822F089580E031
:100FA00090E0892B29F00E94C50781110C94000064
:100FB0000895FC01A48DA80FB92FB11DA35ABF4FEE
:100FC0002C91848D90E001968F739927848FA68948
:100FD000B7892C93A089B1898C91837080648C939C
:100FE000938D848D981306C00288F389E02D80814B
:100FF0008F7D80830895EF92FF920F931F93CF937D
:10100000DF93EC01F62E81E0888F9B8D8C8D9813F9
:101010001AC0E889F989808185FF15C09FB7F894C7
:10102000EE89FF896083E889F98980818370806413
:1010300080839FBF81E090E0DF91CF911F910F915E
:10104000FF90EF9008950B8D10E00F5F1F4F0F730F
:101050001127E02E8C8D8E110CC00FB607FCFACF35
:10106000E889F989808185FFF5CFCE010E94D907F3
:10107000F1CFEB8DEC0FFD2FF11DE35AFF4FF08206
:101080009FB7F8940B8FEA89FB8980818062D0CF6B
:10109000CF93DF93EC01888D8823B9F0AA89BB89AF
:1010A000E889F9898C9185FD03C0808186FD0DC09A
:1010B0000FB607FCF7CF8C9185FFF2CF808185FFBB
:1010C000EDCFCE010E94D907E9CFDF91CF910895EE
:1010D000880F991F880F991F05970197F1F70895B9
:1010E0003FB7F8948091E8029091E902A091EA025A
:1010F000B091EB0226B5A89B05C02F3F19F00196D1
:10110000A11DB11D3FBFBA2FA92F982F8827BC0161
:10111000CD01620F711D811D911D42E0660F771F89
:10112000881F991F4A95D1F708958F929F92AF9289
:10113000BF92CF92DF92EF92FF926B017C010E94EF
:1011400070084B015C01C114D104E104F104B9F051
:101150000E947008681979098A099B09683E7340E2
:101160008105910580F381E0C81AD108E108F108F2
:1011700028EE820E23E0921EA11CB11CE4CFFF904A
:10118000EF90DF90CF90BF90AF909F908F90089599
:101190002FB7F8946091E4027091E5028091E60225
:1011A0009091E7022FBF0895E0E0615098F0DC01D4
:1011B0008D918E27E82FEF70F0E0E858FA4F949168
:1011C000E82FE295EF70F0E0E857FA4FE491E92755
:1011D000CD01EBCF8E2F08950F931F93CF93DF9305
:1011E000FC011081C181D281F8948981812B89838E
:1011F0008A81012F009580238A8383E090E00E94FA
:1012000068088981802389838AE090E00E946808C9
:10121000C881789485E390E00E946808C12381E04A
:1012200009F480E0DF91CF911F910F9108951F93F2
:10123000CF93DF93FC011081C181D281912F9095D2
:1012400060FF16C0F8948A8189238A838981812B63
:1012500089838AE090E00E9468088A81182B1A83AB
:10126000789487E390E0DF91CF911F910C94680808
:10127000F8948A8189238A838981812B898381E4F7
:1012800090E00E9468088A81182B1A83789485E080
:1012900090E0E9CFDF92EF92FF920F931F93CF93ED
:1012A000DF93EC01D62EE42E08E010E0FF24F39447
:1012B00061E08D2D8F2109F460E0CE010E941709B5
:1012C000FF0C01501109A1F7E11010C0F894E98159
:1012D000FA8191818881809589238183E981FA81CE
:1012E000928188818095892382837894DF91CF9140
:1012F0001F910F91FF90EF90DF900895EF92FF9272
:101300000F931F93CF93DF938C017B0140E065E542
:101310000E944A09E70188E0E80EF11C699140E06B
:10132000C8010E944A09CE15DF05C1F7DF91CF91B0
:101330001F910F91FF90EF900895FF920F931F93CD
:10134000CF93DF93FC010081C181D281F894898120
:10135000F02EF0948F21898378941DE7115029F1A4
:1013600082E090E00E94680888818023B9F3F894B5
:101370008A818F218A838981802B8983789480EE6A
:1013800091E00E946808F89489818F21898386E41E
:1013900090E00E9468088881082311E009F010E0BD
:1013A00078948AE991E00E946808812FDF91CF91BB
:1013B0001F910F91FF900895AF92BF92CF92DF924D
:1013C000EF92FF920F931F93CF93DF938B01BC019A
:1013D00080910404909105040E947E0940E06EEB28
:1013E00080910404909105040E944A09E801680173
:1013F00089E0C80ED11CA0900404B090050488E0D8
:10140000E82EF12C10E001E0C5010E94EC088111EA
:10141000102B000F81E0E81AF108B1F71993CC16F0
:10142000DD0649F780910404909105040E949D090E
:1014300091E0813009F090E0892FDF91CF911F91E9
:101440000F91FF90EF90DF90CF90BF90AF900895F5
:101450000F931F93CF93DF93CDB7DEB729970FB6C6
:10146000F894DEBF0FBECDBF8C01FC0180818031BE
:1014700081F180910404909105040E949D098111DD
:101480000CC080E029960FB6F894DEBF0FBECDBF2A
:10149000DF91CF911F910F910895BE016F5F7F4F34
:1014A000C8010E94DC09882361F368E0CE0101963F
:1014B0000E94D40899858913E4CF8D818F3359F028
:1014C00020F48F31F1F689E0DDCF8F3531F08F37A1
:1014D000C1F68CE0D7CF8AE0D5CF8BE0D3CF08958B
:1014E000FC016370668B848195812681378162302F
:1014F00021F0633039F0613029F09187808733879C
:1015000022870895318720879387828708952F92B5
:101510003F924F925F926F927F928F929F92AF9283
:10152000BF92CF92DF92EF92FF920F931F93CF93D0
:10153000DF93CDB7DEB76A970FB6F894DEBF0FBE64
:10154000CDBF9A8F898F7A8369834A01D22E1887FB
:101550000F833701BC2CDC0159962D913C915A9791
:101560002115310509F015C118968D919C91199797
:10157000681779070CF0D7C11A968D919C9148177E
:1015800059070CF0D0C14C2C512CB6E0CB9E600D0D
:10159000711D11247C876B87161617060CF0C3C1CA
:1015A000EA2DF0E0FA87E98793E0EE0FFF1F9A95A6
:1015B000E1F7F88BEF87CF01840F951F18161906F6
:1015C0000CF0B1C1A98DBA8D58968C91811104C0CF
:1015D000BFEABD1508F4D394A98DBA8DED91FC91A5
:1015E00011970284F385E02DCD010995B5E0DB9ECE
:1015F000C0011124E981FA81FC83EB83312C212C79
:101600009C0128583F4F388F2F8B4A2D50E05E8B1E
:101610004D8BEF89F88DE20DF31D44919E828D82F2
:10162000D12CC12C69817A81620D731D7A8B698BF3
:10163000842F90E09C8B8B8BE98DFA8DA081B181FA
:1016400040FF82C0F1E0BF126FC0AF126DC01C96A8
:10165000ED91FC912F813885A4014C0D5D1D6989A8
:101660007A89898D9A8D0995EB89FC89F595E7959D
:101670004E2F5FEFC51AD50A6D817E818D899E89B7
:10168000680F791F7E836D8398E0C916D10481F6B7
:10169000AFEF2A1A3A0AEB81FC81E40DF51DFC83B9
:1016A000EB83F5E02F16310409F0B3CF2F81388595
:1016B00026153705B9F0A98DBA8DED91FC91B1E0F1
:1016C000BB1257C0AB1255C069817A816B5F7F4FE7
:1016D0000088F189E02D830128E030E0A401898DA4
:1016E0009A8D0995A98DBA8DED91FC911197068877
:1016F000F789E02DCD016A960FB6F894DEBF0FBED4
:10170000CDBFDF91CF911F910F91FF90EF90DF90B0
:10171000CF90BF90AF909F908F907F906F905F9091
:101720004F903F902F9009941E96ED91FC91EF8081
:10173000F88409851A8592014D815E816B817C81D7
:10174000898D9A8D099590CF2F813885261537057B
:1017500009F48ACF31E0B31207C0A31205C01C966A
:10176000ED91FC91930178CF1E96ED91FC91730160
:10177000E0CF6B857C85641975090684F785E02DBB
:1017800073010F8518899201A401898D9A8D09959D
:10179000A9CFF90134969491329745915491D91A71
:1017A000B7E0DB9E400D511D1124F90125913491C4
:1017B0003C8B2B8BFA0125903490FA013296749071
:1017C00031963491398B329664903196449041E051
:1017D0004C1518F04A1508F07FC0662D062C000C39
:1017E000770B7C836B83842D042C000C990B9E83D8
:1017F0008D83A98DBA8DED91FC9111970284F385AB
:10180000E02DCD010995512CD12CC12CEA2DF0E011
:10181000FA87E9872B2D30E03C872B87A401440D04
:10182000511D47FC5A95588F4F8B69817A81660DFF
:10183000711D67FC7A957E876D877989C71608F0D8
:1018400051CF2C2D30E04D815E81420F531FA98571
:10185000BA854A9FC0014B9F900D5A9F900D11244D
:10186000FC01E80DF91DF88BEF87852D612C4F8960
:10187000588D420F531F5E8B4D8B671408F050C07C
:1018800044244394480E877041F4C1010196EB89CA
:10189000FC89E20DF31DD4901C01D7FE19C0A98D5F
:1018A000BA8DED91FC91662D70E0B1E0BB1219C0CC
:1018B000AB1217C02D853E85620F731F0484F5851A
:1018C000E02D2F8138854D895E89898D9A8D099506
:1018D000DD0C6394842DD1CF1E821D821C821B825D
:1018E00088CF4B815C81640F751FAB85BC856A9F77
:1018F000C0016B9F900D7A9F900D112469817A81B0
:10190000680F791F0684F785E02DEF80F88409853C
:101910001A859D014F855889898D9A8D0995D8CF53
:10192000570CC3948ACF6A960FB6F894DEBF0FBEE9
:10193000CDBFDF91CF911F910F91FF90EF90DF907E
:10194000CF90BF90AF909F908F907F906F905F905F
:101950004F903F902F9008958F929F92AF92CF9289
:10196000EF92FF920F931F93CF93DF93EC01262FFB
:10197000898D9A8D009709F051C06A30D1F41D8687
:101980001C868D8948E0849F900111248E859F8557
:10199000820F931F9F878E8781E090E0DF91CF9128
:1019A0001F910F91FF90EF90CF90AF909F908F90ED
:1019B00008956D3089F3CC88AD888F898823C1F074
:1019C0008C859D8536E0C39E800D911D1124488530
:1019D00059854817590764F44E855F851D861C8616
:1019E00038E0A39EC0011124840F951F9F878E8726
:1019F000EA88FB88088919894E855F856C857D8515
:101A0000CE010E94870A2C898C859D8546E0249F03
:101A1000800D911D11249D878C87BECF6A3069F49B
:101A20001D861C86FC013896E4912D898E859F8544
:101A3000E29F800D911D1124ADCF6D3009F4ACCF24
:101A4000FC0134963491631708F4A6CF3296E491E2
:101A5000E61708F4A1CFFC01329685909490462FAA
:101A6000431B342F47E0349F800C911C1124F40158
:101A7000329634913196E4913323A9F1EE2399F112
:101A8000CC88F4013596E491AD884F89442301F167
:101A90000E2E000CFF0BE30FF11DCE9EA001CF9E7A
:101AA000500D11246C857D85460F571F68857985FB
:101AB000641775076CF44E855F851D861C86FC01D6
:101AC0003896E491AE9E400D511D11245F874E87DC
:101AD000EA88FB88088919894E855F856C857D8534
:101AE000CE010E94870AF4013496E4912C898C85FA
:101AF0009D85E29F800D911D11248DCF682F8CE272
:101B000094E00C94AC0C6F927F928F929F92AF9264
:101B1000BF92CF92DF92EF92FF920F931F93CF93DA
:101B2000DF93EC016B015A0139014801E881F98129
:101B30000284F385E02D0995E881F9810288F38913
:101B4000E02D87019301A501B601CE010995A501FC
:101B5000480D591D41505109E881F9810288F389E6
:101B6000E02D9301B601CE010995E881F981008845
:101B7000F189E02D9401A501B601CE010995C60CAD
:101B8000D71CB60161507109E881F9810088F1899B
:101B9000E02D9401A501CE010995E881F98106881F
:101BA000F789E02DCE01DF91CF911F910F91FF902A
:101BB000EF90DF90CF90BF90AF909F908F907F90ED
:101BC0006F9009948F929F92AF92BF92CF92DF92C3
:101BD000EF92FF920F931F93CF93DF934C016B0112
:101BE0005A01E901DC01ED91FC916217730709F5D7
:101BF0000417150724F48B2D5801042F182F0A19E8
:101C00001B0998012F5F3F4F048CF58DE02D870154
:101C1000A501B601C4010995DF91CF911F910F91E4
:101C2000FF90EF90DF90CF90BF90AF909F908F90FC
:101C300008954017510781F42617370724F48D2D96
:101C40006901C62FD82F9E012C193D092F5F3F4FE8
:101C5000068CF78DE02DDBCF0284F385E02D09950E
:101C6000D401ED91FC910488F589E02D9E01A50138
:101C7000B601C4010995D401ED91FC910688F7895C
:101C8000E02DC401DF91CF911F910F91FF90EF9054
:101C9000DF90CF90BF90AF909F908F900994EF927C
:101CA000FF920F931F93DC011A960D911C911B97C5
:101CB00018962D913C911997ED91FC9100A0F1A1FE
:101CC000E02D7B0150E040E070E060E009951F915D
:101CD0000F91FF90EF9008954F925F926F927F92D5
:101CE0008F929F92AF92BF92CF92DF92EF92FF922C
:101CF0000F931F93CF93DF936C012B015A0139018E
:101D00004801DC01ED91FC910284F385E02D0995F9
:101D1000E201640C751CD601ED91FC91C615D70546
:101D20005CF40088F189E02D87019401A501BE01D2
:101D3000C60109952196EFCF0688F789E02DC601E7
:101D4000DF91CF911F910F91FF90EF90DF90CF9097
:101D5000BF90AF909F908F907F906F905F904F90CB
:101D600009948F929F92AF92BF92CF92DF92EF929F
:101D7000FF920F931F93CF93DF93EC015B014A0116
:101D80006901E881F9810284F385E02D09959501C7
:101D90002C0D3D1D21503109E881F9810488F58918
:101DA000E02D78018401A401B501CE010995E881F7
:101DB000F9810688F789E02DCE01DF91CF911F913F
:101DC0000F91FF90EF90DF90CF90BF90AF909F90DA
:101DD0008F9009948F929F92AF92BF92CF92DF9291
:101DE000EF92FF920F931F93CF93DF93EC015B0170
:101DF0004A0169017801E881F9810284F385E02DC7
:101E00000995C80CD91C860101501109E881F98196
:101E10000488F589E02D9501A401B501CE0109954D
:101E2000E881F9810688F789E02DCE01DF91CF9115
:101E30001F910F91FF90EF90DF90CF90BF90AF90E8
:101E40009F908F900994EF92FF920F931F93DC0164
:101E5000ED91FC9100A0F1A1E02D09951F910F914A
:101E6000FF90EF9008950F931F93DC01ED91FC918B
:101E7000068CF78DE02D09951F910F9108950F9312
:101E80001F93DC01ED91FC91048CF58DE02D0995FB
:101E90001F910F910895DC01ED91FC910084F18573
:101EA000E02D09943F924F925F926F927F928F92B2
:101EB0009F92AF92BF92CF92DF92EF92FF920F93D9
:101EC0001F93CF93DF935C017B014A0169013901C4
:101ED00087E0680E711C93E0759467949A95E1F71A
:101EE0002B01400E511E10E000E0312CD0E0C0E08C
:101EF000CE0187709927330C892B59F4FE0183E0BA
:101F0000F595E7958A95E1F7E00FF11FE80DF91DCA
:101F1000349037FE0AC021E030E0A701B5016C0F14
:101F20007D1F8CE294E00E944B0F2196CC16DD06BB
:101F3000F9F68FEFE81AF80A060D171DE414F504F8
:101F4000A9F6DF91CF911F910F91FF90EF90DF9055
:101F5000CF90BF90AF909F908F907F906F905F9049
:101F60004F903F9008952F923F924F925F926F92C1
:101F70007F928F929F92AF92BF92CF92DF92EF9219
:101F8000FF920F931F93CF93DF9300D000D000D028
:101F9000CDB7DEB72C017E836D836A015901C8017C
:101FA000FC82EB824801841A950A97FE03C0919443
:101FB0008194910835012D813E81621A730A77FE62
:101FC00003C0719461947108681479045CF43A2D2B
:101FD0002B2D5C01832F922F3D812E81DE82CD82BD
:101FE000C32ED22EAD81BE81AA16BB065CF43C2D59
:101FF0002D2D6C01832F922F3D812E81BE82AD82CB
:10200000A32EB22E85012D813E81021B130B1C01D4
:102010002C183D0837FE03C0319421943108780113
:1020200017FF03C03FEFE31AF30AF594E794C816CD
:10203000D90664F18FEF9FEF9A8389832D813E81CA
:10204000A216B30644F1D201ED91FC910484F5850A
:10205000E02D2B813C814D815E81B60168147904AD
:102060001CF0A6016D817E81C2010995E218F3087A
:10207000F7FE06C029813A81C20ED31EE00EF11E82
:102080008D819E8101969E838D83D8CFA1E0B0E0A3
:10209000BA83A983D3CF26960FB6F894DEBF0FBEBE
:1020A000CDBFDF91CF911F910F91FF90EF90DF9007
:1020B000CF90BF90AF909F908F907F906F905F90E8
:1020C0004F903F902F90089585ED8093BC008091B4
:1020D000BC0084FDFCCF1092500308952091C002F3
:1020E000260F3327331F21323105ECF420915003A2
:1020F000FC0190E080E0243069F082E00895A09136
:10210000C0022191AC0140565D4FA40FB52FB11D07
:102110002C930196861798F38091C002680F609304
:10212000C00280E0089581E00895E0910903809164
:102130000803E81730F4F0E0E65FFC4F808190E0A0
:1021400008958FEF9FEF0895909109038091080300
:102150002FEF3FEF981748F4E92FF0E0E65FFC4FD0
:10216000208130E09F5F90930903C9010895CF92C9
:10217000DF92EF92FF920F931F93CF93DF937C0137
:10218000CB018A0120915C03222389F0EB016B01D2
:10219000C40ED51ECC15DD0569F06991D701ED910E
:1021A000FC910190F081E02DC7010995F3CF642FD8
:1021B0000E946E10C801DF91CF911F910F91FF9087
:1021C000EF90DF90CF900895CF93DF930F92CDB72C
:1021D000DEB7698320915C032223F9F02091590333
:1021E000203258F021E030E0FC013383228390E07C
:1021F00080E00F90DF91CF91089580915A03E82FEE
:10220000F0E0E058FD4F998190838F5F80935A03EF
:102210008093590381E090E0ECCF61E0CE0101961C
:102220000E946E10F7CF682F80E294E00C94E410C7
:102230002091590381E0213208F046C0809150037B
:102240008111FCCF90915B0332E03093500331E079
:1022500030934F033FEF30934E0310924D03209382
:102260004C0340E852E0AAE2B3E0FA013E2F341BEF
:10227000321788F110924B0320914B03990F922B48
:1022800090934B0390914A03913041F510924A0389
:1022900090914B039093BB009091BC0093FDF8CFBD
:1022A00095EC9093BC00909150039230E1F39091A3
:1022B0004E039F3F49F080914E03803289F0809118
:1022C0004E03803379F084E010925A031092590340
:1022D00010925C03089531913D93C8CF95EEE1CF04
:1022E00082E0F2CF83E0F0CFCF9388E60E947C05B6
:1022F00060E080E294E00E94E41060E880E294E014
:102300000E94E41080915203CAE06C2F0E943F307B
:102310008295807F682F690F80E294E00E94E4102C
:10232000809153036C2F0E943F308295807F682FED
:10233000690F80E294E00E94E410809154036C2FB6
:102340000E943F308295807F682F690F80E294E081
:102350000E94E410809155036C2F0E943F308295BB
:10236000807F682F690F80E294E00E94E4108091E2
:1023700056036C2F0E943F308295807F682F690F33
:1023800080E294E00E94E410809157038E516C2FFC
:102390000E943F308295807F682F690F80E294E031
:1023A0000E94E41080E294E00E941811882329F032
:1023B0001092580380E0CF91089581E080935803F4
:1023C00088E60E947C0560E080E294E00E94E410D0
:1023D000809151036C2F0E943F308295807F682F3F
:1023E000690F80E294E00E94E41080E294E00E9491
:1023F00018118111DDCF81E0DECFBF92CF92DF9245
:10240000EF92FF920F931F93CF93DF938C017B0189
:10241000E40EF51EEB01B99068018FEFC81AD80AD7
:10242000809194040E947C05812F90E00E941311FA
:10243000C80199270E9413116B2D80E294E00E943D
:10244000E41080E294E00E9418116AE070E080E0FD
:1024500090E00E949508BE018601CE15DF05D1F6F9
:10246000DF91CF911F910F91FF90EF90DF90CF9070
:10247000BF9008950F931F93CF93DF93EC01EC81EE
:10248000FD816E177F070CF073C0DA01A20FB31F36
:1024900057FF03C09D0150E040E08E819F818A1765
:1024A0009B071CF49C01241B350B121613060CF021
:1024B0005FC0922F842F8695869586958E9FD0013A
:1024C0008F9FB00D1124A60FB71F6F8D78A1A60F97
:1024D000B71F477059F188E0841B482F682F70E0C0
:1024E000FB01E059FF4FE491281708F065C0621B1B
:1024F00071092FEF30E002C0359527956A95E2F714
:10250000E2230130110549F001151105B1F1023046
:10251000110571F58C91E82702C08C91E82BEC93A2
:10252000941730F12C813D81A20FB31FE92FE41BDA
:10253000E83078F00230110521F58E2F9C919095AE
:102540009C932C813D81A20FB31F88508830B0F737
:10255000E770EE2369F0F0E0E859FF4FE4910130B5
:102560001105F9F00115110501F10230110509F10C
:10257000DF91CF911F910F910895E0958C91E82301
:10258000CECF81E00115110509F480E081959E2FE1
:102590008C932C813D81A20FB31F98509830C0F7C7
:1025A000D7CF8C91E82BEC93E3CFE0958C91E82387
:1025B000FACF8C91E827F7CF0130110509F4ADCFA0
:1025C00001151105D1F20230110509F4A3CFAACFEC
:1025D0000F931F93CF93DF93FB01E20FF31F77FF5E
:1025E00003C09F0170E060E0DC011496CD91DC91A6
:1025F000CE17DF071CF49E01261B370B121613069D
:102600005CF5FA0157FD3796A3E0F595E795AA9595
:10261000E1F7EC9FD001ED9FB00DFC9FB00D1124B0
:102620006A0F7B1FDC015F96ED91FC91E60FF71FAF
:102630004770552781E090E001C0880F4A95EAF77E
:10264000482F0130110569F001151105A9F02E0F71
:102650003F1F02301105E1F0DF91CF911F910F91E3
:1026600008952E0F3F1FE217F307B1F3DF018D919D
:10267000842B8083FD01F7CF80952E0F3F1F2E17EF
:102680003F0751F3DF019D9198239083FD01F7CF20
:10269000E217F30709F3DF018D9184278083FD01A1
:1026A000F7CF0F931F93FA01DC0156964C91569782
:1026B0004230E9F04330A1F1413061F514964D917B
:1026C0005C91DA01AE1BBF0BFD01E21BF30B77FD42
:1026D0000BC0DC0116964D915C916417750724F4CC
:1026E000AB01BF010E94E8121F910F91089514964B
:1026F0004D915C91DA01A61BB70BBD0161507109C8
:10270000DC0116964D915C91DA01AE1BBF0BFD0109
:10271000E21BF30B77FDE8CFAF010E943A12E4CF42
:1027200016964D915C91DA01A61BB70BBD01615065
:102730007109CDCF0F931F93FA01DC0156964C918E
:1027400056974230A9F0433091F1413019F5149673
:102750004D915C91DA01AE1BBF0BFD013197F7FD86
:1027600004C0AB01BF010E943A121F910F9108955E
:1027700014964D915C91DA01A61BB70BBD01DC01EB
:1027800016964D915C91DA01AE1BBF0BFD0131979E
:10279000621B730BF7FDE9CFDC0116964D915C913E
:1027A000E417F50714F7AF010E94E812DECF169682
:1027B0004D915C91DA01A61BB70BBD01621B730B37
:1027C000CECFFC0177FD66C08085918568177907BB
:1027D0000CF060C057FD5EC082859385481759078D
:1027E0000CF058C086898230C1F0833039F18130D5
:1027F00041F484819581841B950BAB01BC01615030
:1028000071092130310519F12115310509F443C051
:102810002230310509F463C0089584819581DC017B
:10282000A61BB70BBD016150710986819781DC0140
:10283000A41BB50BAD0141505109E3CF86819781AF
:10284000861B970BBA01AC0141505109DACFCA017E
:1028500057FD0796A3E095958795AA95E1F7A48182
:10286000B5818A9F90018B9F300D9A9F300D112466
:10287000620F731F078CF0A1E02DE60FF71F477062
:10288000552721E030E001C0220F4A95EAF7808108
:10289000822B80830895CA0157FD079633E09595F2
:1028A00087953A95E1F7A481B5818A9F90018B9F26
:1028B000300D9A9F300D1124620F731F078CF0A109
:1028C000E02DE60FF71F4770552781E090E001C02B
:1028D000880F4A95EAF7809590818923DACFCA015B
:1028E00057FD079623E0959587952A95E1F7A481F2
:1028F000B5818A9F90018B9F300D9A9F300D1124D6
:10290000620F731F078CF0A1E02DE60FF71F4770D1
:10291000552721E030E001C0220F4A95EAF7808177
:102920008227B7CF08958EBD00000DB407FEFDCFFE
:102930008EB50895FF920F931F93CF93DF93F82ED8
:10294000D92FC62F8091490490914A04892B09F40C
:1029500047C080914D040E947C058091490490916C
:102960004A04DC01ED91FC910190F081E02D60E0E2
:1029700009950F2D1D2FD1E0C150809149049091F0
:102980004A04CF3F31F1D03298F00E941811809163
:102990004D040E947C058091490490914A04DC0119
:1029A000ED91FC910190F081E02D60E00995D1E07E
:1029B0008091490490914A04F8016491DC01ED9101
:1029C000FC910190F081E02D0995DF5F0F5F1F4FB3
:1029D000D3CFDF91CF911F910F91FF900C941811DD
:1029E000E0915904F0915A04908180915F048095A0
:1029F000892380830F2D1D2FC15008F438C0F801A2
:102A000084912091470430914804232B29F00E949F
:102A100093140F5F1F4FF0CF28E030E040E8E091C3
:102A20005504F091560490915D04582F5423D9F029
:102A30005081952B9083E0915704F0915804908138
:102A400050915E04952B9083E0915704F0915804C7
:102A5000508190915E0490959523908346952150E6
:102A60003109E9F6D6CF508190959523E3CFDF91D8
:102A7000CF911F910F91FF9008951F93CF93DF93F4
:102A8000EC01162F8D8D9E8D892BF1F089A10E946E
:102A90007C058D8D9E8DDC01ED91FC910190F08186
:102AA000E02D60E009958D8D9E8DDC01ED91FC910E
:102AB0000190F081E02D612F09958D8D9E8DDF9124
:102AC000CF911F910C941811EDA5FEA590818BA9B3
:102AD0008095892380838B8D9C8D892B31F0862F67
:102AE000DF91CF911F910C94931428E030E090E88F
:102AF000E9A5FAA589A9412F4923C1F04081842B7A
:102B00008083EBA5FCA580814AA9842B8083EBA55B
:102B1000FCA540818AA980958423808396952150C5
:102B2000310931F7DF91CF911F9108954081809550
:102B30008423E6CF8CBD9DBD0895FF920F931F9314
:102B4000CF93DF938091490490914A04892B09F433
:102B500072C08CE08093B80065E088E69AE00E943D
:102B60009A146091300461508CE294E00E943D150B
:102B70002091320430913304C901079697FD0796DE
:102B800023E0959587952A95E1F7209130043091BF
:102B90003104829F8001839F100D929F100D11249C
:102BA000C0914B04D0914C048091490490914A0407
:102BB0000C0F1D1F892B09F47CC080914D040E94CD
:102BC0007C058091490490914A04DC01ED91FC91CF
:102BD0000190F081E02D60E40995FF24F394809149
:102BE000490490914A04C017D107E1F1BFE1BF1534
:102BF000A0F40E94181180914D040E947C058091E0
:102C0000490490914A04DC01ED91FC910190F0811E
:102C1000E02D60E40995FF24F3948091490490919C
:102C20004A04DC01ED91FC910190F081E02D699165
:102C30000995F394D4CF8091470490914804892B4F
:102C400031F080916104909162040E949A15E091A4
:102C50005B04F0915C0490818091600480958923ED
:102C600080837ACF0E9418118091490490914A0480
:102C7000892B09F45FC02091630430916404409172
:102C800065045091660460E074E284EF90E00E9475
:102C90006F322051310941095109569547953795B1
:102CA00027952093B800DF91CF911F910F91FF904E
:102CB0000895E0915904F0915A04808190915F0445
:102CC000892B80830C171D0779F289912091470485
:102CD00030914804232B19F00E949314F3CF28E07D
:102CE00030E040E8E0915504F091560490915D0485
:102CF000582F5423D9F05081952B9083E09157049D
:102D0000F0915804908150915E04952B9083E0914E
:102D10005704F0915804508190915E04909595234A
:102D20009083469521503109E9F6CCCF508190959A
:102D30009523E3CFE0915B04F0915C048081909156
:102D40006004892B8083AFCF1F93CF93DF93EC0177
:102D5000162F8D8D9E8D892B29F18CE08093B800E4
:102D600066EA111167EACE010E943D158D8D9E8D98
:102D7000892B41F12FA938AD49AD5AAD60E074E21D
:102D800084EF90E00E946F322051310941095109CE
:102D900056954795379527952093B800DF91CF91A9
:102DA0001F9108958B8D9C8D892B21F08DA99EA953
:102DB0000E949A15EFA5F8A990818CA98095892386
:102DC0008083CECFEFA5F8A980819CA9892B808331
:102DD000E5CF089590E080E008958093BB0084E8FB
:102DE0008093BC008091BC0087FFFCCF9091B9001C
:102DF000987F81E0983231F0983129F0903419F0C1
:102E000080E008950895089584EA8093BC0080913D
:102E1000BC0087FFFCCF8091B900887F19F080EC5F
:102E20000C94ED1680E008955F926F927F928F92DE
:102E30009F92AF92BF92CF92DF92EF92FF920F9349
:102E40001F93CF93DF93CDB7DEB7582E742E652E28
:102E5000B62E922E0E940417852D0E94ED168D2D00
:102E60000E94ED168C2D0E94ED168B2D83708A2901
:102E700090E081109CE0892B0E94ED16862D0E9427
:102E8000ED16872D0E94ED168CE0F694E794D7940A
:102E9000C7948A95D1F78C2D807FC82E892D8F708D
:102EA0008C290E94ED16812F0E94ED16802F0E9422
:102EB000ED1684E98093BC008091BC0084FDFCCFBA
:102EC000DF91CF911F910F91FF90EF90DF90CF9006
:102ED000BF90AF909F908F907F906F905F9008957C
:102EE0004F925F926F927F928F929F92AF92BF921A
:102EF000CF92DF92EF92FF920F931F93CF93C82F41
:102F0000C0908B04D0908C04E0908D04F0908E04DF
:102F1000CB01BA01A70196010E946F3249015A0103
:102F200025E0F694E794D794C7942A95D1F735E035
:102F300096958795779567953A95D1F747E0660F0F
:102F4000771F881F991F4A95D1F7A70196010E9404
:102F50006F3229013A018B019C01B501A40155276B
:102F600066277727E7E0440F551F661F771FEA950E
:102F7000D1F7525061097109440D551D661D771D29
:102F8000812CA12C8C2F0E941417CF911F910F918F
:102F9000FF90EF90DF90CF90BF90AF909F908F9079
:102FA0007F906F905F904F9008958F92AF92CF92E5
:102FB000DF92EF92FF920F931F9388248394443003
:102FC00051056105710509F0812C445051096109D1
:102FD0007E4F97E0440F551F661F771F9A95D1F7D4
:102FE000A22EC12CD12C7601C39400E010E09801F0
:102FF0000E9414171F910F91FF90EF90DF90CF90D8
:10300000AF908F900895CF93DF93D82FC62F0E9453
:1030100004178D2F0E94ED168C2F0E94ED1684E967
:103020008093BC008091BC0084FDFCCFDF91CF91E8
:103030000895CF93C82F60E880E18C0F0E94031899
:10304000EC2FF0E0EE0FFF1FED58FB4F11821082C6
:10305000CF9108952F923F924F925F926F927F92FD
:103060008F929F92AF92BF92CF92DF92EF92FF9298
:103070000F931F93CF93DF9300D000D00F92CDB763
:10308000DEB789838091830490918404A0918504A4
:10309000B0918604892B8A2B8B2B19F481E00E9436
:1030A00019188091870490918804A0918904B091A7
:1030B0008A04892B8A2B8B2B19F482E00E94191821
:1030C000409083045090840460908504709086043E
:1030D000411451046104710409F47FC12981222340
:1030E00009F4A5C0C0907504D0907604F12CE12CB1
:1030F00040917A044983A3019201C701B6010E945D
:103100002F309B01AC018981E82FF0E0EE5BFE4F90
:10311000A081B0E00E9464324B015C01DC01CB0174
:1031200080589545A84CB0428130924CAB4EBB4084
:1031300008F446C06091230170912401809125011B
:1031400090912601A30192010E946F3269017A01D8
:1031500081E044E0C416D104E104F10408F489C01C
:1031600086E0C816D104E104F10408F49BC019827A
:103170009DE2C91691E0D906E104F10440F02981ED
:103180002F5F2983F694E794D794C794F1CF4981B0
:10319000411103C0E894C0F81982A3019201C7014C
:1031A000B6010E942F309B01AC018981E82FF0E02D
:1031B000EE5BFE4FA081B0E00E9464324B015C01E7
:1031C000B501A40182E20E9470178091750490916C
:1031D0007604B0E0A0E08C159D05AE05BF0529F48E
:1031E00080917A0499818917D1F029812295207FD5
:1031F000B701A60182E30E94D51760917D046C6639
:1032000081E10E940318D0927604C092750429814E
:1032100020937A0480919304806880939304809231
:103220008F0490929004A0929104B0929204C09066
:103230008704D0908804E0908904F0908A04C11437
:10324000D104E104F10409F4B0C080908F0490909F
:103250009004A0909104B0909204C501B401A7011C
:1032600096010E946F32283031054105510500F565
:1032700082E00F900F900F900F900F90DF91CF9101
:103280001F910F91FF90EF90DF90CF90BF90AF9084
:103290009F908F907F906F905F904F903F902F9076
:1032A0000C94191804E0C02ED12CE12CF12C72CF13
:1032B0001D82213431054105510560F08D818F5FFC
:1032C0008D83CC0CDD1CEE1CFF1C56954795379565
:1032D0002795EFCFC501B401A70196010E946F3277
:1032E00029833A834B835C832FEF3FEF4FE050E01D
:1032F0000E946C3056016701E12CF12C00E010E0D7
:103300000E94993029013A019D819295907F9D8379
:10331000C12CD12C7601C394411451046104710471
:1033200031F0CC24CA94DC2CFFE0EF2EF12CC30149
:10333000B20127E0660F771F881F991F2A95D1F7E2
:10334000A70196010E946F3249015A018B019C012D
:1033500049815A816B817C81552766277727E7E071
:10336000440F551F661F771FEA95D1F75250610928
:103370007109480D591D6A1D7B1D812CAD808AE3A2
:103380000E9414176CE445284628472809F06CE091
:1033900080917E04682B606282E10E94031881E0C4
:1033A00090E090937804809377040F900F900F90A3
:1033B0000F900F90DF91CF911F910F91FF90EF90A1
:1033C000DF90CF90BF90AF909F908F907F906F9045
:1033D0005F904F903F902F90089580908704909039
:1033E0008804A0908904B0908A0481149104A104F7
:1033F000B104D9F2C0907704D0907804F12CE12C7C
:1034000020917B042983A5019401C701B6010E9484
:103410002F309B01AC018981E82FF0E0EE5BFE4F7D
:10342000A081B0E00E9464328B019C0100581545D8
:10343000284C30420130124C2B4E3B4008F443C024
:1034400060912301709124018091250190912601C2
:10345000A50194010E946F3269017A0184E0C816C7
:10346000D104E104F10408F403CF96E0C916D104B5
:10347000E104F10408F458C019822DE2C21621E0DB
:10348000D206E104F10440F049814F5F4983F6948C
:10349000E794D794C794F1CF8981811103C0E89450
:1034A000C0F81982A5019401C701B6010E942F300E
:1034B0009B01AC019981E92FF0E0EE5BFE4FA0810A
:1034C000B0E00E946432AB01BC0182E20E9470173E
:1034D0008091770490917804B0E0A0E08C159D0570
:1034E000AE05BF0531F480917B042981821709F470
:1034F0005CCF29812295207FB701A6018AE30E9433
:10350000D51760917E046C6682E10E940318D09208
:103510007804C0927704498140937B04809193049E
:1035200080688093930441CF84E0C82ED12CE12C95
:10353000F12CB5CF4F925F926F927F92AF92BF9274
:10354000CF92DF92EF92FF920F931F93CF93DF936F
:10355000D82F082F10E0F801EE0FFF1FEE0FFF1F0E
:10356000E158FB4F408051806280738041145104C8
:103570006104710489F48D2FDF91CF911F910F9118
:10358000FF90EF90DF90CF90BF90AF907F906F90C3
:103590005F904F900C9419185801AA0CBB1CF501B0
:1035A000ED58FB4FC080D180F12CE12C0D581B4F02
:1035B000F801C681A3019201C701B6010E942F3014
:1035C0009B01AC01EC2FF0E0EE5BFE4FA081B0E080
:1035D0000E9464329B01AC0120583545484C504252
:1035E0002130324C4B4E5B4008F43FC060912301C8
:1035F000709124018091250190912601A3019201EF
:103600000E946F3269017A0184E0C816D104E10496
:10361000F10408F4B0CFE6E0CE16D104E104F104E1
:1036200008F470C0C0E0FDE2CF16F1E0DF06E1046F
:10363000F10430F0CF5FF694E794D794C794F3CFBA
:10364000C11103C0E894C0F8C0E0A3019201C70112
:10365000B6010E942F309B01AC01EC2FF0E0EE5B35
:10366000FE4FA081B0E00E9464322AE1D11122E233
:10367000AB01BC01822F0E947017F501ED58FB4F82
:1036800080819181B0E0A0E08C159D05AE05BF055D
:1036900021F4F80186818C1731F12C2F2295207F9F
:1036A000B701A6018D2F880F880F880F865D0E94B5
:1036B000D517F801618580E0D11180E2682B6C6438
:1036C00080E18D0F0E940318F501ED58FB4FD18268
:1036D000C082F801C6838091930490E2D11190E8F2
:1036E000892B80939304DF91CF911F910F91FF90CD
:1036F000EF90DF90CF90BF90AF907F906F905F90F2
:103700004F90089584E0C82ED12CE12CF12C9ACF53
:10371000FF920F931F93CF93DF9300D0CDB7DEB707
:10372000EAE0F1E010E000E08191080F111D81E076
:10373000E831F807C9F74EE050E06AE071E082E056
:1037400090E00E94FD110F5F1F4F1A83098342E032
:1037500050E0BE016F5F7F4F90E080E00E94FD115E
:10376000E8E1F1E081E291E010E000E02191020F58
:10377000111D8E179F07D1F780910B019BE0F92E49
:103780008F9DC001112449E050E068E171E042964C
:103790000E94FD110F5F1F4F1A83098380910B0157
:1037A0008F9DC001112442E050E0BE016F5F7F4F4A
:1037B00040960E94FD110F900F90DF91CF911F91C5
:1037C0000F91FF9008958091110190911201092E9F
:1037D000000CAA0BBB0B80549340A446BE4F8093B1
:1037E0008B0490938C04A0938D04B0938E0480E09E
:1037F0000E949A1A82E00C949A1A8F929F92AF922A
:10380000BF92CF92DF92EF92FF92CF9380911801F7
:1038100090911901A0911A01B0911B01C0900D0166
:10382000D0900E01E0900F01F09010018090830481
:1038300090908404A0908504B0908604C1E0811427
:103840009104A104B10409F4C0E040917F045091B7
:1038500080046091810470918204813826E9920786
:1038600028E9A207B10508F44AC08C199D09AE09E0
:10387000BF091092930484179507A607B70759F05C
:1038800080937F0490938004A0938104B09382047A
:1038900080E00E949A1A89288A288B2869F48091EE
:1038A000870490918804A0918904B0918A048C15B2
:1038B0009D05AE05BF0599F0109283041092840413
:1038C0001092850410928604C0928704D0928804D6
:1038D000E0928904F0928A048C2F0E942A18609149
:1038E0009304662389F081EBCF91FF90EF90DF90F6
:1038F000CF90BF90AF909F908F900C9403188C0D39
:103900009D1DAE1DBF1DB5CFCF91FF90EF90DF90F5
:10391000CF90BF90AF909F908F90089580910001BD
:1039200020E4829FC0011124876080937C008091F5
:103930007A00806480937A0080917A0086FDFCCFC3
:10394000A0917800B09179002091130130E00E949D
:1039500065302FEF33E040E050E00E944532209385
:103960007F0208958091000120E4829FC00111240C
:10397000816080937C0080917A00806480937A00DB
:1039800080917A0086FDFCCFA0917800B0917900FB
:1039900024E630E00E9465302FEF33E040E050E055
:1039A0000E94453220937E020895DC01ED91FD9145
:1039B0008081ED91FD919081ED91FD916C9163700D
:1039C0008E2309F064609F2309F06860E2EFFCE158
:1039D000E60FF11D659565956D936D917D918D91C6
:1039E0009D91099423C01AC012C016C010C01EC0F9
:1039F00009C014C013C006C019C009C00DC007C05B
:103A00000DC014C062507040804090400BC06150A7
:103A100070408040904006C06E5F01C06F5F7F4F76
:103A20008F4F9F4F9E938E937E936E930895BF9278
:103A3000CF92DF92EF92FF920F931F93CF93DF937A
:103A4000EC01B62EC72E8D85811105C0CE010E94D6
:103A50009D0981110EC01B861D861C8680E0DF91AA
:103A6000CF911F910F91FF90EF90DF90CF90BF907B
:103A7000089540E060EFCE010E944A0901E0E12C88
:103A8000D12C11E0CE010E94EC08F82ECE010E944C
:103A9000EC0891E0F91218C0813099F51134D8F290
:103AA000DB86D11002C081E08D878B81882399F25B
:103AB0002396EB2DFC2DCF01089629912193E81731
:103AC000F907D9F781E0CBCF2E2D30E0F8120EC0E8
:103AD0008B851817A0F4FE01E20FF31F838180236A
:103AE00081F4F12C193008F41C87D12EFE01E20F6D
:103AF000F31F8381902F9095892383830AC08113BC
:103B0000F0CFFE01EE0DF11D8381802B8383FF2416
:103B1000F3946F2DCE010E9417091F5F000F11F45F
:103B2000E39401E087E08E1508F0ACCFB7CF4F9259
:103B30005F926F927F928F929F92AF92BF92CF923D
:103B4000DF92EF92FF920F931F93CF93DF93CDB746
:103B5000DEB761970FB6F894DEBF0FBECDBF0E94EF
:103B6000C808C0907902D0907A02E0907B02F09071
:103B70007C026C197D098E099F09693873418105A2
:103B8000910508F458C080917802811154C01092B8
:103B9000000480910404909105040E949D0940E076
:103BA0006CEC80910404909105040E944A094091B4
:103BB000FE0364E480910404909105040E944A0984
:103BC00080910004882391F1E091FF03E9500EEE0B
:103BD00012E0E33038F4F0E0EE0FFF1FE05DFE4F3F
:103BE0000081118180910104882309F481C08091B2
:103BF000FE0381117DC00E94C8084B015C012801B1
:103C0000110F6608770880910404909105040E94C2
:103C1000EC08813059F00E94C808641975098609BA
:103C20009709681579058A059B0568F381E08093FB
:103C30000004809378020E94C8086C197D098E09DF
:103C40009F0961347F4181059105D8F18091780207
:103C50008823B9F110911601E0910404F091050454
:103C60001386158614861286118610861782168290
:103C7000158214821382BE01665F7F4F8091040417
:103C8000909105040E94171D811139C060E070E019
:103C90008EEF92EC20E030E040E05FE30E94A13242
:103CA0000E940D33160F10937D020E94C808609386
:103CB000790270937A0280937B0290937C02109237
:103CC000780261960FB6F894DEBF0FBECDBFDF91CC
:103CD000CF911F910F91FF90EF90DF90CF90BF9009
:103CE000AF909F908F907F906F905F904F900895CE
:103CF000B801110F880B990B0E94950897CF67E0C8
:103D0000CE010A960E94D40899898913BFCF809169
:103D10000404909105040E949D09882309F4B6CFFC
:103D2000BE016F5F7F4FCE010A960E94DC09882397
:103D300009F4ACCF68E0CE0101960E94D4089985C1
:103D40008913A4CF6A8170E0762F6627770F770FEB
:103D5000770F298158E0259F90011124262B372BBE
:103D60008A858031D1F4688570E08F81AB01481B72
:103D70005109CA019695982F8827979587950E9493
:103D80004B30CB014097B90153E0660F771F5A952E
:103D9000E1F760789C01260F371F213854EE350774
:103DA0000CF474CFB901330F880B990B0E94453383
:103DB00020E030E040E05CE30E94D1336BCF0F9312
:103DC0001F93CF93DF938091F102882359F01092D3
:103DD00051030E9474111092F102DF91CF911F9153
:103DE0000F9108950E94C808009174021091750205
:103DF0002091760230917702601B710B820B930B3E
:103E0000693E73408105910520F4012B022B032BA1
:103E100021F70E94C8086093740270937502809322
:103E200076029093770288E60E947C0560E080E24B
:103E300094E00E94E41080E294E00E94181188232C
:103E400019F010925803C9CF81E08093580367E0BE
:103E500088E60E9486051092090380930803873044
:103E600008F461C080E294E00E94A410D82F982F3B
:103E700092959770CAE08D2F8F709C9F800D1124B2
:103E80008093510380E294E00E94A410982F9295B1
:103E90009F708F709C9F800D11248093520380E24D
:103EA00094E00E94A410982F929593708F709C9F1D
:103EB000800D11248093530380E294E00E94A410AB
:103EC000982F92959F708F709C9F800D11248093E6
:103ED000540380E294E00E94A410982F92959F7062
:103EE0008F709C9F800D11248093550380E294E095
:103EF0000E94A410982F92959F708F709C9F800DA8
:103F000011248093560380E294E00E94A410982F1D
:103F10009F70925E82958F708C9F900D112490936C
:103F20005703D7FF5ACF10925303109252031092A7
:103F30005103DF91CF911F910F910C947411CF9386
:103F4000DF93EC01809194040E947C058D2F90E01A
:103F50000E941311CE0199270E94131180E294E070
:103F60000E94181161E0809194040E9486051092CD
:103F7000090380930803882321F080E294E00E94E3
:103F8000A410DF91CF910895EF92FF920F931F93AA
:103F9000CF93DF938B01040F151F7C012FEFE21AE3
:103FA000F20AEB010E949F1F8993C701BE010C1703
:103FB0001D0799F7DF91CF911F910F91FF90EF901F
:103FC0000895DF92EF92FF920F931F93CF93DF93A9
:103FD00000D0CDB7DEB71A82198280910B012BE099
:103FE000829FC001112442E050E0BE016F5F7F4F0D
:103FF00040960E94C41FF12CE12C10E000E08BE001
:10400000D82E80910B0197018D9D200D311D11241B
:10401000C90142960E949F1F080F111D3FEFE31A2E
:10402000F30A89E0E816F10461F70F5F1F4F8981F9
:104030009A8108171907B1F480910B018D9DC00179
:10404000112449E050E068E171E042960E94C41FEB
:104050000F900F90DF91CF911F910F91FF90EF90F4
:10406000DF9008950E94881BF3CF009769F0FC0150
:1040700001900020E9F73197AF01481B590BBC01B3
:104080008CE294E00C945F0790E080E00895CF9379
:10409000DF930E943520EC018AE991E00E943520EF
:1040A0008C0F9D1FDF91CF9108950C9435208F9236
:1040B0009F92AF92BF92CF92DF92EF92FF920F93B7
:1040C0001F93CF93DF93CDB7DEB7A1970FB6F894C8
:1040D000DEBF0FBECDBF6B017C0119A2423008F4D8
:1040E0004AE08E010F5D1F4F842E912CB12CA12C24
:1040F000C701B601A50194010E946F326A3014F520
:10410000605DF80162938F01C814D904EA04FB04CE
:10411000B0F4CF010E943520A1960FB6F894DEBF0F
:104120000FBECDBFDF91CF911F910F91FF90EF9008
:10413000DF90CF90BF90AF909F908F9008956901CE
:104140007A01D6CF695CDDCF682F70E090E080E027
:104150004AE00C945720CF92DF92EF92FF92CF93D8
:10416000DF936C01990FEE08FF08F7FE17C08DE290
:104170000E947E0DEC0166277727CB016C197D0923
:104180008E099F094AE00E9457208C0F9D1FDF91E6
:10419000CF91FF90EF90DF90CF9008954AE0C70154
:1041A000B601DF91CF91FF90EF90DF90CF900C940C
:1041B0005720CF93DF934AE00E945720EC018AE911
:1041C00091E00E9435208C0F9D1FDF91CF910895C3
:1041D000CF92DF92EF92FF92CF93DF936C01990F12
:1041E000EE08FF08F7FE1DC08DE20E947E0DEC0177
:1041F00066277727CB016C197D098E099F094AE054
:104200000E945720C80FD91F8AE991E00E943520EB
:104210008C0F9D1FDF91CF91FF90EF90DF90CF909B
:1042200008954AE0C701B6010E945720EC01ECCF87
:10423000CF93DF930E94A420EC018AE991E00E94D1
:1042400035208C0F9D1FDF91CF910895209132046E
:1042500030913304C901079697FD079623E09595A1
:1042600087952A95E1F72091300430913104829F9F
:10427000A001839F500D929F500D112470E060E0CB
:1042800080914B0490914C040C943E32CF92DF927B
:10429000EF92FF920F931F93CF930E9426211092CB
:1042A00039041092380410923B0410923A0481E0D1
:1042B00090E090933F0480933E0490933D0480935C
:1042C0003C0483E08093400480934104E091030325
:1042D000EF3008F000C1F0E0E55BFB4C0C945F3080
:1042E0008091180190911901A0911A01B0911B01C0
:1042F00080389649A849B10520F482E792E00E94EF
:104300005520609118017091190180911A019091C6
:104310001B0130E4C32E32E4D32E3FE0E32EF12C18
:10432000A70196010E946F32CA01B9014AE00E94BA
:104330005720809138049091390405969093390460
:1043400080933804609118017091190180911A01CD
:1043500090911B01A70196010E946F32603A764846
:104360008140910520F48DE991E00E9455206091F3
:1043700018017091190180911A0190911B0120E49C
:1043800032E44FE050E00E946F32603177428105A5
:10439000910520F48DE991E00E945520609118016B
:1043A0007091190180911A0190911B0120E432E46F
:1043B0004FE050E00E946F3228EEC22E23E0D22E52
:1043C000E12CF12CA70196010E946F32CA01B901BC
:1043D0004AE00E94572082E0809340048093410489
:1043E0008091380490913904059690933904809314
:1043F000380487E090E090933B0480933A04609106
:1044000018017091190180911A0190911B01A70167
:1044100096010E946F32643671058105910520F482
:104420008DE991E00E945520609118017091190169
:1044300080911A0190911B0128EE33E040E050E09A
:104440000E946F322AE030E040E050E00E946F327C
:10445000CA01B9010E94D92081E080934004809371
:10446000410480917F02843620F48DE991E00E941E
:10447000552080917F02CAE06C2F0E943F3090E06F
:104480000E94AB208FE991E00E94552080917F022D
:104490006C2F0E943F30892F90E00E94AB2081EA70
:1044A00091E00E945520809102038823E9F083EA7D
:1044B00091E00E94552020917E0230E0EE24E394AA
:1044C000F12C09E010E047E150E060E470E08CE29C
:1044D00094E00E946C0ECF911F910F91FF90EF908E
:1044E000DF90CF900C949D1580917D0292E3980F00
:1044F000953608F05BC087FD04C082E792E00E9419
:10450000552080917D02082E000C990B0E94AB2053
:1045100087EF0E947E0D88EA91E00E9455208091ED
:10452000F902882309F445C082E792E00E945520F1
:10453000809153038A3020F482E792E00E94552054
:10454000809153030E94A4208091510380FF34C0C6
:1045500080EB91E00E945520809152038A3020F434
:104560008DE991E00E945520809152030E94A42081
:104570008091180190911901A0911A01B0911B012D
:1045800081389649A849B105D0F082EB91E00E94AC
:10459000552080910B018A3020F482E792E00E943E
:1045A000552080910B010E94A42095CF8AEA91E0CA
:1045B000B4CF8FE991E0BACF82E792E0CBCF85EB21
:1045C00091E0E5CF80910B010E94182181E080935A
:1045D000400480934104809103030E94A42088EB4F
:1045E00091E00E94552080910C01DDCFE0910A01FD
:1045F000F0E0EE0FFF1FEA5CFE4F20813181AAE060
:10460000B0E00E9491320E94D92081E08093400462
:1046100080934104809103030E94A4208AEC91E0DE
:104620000E94552058CF80911C0190911D0124E6D5
:10463000289FB001299F700D112490E080E04AE08E
:104640000E9457208AE991E00E94352081E0809302
:10465000400480934104809103030E94A42084EDD0
:1046600091E00E94552080EF0E947E0D80EE91E047
:10467000D7CF80911E0190911F0124E6289FB001A1
:10468000299F700D112490E080E04AE00E9457209D
:104690008AE991E00E94352081E080934004809374
:1046A0004104809103030E94A42084EE91E0D9CFBD
:1046B000809120010E94182181E080934004809322
:1046C0004104809103030E94A42080EF91E0A8CFD1
:1046D00082E0809340048093410460910D017091C9
:1046E0000E0180910F01909110010E94D92081E06C
:1046F0008093400480934104809103030E94A4208E
:1047000081E092E00E94552080EF0E947E0D81EDB5
:1047100091E086CF80911101909112010E94E820D2
:1047200081E08093400480934104809103030E94C0
:10473000A42087E092E0E6CF809113010E94182127
:1047400081E08093400480934104809103030E94A0
:10475000A42083E192E064CF80910C010E94182193
:1047600081E08093400480934104809103030E9480
:10477000A4208EE192E054CF809153038A3020F43C
:104780008DE991E00E945520809153030E941821E9
:1047900081E08093400480934104809103030E9450
:1047A000A4208EE292E03CCF809152038A3020F424
:1047B0008DE991E00E945520809152030E941821BA
:1047C00081E08093400480934104809103030E9420
:1047D000A42085E392E024CF80911401882391F0F6
:1047E0008EE392E00E94472081E080934004809312
:1047F0004104809103030E94A42085E492E00E947A
:10480000472069CE82E492E0EDCF809115010E94AD
:10481000182181E080934004809341048091030338
:104820000E94A42087E592E0FBCE80911601909132
:1048300017010E94E82081E08093400480934104A6
:10484000809103030E94A42089E692E00E945520F3
:1048500080EF0E947E0D87EF0E947E0D88EA91E036
:10486000DFCE1F920F920FB60F9211242F933F931A
:104870004F935F936F937F938F939F93AF93BF9368
:10488000EF93FF938DE593E00E94D907FF91EF919D
:10489000BF91AF919F918F917F916F915F914F9158
:1048A0003F912F910F900FBE0F901F9018952F934F
:1048B0002FB72F938F939F93EF93FF93E0916D0307
:1048C000F0916E038081E0917303F091740382FD97
:1048D00019C09081809176038F5F8F732091770349
:1048E000821741F0E0917603F0E0E35AFC4F958F98
:1048F00080937603FF91EF919F918F912F912FBF1E
:104900002F9118958081F6CF1F921FB61F92112408
:104910008F939F93AF93BF938091E4029091E502B0
:10492000A091E602B091E7020196A11DB11D80930E
:10493000E4029093E502A093E602B093E70280912F
:10494000E30293E0980F9D37E8F49093E30280919F
:10495000E8029091E902A091EA02B091EB0201967F
:10496000A11DB11D8093E8029093E902A093EA0291
:10497000B093EB02BF91AF919F918F911F901FBE9B
:104980001F9018958A578093E3028091E4029091DA
:10499000E502A091E602B091E7020196A11DB11DCA
:1049A0008093E4029093E502A093E602B093E702BD
:1049B000CECF1F920F920FB60F9211242F933F93D9
:1049C0004F935F936F937F938F939F93AF93BF9317
:1049D000EF93FF938091B900887F803609F44AC035
:1049E000F0F5883209F4A7C018F5803109F49BC0AE
:1049F000B8F4882309F4F9C0883009F494C0FF9111
:104A0000EF91BF91AF919F918F917F916F915F9146
:104A10004F913F912F910F900FBE0F901F901895BF
:104A2000883109F488C0803251F780934E0314C056
:104A3000803409F49DC040F48033B9F38833F9F62B
:104A400080934E0385ECB0C0803509F485C088356D
:104A500009F496C0883499F60E946410D0CF883942
:104A600009F48CC038F5883729F050F4883611F0F5
:104A7000803729F683E0809350031092E20257C0FA
:104A8000883809F47BC0803919F0803809F0B7CF35
:104A90008091E202803208F071C0E091E20281E090
:104AA0008E0F8093E2028091BB00F0E0EE53FD4F49
:104AB00080833DC0803B39F0E0F4803A09F479C04E
:104AC000883A09F09CCF84E0809350031092C10291
:104AD0001092C002E0910603F091070309958091BE
:104AE000C00281110FC081E08093C0021092A00229
:104AF00009C0803C09F4A6CF883C09F4A3CF883BC9
:104B000009F07DCFE091C10281E08E0F8093C10258
:104B1000F0E0E056FD4F80818093BB009091C10290
:104B20008091C00229C080914B038093BB0085EC2B
:104B30008093BC0064CF90914D0380914C039817F3
:104B400058F5E0914D0381E08E0F80934D03F0E026
:104B5000E65DFC4F8081E9CFE0914D0381E08E0F4F
:104B600080934D038091BB00F0E0E65DFC4F8083B5
:104B700090914D0380914C039817C8F285E8D8CFE7
:104B8000E0914D0381E08E0F80934D038091BB0037
:104B9000F0E0E65DFC4F808380914F0381115CCF94
:104BA00081E080934A0384EA8093BC001092500312
:104BB00026CF85EC8093BC00109250038091E202D6
:104BC000803230F4E091E202F0E0EE53FD4F1082CB
:104BD0006091E20270E0E0910403F091050382EC41
:104BE00092E009951092E2020ACF10924E0334CF60
:104BF0001F920F920FB60F9211242F933F934F9352
:104C00005F936F937F938F939F93AF93BF93EF9334
:104C1000FF938091FC039091FD030E94D51CFF91AE
:104C2000EF91BF91AF919F918F917F916F915F9124
:104C30004F913F912F910F900FBE0F901F9018959D
:104C40001F920F920FB60F9211242F933F934F9301
:104C50005F936F937F938F939F93AF93BF93EF93E4
:104C6000FF938091FA039091FB030E94D51CFF9162
:104C7000EF91BF91AF919F918F917F916F915F91D4
:104C80004F913F912F910F900FBE0F901F9018954D
:104C9000CF92DF92EF92FF92CF9310926003109227
:104CA0005F0398EEC92E93E0D92EE12CF12CC0922F
:104CB0006103D0926203E0926303F09264038EE496
:104CC00091E090935E0380935D0385EC90E0909378
:104CD0006A038093690384EC90E090936C03809363
:104CE0006B0380EC90E090936E0380936D0381ECF6
:104CF00090E09093700380936F0382EC90E0909328
:104D000072038093710386EC90E090937403809318
:104D10007303109276031092770310927803109227
:104D200079030E944B061092230410922204C09231
:104D30002404D0922504E0922604F092270480E611
:104D400091E0909321048093200480E58093940463
:104D500010927404109273041092760410927504E9
:104D600010927804109277041092790410927A04C9
:104D700010927B0480912D0190912E01A0912F0122
:104D800080937C0490937D04A0937E0410927F0412
:104D90001092800410928104109282041092830475
:104DA0001092840410928504109286041092870455
:104DB000109288041092890410928A0480E892EB81
:104DC000A6EEBEE080938B0490938C04A0938D0498
:104DD000B0938E0462E082E00E94780662E083E095
:104DE0000E947806EDE8FAE0E491F0E0EE0FFF1F94
:104DF000EF57F54F859194919093680480936704E1
:104E0000EFE6FAE0E491E0936B04EEE8FAE0E49177
:104E1000F0E0EE0FFF1FEF57F54F859194919093BF
:104E20006A0480936904E0E7FAE0E491E0936C049B
:104E300010926E0410926F0410927004109271041C
:104E400080ED97E00E946808E0916704F0916804A3
:104E5000908180916B04982381E009F480E0E091D7
:104E60006904F0916A04908120916C04922309F006
:104E7000826027E634E080936D043093FB03209337
:104E8000FA03809169008C7F816080936900E89AC1
:104E9000C1E0C09372043093FD032093FC03809122
:104EA0006900837F846080936900E99A82E080933F
:104EB000720410922F0410922E0420E830E03093F8
:104EC00031042093300480E290E090933304809387
:104ED0003204309335042093340490933704809344
:104EE0003604109242041092390410923804109241
:104EF0003B0410923A04C0934104C09340048FEFE6
:104F00009FEF90933F0480933E0490933D048093E1
:104F10003C04C0934304109244041092460410923F
:104F2000450482E791E090932D0480932C0480E265
:104F300094E090934A048093490410924C04109298
:104F40004B048FEF8093500480935104809352045C
:104F5000809353048093540480E5809361041092FD
:104F6000620480EA96E8A1E0B0E080936304909345
:104F70006404A0936504B0936604109248041092F0
:104F8000470460E08EE00E947806EBE7FAE0E491E7
:104F9000E0931204E9E9FAE0E491F0E0EE0FFF1F7C
:104FA000EF57F54F859194919093140480931304D7
:104FB00010921D0410921F0410921E0410921C04E3
:104FC00010921B0410921A041092190410921804E3
:104FD00010921704109216041092150482E194E0C6
:104FE0009093050480930404109202041092030429
:104FF0001092FE0389E08093FF03C0930004C093E6
:1050000001041092110410921004CF91FF90EF90C0
:10501000DF90CF900895CDB7DEB760970FB6F894C4
:10502000DEBF0FBECDBFF89482E880937A0013E014
:1050300014BD15BD80916E00816080936E0081E08B
:10504000809380009BE0909381008093B00084E087
:105050008093B1001092C1007894E0916D03F091BB
:105060006E0382E08083E0916D03F0916E03108205
:10507000E0916903F0916A031082E0916B03F09173
:105080006C0380E1808310927503E0917103F091CD
:10509000720386E08083E0916F03F091700380815A
:1050A00080618083E0916F03F0917003808188605C
:1050B0008083E0916F03F09170038081806880832A
:1050C000E0916F03F091700380818F7D808360E0B9
:1050D00084E00E94780660E08FE00E9478065C9A87
:1050E000249A259A239A2C982D9860E08BE00E94B0
:1050F000D3051093000180914B0490914C04892BAF
:1051000011F10E94262120913204309133048091C4
:10511000300490913104213231050CF0B0C0B90156
:105120006052710977FF02C06F5F7F4F7595679579
:105130008357910997FD019600E210E023E730E0E4
:1051400048EC55E0AFC02091320430913304C901DE
:10515000079697FD0796B3E095958795BA95E1F781
:105160002091300430913104AC01429FC001439F33
:10517000900D529F900D11240E94133190934C0476
:1051800080934B04892B09F0BCCF0E9426210E94FA
:105190009D15E0910404F09105041386158614868C
:1051A0001286118610861782168215821482138247
:1051B000109202041092030411E0BE016F5F7F4F52
:1051C00080910404909105040E94171D882309F41E
:1051D0001EC267E0CE0101960E94D408988589130B
:1051E000ECCF8091FE03811128C08091040490913E
:1051F00005040E949D09BE016F5F7F4F80910404EA
:10520000909105040E947E0940E064EB80910404C3
:10521000909105040E944A0980910404909105042C
:105220000E94EC08082F80910404909105040E94CC
:105230009D09011102C01093FE030091FF03CE01EE
:1052400001960E94280A801708F0D5C18091FF03BB
:105250008093FF03809102048F5F80930204898111
:10526000883239F008F0CCC1803119F0823209F06F
:10527000A4CF809103048F5F809303049ECFB90174
:105280006054710977FF02C06F5F7F4F7595679516
:105290008255910997FD019600E410E022E530E087
:1052A00048EA57E0959587950E94520F82E08093D7
:1052B0004E048091490490914A04892B09F49AC0C4
:1052C0008CE380934D040E944B068091540487FD2B
:1052D0001EC061E00E94780661E0809154040E9443
:1052E000D30561E070E080E090E00E94950860E006
:1052F000809154040E94D3056AE070E080E090E061
:105300000E94950861E0809154040E94D305809129
:10531000490490914A04892B09F421C18CE08093BF
:10532000B80064E08AEB95E00E949A146091320420
:1053300061508CE294E00E943D1564E086EB95E0BC
:105340000E949A1480914E0464E1813009F460E176
:105350008CE294E00E943D1564E082EB95E00E94AF
:105360009A1480913004909131048038910509F0AD
:1053700021C180913204909133048032910509F06B
:1053800005C164E08EEA95E00E949A1469ED8CE212
:1053900094E00E943D1580914E0461EF813009F444
:1053A00062E28CE294E00E943D1566E082EA95E0BC
:1053B0000E949A148091490490914A04892B09F41F
:1053C00010C12091630430916404409165045091B0
:1053D000660460E074E284EF90E00E946F32205136
:1053E00031094109510956954795379527952093DD
:1053F000B800CBCE61E0809152040E94780661E053
:10540000809153040E94780680915204082E000C6B
:10541000990BFC01E557F54FE491F0E0EE0FFF1F0B
:10542000E254FA4F2591349130935A042093590451
:10543000FC01E359F54FE491E0935F04809153043C
:10544000082E000C990BFC01E557F54FE491F0E0B4
:10545000EE0FFF1FE254FA4FA591B491B0935C0494
:10546000A0935B04FC01E359F54FE491E0936004E1
:105470008C91E82BEC938091470490914804892B00
:1054800059F11FB7F8948091EC0281111EC0E5E933
:10549000FAE08491E7E7FAE09491E82FF0E0EE0F6C
:1054A000FF1FE856FA4FA591B491EC91E92321F43E
:1054B00061E08AE00E94D305229A8CB580618CBDA0
:1054C0008CB580648CBD259A239A8091EC028F5F05
:1054D0008093EC021FBFF9CE61E0809150040E94DE
:1054E000780661E0809151040E9478068091500412
:1054F000082E000C990BFC01E557F54FE491F0E004
:10550000EE0FFF1FE254FA4F259134913093560469
:1055100020935504FC01E359F54FE491E0935D04B9
:1055200080915104082E000C990BFC01E557F54FB2
:10553000E491F0E0EE0FFF1FE254FA4FA591B49111
:10554000B0935804A0935704FC01E359F54FE4913C
:10555000E0935E048C91E095E823EC93B6CE8091C5
:10556000470490914804892B31F080916104909117
:1055700062040E949A15E0915B04F0915C049081B2
:1055800080916004809589238083CBCE80349105FF
:1055900009F0FCCE63E08BEA95E00E949A148091BA
:1055A0004E046FEC813009F46FE98CE294E00E94C4
:1055B0003D15ECCE8036910509F0E8CE809132049D
:1055C00090913304409709F0E1CE63E088EA95E0DA
:1055D0000E949A1480914E046FEA813031F760E1A5
:1055E000E4CFE0915B04F0915C04808190916004D1
:1055F000892B8083CACDCE0101960E94280A28CE2D
:105600008B3309F436CE823409F0D7CD32CE1A82EC
:10561000198242E050E0BE016F5F7F4F90E080E072
:105620000E94C41F02E010E0F12CE12CC8010E948E
:105630009F1FE80EF11C0F5F1F4F00311105B1F7DE
:105640005FEFE51AF50A89819A81E816F90609F0F3
:10565000C2C04EE050E06AE071E082E090E00E945B
:10566000C41F0E94E11F809115018093F7021092E0
:105670007C0410927D0410927E0460E880E10E9418
:10568000031860E881E10E94031860E882E10E944B
:10569000031880E896E3AEEBB6E280932301909383
:1056A0002401A0932501B093260162E987EB0E94B3
:1056B00003180E94E31B0E94FD1B0E948E1C0E9487
:1056C000B21C0E94971D0E94DF1E0E94262110928C
:1056D00039041092380410923B0410923A0481E08D
:1056E00090E090933F0480933E0490933D04809318
:1056F0003C0483E0809340048093410481E091E086
:105700000E9447200E949D1568EE73E080E090E0C3
:105710000E9495080E944621E8EE2E2EE3E03E2EE0
:1057200011E0809109014C996AC4882361F01092BC
:1057300009010E94C8086093ED027093EE02809305
:10574000EF029093F00280917204823008F076C0EC
:10575000F89487E694E00E94D51C60916E047091E5
:105760006F04809170049091710478942091F702F5
:1057700030E050E040E00E94453269017A018091BA
:105780001401882341F0F094E094D094C094C11C9B
:10579000D11CE11CF11C8090F3029090F402A090C7
:1057A000F502B090F6028C149D04AE04BF0409F417
:1057B00045C14C9B43C1E09103039FEF9E0F923084
:1057C00010F41093F202EF3008F02AC1F0E0E65A2C
:1057D000FB4C0C945F300E94881B43CF1092030354
:1057E0000E944621B0CF655671098109910963383D
:1057F000734081059105A0F7809103039FEF980FF7
:10580000923090F49091F202992371F01092F2028A
:105810001092030380910C018111E2CF8091030368
:105820008130F1F682E009C48F5F833089F38F30D5
:1058300018F480930303EECF83E0FBCFF8948DCF71
:10584000409018015090190160901A0170901B014E
:10585000A0911E01B0911F0120EA36E841E050E01E
:105860000E9464326D877E878F87988BA0911C0180
:10587000B0911D010E94643269877A878B879C876B
:105880008C149D04AE04BF040CF06CC02D853E85C5
:105890004F855889241535054605570550F1E09187
:1058A0000A01F0E0EE0FFF1FEA5CFE4F208131811C
:1058B000AAE0B0E00E9491324B015C01C301B20149
:1058C000A50194010E946F32480C591C6A1C7B1C74
:1058D000611571058105910521F0461A570A680A7C
:1058E000790A409218015092190160921A0170923F
:1058F0001B018091180190911901A0911A01B0919A
:105900001B0129853A854B855C8582179307A4077F
:10591000B50760F489859A85AB85BC8580931801AD
:1059200090931901A0931A01B0931B018091180163
:1059300090911901A0911A01B0911B012D853E850E
:105940004F855889281739074A075B0740F4209389
:1059500018013093190140931A0150931B010E94C2
:10596000FD1B5EC0C814D904EA04FB0414F6898543
:105970009A85AB85BC85481659066A067B0650F2A7
:10598000E0910A01F0E0EE0FFF1FEA5CFE4F20817C
:105990003181AAE0B0E00E9491324B015C01C30169
:1059A000B201A50194010E946F3261157105810554
:1059B000910509F092CF481859086A087B0891CFE1
:1059C00080910B0190910C018C149D04AE04BF04D6
:1059D00084F4891718F48F5F80930B0180910B0179
:1059E000981710F490930B010E94E11F1092F80297
:1059F000B6CFC814D904EA04FB0484F78823A1F3C2
:105A00008150EACF80910A018C149D04AE04BF043A
:105A10000CF0C4C0853008F0CCC08F5F80930A01C1
:105A20000E94C8086093FA027093FB028093FC0204
:105A30009093FD021093F9020E944621C092F30256
:105A4000D092F402E092F502F092F6028091020305
:105A5000339BCBC2811104C0109302030E94FD1B33
:105A60008091F802811128C08091200121E030E06E
:105A700040E050E004C0220F331F441F551F8A9599
:105A8000D2F7C9012C9897E0E92EF12CC82ED12C21
:105A9000B6010E2C02C0759567950A94E2F7617005
:105AA0008BE00E94D3052D9A2D9831E0E31AF1087E
:105AB00078F72C9A1093F80280910303811161C04A
:105AC00080910203882309F48BC284E690E09093CE
:105AD0002201809321010E94C808C090FE02D0904C
