:100000000C945C050C943B260C9413260C948405EC
:100010000C9484050C9484050C9484050C94F623AC
:100020000C9484050C9484050C9484050C9484052C
:100030000C9484050C9484050C9484050C9484051C
:100040000C94AA240C9484050C9478240C945224C7
:100050000C9484050C9484050C9484050C948405FC
:100060000C94F4240C948405000103070F1F3F7FB8
:100070000080C0E0F0F8FCFE00000000003E5B4F96
:100080005B3E3E6B4F6B3E1C3E7C3E1C183C7E3CF8
:10009000181C577D571C1C5E7F5E1C00183C180006
:1000A000FFE7C3E7FF0018241800FFE7DBE7FF3096
:1000B000483A060E2629792926407F050507407F04
:1000C00005253F5A3CE73C5A7F3E1C1C08081C1C77
:1000D0003E7F14227F22145F5F005F5F06097F016D
:1000E0007F006689956A606060606094A2FFA29458
:1000F00008047E040810207E201008082A1C080826
:100100001C2A08081E101010100C1E0C1E0C303873
:100110003E3830060E3E0E06000000000000005F74
:1001200000000007000700147F147F14242A7F2A90
:100130001223130864623649562050000807030052
:10014000001C2241000041221C002A1C7F1C2A089E
:10015000083E080800807030000808080808000001
:1001600060600020100804023E5149453E00427F75
:10017000400072494949462141494D331814127FC4
:100180001027454545393C4A494931412111090764
:100190003649494936464949291E000014000000E5
:1001A00040340000000814224114141414140041B7
:1001B00022140802015909063E415D594E7C121174
:1001C000127C7F494949363E414141227F414141AC
:1001D0003E7F494949417F090909013E4141517327
:1001E0007F0808087F00417F41002040413F017F98
:1001F000081422417F404040407F021C027F7F0460
:1002000008107F3E4141413E7F090909063E4151A8
:10021000215E7F09192946264949493203017F0198
:10022000033F4040403F1F2040201F3F4038403F99
:10023000631408146303047804036159494D4300AF
:100240007F4141410204081020004141417F0402E6
:10025000010204404040404000030708002054547D
:1002600078407F284444383844444428384444285B
:100270007F385454541800087E090218A4A49C78AE
:100280007F0804047800447D40002040403D007F0A
:100290001028440000417F40007C047804787C08EA
:1002A0000404783844444438FC18242418182424BE
:1002B00018FC7C08040408485454542404043F44A3
:1002C000243C4040207C1C2040201C3C4030403CD2
:1002D00044281028444C9090907C4464544C440032
:1002E0000836410000007700000041360800020196
:1002F0000204023C2623263C1EA1A161123A404082
:10030000207A3854545559215555794122545478FE
:1003100042215554784020545579400C1E52721297
:100320003955555559395454545939555454580020
:1003300000457C410002457D420001457C407D1224
:1003400011127DF0282528F07C5455450020545486
:100350007C547C0A097F4932494949323A44444431
:100360003A324A4848303A4141217A3A424020786C
:10037000009DA0A07D3D4242423D3D4040403D3C6D
:1003800024FF2424487E4943662B2FFC2F2BFF0992
:1003900029F620C0887E0903205454794100004486
:1003A0007D413048484A32384040227A007A0A0A71
:1003B000727D0D19317D2629292F282629292926E4
:1003C00030484D4020380808080808080808382F29
:1003D00010C8ACBA2F102834FA00007B00000814B3
:1003E0002A142222142A14085500550055AA55AA89
:1003F00055AAFF55FF55FF000000FF00101010FF29
:1004000000141414FF001010FF00FF1010F010F083
:10041000141414FC001414F700FF0000FF00FF1474
:1004200014F404FC141417101F10101F101F1414C0
:10043000141F00101010F0000000001F101010100A
:100440001F10101010F010000000FF1010101010FE
:1004500010101010FF10000000FF140000FF00FF3C
:1004600000001F10170000FC04F4141417101714D8
:1004700014F404F40000FF00F714141414141414FA
:10048000F700F7141414171410101F101F1414146D
:10049000F4141010F010F000001F101F0000001FD7
:1004A00014000000FC140000F010F01010FF10FF0A
:1004B000141414FF141010101F00000000F010FF9F
:1004C000FFFFFFFFF0F0F0F0F0FFFFFF0000000083
:1004D00000FFFF0F0F0F0F0F3844443844FC4A4A07
:1004E0004A347E02020606027E027E0263554941BC
:1004F000633844443C04407E201E2006027E0202F3
:1005000099A5E7A5991C2A492A1C4C7201724C3006
:100510004A4D4D303048784830BC625A463D3E49DD
:100520004949007E0101017E2A2A2A2A2A44445F81
:10053000444440514A444040444A51400000FF0175
:1005400003E080FF000008086B6B08361236243683
:10055000060F090F060000181800000010100030E8
:1005600040FF0101001F01011E00191D1712003C70
:100570003C3C3C0000000000005EBCE2613FDD83CB
:10058000C29C7E20A3FD1F41009D23BE46DB65F873
:100590008C11AF32CA57E974000000080002010054
:1005A000000304070000000000000000000000003D
:1005B000240027002A00DB40A4A62EAFDA0281DA4D
:1005C0001281DA02818F2000A1C8D300408DAED500
:1005D00080A8000060000000000000000000000093
:1005E000000000E00000000000000000000000002B
:1005F0000001E0000000000000000000000000001A
:1006000001F00000000000000000000000000003F6
:10061000F00000000000000000000000000007F0F3
:100620000000000000000000000000000007F800CB
:100630000000000000000000000000000FF80000B3
:100640000003C0007E000001E0007F0FF800000002
:1006500003C000FE000001E000FFEFF8000000030F
:10066000C000FE000001E000FFFFF800000003C032
:1006700000F00000000F007FFE7FC0000003C000FC
:10068000F00000000F003FFE7FF83FF1FBCFFCFEC3
:10069000F3BC3DEFE01FFE7FFF7FFBFFDFFEFEFFB1
:1006A000BC3DEFE01FC6FFFF7FFBFFDFFEFEFFBC90
:1006B0003DEFE00FE3C7FE787BC3DE1EF0FFBC3DDD
:1006C000EF0007FF87FC787BC3DE1EF0F83C3DEFB0
:1006D0000001FFFFF0007BC3C01EF0F03C3DEF00C7
:1006E00001F37FE03FFBC3CFFEF0F03C3DEF0003A2
:1006F000E33F807FFBC3DFFEF0F03C3DEF0007E708
:100700003C00787BC3DE1EF0F03C3DEF0007FFBEEF
:1007100000787BC3DE1EF0F03C3DEF0007FFFE00DB
:10072000787BC3DE1EF0F03C3DEF000FFFFE007F44
:10073000FBFFDFFEF0F03FFDEFE00FFFFF007FFB70
:10074000FFDFFEF0F03FFDEFE00FF9FF003E79F92B
:10075000CF9EF0F01F3DE7E01FF1FF00000000001A
:10076000000000000000001F80FF007FFFFFFFFF70
:10077000FFFFFFFFFFE01C007F007FFFFFFFFEB4D5
:100780006D888D18E000001F007FFFFFFFFE95AD14
:100790007DB577E000000F007FFFFFFFFEA5AD9D58
:1007A0008D19E0000006007FFFFFFFFEB5ADEDB53F
:1007B0007EE000000000000180000000000000005A
:1007C0000000038000000000000000000007C000DF
:1007D000000000000000000007C000000000000052
:1007E0000000000FC00000000000000000001FE03B
:1007F0000000000000000000001FE00000000000FA
:10080000000000003FE00000000000000000003F8A
:10081000F00000000000000000007FF00000000079
:100820000000001FF87FF0000000000000003FFE05
:100830007FF0000000000000003FFF7FF00000009C
:10084000000000001FFFFBE0000000000000000FA0
:10085000FFF9FFC00000000000000FFFF9FFF800E3
:10086000000000000007FFF1FFFF00000000000093
:1008700003FC73FFFF80000000000001FE3FFFFF4C
:1008800080000000000000FF1E0FFF0000000000BD
:1008900000007FFE1FFC000000000000003FFFFF83
:1008A000F8000000000000000FDFFFE00000000083
:1008B0000000001F19FFC0000000000000003F3CC6
:1008C000FF00000000000000007E7CF80000000037
:1008D000000000007FFE7C0000000000000000FF20
:1008E000FFFC0000000000000000FFFFFE00000011
:1008F0000000000000FFFFFE0000000000000001FB
:10090000FFEFFE0000000000000001FFCFFE00002E
:10091000000000000003FF07FE00000000000000D0
:1009200003FC07FE0000000000000003F003FE00CF
:10093000000000000000018000FE00000000000038
:10094000000000007E000000000000000000003EEB
:10095000000000000000000000000C00000000008B
:1009600000078000FC000003C0000000078001FCBD
:10097000000003C0000000078001FC000003C0006D
:100980000000078001E00000001E00000007800159
:10099000E00000001E007FE3F79FF9FDE7787BDFB2
:1009A000C0FFF7FFBFFDFDFF787BDFC0FFF7FFBF94
:1009B000FDFDFF787BDFC0F0F787BC3DE1FF787B72
:1009C000DE00F0F787BC3DE1F0787BDE0000F787C2
:1009D000803DE1E0787BDE007FF7879FFDE1E078F6
:1009E0007BDE00FFF787BFFDE1E0787BDE00F0F7FC
:1009F00087BC3DE1E0787BDE00F0F787BC3DE1E0BD
:100A0000787BDE00F0F787BC3DE1E0787BDE00FF1D
:100A1000F7FFBFFDE1E07FFBDFC0FFF7FFBFFDE1B8
:100A2000E07FFBDFC07CF3F39F3DE1E03E7BCFC086
:100A30000000000000000000000000FFFFFFFFFFBB
:100A4000FFFFFFFFFFC0FFFFFFFFFD68DB111A3153
:100A5000C0FFFFFFFFFD2B5AFB6AEFC0FFFFFFFF48
:100A6000FD4B5B3B1A33C0FFFFFFFFFD6B5BDB6A97
:100A7000FDC000000000250028002B00022200FF1E
:100A80002100010204081020408001020408102007
:100A900001020408102000000000230026002900A5
:100AA0000404040404040404020202020202030314
:100AB000030303036326D23111241FBECFEFD8E016
:100AC000DEBFCDBF12E0A0E0B1E0E8EFFBE602C080
:100AD00005900D92AE38B107D9F724E0AEE8B2E048
:100AE00001C01D92A53CB207E1F715E0CBE5D5E0CA
:100AF00004C02197FE010E940A34CA35D107C9F704
:100B00000E941E280C94EF350C94000091E0909305
:100B100088038093870310928603109285030895BB
:100B200090917C039111FCCF91E090937C03909382
:100B30007B032FEF20937A0310927903260F2093E3
:100B400078039093770390917703880F892B809394
:100B50007703809176038130F9F4109276038091C7
:100B600077038093BB008091BC0083FDF8CF85ECB8
:100B70008093BC0080917C038130E1F38091790304
:100B8000861710F460917903A6E5B3E0E6E3F3E09D
:100B900080E0861303C0089585EEEACF9D9191937E
:100BA0008F5FF7CF8091340390913503891B990BA8
:100BB0000895089508950895AF92BF92CF92DF925D
:100BC000EF92FF920F931F93CF93DF936C017B0102
:100BD0008B01040F151FEB015E01AE18BF08C01793
:100BE000D10759F06991D601ED91FC910190F08106
:100BF000E02DC6010995892B79F7C501DF91CF91C9
:100C00001F910F91FF90EF90DF90CF90BF90AF902A
:100C10000895FC01538D448D252F30E0842F90E002
:100C2000821B930B541710F0CF96089501970895E7
:100C3000FC01918D828D981761F0A28DAE0FBF2FB0
:100C4000B11D5D968C91928D9F5F9F73928F90E006
:100C500008958FEF9FEF0895FC01918D828D981775
:100C600031F0828DE80FF11D858D90E008958FEFB2
:100C70009FEF0895FC01918D228D892F90E0805C7B
:100C80009F4F821B91098F739927089589E893E0FC
:100C90000E943A0621E0892B09F420E0822F089572
:100CA00080E090E0892B29F00E94460681110C9487
:100CB00000000895FC01A48DA80FB92FB11DA35AFF
:100CC000BF4F2C91848D90E001968F739927848F6C
:100CD000A689B7892C93A089B1898C91837080648F
:100CE0008C93938D848D981306C00288F389E02D30
:100CF00080818F7D80830895EF92FF920F931F93E1
:100D0000CF93DF93EC0181E0888F9B8D8C8D9813BE
:100D10001AC0E889F989808185FF15C09FB7F894CA
:100D2000EE89FF896083E889F98980818370806416
:100D300080839FBF81E090E0DF91CF911F910F9161
:100D4000FF90EF900895F62E0B8D10E00F5F1F4F70
:100D50000F731127E02E8C8D8E110CC00FB607FC7F
:100D6000FACFE889F989808185FFF5CFCE010E940D
:100D70005A06F1CFEB8DEC0FFD2FF11DE35AFF4F1B
:100D8000F0829FB7F8940B8FEA89FB89808180629B
:100D9000CFCFCF93DF93EC01888D8823B9F0AA8958
:100DA000BB89E889F9898C9185FD03C0808186FD26
:100DB0000DC00FB607FCF7CF8C9185FFF2CF808175
:100DC00085FFEDCFCE010E945A06E9CFDF91CF918A
:100DD0000895833081F028F4813099F08230A9F0B1
:100DE00008958730A9F08830C9F08430B1F480913B
:100DF00080008F7D03C0809180008F77809380007A
:100E0000089584B58F7784BD089584B58F7DFBCF19
:100E10008091B0008F778093B00008958091B000EA
:100E20008F7DF9CFCF93DF93282F30E0F901E8567B
:100E3000FA4F8491F901EE57F54FD491F901E0563C
:100E4000F54FC491CC23A1F081110E94E906EC2F4B
:100E5000F0E0EE0FFF1FEA56F54FA591B491EC912B
:100E6000ED2381E090E009F480E0DF91CF910895D7
:100E700080E090E0FACF1F93CF93DF93282F30E0EC
:100E8000F901E856FA4F8491F901EE57F54FD491E4
:100E9000F901E056F54FC491CC23A9F0162F81112A
:100EA0000E94E906EC2FF0E0EE0FFF1FEE58F54F21
:100EB000A591B4918FB7F894EC91111108C0D09519
:100EC000DE23DC938FBFDF91CF911F910895DE2B3E
:100ED000F8CF1092350310923403109286031092CB
:100EE000850310927C0381E080937B03109276034C
:100EF00061E082E10E943B0761E083E10E943B07E1
:100F0000E9EBF0E080818E7F808380818D7F80831C
:100F100088E48093B80085E48093BC0089ED95E077
:100F200090933303809332038AED95E090933103DD
:100F30008093300308959091240189130BC0ECE74E
:100F4000FAE0E4919FEF90932401E13049F028F01A
:100F5000E23061F060E00C943B0710926E00FACF33
:100F600090916F009D7F90936F00F4CF90917000EF
:100F70009D7F9093700091E09093B0009091B100AC
:100F8000987F94609093B1001092B300E3CFCF9319
:100F9000DF9390E0FC01EE57F54F24918056954F7A
:100FA000FC0184918823C9F090E0880F991FFC010F
:100FB000E455FA4FA591B491FC01EE58F54FC59157
:100FC000D49161110DC09FB7F8948C912095822324
:100FD0008C938881282328839FBFDF91CF91089528
:100FE000623051F49FB7F8943C91822F809583230F
:100FF0008C93E8812E2BEFCF8FB7F894EC912E2BAA
:101000002C938FBFEACF2091000190E4299F90019B
:1010100011248E50822B80937C0080917A00806412
:1010200080937A0080917A0086FDFCCF80917800D1
:101030009091790008953FB7F894809102039091C0
:101040000303A0910403B091050326B5A89B05C036
:101050002F3F19F00196A11DB11D3FBFBA2FA92F37
:10106000982F8827BC01CD01620F711D811D911D34
:1010700042E0660F771F881F991F4A95D1F70895A0
:101080008F929F92AF92BF92CF92DF92EF92FF9298
:101090006B017C010E941B084B015C01C114D1044F
:1010A000E104F104B9F00E941B08681979098A0962
:1010B0009B09683E73408105910580F321E0C21AC7
:1010C000D108E108F10888EE880E83E0981EA11C83
:1010D000B11CE4CFFF90EF90DF90CF90BF90AF9026
:1010E0009F908F9008952FB7F8946091FE027091B1
:1010F000FF0280910003909101032FBF0895DC014E
:1011000080E0615090F09D919827E92FEF70F0E01A
:10111000E858FA4F2491E92FE295EF70F0E0E85794
:10112000FA4FE491822F8E27ECCF0895DC012C91A9
:101130001196ED91FC91F8948181822B81839281AB
:10114000322F30959323928387E090E00197F1F757
:1011500081818323818383E290E00197F1F790817D
:101160007894EFECF0E03197F1F7922381E009F405
:1011700080E00895FC0190810180F281E02D292F0B
:10118000209560FF14C0F89482818223828381813C
:10119000892B8183A3E2B0E01197F1F78281982B2C
:1011A0009283789487ED90E00197F1F70895F89491
:1011B0008281822382838181892B8183AFEFB0E09A
:1011C0001197F1F78281982B928378948FE090E0C9
:1011D000EBCFDF92EF92FF920F931F93CF93DF93AA
:1011E000EC01D62EE42E08E010E0FF24F39461E039
:1011F0008D2D8F2109F460E0CE010E94BA08FF0C0A
:1012000001501109A1F7E11010C0F894E981FA81A9
:1012100091818881809589238183E981FA819281F6
:1012200088818095892382837894DF91CF911F9163
:101230000F91FF90EF90DF900895EF92FF920F9340
:101240001F93CF93DF938C017B0140E065E50E9403
:10125000E908E70188E0E80EF11C699140E0C80167
:101260000E94E908CE15DF05C1F7DF91CF911F91EC
:101270000F91FF90EF900895FC0190810180F28121
:10128000E02DF8948181292F209582238183789401
:101290003DE743E050E0315029F1DA011197F1F7D1
:1012A00080818923C1F3F8948281822382838181A2
:1012B000892B81837894ABE7B7E01197F1F7F89425
:1012C000818182238183A3E1B1E01197F1F78081CD
:1012D000982381E009F080E07894E3E6F6E0319726
:1012E000F1F7089580E00895AF92BF92CF92DF9218
:1012F000EF92FF920F931F93CF93DF938B01BC016B
:1013000080913004909131040E941D0940E06EEB01
:1013100080913004909131040E94E908E80168014D
:1013200089E0C80ED11CA0903004B090310488E050
:10133000E82EF12C10E001E0C5010E949608811111
:10134000102B000F81E0E81AF108B1F71993CC16C1
:10135000DD0649F780913004909131040E943C09E8
:1013600091E0813009F090E0892FDF91CF911F91BA
:101370000F91FF90EF90DF90CF90BF90AF900895C6
:101380000F931F93CF93DF93CDB7DEB729970FB697
:10139000F894DEBF0FBECDBF8C01809130049091D8
:1013A00031040E943C09811102C080E01FC0BE01CF
:1013B0006F5F7F4FC8010E9474098823B1F368E012
:1013C000CE0101960E947F0899858913EECF8D8109
:1013D0008F33B9F020F48F3141F789E007C08F35A2
:1013E00021F08F3711F78CE001C08BE029960FB602
:1013F000F894DEBF0FBECDBFDF91CF911F910F914B
:1014000008958AE0F3CF0895FC016370668B8481B0
:10141000958126813781613039F0633029F09187D9
:101420008087338722870895318720879387828733
:1014300008952F923F924F925F926F927F928F9278
:101440009F92AF92BF92CF92DF92EF92FF920F9353
:101450001F93CF93DF93CDB7DEB76A970FB6F8949B
:10146000DEBF0FBECDBF9A8F898F7A8369834A0111
:10147000D22E18870F833701BC2CDC0159962D9191
:101480003C915A972115310509F015C118968D9197
:101490009C911997681779070CF0D7C11A968D910E
:1014A0009C91481759070CF0D0C14C2C512CB6E038
:1014B000CB9E600D711D11247C876B871616170655
:1014C0000CF0C3C1EA2DF0E0FA87E98793E0EE0F54
:1014D000FF1F9A95E1F7F88BEF87CF01840F951FD7
:1014E000181619060CF0B1C1A98DBA8D58968C91B9
:1014F000811104C0BFEABD1508F4D394A98DBA8D3B
:10150000ED91FC9111970284F385E02DCD010995B1
:10151000B5E0DB9EC0011124E981FA81FC83EB83F5
:10152000312C212C9C0128583F4F388F2F8B4A2D6E
:1015300050E05E8B4D8BEF89F88DE20DF31D4491E9
:101540009E828D82D12CC12C69817A81620D731D9E
:101550007A8B698B842F90E09C8B8B8BE98DFA8D35
:10156000A081B18140FF82C0F1E0BF126FC0AF1215
:101570006DC01C96ED91FC912F813885A4014C0D16
:101580005D1D69897A89898D9A8D0995EB89FC8918
:10159000F595E7954E2F5FEFC51AD50A6D817E81CF
:1015A0008D899E89680F791F7E836D8398E0C916A7
:1015B000D10481F6AFEF2A1A3A0AEB81FC81E40DDF
:1015C000F51DFC83EB83F5E02F16310409F0B3CF52
:1015D0002F81388526153705B9F0A98DBA8DED9183
:1015E000FC91B1E0BB1257C0AB1255C069817A8142
:1015F0006B5F7F4F0088F189E02D830128E030E0A8
:10160000A401898D9A8D0995A98DBA8DED91FC91D2
:1016100011970688F789E02DCD016A960FB6F894E8
:10162000DEBF0FBECDBFDF91CF911F910F91FF9015
:10163000EF90DF90CF90BF90AF909F908F907F9072
:101640006F905F904F903F902F9009941E96ED9170
:10165000FC91EF80F88409851A8592014D815E81A5
:101660006B817C81898D9A8D099590CF2F813885EA
:101670002615370509F48ACF31E0B31207C0A3124B
:1016800005C01C96ED91FC91930178CF1E96ED91CB
:10169000FC917301E0CF6B857C8564197509068424
:1016A000F785E02D73010F8518899201A401898DBA
:1016B0009A8D0995A9CFF901349694913297459165
:1016C0005491D91AB7E0DB9E400D511D1124F90148
:1016D000259134913C8B2B8BFA0125903490FA01A3
:1016E0003296749031963491398B3296649031965B
:1016F000449041E04C1518F04A1508F07FC0662D63
:10170000062C000C770B7C836B83842D042C000C3F
:10171000990B9E838D83A98DBA8DED91FC911197C4
:101720000284F385E02DCD010995512CD12CC12CDB
:10173000EA2DF0E0FA87E9872B2D30E03C872B87F4
:10174000A401440D511D47FC5A95588F4F8B698158
:101750007A81660D711D67FC7A957E876D87798920
:10176000C71608F051CF2C2D30E04D815E81420F1D
:10177000531FA985BA854A9FC0014B9F900D5A9F60
:10178000900D1124FC01E80DF91DF88BEF87852DD4
:10179000612C4F89588D420F531F5E8B4D8B671400
:1017A00008F050C044244394480E877041F4C101AE
:1017B0000196EB89FC89E20DF31DD4901C01D7FE44
:1017C00019C0A98DBA8DED91FC91662D70E0B1E044
:1017D000BB1219C0AB1217C02D853E85620F731F57
:1017E0000484F585E02D2F8138854D895E89898DAA
:1017F0009A8D0995DD0C6394842DD1CF1E821D82B4
:101800001C821B8288CF4B815C81640F751FAB8566
:10181000BC856A9FC0016B9F900D7A9F900D11242B
:1018200069817A81680F791F0684F785E02DEF8042
:10183000F88409851A859D014F855889898D9A8D6F
:101840000995D8CF570CC3948ACF6A960FB6F894EF
:10185000DEBF0FBECDBFDF91CF911F910F91FF90E3
:10186000EF90DF90CF90BF90AF909F908F907F9040
:101870006F905F904F903F902F9008958F929F921E
:10188000AF92CF92EF92FF920F931F93CF93DF937C
:10189000EC01262F898D9A8D009709F051C06A308E
:1018A000D1F41D861C868D8948E0849F9001112407
:1018B0008E859F85820F931F9F878E8781E090E0A2
:1018C000DF91CF911F910F91FF90EF90CF90AF904C
:1018D0009F908F9008956D3089F3CC88AD888F8963
:1018E0008823C1F08C859D8536E0C39E800D911DB7
:1018F0001124488559854817590764F44E855F853A
:101900001D861C8638E0A39EC0011124840F951FFC
:101910009F878E87EA88FB88088919894E855F85AD
:101920006C857D85CE010E94190A2C898C859D8548
:1019300046E0249F800D911D11249D878C87BECF8A
:101940006A3069F41D861C86FC013696E4912D8967
:101950008E859F85E29F800D911D1124ADCF6D3046
:1019600009F4ACCFFC0134963491631708F4A6CF88
:101970003196E491E61708F4A1CFFC0132968590E8
:101980009490462F431B342F47E0349F800C911CCA
:101990001124F401329634913196E4913323A9F164
:1019A000EE2399F1CC88F4013596E491AD884F8906
:1019B000442301F10E2E000CFF0BE30FF11DCE9E10
:1019C000A001CF9E500D11246C857D85460F571FB9
:1019D00068857985641775076CF44E855F851D866B
:1019E0001C86FC013696E491AE9E400D511D1124DB
:1019F0005F874E87EA88FB88088919894E855F854D
:101A00006C857D85CE010E94190AF4013496E4911B
:101A10002C898C859D85E29F800D911D11248DCF91
:101A2000682F88E594E00C943E0C6F927F928F9221
:101A30009F92AF92BF92CF92DF92EF92FF920F935D
:101A40001F93CF93DF93EC016B015A0139014801D9
:101A5000E881F9810284F385E02D0995E881F98117
:101A60000288F389E02D87019301A501B601CE011B
:101A70000995A501480D591D41505109E881F98189
:101A80000288F389E02D9301B601CE010995E88122
:101A9000F9810088F189E02D9401A501B601CE01FC
:101AA0000995C60CD71CB60161507109E881F9810E
:101AB0000088F189E02D9401A501CE010995E88106
:101AC000F9810688F789E02DCE01DF91CF911F9132
:101AD0000F91FF90EF90DF90CF90BF90AF909F90CD
:101AE0008F907F906F9009946F927F928F929F92C8
:101AF000AF92BF92CF92DF92EF92FF920F931F931C
:101B0000CF93DF935C01EB016A0149013801870142
:101B1000DC01ED91FC916217730719F564167506E7
:101B20002CF0962D872D3A01C92ED82E9601261914
:101B300037092F5F3F4F048CF58DE02DA301BE01C7
:101B4000C5010995DF91CF911F910F91FF90EF9003
:101B5000DF90CF90BF90AF909F908F907F906F90CD
:101B600008954615570591F42617370724F0892D57
:101B70004B01C22FD82F9E01281939092F5F3F4FE3
:101B8000068CF78DE02DA601B401DACF0284F3852F
:101B9000E02D0995D501ED91FC910488F589E02DA2
:101BA00083019401A601BE01C5010995D501ED91FE
:101BB000FC910688F789E02DC501DF91CF911F9137
:101BC0000F91FF90EF90DF90CF90BF90AF909F90DC
:101BD0008F907F906F900994EF92FF920F931F93D5
:101BE000DC011A960D911C911B9718962D913C9132
:101BF0001997ED91FC9100A0F1A1E02D7B0150E03F
:101C000040E070E060E009951F910F91FF90EF9028
:101C100008954F925F926F927F928F929F92AF92B0
:101C2000BF92CF92DF92EF92FF920F931F93CF93C9
:101C3000DF936C012B015A0139014801DC01ED9160
:101C4000FC910284F385E02D0995E201640C751C7A
:101C5000D601ED91FC91C615D7055CF40088F18999
:101C6000E02D87019401A501BE01C60109952196C9
:101C7000EFCF0688F789E02DC601DF91CF911F9144
:101C80000F91FF90EF90DF90CF90BF90AF909F901B
:101C90008F907F906F905F904F9009948F929F925A
:101CA000AF92BF92CF92DF92EF92FF920F931F936A
:101CB000CF93DF93EC015B014A016901E881F9816F
:101CC0000284F385E02D099595012C0D3D1D2150D1
:101CD0003109E881F9810488F589E02D78018401D2
:101CE000A401B501CE010995E881F9810688F7893B
:101CF000E02DCE01DF91CF911F910F91FF90EF90DA
:101D0000DF90CF90BF90AF909F908F9009948F926B
:101D10009F92AF92BF92CF92DF92EF92FF920F937A
:101D20001F93CF93DF93EC015B014A0169017801B6
:101D3000E881F9810284F385E02D0995C80CD91C4E
:101D4000860101501109E881F9810488F589E02DA7
:101D50009501A401B501CE010995E881F9810688B4
:101D6000F789E02DCE01DF91CF911F910F91FF9068
:101D7000EF90DF90CF90BF90AF909F908F9009949D
:101D8000EF92FF920F931F93DC01ED91FC9100A065
:101D9000F1A1E02D09951F910F91FF90EF9008950B
:101DA0000F931F93DC01ED91FC91068CF78DE02DD4
:101DB00009951F910F9108950F931F93DC01ED91E9
:101DC000FC91048CF58DE02D09951F910F910895DC
:101DD000DC01ED91FC910084F185E02D09943F92A6
:101DE0004F925F926F927F928F929F92AF92BF922B
:101DF000CF92DF92EF92FF920F931F93CF93DF93D7
:101E00005C017B014A016901390187E0680E711CA0
:101E100093E0759467949A95E1F72B01400E511E5B
:101E200010E000E0312CD0E0C0E0CE0187709927AF
:101E3000330C892B59F4FE0183E0F595E7958A95DB
:101E4000E1F7E00FF11FE80DF91D349037FE0AC0ED
:101E500021E030E0A701B5016C0F7D1F88E594E01B
:101E60000E94E80E2196CC16DD06F9F68FEFE81AEF
:101E7000F80A060D171DE414F504A9F6DF91CF91B9
:101E80001F910F91FF90EF90DF90CF90BF90AF9098
:101E90009F908F907F906F905F904F903F900895AC
:101EA0002F923F924F925F926F927F928F929F926A
:101EB000AF92BF92CF92DF92EF92FF920F931F9358
:101EC000CF93DF9300D000D000D0CDB7DEB73C0178
:101ED0006A013E832D83FC82EB825801A41AB50A65
:101EE000B7FE03C0B194A194B1088D809E80861A7C
:101EF000970A97FE03C09194819491088A149B04D9
:101F00005CF0902F812F0D811E819D838E839C2DEF
:101F10008D2D6B01692F782F0C151D055CF09D81AF
:101F20008E817E836D83692F782F902F812F86017C
:101F3000C92ED82E1601201A310A2B012D813E817F
:101F4000421A530A57FE03C051944194510871013B
:101F500037FE03C03FEFE31AF30AF594E7948D814F
:101F60009E81861797075CF5A1E0B0E0BA83A9834C
:101F7000C016D1064CF1D301ED91FC910484F58596
:101F8000E02D2B813C81A8016D817E818A149B0408
:101F90001CF04D815E81B801C3010995E418F50874
:101FA000F7FE0AC02D813E8189819A81280F391F51
:101FB0003E832D83E20CF31C0F5F1F4FD9CF2FEF11
:101FC0003FEF3A832983D4CF26960FB6F894DEBF2D
:101FD0000FBECDBFDF91CF911F910F91FF90EF907A
:101FE000DF90CF90BF90AF909F908F907F906F9039
:101FF0005F904F903F902F90089585ED8093BC00A7
:102000008091BC0084FDFCCF10927C030895209148
:10201000DA02260F3327331F21323105ECF42091E9
:102020007C03FC0190E080E0243069F082E00895B8
:10203000A091DA022191AC0146545D4FA40FB52F57
:10204000B11D2C930196861798F38091DA02680FE0
:102050006093DA0280E0089581E00895E09135030D
:1020600080913403E81730F4F0E0EA5CFC4F8081A3
:1020700090E008958FEF9FEF089590913503809140
:1020800034032FEF3FEF981748F4E92FF0E0EA5CB4
:10209000FC4F208130E09F5F90933503C901089584
:1020A000CF92DF92EF92FF920F931F93CF93DF9324
:1020B0007C01CB018A0120918803222389F0EB0166
:1020C0006B01C40ED51ECC15DD0569F06991D701F1
:1020D000ED91FC910190F081E02DC7010995F3CFBE
:1020E000642F0E940710C801DF91CF911F910F91BB
:1020F000FF90EF90DF90CF900895CF93DF931F92E2
:10210000CDB7DEB76983209188032223F9F02091AF
:102110008503203258F021E030E0FC013383228334
:1021200090E080E00F90DF91CF9108958091860339
:10213000E82FF0E0E656FD4F998190838F5F809302
:1021400086038093850381E090E0ECCF61E0CE01CF
:1021500001960E940710F7CF682F8CE494E00C944E
:102160007D102091850381E0213208F044C08091E8
:102170007C038111FCCF8091870392E090937C03D4
:1021800091E090937B039FEF90937A0310927903F1
:1021900020937803AAE9B2E0E6E5F3E090E02913A2
:1021A00031C01092770390917703880F892B809329
:1021B000770380917603813049F510927603809100
:1021C00077038093BB008091BC0083FDF8CF85EC42
:1021D0008093BC0080917C038230E1F380917A038C
:1021E0008F3FB1F080917A038032A1F080917A0321
:1021F000803391F084E01092860310928503109250
:10220000880308953D9131939F5FC9CF85EEE0CF5C
:1022100080E0F1CF82E0EFCF83E0EDCFCF9388E68F
:102220000E94860560E08CE494E00E947D1060E8E6
:102230008CE494E00E947D1080917E03CAE06C2FB4
:102240000E94EA338295807F682F690F8CE494E0C6
:102250000E947D1080917F036C2F0E94EA3382954B
:10226000807F682F690F8CE494E00E947D1080913C
:1022700080036C2F0E94EA338295807F682F690F5C
:102280008CE494E00E947D10809181036C2F0E9469
:10229000EA338295807F682F690F8CE494E00E9476
:1022A0007D10809182036C2F0E94EA338295807F9B
:1022B000682F690F8CE494E00E947D108091830365
:1022C0008E516C2F0E94EA338295807F682F690FB0
:1022D0008CE494E00E947D108CE494E00E94B110A4
:1022E000882329F01092840380E0CF91089581E043
:1022F0008093840388E60E94860560E08CE494E085
:102300000E947D1080917D036C2F0E94EA3382959C
:10231000807F682F690F8CE494E00E947D108CE42C
:1023200094E00E94B1108111DDCF81E0DECFAF9249
:10233000BF92DF92EF92FF920F931F93CF93DF93A1
:102340008B01040F151FEB015C01A61AB70A75017A
:10235000EC0EFD1ED9908091C0040E9486058F2D41
:1023600090E00E94AC10C70199270E94AC106D2D1F
:102370008CE494E00E947D108CE494E00E94B11003
:102380006AE070E080E090E00E944008C017D1074A
:10239000F1F6DF91CF911F910F91FF90EF90DF90B9
:1023A000BF90AF900895EF92FF920F931F93CF933A
:1023B000DF93EC01EC80FD806E157F050CF070C0A2
:1023C00057FF04C0240F351F50E040E08E819F81ED
:1023D000FA01E20FF31F8E179F071CF49C01241BC8
:1023E000350B121613060CF05BC0922F842F8695C6
:1023F000869586958E9DD0018F9DB00D11246A0F14
:102400007B1FAF8DB8A1A60FB71F477049F188E0B9
:10241000841B482F682F70E0FB01E059FF4FE491C7
:10242000281708F063C0621B71092FEF30E002C06B
:10243000359527956A95E2F7E2230130110539F0C9
:10244000B0F10230110561F58C91E82702C08C9142
:10245000E82BEC93941720F12C813D81A20FB31F40
:10246000E92FE41BE83078F00230110521F58E2FBA
:102470009C9190959C932C813D81A20FB31F885015
:102480008830B0F7E770EE2359F0F0E0E859FF4FDD
:10249000E49101301105F9F010F10230110519F144
:1024A000DF91CF911F910F91FF90EF900895E095EC
:1024B0008C91E823CECF81E00115110509F480E06D
:1024C00081959E2F8C932C813D81A20FB31F985034
:1024D0009830C0F7D7CF8C91E82BEC93E1CFE09503
:1024E0008C91E823FACF8C91E827F7CF01301105C2
:1024F00009F4ADCFE0F20230110509F4A5CFAE0D1D
:10250000BF1DAECF0F931F93CF93DF9377FF04C010
:10251000260F371F70E060E0DC011496CD91DC914E
:10252000FB01E20FF31FCE17DF071CF49E01261BF1
:10253000370B121613064CF5FA0157FD3796A3E038
:10254000F595E795AA95E1F7EC9FD001ED9FB00DC9
:10255000FC9FB00D11246A0F7B1FDC015F96ED918B
:10256000FC91E60FF71F4770552781E090E001C00E
:10257000880F4A95EAF7482F0130110559F0A8F065
:102580002E0F3F1F02301105E1F0DF91CF911F9117
:102590000F9108952E0F3F1FE217F307B1F38191BA
:1025A000DF011197842B8C93F7CF80952E0F3F1F5F
:1025B000E217F30751F39191DF01119798239C9350
:1025C000F7CFE217F30709F38191DF011197842711
:1025D0008C93F7CF0F931F93FA01DC0156964C9121
:1025E00056974230E9F04330A1F1413061F514963D
:1025F0004D915C91DA01AE1BBF0BFD01E21BF30BA9
:1026000077FD0BC0DC0116964D915C916417750740
:1026100024F4AB01BF010E9482121F910F91089513
:1026200014964D915C91DA01A61BB70BBD01615068
:102630007109DC0116964D915C91DA01AE1BBF0B5E
:10264000FD01E21BF30B77FDE8CFAF010E94D31130
:10265000E4CF16964D915C91DA01A61BB70BBD0134
:1026600061507109CDCF0F931F93FA01DC0156968B
:102670004C9156974230A9F0433091F1413019F511
:1026800014964D915C91DA01AE1BBF0BFD013197A1
:10269000F7FD04C0AB01BF010E94D3111F910F9140
:1026A000089514964D915C91DA01A61BB70BBD01FC
:1026B000DC0116964D915C91DA01AE1BBF0BFD015A
:1026C0003197621B730BF7FDE9CFDC0116964D9134
:1026D0005C91E417F50714F7AF010E948212DECF78
:1026E00016964D915C91DA01A61BB70BBD01621BDA
:1026F000730BCECFFC0177FD64C080859185681790
:1027000079070CF05EC057FD5CC082859385481741
:1027100059070CF056C086898230B1F0833029F118
:10272000813041F484819581841B950BAB01BC0100
:10273000615071092130310509F108F443C022309C
:10274000310509F463C0089584819581DC01A61BDD
:10275000B70BBD016150710986819781DC01A41B13
:10276000B50BAD0141505109E5CF86819781861B9C
:10277000970BBA01AC0141505109DCCFCA0157FD9A
:102780000796A3E095958795AA95E1F7A481B58171
:102790008A9F90018B9F300D9A9F300D1124620FFC
:1027A000731F078CF0A1E02DE60FF71F4770552728
:1027B00021E030E001C0220F4A95EAF78081822BA8
:1027C00080830895CA0157FD079633E09595879554
:1027D0003A95E1F7A481B5818A9F90018B9F300DD6
:1027E0009A9F300D1124620F731F078CF0A1E02D0A
:1027F000E60FF71F4770552781E090E001C0880F72
:102800004A95EAF7809590818923DACFCA0157FD6E
:10281000079623E0959587952A95E1F7A481B581E0
:102820008A9F90018B9F300D9A9F300D1124620F6B
:10283000731F078CF0A1E02DE60FF71F4770552797
:1028400021E030E001C0220F4A95EAF7808182271B
:10285000B7CF08958EBD00000DB407FEFDCF8EB535
:102860000895FF920F931F93CF93DF93F82ED92FE4
:10287000C62F8091750490917604892B09F447C086
:10288000809179040E948605809175049091760468
:10289000DC01ED91FC910190F081E02D60E0099563
:1028A0000F2D1D2FD1E0C1508091750490917604B9
:1028B000CF3F31F1D03298F00E94B110809179046D
:1028C0000E9486058091750490917604DC01ED915B
:1028D000FC910190F081E02D60E00995D1E08091BC
:1028E000750490917604F8016491DC01ED91FC91FE
:1028F0000190F081E02D0995DF5F0F5F1F4FD3CF6F
:10290000DF91CF911F910F91FF900C94B110E09146
:102910008504F0918604908180918B0480958923B1
:1029200080830F2D1D2FC15008F438C0F801849109
:102930002091730430917404232B29F00E942A14EF
:102940000F5F1F4FF0CF28E030E040E8E0918104B6
:10295000F091820490918904582F5423D9F050812A
:10296000952B9083E0918304F091840490815091A1
:102970008A04952B9083E0918304F0918404508124
:1029800090918A0490959523908346952150310922
:10299000E9F6D6CF508190959523E3CFDF91CF9183
:1029A0001F910F91FF9008951F93CF93DF93EC0138
:1029B0008D8D9E8D892BF9F0162F89A10E94860599
:1029C0008D8D9E8DDC01ED91FC910190F081E02DCB
:1029D00060E009958D8D9E8DDC01ED91FC9101905B
:1029E000F081E02D612F09958D8D9E8DDF91CF9126
:1029F0001F910C94B110ADA5BEA59C918BA980959B
:102A000089238C938B8D9C8D892B31F0862FDF91C0
:102A1000CF911F910C942A1428E030E080E8A9A5FA
:102A2000BAA599A9462F4823C1F04C91942B9C93A9
:102A3000ABA5BCA59C914AA9942B9C93ABA5BCA526
:102A40004C919AA9909594239C9386952150310995
:102A500031F7DF91CF911F9108954C919095942378
:102A6000E6CF8CBD9DBD0895FF920F931F93CF932A
:102A7000DF938091750490917604892B09F472C0DC
:102A80008CE08093B80065E08DE79AE00E943114F5
:102A900060915C04615088E594E00E94D414209118
:102AA0005E0430915F04C901079697FD079623E005
:102AB000959587952A95E1F720915C0430915D0406
:102AC000829F8001839F100D929F100D1124C09151
:102AD0007704D091780480917504909176040C0F5E
:102AE0001D1F892B09F47CC0809179040E94860502
:102AF0008091750490917604DC01ED91FC91019038
:102B0000F081E02D60E40995FF24F3948091750431
:102B1000909176040C171D07E1F1BFE1BF15A0F4F9
:102B20000E94B110809179040E94860580917504FD
:102B300090917604DC01ED91FC910190F081E02D03
:102B400060E40995FF24F3948091750490917604D4
:102B50006991DC01ED91FC910190F081E02D0995E6
:102B6000F394D4CF8091730490917404892B31F045
:102B700080918D0490918E040E943115E09187041C
:102B8000F0918804908180918C04809589238083C2
:102B90007ACF0E94B1108091750490917604892BB0
:102BA00009F45FC020918F0430919004409191040A
:102BB0005091920460E074E284EF90E00E940B3246
:102BC0002051310941095109569547953795279567
:102BD0002093B800DF91CF911F910F91FF9008953E
:102BE000E0918504F0918604808190918B04892B7B
:102BF00080830C171D0779F289912091730430911D
:102C00007404232B19F00E942A14F3CF28E030E03B
:102C100040E8E0918104F091820490918904582F5A
:102C20005423D9F05081952B9083E0918304F09147
:102C30008404908150918A04952B9083E0918304C1
:102C4000F0918404508190918A049095952390830B
:102C5000469521503109E9F6CCCF508190959523C6
:102C6000E3CFE0918704F0918804808190918C04F7
:102C7000892B8083AFCF1F93CF93DF93EC01162F67
:102C80008D8D9E8D892B29F18CE08093B80066EAAA
:102C9000111167EACE010E94D4148D8D9E8D892B6F
:102CA00041F12FA938AD49AD5AAD60E074E284EF2F
:102CB00090E00E940B32205131094109510956958B
:102CC0004795379527952093B800DF91CF911F91B5
:102CD00008958B8D9C8D892B21F08DA99EA90E9432
:102CE0003115EFA5F8A990818CA98095892380835F
:102CF000CECFEFA5F8A980819CA9892B8083E5CF51
:102D0000089590E080E008958093BB0084E880936C
:102D1000BC008091BC0087FFFCCF9091B900987FE8
:102D200081E0983231F0983129F0903419F080E048
:102D300008950895089584EA8093BC008091BC00B2
:102D400087FFFCCF8091B900887F19F080EC0C944C
:102D5000841680E008955F926F927F928F929F9287
:102D6000AF92BF92CF92DF92EF92FF920F931F9399
:102D7000CF93DF93CDB7DEB7582E742E652EB62EC7
:102D8000922E0E949B16852D0E9484168D2D0E94E6
:102D900084168C2D0E9484168B2D8370A82A80E0C7
:102DA00081108CE08A290E948416862D0E94841648
:102DB000872D0E9484168CE0F694E794D794C794EC
:102DC0008A95D1F78C2D807FC82E892D8F708C2904
:102DD0000E948416812F0E948416802F0E948416E0
:102DE00084E98093BC008091BC0084FDFCCFDF911E
:102DF000CF911F910F91FF90EF90DF90CF90BF90F8
:102E0000AF909F908F907F906F905F9008954F92BA
:102E10005F926F927F928F929F92AF92BF92CF926A
:102E2000DF92EF92FF920F931F93CF93C82FC09022
:102E3000B704D090B804E090B904F090BA04CB0184
:102E4000BA01A70196010E940B3249015A0125E0FF
:102E5000F694E794D794C7942A95D1F735E09695E0
:102E60008795779567953A95D1F747E0660F771F75
:102E7000881F991F4A95D1F7A70196010E940B322E
:102E800029013A018B019C01B501A4015527662750
:102E90007727E7E0440F551F661F771FEA95D1F7A4
:102EA000525061097109440D551D661D771D812C15
:102EB000A12C8C2F0E94AB16CF911F910F91FF90E8
:102EC000EF90DF90CF90BF90AF909F908F907F90CA
:102ED0006F905F904F9008958F92AF92CF92DF9254
:102EE000EF92FF920F931F938824839444305105EF
:102EF0006105710509F0812C4450510961097E4F2B
:102F000097E0440F551F661F771F9A95D1F7A22EA1
:102F1000C12CD12C7601C39400E010E098010E94EE
:102F2000AB161F910F91FF90EF90DF90CF90AF9075
:102F30008F900895CF93DF93D82FC62F0E949B16B2
:102F40008D2F0E9484168C2F0E94841684E9809312
:102F5000BC008091BC0084FDFCCFDF91CF9108952F
:102F6000CF93C82F60E880E18C0F0E949A17EC2F56
:102F7000F0E0EE0FFF1FE156FB4F11821082CF9160
:102F800008952F923F924F925F926F927F928F920D
:102F90009F92AF92BF92CF92DF92EF92FF920F93E8
:102FA0001F93CF93DF9300D000D01F92CDB7DEB731
:102FB00089838091AF049091B004A091B104B09145
:102FC000B204892B8A2B8B2B19F481E00E94B01755
:102FD0008091B3049091B404A091B504B091B6046B
:102FE000892B8A2B8B2B19F482E00E94B01740901A
:102FF000AF045090B0046090B1047090B2044114DA
:1030000051046104710409F47FC12981222309F468
:10301000A5C0C090A104D090A204F12CE12C409155
:10302000A6044983A3019201C701B6010E94DA33C5
:103030009B01AC018981E82FF0E0EA5BFE4FA081A3
:10304000B0E00E9400324B015C01DC01CB018058F2
:103050009545A84CB0428130924CAB4EBB4008F431
:1030600046C06091270170912801809129019091BB
:103070002A01A30192010E940B3269017A0181E0C9
:1030800044E0C416D104E104F10408F489C086E0E8
:10309000C816D104E104F10408F49BC019829DE232
:1030A000C91691E0D906E104F10440F029812F5FAF
:1030B0002983F694E794D794C794F1CF49814111BD
:1030C00003C0E894C0F81982A3019201C701B601B8
:1030D0000E94DA339B01AC018981E82FF0E0EA5BC2
:1030E000FE4FA081B0E00E9400324B015C01B501AF
:1030F000A40182E20E9407178091A1049091A2048A
:10310000B0E0A0E08C159D05AE05BF0529F48091C7
:10311000A60499818917D1F029812295207FB701D2
:10312000A60182E30E946C176091A9046C6681E19C
:103130000E949A17D092A204C092A10429812093E0
:10314000A6048091BF0480688093BF048092BB0472
:103150009092BC04A092BD04B092BE04C090B3048F
:10316000D090B404E090B504F090B604C114D1043A
:10317000E104F10409F4B0C08090BB049090BC0459
:10318000A090BD04B090BE04C501B401A701960192
:103190000E940B32283031054105510500F582E0CF
:1031A0000F900F900F900F900F90DF91CF911F9184
:1031B0000F91FF90EF90DF90CF90BF90AF909F90D6
:1031C0008F907F906F905F904F903F902F900C94D6
:1031D000B01704E0C02ED12CE12CF12C72CF1D824F
:1031E000213431054105510560F08D818F5F8D835C
:1031F000CC0CDD1CEE1CFF1C56954795379527958A
:10320000EFCFC501B401A70196010E940B322983BB
:103210003A834B835C832FEF3FEF4FE050E00E94F7
:10322000173456016701E12CF12C00E010E00E94F8
:10323000443429013A019D819295907F9D83C12C50
:10324000D12C7601C394411451046104710431F00E
:10325000CC24CA94DC2CFFE0EF2EF12CC301B20188
:1032600027E0660F771F881F991F2A95D1F7A701BE
:1032700096010E940B3249015A018B019C01498140
:103280005A816B817C81552766277727E7E0440FB9
:10329000551F661F771FEA95D1F7525061097109D2
:1032A000480D591D6A1D7B1D812CAD808AE30E944B
:1032B000AB168CE445284628472809F08CE060913D
:1032C000AA046062682B82E10E949A1781E090E074
:1032D0009093A4048093A3040F900F900F900F90ED
:1032E0000F90DF91CF911F910F91FF90EF90DF90A2
:1032F000CF90BF90AF909F908F907F906F905F9096
:103300004F903F902F9008958090B3049090B40414
:10331000A090B504B090B60481149104A104B10446
:10332000D9F2C090A304D090A404F12CE12C2091F8
:10333000A7042983A5019401C701B6010E94DA33CD
:103340009B01AC018981E82FF0E0EA5BFE4FA08190
:10335000B0E00E9400328B019C0100581545284CBA
:1033600030420130124C2B4E3B4008F443C0609178
:103370002701709128018091290190912A01A501CE
:1033800094010E940B3269017A0184E0C816D104CD
:10339000E104F10408F403CF96E0C916D104E10476
:1033A000F10408F458C019822DE2C21621E0D206B9
:1033B000E104F10440F049814F5F4983F694E794BA
:1033C000D794C794F1CF8981811103C0E894C0F8E4
:1033D0001982A5019401C701B6010E94DA339B014D
:1033E000AC019981E92FF0E0EA5BFE4FA081B0E0EB
:1033F0000E940032AB01BC0182E20E94071780915B
:10340000A3049091A404B0E0A0E08C159D05AE0546
:10341000BF0531F48091A7042981821709F45CCF9C
:1034200029812295207FB701A6018AE30E946C17AB
:103430006091AA046C6682E10E949A17D092A4045B
:10344000C092A30449814093A7048091BF0480687F
:103450008093BF0441CF84E0C82ED12CE12CF12C05
:10346000B5CF4F925F926F927F92AF92BF92CF9201
:10347000DF92EF92FF920F931F93CF93DF93D82F9A
:10348000082F10E0F801EE0FFF1FEE0FFF1FE555AC
:10349000FB4F40805180628073804114510461046D
:1034A000710489F48D2FDF91CF911F910F91FF90BF
:1034B000EF90DF90CF90BF90AF907F906F905F9034
:1034C0004F900C94B0175801AA0CBB1CF501E156A3
:1034D000FB4FC080D180F12CE12C01561B4FF8012D
:1034E000C681A3019201C701B6010E94DA339B0194
:1034F000AC01EC2FF0E0EA5BFE4FA081B0E00E944F
:1035000000329B01AC0120583545484C50422130D7
:10351000324C4B4E5B4008F43FC0609127017091E4
:1035200028018091290190912A01A30192010E9412
:103530000B3269017A0184E0C816D104E104F10478
:1035400008F4B0CFE6E0CE16D104E104F10408F4AB
:1035500070C0C0E0FDE2CF16F1E0DF06E104F10447
:1035600030F0CF5FF694E794D794C794F3CFC111AE
:1035700003C0E894C0F8C0E0A3019201C701B601FE
:103580000E94DA339B01AC01EC2FF0E0EA5BFE4FC6
:10359000A081B0E00E9400322AE1D11122E2AB0109
:1035A000BC01822F0E940717F501E156FB4F808175
:1035B0009181B0E0A0E08C159D05AE05BF0521F41A
:1035C000F80186818C1731F12C2F2295207FB701CD
:1035D000A6018D2F880F880F880F865D0E946C17BB
:1035E000F801618580E0D11180E26C64682B80E194
:1035F0008D0F0E949A17F501E156FB4FD182C082D0
:10360000F801C6838091BF0490E2D11190E8892B24
:103610008093BF04DF91CF911F910F91FF90EF90A6
:10362000DF90CF90BF90AF907F906F905F904F9062
:10363000089584E0C82ED12CE12CF12C9ACFFF9272
:103640000F931F93CF93DF9300D0CDB7DEB7E1E1A7
:10365000F1E010E000E08191080F111D81E0E432FB
:10366000F807C9F743E150E061E171E082E090E0E2
:103670000E9497110F5F1F4F1A83098342E050E0A9
:10368000BE016F5F7F4F90E080E00E949711EAE0FB
:10369000F1E081E191E010E000E02191020F111DC5
:1036A0008E179F07D1F78091120199E0F92E8F9D17
:1036B000C001112447E050E06AE071E047960E94A3
:1036C00097110F5F1F4F1A830983809112018F9DFD
:1036D000C001112442E050E0BE016F5F7F4F45966C
:1036E0000E9497110F900F90DF91CF911F910F9132
:1036F000FF90089580911C0190911D01092E000CEE
:10370000AA0BBB0B80549340A446BE4F8093B704D2
:103710009093B804A093B904B093BA0480E00E94D7
:10372000311A82E00C94311A4F925F926F927F921D
:103730008F929F92AF92BF92CF92DF92EF92FF92C1
:103740000F931F93CF934091110350911203052EB5
:10375000000C660B770B40900B0150900C016090B1
:103760000D0170900E01C090AF04D090B004E090B5
:10377000B104F090B204C1E0C114D104E104F10439
:1037800009F4C0E00091AB041091AC042091AD04A9
:103790003091AE0480910A01882309F464C08091BD
:1037A000140190911501A0911601B09117014C01DF
:1037B0005D01840E951EA61EB71E840D951DA61DC7
:1037C000B71D2C013D01440E551E661E771E10923A
:1037D000BF04401651066206730659F04092AB04CE
:1037E0005092AC046092AD047092AE0480E00E94EE
:1037F000311ACD28CE28CF2869F48091B304909156
:10380000B404A091B504B091B60488169906AA062E
:10381000BB0699F01092AF041092B0041092B1045C
:103820001092B2048092B3049092B404A092B504B2
:10383000B092B6048C2F0E94C1176091BF0466231A
:10384000C9F181EBCF911F910F91FF90EF90DF9025
:10385000CF90BF90AF909F908F907F906F905F9030
:103860004F900C949A178091180190911901A09192
:103870001A01B0911B014C015D01840E951EA61E1C
:10388000B71E840D951DA61DB71D840F951FA61F7D
:10389000B71F1092BF0480179107A207B30709F45E
:1038A000A8CF8093AB049093AC04A093AD04B093E5
:1038B000AE049CCFCF911F910F91FF90EF90DF90BE
:1038C000CF90BF90AF909F908F907F906F905F90C0
:1038D0004F9008958EE00E9403082091200130E06F
:1038E000DC010E9410342FEF33E040E050E00E94F2
:1038F000E13120939902089580E10E94030824E6B3
:1039000030E0DC010E9410342FEF33E040E050E063
:103910000E94E131209398020895DC01ED91FD9120
:103920008081ED91FD919081ED91FD916C9163709D
:103930008E2309F064609F2309F06860EAEAFCE1E5
:10394000E60FF11D659565956D936D917D918D9156
:103950009D91099423C01AC012C016C010C01EC089
:1039600009C014C013C006C019C009C00DC007C0EB
:103970000DC014C062507040804090400BC0615038
:1039800070408040904006C06E5F01C06F5F7F4F07
:103990008F4F9F4F9E938E937E936E930895BF9209
:1039A000CF92DF92EF92FF920F931F93CF93DF930B
:1039B000EC01B62EC72E8D85811105C0CE010E9467
:1039C0003C0981110EC01B861D861C8680E0DF919C
:1039D000CF911F910F91FF90EF90DF90CF90BF900C
:1039E000089540E060EFCE010E94E90801E0E12C7B
:1039F000D12C11E0CE010E949608F82ECE010E9433
:103A0000960891E0F91218C0813099F51134D8F276
:103A1000DB86D11002C081E08D878B81882399F2EB
:103A20002396EB2DFC2DCF01089629912193E817C1
:103A3000F907D9F781E0CBCFEE2DF0E0F8120FC0F7
:103A40008B851817A0F4DE01AE0FBF1F13968C9163
:103A5000802379F4F12C193008F41C87D12EEC0F57
:103A6000FD1F8381902F9095892383830AC0811342
:103A7000F1CFFE01EE0DF11D8381802B8383FF24A6
:103A8000F3946F2DCE010E94BA081F5F000F11F44E
:103A9000E39401E087E08E1508F0ACCFB7CF4F92EA
:103AA0005F926F927F928F929F92AF92BF92CF92CE
:103AB000DF92EF92FF920F931F93CF93DF93CDB7D7
:103AC000DEB761970FB6F894DEBF0FBECDBF0E9480
:103AD0007308C0909302D0909402E0909502F09009
:103AE00096026C197D098E099F0969387341810519
:103AF000910508F458C080919202811154C010922F
:103B00002C0480913004909131040E943C0940E0E3
:103B10006CEC80913004909131040E94E90840914E
:103B20002A0464E480913004909131040E94E908F1
:103B300080912C04882391F1E0912B04E9500EEE42
:103B400012E0E33038F4F0E0EE0FFF1FEC5CFE4FC4
:103B50000081118180912D04882309F481C0809116
:103B60002A0481117DC00E9473084B015C01280169
:103B7000110F6608770880913004909131040E94FB
:103B80009608813059F00E947308641975098609F6
:103B90009709681579058A059B0568F381E080938C
:103BA0002C04809392020E9473086C197D098E097F
:103BB0009F0961347F4181059105D8F1809192027E
:103BC0008823B9F110912201E0913004F091310481
:103BD0001386158614861286118610861782168221
:103BE000158214821382BE01665F7F4F809130047C
:103BF000909131040E94CF1C811139C060E070E0C7
:103C00008EEF92EC20E030E040E05FE30E943D3236
:103C10000E94A932160F109397020E9473086093B6
:103C2000930270939402809395029093960210925F
:103C3000920261960FB6F894DEBF0FBECDBFDF9142
:103C4000CF911F910F91FF90EF90DF90CF90BF9099
:103C5000AF909F908F907F906F905F904F9008955E
:103C6000B801110F880B990B0E94400897CF67E0AD
:103C7000CE010A960E947F0899898913BFCF80914F
:103C80003004909131040E943C09882309F4B6CF96
:103C9000BE016F5F7F4FCE010A960E947409882390
:103CA00009F4ACCF68E0CE0101960E947F089985A7
:103CB0008913A4CF6A8170E0762F6627770F770F7C
:103CC000770F298158E0259F90011124262B372B4F
:103CD0008A858031D1F4688570E08F81AB01481B03
:103CE0005109CA019695982F8827979587950E9424
:103CF000F633CB014097B90153E0660F771F5A9511
:103D0000E1F760789C01260F371F213854EE350704
:103D10000CF474CFB901330F880B990B0E94E13278
:103D200020E030E040E05CE30E946D336BCF0F9306
:103D30001F93CF93DF9380910B03882359F0109248
:103D40007D030E940E1110920B03DF91CF911F9102
:103D50000F9108950E94730800918E0210918F02B6
:103D60002091900230919102601B710B820B930B9A
:103D7000693E73408105910520F4012B022B032B32
:103D800021F70E94730860938E0270938F028093D4
:103D900090029093910288E60E94860560E08CE490
:103DA00094E00E947D108CE494E00E94B11088237E
:103DB00091F01092840380918403882331F2109251
:103DC0007F0310927E0310927D03DF91CF911F91AC
:103DD0000F910C940E1181E08093840367E088E6D4
:103DE0000E9490051092350380933403873018F3B6
:103DF0008CE494E00E943D10D82F982F92959770F4
:103E0000CAE08D2F8F709C9F800D112480937D03BD
:103E10008CE494E00E943D10982F92959F708F70D3
:103E20009C9F800D112480937E038CE494E00E947B
:103E30003D10982F929593708F709C9F800D112448
:103E400080937F038CE494E00E943D10982F92951C
:103E50009F708F709C9F800D1124809380038CE451
:103E600094E00E943D10982F92959F708F709C9FB8
:103E7000800D1124809381038CE494E00E943D1016
:103E8000982F92959F708F709C9F800D1124809326
:103E900082038CE494E00E943D10982F9F70925E04
:103EA00082958F708C9F900D112490938303D7FF80
:103EB0004CCF81CFCF93DF93EC018091C0040E945F
:103EC00086058D2F90E00E94AC10CE0199270E94AC
:103ED000AC108CE494E00E94B11061E08091C004C9
:103EE0000E9490051092350380933403882339F0A3
:103EF0008CE494E00E943D10DF91CF91089580E022
:103F0000FBCFEF92FF920F931F93CF93DF938B0121
:103F1000040F151FEB017C01E61AF70AC7018C0F8D
:103F20009D1F0E945A1F8993C017D107B9F7DF91CF
:103F3000CF911F910F91FF90EF900895DF92EF9234
:103F4000FF920F931F93CF93DF9300D0CDB7DEB7CF
:103F50001A8219828091120129E0829FC0011124E6
:103F600042E050E0BE016F5F7F4F45960E94811F87
:103F7000F12CE12C10E000E089E0D82E80911201B4
:103F800097018D9D200D311D1124C90147960E9476
:103F90005A1F080F111D3FEFE31AF30A87E0E816D6
:103FA000F10461F70F5F1F4F89819A810817190784
:103FB000B1F4809112018D9DC001112447E050E0C1
:103FC0006AE071E047960E94811F0F900F90DF9189
:103FD000CF911F910F91FF90EF90DF9008950E9475
:103FE0001F1BF3CFFC0101900020E9F73197AF01CF
:103FF000481B590BBC0188E594E00C94DC058F92BA
:104000009F92AF92BF920F931F93CF93DF93CDB741
:10401000DEB7A1970FB6F894DEBF0FBECDBF19A2D1
:10402000423008F44AE08E010F5D1F4F842E912C20
:10403000B12CA12CA50194010E940B32E62FB901ED
:10404000CA01EA30F4F4E05DD801EE938D01232B30
:10405000242B252B79F790E080E0109719F0CD0103
:104060000E94F21FA1960FB6F894DEBF0FBECDBF1F
:10407000DF91CF911F910F91BF90AF909F908F9044
:104080000895E95CE1CF682F70E090E080E04AE0BD
:104090000C94FF1FCF92DF92EF92FF92CF93DF93AA
:1040A0006C01990FEE08FF08F7FE17C08DE20E9421
:1040B000100DEC0166277727CB016C197D098E095D
:1040C0009F094AE00E94FF1F8C0F9D1FDF91CF9137
:1040D000FF90EF90DF90CF9008954AE0C701B601BE
:1040E000DF91CF91FF90EF90DF90CF900C94FF1F66
:1040F000CF93DF934AE00E94FF1FEC018EE991E02D
:104100000E94F21F8C0F9D1FDF91CF910895CF93D6
:10411000DF930E94F21FEC018EE991E00E94F21FF2
:104120008C0F9D1FDF91CF9108950C94F21FCF92B9
:10413000DF92EF92FF92CF93DF936C01990FEE081D
:10414000FF08F7FE1DC08DE20E94100DEC016627EE
:104150007727CB016C197D098E099F094AE00E94DF
:10416000FF1FC80FD91F8EE991E00E94F21F8C0F2C
:104170009D1FDF91CF91FF90EF90DF90CF9008953A
:104180004AE0C701B6010E94FF1FEC01ECCFCF93BC
:10419000DF930E944320EC018EE991E00E94F21F20
:1041A0008C0F9D1FDF91CF91089520915E04309177
:1041B0005F04C901079697FD079623E095958795BB
:1041C0002A95E1F720915C0430915D04829FA00163
:1041D000839F500D929F500D112470E060E08091FC
:1041E0007704909178040C94E835CF92DF92EF92A7
:1041F000FF920F931F93CF930E94D52010926504D6
:1042000010926404109267041092660481E090E0BA
:1042100090936B0480936A0490936904809368047C
:1042200083E080936C0480936D04E0912F03E03170
:1042300008F010C1F0E0E15EFE4D0C940A342F212D
:104240009722AB22C822DC22F3220E23222344230E
:104250005F23712381239123A923C123D823809134
:104260000B0190910C01A0910D01B0910E018038CD
:104270009649A849B10520F486E292E00E94952073
:1042800060910B0170910C0180910D0190910E01D4
:1042900030E4C32E32E4D32E3FE0E32EF12CA7010D
:1042A00096010E940B32CA01B9014AE00E94FF1F29
:1042B00080916404909165040596909365048093C1
:1042C000640460910B0170910C0180910D0190913B
:1042D0000E01A70196010E940B32603A7648814098
:1042E000910520F481EA91E00E94952060910B01F4
:1042F00070910C0180910D0190910E0120E432E447
:104300004FE050E00E940B32603177428105910509
:1043100020F481EA91E00E94952060910B01709158
:104320000C0180910D0190910E0120E432E44FE0E8
:1043300050E00E940B3228EEC22E23E0D22EE12C58
:10434000F12CA70196010E940B32CA01B9014AE083
:104350000E94FF1F82E080936C0480936D04809123
:1043600064049091650405969093650480936404B9
:1043700087E090E0909367048093660460910B015E
:1043800070910C0180910D0190910E01A701960191
:104390000E940B32643671058105910520F481EA93
:1043A00091E00E94952060910B0170910C01809129
:1043B0000D0190910E0128EE33E040E050E00E94A4
:1043C0000B322AE030E040E050E00E940B32CA019C
:1043D000B9010E94782081E080936C0480936D0481
:1043E00080919902843620F481EA91E00E94952020
:1043F00080919902CAE06C2F0E94EA3390E00E94FB
:104400004A2083EA91E00E949520809199026C2FC6
:104410000E94EA33892F90E00E944A2085EA91E0C9
:104420000E94952080912E038823E9F087EA91E08D
:104430000E9495202091980230E0EE24E394F12C24
:1044400009E010E047E150E060E470E088E594E0C6
:104450000E94090ECF911F910F91FF90EF90DF9076
:10446000CF900C9434158091970292E3980F953673
:1044700008F051C087FD04C086E292E00E949520BA
:1044800080919702082E000C990B0E944A2087EF1A
:104490000E94100D8CEA91E00E94952080912503E6
:1044A0008823E1F186E292E00E94952080917F03CB
:1044B0008A3020F486E292E00E94952080917F036A
:1044C0000E94432080917D0380FF2BC084EB91E00C
:1044D0000E94952080917E038A3020F481EA91E049
:1044E0000E94952080917E030E94432080910A01C2
:1044F0008823D1F086EB91E00E94952080911201F3
:104500008A3020F486E292E00E9495208091120188
:104510000E9443209FCF8EEA91E0BECF83EA91E0D4
:10452000C3CF86E292E0D4CF89EB91E0E5CF8091D2
:1045300012010E94C72081E080936C0480936D0477
:1045400080912F030E9443208CEB91E00E949520E4
:1045500080911301DDCFE0911101F0E0EE0FFF1F1C
:10456000E65CFE4F20813181AAE0B0E00E942D324E
:104570000E94782081E080936C0480936D04809188
:104580002F030E9443208EEC91E00E94952062CF81
:1045900080911E0190911F010E94972081E08093DD
:1045A0006C0480936D0480912F030E94432088ED5A
:1045B00091E00E9487204ECF80910A01882381F0EC
:1045C00088EE91E00E94872081E080936C048093C4
:1045D0006D0480912F030E94432080EF91E0E9CF8A
:1045E0008CEE91E0EFCF80910F0124E6829FC00115
:1045F00011240E94972081E080936C0480936D04C5
:1046000080912F030E94432081E092E00E94952038
:1046100080EF0E94100D8DE092E0B7CF80911001E5
:1046200024E6829FC00111240E94972081E080939C
:104630006C0480936D0480912F030E94432081E1DC
:1046400092E0E4CF82E080936C0480936D046091EB
:1046500018017091190180911A0190911B010E941B
:10466000782081E080936C0480936D0480912F0307
:104670000E9443208DE192E00E94952080EF0E94ED
:10468000100D85ED91E081CF82E080936C048093E2
:104690006D04609114017091150180911601909143
:1046A00017010E94782081E080936C0480936D0450
:1046B00080912F030E94432088E292E0DDCF809119
:1046C0001C0190911D010E94972081E080936C0451
:1046D00080936D0480912F030E94432083E392E036
:1046E000CBCF809120010E94C72081E080936C0491
:1046F00080936D0480912F030E9443208FE392E00A
:1047000044CF809113010E94C72081E080936C0404
:1047100080936D0480912F030E9443208AE492E0ED
:1047200034CF80917F038A3020F481EA91E00E94A7
:10473000952080917F030E94C72081E080936C04C4
:1047400080936D0480912F030E9443208AE592E0BC
:104750001CCF80917E038A3020F481EA91E00E9490
:10476000952080917E030E94C72081E080936C0495
:1047700080936D0480912F030E94432081E692E094
:1047800004CF80912101882381F08AE692E00E9483
:10479000872081E080936C0480936D0480912F03C7
:1047A0000E94432081E792E004CF8EE692E0EFCFB3
:1047B00080912201909123010E94972081E08093B3
:1047C0006C0480936D0480912F030E94432083E842
:1047D00092E00E94952080EF0E94100D87EF0E94CA
:1047E000100D8CEA91E0D1CE0E94E3351F920F921A
:1047F0000FB60F9211242F933F934F935F936F93B4
:104800007F938F939F93AF93BF93EF93FF93809189
:10481000180390911903A0911A03B0911B03892BDF
:104820008A2B8B2BD1F190911303E0911403F0911B
:104830001503808189278083809118039091190343
:10484000A0911A03B0911B03181619061A061B062D
:104850009CF48091180390911903A0911A03B091D0
:104860001B030197A109B1098093180390931903C1
:10487000A0931A03B0931B03FF91EF91BF91AF91E7
:104880009F918F917F916F915F914F913F912F9168
:104890000F900FBE0F901F901895809124010E94D9
:1048A0009B07EACF1F920F920FB60F9211242F93FE
:1048B0003F934F935F936F937F938F939F93AF93A8
:1048C000BF93EF93FF9389E893E00E945A06FF910C
:1048D000EF91BF91AF919F918F917F916F915F9178
:1048E0004F913F912F910F900FBE0F901F901895F1
:1048F0001F920F920FB60F9211242F938F939F93B5
:10490000EF93FF93E0919903F0919A038081E091F6
:104910009F03F091A00382FD1BC090818091A203B0
:104920008F5F8F732091A303821741F0E091A20360
:10493000F0E0E757FC4F958F8093A203FF91EF9132
:104940009F918F912F910F900FBE0F901F901895F0
:104950008081F4CF1F920F920FB60F9211242F93E4
:104960003F938F939F93AF93BF938091FE0290915B
:10497000FF02A0910003B09101033091FD0223E0FA
:10498000230F2D3758F50196A11DB11D2093FD026F
:104990008093FE029093FF02A0930003B093010363
:1049A0008091020390910303A0910403B091050349
:1049B0000196A11DB11D8093020390930303A09360
:1049C0000403B0930503BF91AF919F918F913F91E5
:1049D0002F910F900FBE0F901F90189526E8230F70
:1049E0000296A11DB11DD2CF1F920F920FB60F924A
:1049F00011242F933F934F935F936F937F938F93E4
:104A00009F93AF93BF93EF93FF938091B900887FFB
:104A1000803609F44AC0F0F5883209F4A7C018F5C9
:104A2000803109F49BC0B8F4882309F4F9C08830B8
:104A300009F494C0FF91EF91BF91AF919F918F9135
:104A40007F916F915F914F913F912F910F900FBE8A
:104A50000F901F901895883109F488C0803251F763
:104A600080937A0314C0803409F49DC040F48033ED
:104A7000B9F38833F9F680937A0385ECB0C08035BA
:104A800009F485C0883509F496C0883499F60E94E7
:104A9000FD0FD0CF883909F48CC038F5883729F05C
:104AA00050F4883611F0803729F683E080937C0338
:104AB0001092FC0257C0883809F47BC0803919F085
:104AC000803809F0B7CF8091FC02803208F071C0C5
:104AD000E091FC0281E08E0F8093FC028091BB008C
:104AE000F0E0E452FD4F80833DC0803B39F0E0F4BC
:104AF000803A09F479C0883A09F09CCF84E0809329
:104B00007C031092DB021092DA02E0913203F09102
:104B1000330309958091DA0281110FC081E08093FF
:104B2000DA021092BA0209C0803C09F4A6CF883C90
:104B300009F4A3CF883B09F07DCFE091DB0281E04F
:104B40008E0F8093DB02F0E0E654FD4F808180936E
:104B5000BB009091DB028091DA0229C0809177033B
:104B60008093BB0085EC8093BC0064CF9091790367
:104B700080917803981758F5E091790381E08E0FC2
:104B800080937903F0E0EA5AFC4F8081E9CFE0910D
:104B9000790381E08E0F809379038091BB00F0E070
:104BA000EA5AFC4F8083909179038091780398179B
:104BB000C8F285E8D8CFE091790381E08E0F809329
:104BC00079038091BB00F0E0EA5AFC4F808380912A
:104BD0007B0381115CCF81E08093760384EA80932C
:104BE000BC0010927C0326CF85EC8093BC00109211
:104BF0007C038091FC02803230F4E091FC02F0E012
:104C0000E452FD4F10826091FC0270E0E0913003AD
:104C1000F09131038CED92E009951092FC020ACFDD
:104C200010927A0334CF1F920F920FB60F92112475
:104C30002F933F934F935F936F937F938F939F93A4
:104C4000AF93BF93EF93FF93809128049091290431
:104C50000E948D1CFF91EF91BF91AF919F918F9119
:104C60007F916F915F914F913F912F910F900FBE68
:104C70000F901F9018951F920F920FB60F9211244C
:104C80002F933F934F935F936F937F938F939F9354
:104C9000AF93BF93EF93FF938091260490912704E5
:104CA0000E948D1CFF91EF91BF91AF919F918F91C9
:104CB0007F916F915F914F913F912F910F900FBE18
:104CC0000F901F901895CF92DF92EF92FF92CF93A3
:104CD000DF9310928C0310928B0398EEC92E93E011
:104CE000D92EE12CF12CC0928D03D0928E03E0924C
:104CF0008F03F092900382E591E090938A03809372
:104D0000890385EC90E0909396038093950384EC5F
:104D100090E0909398038093970380EC90E09093B9
:104D20009A038093990381EC90E090939C03809385
:104D30009B0382EC90E090939E0380939D0386EC0E
:104D400090E09093A00380939F031092A20310928F
:104D5000A3031092A4031092A5030E946907109266
:104D60004F0410924E04C0925004D0925104E0922D
:104D70005204F092530484E691E090934D048093A2
:104D80004C0480E58093C0041092A00410929F040C
:104D90001092A2041092A1041092A4041092A304F1
:104DA0001092A5041092A6041092A70480913101DC
:104DB00090913201A09133018093A8049093A904AB
:104DC000A093AA041092AB041092AC041092AD040C
:104DD0001092AE041092AF041092B0041092B1047D
:104DE0001092B2041092B3041092B4041092B5045D
:104DF0001092B60480E892EBA6EEBEE08093B70472
:104E00009093B804A093B904B093BA0462E082E02E
:104E10000E94C70762E083E00E94C707E2EAFAE067
:104E2000E491F0E0EE0FFF1FEA56F54FA591B49123
:104E3000B0939404A0939304E4E8FAE0449140937F
:104E40009704E3EAFAE0E491F0E0EE0FFF1FEA5680
:104E5000F54FC591D491D0939604C0939504E5E89D
:104E6000FAE0E491E093980410929A0410929B0463
:104E700010929C0410929D042BE33FE1C90101971D
:104E8000F1F79C91842F892391E009F490E08881C7
:104E9000E82309F0926023E934E090939904309379
:104EA000270420932604809169008C7F8160809381
:104EB0006900E89AC1E0C0939E04309329042093CE
:104EC000280480916900837F846080936900E99A57
:104ED00082E080939E0410925B0410925A0420E8B2
:104EE00030E030935D0420935C0480E290E0909386
:104EF0005F0480935E043093610420936004909378
:104F000063048093620410926E0410926504109200
:104F100064041092670410926604C0936D04C093F9
:104F20006C048FEF9FEF90936B0480936A049093CF
:104F3000690480936804C0936F0410927004109207
:104F400072041092710486E791E090935904809363
:104F500058048CE494E09093760480937504109246
:104F60007804109277048FEF80937C0480937D0403
:104F700080937E0480937F048093800480E58093F7
:104F80008D0410928E0480EA96E8A1E0B0E0809350
:104F90008F0490939004A0939104B0939204109284
:104FA00074041092730460E08FE00E94C707E1E987
:104FB000FAE0E491E0933E04EFEAFAE0E491F0E0F5
:104FC000EE0FFF1FEA56F54F8591949190934004A0
:104FD00080933F041092490410924B0410924A04AB
:104FE000109248041092470410924604109245040F
:104FF000109244041092430410924204109241040F
:105000008EE394E0909331048093300410922E0448
:1050100010922F0410922A0489E080932B04C093ED
:105020002C04C0932D0410923D0410923C04DF9197
:10503000CF91FF90EF90DF90CF900895CF93DF93C3
:10504000CDB7DEB760970FB6F894DEBF0FBECDBF09
:10505000789484B5826084BD84B5816084BD85B553
:10506000826085BD85B5816085BD80916E0081605F
:1050700080936E0010928100809181008260809305
:105080008100809181008160809381008091800007
:105090008160809380008091B10084608093B10032
:1050A0008091B00081608093B00080917A0084602C
:1050B00080937A0080917A00826080937A00809158
:1050C0007A00816080937A0080917A008068809372
:1050D0007A001092C100E0919903F0919A0382E066
:1050E0008083E0919903F0919A031082E0919503F7
:1050F000F09196031082E0919703F091980380E17C
:1051000080831092A103E0919D03F0919E0386E0BD
:105110008083E0919B03F0919C0380818061808378
:10512000E0919B03F0919C03808188608083E091F3
:105130009B03F0919C03808180688083E0919B03B6
:10514000F0919C0380818F7D808360E084E00E94E9
:10515000C70760E080E10E94C70761E08CE00E9421
:10516000C70761E084E00E943B0783E08093000171
:105170008091770490917804892B11F10E94D520B9
:1051800020915E0430915F0480915C0490915D04F5
:10519000213231050CF0B5C0B9016052710977FFB9
:1051A00002C06F5F7F4F759567958357910997FD93
:1051B000019600E210E023E730E042ED55E0B4C094
:1051C00020915E0430915F04C901079697FD079610
:1051D000B3E095958795BA95E1F720915C043091FD
:1051E0005D04AC01429FC001439F900D529F900D02
:1051F00011240E94BE349093780480937704892B05
:1052000009F0BCCF0E94D5200E943415E0913004F3
:10521000F091310413861586148612861186108645
:105220001782168215821482138210922E04109215
:105230002F0401E0BE016F5F7F4F80913004909199
:1052400031040E94CF1C882309F432C267E0CE01EA
:1052500001960E947F0898858913ECCF80912A04DB
:10526000811128C080913004909131040E943C0942
:10527000BE016F5F7F4F80913004909131040E9496
:105280001D0940E064EB80913004909131040E944C
:10529000E90880913004909131040E949608182FFB
:1052A00080913004909131040E943C09111102C098
:1052B00000932A0410912B048981803111F40C94FD
:1052C000CD31CE0101960E94C009811708F0DFC1DF
:1052D00080912B0480932B0480912E048F5F809308
:1052E0002E048981883239F008F0DBC1803119F051
:1052F000823209F09FCF80912F048F5F80932F041B
:1053000099CFB9016054710977FF02C06F5F7F4F79
:10531000759567958255910997FD019600E410E017
:1053200022E530E042EB57E0959587950E94EF0E1D
:1053300082E080937A048091750490917604892BA1
:1053400009F49AC08CE3809379040E9469078091E4
:10535000800487FD1EC061E00E94C70761E0809164
:1053600080040E943B0761E070E080E090E00E94D2
:10537000400860E0809180040E943B076AE070E092
:1053800080E090E00E94400861E0809180040E94EB
:105390003B078091750490917604892B09F42BC109
:1053A0008CE08093B80064E08EEC95E00E943114AC
:1053B00060915E04615088E594E00E94D41464E03A
:1053C0008AEC95E00E94311480917A0460E181308A
:1053D00009F064E188E594E00E94D41464E086EC6E
:1053E00095E00E94311480915C0490915D048038B6
:1053F000910509F02BC180915E0490915F04803289
:10540000910509F00FC164E082EC95E00E9431142F
:1054100069ED88E594E00E94D41480917A0462E2F8
:10542000813009F061EF88E594E00E94D41466E0D1
:1054300086EB95E00E94311480917504909176047A
:10544000892B09F41AC120918F0430919004409166
:1054500091045091920460E074E284EF90E00E9425
:105460000B3220513109410951095695479537951D
:1054700027952093B800C6CE61E080917E040E94FB
:10548000C70761E080917F040E94C70780917E0476
:10549000082E000C990BFC01E056F54FE491F0E06A
:1054A000EE0FFF1FEE58F54F25913491309386048F
:1054B00020938504FC01EE57F54FE491E0938B04B3
:1054C00080917F04082E000C990BFC01E056F54FEB
:1054D000E491F0E0EE0FFF1FEE58F54FA591B49167
:1054E000B0938804A0938704FC01EE57F54FE49134
:1054F000E0938C048C91E82BEC9380917304909151
:105500007404892B09F434C01FB7F8948091060302
:10551000811127C0EAEAFAE08491ECE8FAE094917C
:10552000E82FF0E0EE0FFF1FE455FA4FA591B4917C
:10553000EC91E92321F461E08AE00E943B0761E0FD
:105540008AE00E94C7078CB580618CBD8CB58064F1
:105550008CBD61E08DE00E94C70761E08BE00E9496
:10556000C707809106038F5F809306031FBFEFCEAE
:1055700061E080917C040E94C70761E080917D0416
:105580000E94C70780917C04082E000C990BFC0137
:10559000E056F54FE491F0E0EE0FFF1FEE58F54FA7
:1055A000259134913093820420938104FC01EE57BD
:1055B000F54FE491E093890480917D04082E000C5E
:1055C000990BFC01E056F54FE491F0E0EE0FFF1F60
:1055D000EE58F54FA591B491B0938404A093830441
:1055E000FC01EE57F54FE491E0938A048C91E0952D
:1055F000E823EC93ACCE8091730490917404892BD2
:1056000031F080918D0490918E040E943115E091CB
:105610008704F0918804908180918C04809589237F
:105620008083C1CE8034910509F0F2CE63E08FEB28
:1056300095E00E94311480917A046FE9813009F07D
:105640006FEC88E594E00E94D414E2CE8036910598
:1056500009F0DECE80915E0490915F04409709F0DE
:10566000D7CE63E08CEB95E00E94311480917A04F0
:1056700060E1813031F36FEAE4CFE0918704F0918B
:105680008804808190918C04892B8083BBCD898193
:10569000803111F48CE01ECECE0101960E94C0092B
:1056A00019CE8B3309F427CE823409F0C3CD23CE33
:1056B0001A82198242E050E0BE016F5F7F4F90E096
:1056C00080E00E94811F22E0E22EF12C10E000E039
:1056D000C7010E945A1F080F111D5FEFE51AF50A56
:1056E00085E1E816F104A1F70F5F1F4F89819A81C8
:1056F0000817190709F0CFC043E150E061E171E0FC
:1057000082E090E00E94811F0E949E1F1092A804D8
:105710001092A9041092AA0460E880E10E949A17EE
:1057200060E881E10E949A1760E882E10E949A177E
:1057300080E896E3AEEBB6E28093270190932801D0
:10574000A0932901B0932A0162E987EB0E949A177E
:105750000E947A1B0E94941B0E946A1C0E947C1C5F
:105760000E944F1D0E94971E0E94D5201092650432
:1057700010926404109267041092660481E090E035
:1057800090936B0480936A049093690480936804F7
:1057900083E080936C0480936D0481E091E00E942B
:1057A00087200E94341568EE73E080E090E00E944C
:1057B00040080E94F5209CE7292E9AE0392E84E0CB
:1057C0000E94120720910901892B09F07AC5222332
:1057D00061F0109209010E947308609307037093AF
:1057E00008038093090390930A0380919E048230FA
:1057F00008F068C0F89483E994E00E948D1C6091E1
:105800009A0470919B0480919C0490919D047894DB
:1058100024E030E040E050E00E94E13169017A018B
:1058200080912101882341F0F094E094D094C094B9
:10583000C11CD11CE11CF11C80900D0390900E0343
:10584000A0900F03B09010038C149D04AE04BF040D
:1058500009F4DCC0E0912F039FEF9E0F943018F401
:1058600091E090930C03E03108F0B9C0F0E0E55C02
:10587000F34D0C940A34642C722D922DB02DF42D1E
:10588000FB2D1D2E3B2EA82E152F5D2F822FA02F16
:10589000C02FDC2FED2F0E941F1B36CF10922F033D
:1058A00030C58F5F853059F080932F0380912F038F
:1058B000803108F43FC585E080932F033BC51092EB
:1058C0002F03F4CFF8949BCF40900B0150900C0124
:1058D00060900D0170900E01A0911001B0E020EADF
:1058E00036E841E050E00E9400326D877E878F8766
:1058F000988BA0910F01B0E00E94003269877A87EF
:105900008B879C878C149D04AE04BF040CF0BAC036
:105910002D853E854F855889241535054605570543
:1059200050F1E0911101F0E0EE0FFF1FE65CFE4F39
:1059300020813181AAE0B0E00E942D324B015C0150
:10594000C301B201A50194010E940B32480C591CFD
:105950006A1C7B1C611571058105910521F0461AB1
:10596000570A680A790A40920B0150920C01609222
:105970000D0170920E0180910B0190910C01A0918C
:105980000D01B0910E0129853A854B855C85821702
:105990009307A407B50740F420930B0130930C0143
:1059A00040930D0150930E0180910B0190910C01D9
:1059B000A0910D01B0910E012D853E854F8558892E
:1059C000281739074A075B0740F420930B013093EF
:1059D0000C0140930D0150930E010E94941B0E94F4
:1059E0007308609326037093270380932803909392
:1059F000290381E0809325030E94F520C0920D03C6
:105A0000D0920E03E0920F03F092100381E10E9406
:105A1000120720912E03892B09F49AC421110EC07C
:105A200081E080932E0310921203109211030E94C2
:105A3000941B80912E03882309F4ABC380912F031C
:105A4000882309F4A6C3809124038111A2C3809105
:105A500024018C3009F0F1C2F101149117FD94C3B7
:105A600061E08CE00E94C707112309F457C312308C
:105A700009F06BC38091B100887F84608093B1008E
:105A800089EF0CC4C814D904EA04FB040CF073CFEA
:105A900089859A85AB85BC85481659066A067B06BA
:105AA00008F469CFE0911101F0E0EE0FFF1FE65C12
:105AB000FE4F20813181AAE0B0E00E942D324B01DF
:105AC0005C01C301B201A50194010E940B32611572
:105AD00071058105910509F042CF481859086A08F7
